:020000022000DC
:106000000000042061620200B9620200BB6202006B
:10601000BD620200BF620200C16202000000000017
:10602000000000000000000000000000C362020049
:10603000C562020000000000C7620200C9620200DF
:10604000A58E0200CF62020065930200D3620200B7
:1060500099950200D7620200C19102008993020063
:10606000DD6202003995020049950200E3620200F8
:10607000E5620200E7620200E9620200EB620200F0
:10608000ED620200C96B0200F1620200F3620200DD
:10609000656C0200F762020061D80200FB62020038
:1060A000FD620200FF62020001630200036302005E
:1060B0000563020007630200CB620200CB620200AC
:1060C000096302000B6302000D6302000F6302000C
:1060D00011630200136302001563020017630200DC
:1060E000196302001B6302001D630200CB62020001
:1060F000CB62020021630200CB6202001F63020038
:10610000364937480A1A02D0072291438D4635494D
:1061100035480A1A06D00722914381F309880222E2
:1061200082F3148831483249324A00F045F8324847
:106130003249334A00F040F832483349334A00F0DC
:106140003BF833483349344A00F036F83348344991
:10615000344A00F031F834483449354A00F02CF81C
:1061600034483549354A00F027F83548354900228A
:1061700000F02DF834483549002200F028F8344862
:106180003449091A082903DB002202600430016047
:10619000314A90471F482049884205D002680430A0
:1061A00003B4904703BCF7E700208646EC46002086
:1061B00000212A4A9047FEE7884207D0521A05D0AC
:1061C000037801300B700131013AF9D170478842F0
:1061D00002D002700130FAE770470000000004208E
:1061E00000E00320000004200000042044EB020033
:1061F000F82A0020312B00202463020024630200CF
:1062000082DD020044EB0200F82A0020F82A002078
:106210001CDF02001CDF02001CDF02001CDF02008A
:106220001CDF02001CDF02001CDF02001CDF02007A
:1062300044EB020080EB0200342B0020342B0020C2
:10624000342B00201C3900201C3900201C39002070
:106250001C3900201C59002085620200D19D0200DB
:106260000F484FF00701884385460E4880470E4887
:10627000016841F470010160BFF34F8FBFF36F8F6E
:10628000FFF73EBF09480A490A4A884207D0521A16
:1062900005D0037801300B700131013AF9D1704714
:1062A00000000420AD89020088ED00E0BCDE0200A1
:1062B000982A0020F82A0020FEE7FEE7FEE7FEE726
:1062C000FEE7FEE7FEE7FEE7FEE7FEE7FEE7FEE7A6
:1062D000FEE7FEE7FEE7FEE7FEE7FEE7FEE7FEE796
:1062E000FEE7FEE7FEE7FEE7FEE7FEE7FEE7FEE786
:1062F000FEE7FEE7FEE7FEE7FEE7FEE7FEE7FEE776
:10630000FEE7FEE7FEE7FEE7FEE7FEE7FEE7FEE765
:10631000FEE7FEE7FEE7FEE7FEE7FEE7FEE7FEE755
:04632000FEE700BFD5
:10632400037813F0030F03F0040202D012B91046ED
:106334007047B2B103F00303012B03D0022B09D041
:10634400012070470A6800880232C0F383100244B7
:106354000A60F5E70B684288023303EB92130B6083
:10636400EEE70B684288013303EB92130288F4E7EB
:106374002DE9F04F89B00546861C08A8484C0192C7
:1063840000230F4600F8113D00F056FE23683B60E1
:10639400D4E901231344226801339B1A04F21C47F5
:1063A40004F5836A04F21448B3421AD3019A002311
:1063B400002A6DD0012262F3010343F0040365F364
:1063C40089132168A2689DF80F000A4003320E4425
:1063D40044F82230266000F053FE012009B0BDE8E5
:1063E400F08F0121384601F0B5FE504601F0CBFE96
:1063F400404601F0C8FE0DF120096068D4F808B0E9
:1064040049F8100D00EA0B00033004EB8000494604
:10641400FFF786FF049BB0B90BEA030204EB820288
:10642400D16805919A1C013303EA0B0B04EB8B0C26
:1064340001F00303012B0492DCF80CB020D0022BF2
:1064440004D083460BE00BEA0300DDE7BDF8163009
:106454009B0903334FEA1B4B02EB9303049340461F
:1064640001F094FE08B1049B63605946384601F07C
:1064740071FED4E901231344226801339B1A93E784
:10648400BDF81430C3F383134FEA1B4B1344E5E701
:10649400022262F3010343F0040365F39F5390E780
:1064A400042C0020034BD3E90030C31A584258414E
:1064B400704700BF042C00202DE9F04387B0FFF79C
:1064C400F1FF0746002840F0F5807B4DC5F818041D
:1064D400BFF34F8F6868AC680DF1180848F8100DC9
:1064E4002040033005EB80004146FFF719FF029B73
:1064F400064600285FD104EA0302991C013305EB28
:106504008202234005EB8303D268DB68049302F024
:106514000303022B0392029162D1BDF80E30674847
:106524004FEA9318B8F1500FC14628BF4FF05009F5
:1065340069F38F1309F10801ADF80E3002F03CF94C
:106544000746002800F0A48002F065F9334603A949
:106554000822384602F072F9029924EA010601364B
:10656400B600B14535D95FFA89F97EB3F6B2A9EB25
:106574000609214003315FFA89F4B146504E05EB18
:10658400810108234A46384602F058F936B109F128
:10659400080322463146384602F050F9029B08F1BE
:1065A400030803EB98030293D5F81834002B4AD15F
:1065B400D5F8104458E02A689A4204D86A603846EC
:1065C40007B0BDE8F08304EA03008AE73C49344697
:1065D400D7E72140033108234A4605EB8101DAE776
:1065E400012B55D1BDF80C303448C3F3831106296F
:1065F40028BF062161F3891302318900ADF80C30FC
:1066040002F0DAF80746002842D002F004F93346D3
:10661400082203A9384602F011F9BDF80C20C2F390
:106624008312B31C96424FEA8303BDD202994A1CDB
:1066340021400331029205EB81010422384602F025
:10664400FDF80136E9E7384602F0E9F8FFF72AFFDA
:1066540080F00100C7B2B2E7637A23B123683946F8
:106664001B68204698476468002CF5D1384602F030
:10667400D6F806A800F8114D00F0DEFCD5F8183461
:106684000BB9029B6B609DF8070000F0F9FCDDE795
:10669400D5F8104444B90B4B0B491888000440F05A
:1066A400020000F06BF8D1E7236820469B68984706
:1066B4006468EFE7002782E7042C00200CDE020068
:1066C400102C0020CC2A00201CDF02002DE9F74FFB
:1066D400284C80460F46924601A9012218469B4643
:1066E400D4F80890FFF744FE88B3019D0026A91C46
:1066F4005E4506EB010234D100211F4801F0E9FC9C
:1067040080F310006A1C02EA090204EB820200040E
:1067140005EA0903033340EA1840D06014F8232043
:1067240068F3C50204F8232034F8232066F38912A1
:1067340024F8232054F82320012167F39F2244F8EE
:10674400232061F301026FF3820204F8232094F8FA
:1067540020341BB1FFF7B0FE0028FBD103B0BDE825
:10676400F08F09EA020204EB82025AF82630D36061
:106774000136BDE7042C00202030002000231A46F7
:10678400FFF7A4BF13B502AC012344F8042D22463D
:10679400FFF79CFF02B010BD07B5CDE9002302232B
:1067A4006A46FFF793FF03B05DF804FB1FB5CDE91C
:1067B4000123069B039301AA0323FFF787FF05B078
:1067C4005DF804FB084A38B50123D2F8104482F876
:1067D40020341D4604B938BD2368657220465B68C1
:1067E40098476468F6E700BF042C00202DE9F04FB9
:1067F4003B4F89B000263B4B1B78F5B2AB4202D825
:1068040009B0BDE8F08F384B196811F83500012440
:10681400A0F12002C0F1200304FA02F924FA03F3E0
:1068240049EA0309D7E9002304FA00F8CDE904236F
:1068340002EA080203EA0903134301EBC50B4CD037
:10684400DDE9042322EA080223EA0903C7E9002355
:10685400079102F0A3FC0799844611F83500A0F1D2
:106864002002C0F1200324FA03F304FA02F21A43CB
:1068740004FA00F300931D4B0192DDE90045D3E9CE
:10688400002314401D4022462B465FFA8CF4002559
:10689400CDE90445049CA0F12005AC400394049C7C
:1068A400C0F1200124FA01F1039C0C4304990394E0
:1068B40081400291DDE90245AB4208BFA2420CD1FE
:1068C4009BF801104B1E59425941A1EB0C02DBF815
:1068D40004305142514103B1984701368BE700BF60
:1068E4005830002028300020603000205030002034
:1068F4002DE9F84F0646244800F08EFB002841D1CC
:106904000123A6F12001C6F1200203FA01FB23FAB8
:1069140002F203FA06FA1D4BD3E900014BEA020B1B
:1069240000EA0A0801EA0B0958EA09021F4623D1C2
:10693400304602F033FC164BB8B1D3E9000140EA0B
:106944000A0441EA0B05C3E90045D7E900234BEAF1
:106954000305104B0C4819684AEA0204C7E90045CC
:106964000022BDE8F84F00F013BBD3E9000120EA90
:106974000A0421EA0B05E6E720EA0A0421EA0B05EA
:10698400C3E90045BDE8F88F3030002058300020BE
:10699400503000202C300020042A2DE9F341054614
:1069A4000C4616463AD902F01FFBD8B11C4B1D49C0
:1069B4001D601D4BDFF884801C701C4B00221E6080
:1069C4000023C1E900231A49C1E90023013CE4B2D0
:1069D40000260327FF2C0CD1164A1748002100F08B
:1069E400C5FA03E002F0C8FA0028DFD002B0BDE81F
:1069F400F08123B205EBC30201A992788DF805203A
:106A040015F833008DF8066042468DF8047002F0E4
:106A1400F5FA013CE4B20028DCD0E7E70720E5E71B
:106A24006030002050300020283000202C3000201E
:106A340058300020F167020044DF0200F5680200CC
:106A440070B5084D084E00242B789C4201D30020D9
:106A540070BD3368012113F8340002F055FB013492
:106A6400F2E700BF28300020603000201FB500216D
:106A7400039001AA44F20100CDE9011100F004F8E9
:106A840005B05DF804FB000010B572B6FFF79AFE7E
:106A9400FFF712FD0028FBD1104C11492088000497
:106AA40040F00100FFF76AFE0E4B1B68DB0700D5C0
:106AB40000BE20880C49000440F00200FFF75EFE8F
:106AC400BFF34F8F09490A4BCA6802F4E0621343CB
:106AD400CB60BFF34F8F00BFFDE700BFCC2A00207F
:106AE40048DF0200F0ED00E054DF020000ED00E0BA
:106AF4000400FA05094A537891780133DBB29942CC
:106B040008BF0023117899421FBF037050781823DF
:106B140003FB002014BF04300020704764300020C1
:106B240073B5054602A8002400F8014D0E4600F096
:106B340083FA0DF10600FFF7DDFF90B106700A4BF2
:106B44009DF8062045605A709DF8070000F098FAF9
:106B540024B9064B4FF48012C3F80021204602B03A
:106B640070BD0424F0E700BF6430002000E100E0C1
:106B7400024B4FF43C6043F00103184770DF0200FE
:106B840038B50C4B0C4C4FF40032C3F8802001256F
:106B94004FF48033C4F84833C4F808336560FFF712
:106BA400E7FF064BA56000241C60FFF7E1FF044BE0
:106BB4001C7038BD00E100E000100140803100206D
:106BC40071310020F8B51F4B1F491B680025C1F81F
:106BD4004051C1F84451C1F84851C1F84C51C1F871
:106BE4000051C1F804514BB3D1F804451749096861
:106BF400641A24F07F442F461A68A24209D8A41AC2
:106C040015441A7CDE691AB11F74D3E90520904734
:106C1400AEB90F4B0F4A197813788B4205D1013363
:106C2400DBB2022B08BF0023137012780A4B43F81F
:106C340022500A4B4FF48012C3F80021F8BD3346AA
:106C4400DAE700BF843100200010014080310020C9
:106C54007C3100207D3100207431002000E100E00F
:106C64002DE9F74F9E4A9F49137809789E4D994222
:106C74003CD00133DBB2022B08BF002313709B49C5
:106C840012789B4B0F6853F822003B1823F07F4384
:106C940000220B602B6816461446944613B942B181
:106CA4002B6006E0196881420ED902B12B60091AE3
:106CB40019604FF001082B68DFF83CA2009300270D
:106CC400BEB9DFF83CB260E0401A0C44D968C3F89E
:106CD40000C0D3F81CE031B13A1922F07F42C3E975
:106CE4000121DE611E4601227346D7E70026B04625
:106CF400E1E73446F6697D4A63681268DFF804C246
:106D0400A068991A21F07F41614500F2A5800144F1
:106D14002160012222742A680023C4E90133E3615B
:106D2400002A40F0A2802C60CAE75A1C9BF802108B
:106D3400D2B291428BF8002004BF00228BF80020CD
:106D4400182202FB03B32A6819799C68022974D0BB
:106D540003297ED0012918D1217CB1B9DA68626097
:106D64001A69A2605A699B69A361624BE2601B784D
:106D7400002BC0D06160BEE79C4200F0938099462E
:106D8400DB69002BF8D1002323749BF800309BF8B7
:106D940001209A42C9D12B682FB9009A934202D19B
:106DA400B8F1000F43D0002B79D0D3F800A0524D96
:106DB4004E4BD5F804751C68DFF84C813E1B98F8DF
:106DC400003026F07F4603369BB94FF48033C5F874
:106DD4004433C5F80433494B4FF400324FF00109F2
:106DE400C3F880211A60C5F80090FFF7C1FE88F847
:106DF4000090B2452CBF5444A41924F07F44C5F834
:106E04004045D5F80435DB1B23F07F43E41B0333F3
:106E140024F07F44A3420AD9D5F80435C5F8403597
:106E2400FFF7A6FE354B4FF40032C3F80021314B77
:106E340000221A7003B0BDE8F08F13469146A0E714
:106E44001174D2690123002AFAD1002B9DD02A6043
:106E54009BE700231946F6E7D31A23F07F438342C6
:106E640034BFC31A0023236053E72168136899428F
:106E740013D8591A1160E26155E7091AD8691A46FC
:106E840038B1034618688842F7D3401A1860184688
:106E940013462160E061DC6112E71346F2E7FFF775
:106EA4006FFEC4E74C450DD1D3692B6053B90F482D
:106EB40001920121CAF8081003600E4B1970FFF704
:106EC40057FE019AE1692368C9F81C1011B10868DA
:106ED40003440B602B689A4218BF012753E700BF95
:106EE4007C3100207D31002084310020803100205D
:106EF40074310020703100200010014000E100E0F6
:106F040064300020FEFF7F007131002008B5FFF7D8
:106F140037FE104B00200B2218809A700E4B18601D
:106F24000E4B18700E4B18700E4B4FF48012E0216C
:106F3400C3F8802183F814131A6002F18042A2F589
:106F44006F22C2F8080583F81113074BD2F8042501
:106F54001A6008BD64300020843100207C31002098
:106F64007D31002000E100E080310020074B9B7858
:106F74004BB132B128B10368187C20B959745A61F5
:106F84007047072070470820704700BF6430002016
:106F94002DE9F7431D4FBB7805460E4690469BB33B
:106FA40090B304292ED9436973B3437C02A8002407
:106FB400012B00F8014D0CBF8946A14600F03CF8B6
:106FC4000DF10600FFF796FDD0B101230370104BBD
:106FD4004560D3F80435C0E90498C0E902369DF849
:106FE40006307B709DF8070000F04AF824B9094B7D
:106FF4004FF48012C3F80021204603B0BDE8F083AB
:107004000424EFE70724F7E70824F5E764300020B9
:107014000010014000E100E0064A92783AB130B134
:10702400426922B1002202740221FFF779BD0820CF
:10703400704700BF6430002070B5EFF3108672B65D
:107044000C4A946801239CB993600B4B0B4DD3F805
:10705400801029401160C3F88050D3F88410516027
:107064004FF0FF32C3F88420047006B962B670BDD5
:107074000370FAE78831002000E100E0FC06FFBD60
:10708400084B9A6810B55AB150B9EFF3108272B632
:1070940005491C680C605C684C60986002B962B673
:1070A40010BD00BF8831002000E100E070B5064E3D
:1070B4000546002456F824300BB12846984701347D
:1070C400042CF7D170BD00BFA0310020033080B282
:1070D40040F2FD33984230B51FD8124B1A783AB9B2
:1070E4001C895D892C440444A4B2B4F5806F0AD38E
:1070F4001A7DA2B99A8BDC8B2244024492B2B2F577
:10710400806F0CD201220A801446142202FB04333D
:107114005A8910445881002030BD0920FCE707201B
:10712400FAE700BFD43100200B4A0C4B51881420DD
:1071340000FB0131CB6833B9042049681070012287
:10714400074801F015B905230649137002238B8003
:10715400012200230968F3E7B8310020D43100206C
:10716400982A00208C32002007B50023054900939B
:10717400054A09680548082301F076F803B05DF86C
:1071840004FB00BF8C32002084DF0200982A002018
:1071940007B50023009301460823034A034801F07E
:1071A40063F803B05DF804FB7CDF0200982A00203A
:1071B40013B500230C46009301460423074A0848EC
:1071C40001F052F838B9074B142202FB04340123AE
:1071D400237402B010BD0E20FBE700BF78DF02006D
:1071E400982A0020D431002037B50A480A4B426857
:1071F4009C88196853880325033305709BB20020CB
:1072040000909B0001EB8401044801F02DF803B0C9
:1072140030BD00BFB83100208C320020982A0020F5
:1072240010B50146044800F088FE1C2204460021E3
:1072340006F042FD204610BDF82A0020438803339F
:1072440000EB8303994209D382884FF6FF739A4275
:1072540006D00088B0FA80F04009704702207047D9
:10726400012070472DE9F8430223DFF860800B808A
:107274000D46174600F5805600F108044FF0010949
:10728400B4420FD2236801330CD031462046FFF7B5
:10729400D5FF48B10FB187F8009002280BD14FF405
:1072A40080632B80BDE8F883A368D8F8002093425C
:1072B40001D9C8F800302B886288033313442B802B
:1072C4006388033304EB8304DAE700BFCC31002086
:1072D400144A142303FB002070B50B6844680D4660
:1072E40004F580569BB15C88033403EB8404B442F8
:1072F4000BD22368013308D031462046FFF79EFFA6
:10730400012809D005D30228F1D1002003E0083474
:10731400EDE72C60012070BD6388033304EB830424
:10732400E5E700BFD4310020436873B505460C4639
:107334006BB3254AD1688B4229D31269934226D86C
:1073440013F0030223D121490089098988421ED1FF
:107354002868996888421AD11D494868834203D92C
:1073640000F5805083420ED38A6993420DD902F509
:107374008052934209D2012323800020B0FA80F086
:10738400400902B070BD1346F6E70A20F6E7002371
:1073940023801E462388012B01D90020F1E70196A2
:1073A40001A92088FFF794FF18B9238801332380AB
:1073B400F0E7019B2A6899689142F1D16B60034B15
:1073C4001B892B81DDE700BF982A0020B8310020FB
:1073D400D43100202DE9F8431C461E4B1B78064689
:1073E4000F461546002B30D0002A30D07CB3DFF88E
:1073F4006C804FF01409A388012B01D90A201AE0EC
:1074040009FB03F318F80330BBB1A3880133A3804D
:10741400F1E723681EB19988328891420DD11FB1DA
:1074240019883A88914208D19A68C5E900230A4B21
:107434001B892B810020BDE8F8832146A088FFF733
:1074440047FF0028E5D12060DFE70220F3E70520AD
:10745400F1E700BFB0310020B8310020D431002062
:1074640008B5074B191D5888FFF732FF18B1BDE85E
:107474000840FFF7B9BEBDE80840FFF755BE00BF9E
:10748400B83100202DE9F04FA04FDFF8A49289B065
:107494000646B8463B6823B949469D4800F087FD37
:1074A4003860D8F8005029784B1E052B00F2128161
:1074B400DFE813F0060076007600060106015D01A0
:1074C40026B1944B00225A60012424E02B79032B2B
:1074D4001DD8DFE803F01502424D8F490B78022BCB
:1074E400084631D00B7D022B4FF001032ED114221C
:1074F4005343C2180020C8545068FFF749FE03E004
:1075040001232B71FFF730FE002800F0D380814B5C
:1075140000225A600E241422002103A806F0CCFB9A
:1075240041F61D539C4208BF0024D8F8003004944F
:107534001A78023A042A00F2D381DFE812F0B40187
:10754400C001E301EB01F2010023D0E7714A13709B
:107554000023536041F61D54DDE770497048002351
:1075640002222B718A800122096800F001FFCBE717
:107574006A4C00262E712068674DFFF709FE694B9F
:10758400D4F800C05A8814235343EA18EE545168BF
:107594002160A188C2F804C011810222A280B3E74D
:1075A400B5F814A0AA7DDFF870B1AEB1022AEB8859
:1075B40006D9142101FB0AB1DA1C088902440A81A4
:1075C400142202FB0ABAC3F57F43BAF80A20FD333A
:1075D4001344AAF80A3077E7142303FB0AB3188983
:1075E4005C6804EB8004062A05D8DFE802F0264C28
:1075F40034421C5866000F24AA7DEB88022A06D95F
:10760400142101FB0AB1DA1C088902440A811422FC
:1076140002FB0ABAC3F57F43BAF80A20FD331344C8
:10762400AAF80A3077E74048404900234360AB6931
:107634000360FFF779FE00285AD00223AB750023BC
:1076440000930423EA182146354800F00DFE002873
:1076540030D00E24D0E72B69002B0CBF0123032369
:10766400AB750023009305F10C02042304F1080117
:10767400EAE70123AB750022EB8800929B002A699C
:1076840004F10C01E0E7032914BF06230523AB75BD
:1076940000230093042305F10802E118D4E706232C
:1076A400AB75224B1988204B5868FFF781FD0446BF
:1076B4000028A1D109B0BDE8F08F41F61D549BE725
:1076C400002E7FF401AF2B79012B33D004D3022B8E
:1076D4003FF440AF0F241EE702232B710DF10A0182
:1076E400EB68039303A8CDE90466FFF71DFE08B910
:1076F4000A2410E70498BDF80A108388EB800388F5
:107704002B81FFF755FD044627E000BFD031002050
:10771400F82A0020B0310020D43100208C3200201F
:10772400982A0020B831002094310020983200209B
:10773400C8310020DFF808A203AA53463146A81D29
:10774400FFF748FE044660B9BAF804100498FFF73E
:107754002FFD04460A2C3FF4FDAE002C7FF4DBAE73
:10776400A8E708223146504606F0A6FAF2E7002EB2
:107774007FF4AAAE6D4B1A7BB2B11E731A78013A2C
:10778400062AA7D801A151F822F000BF37780200D9
:107794005D7802007B78020081780200D9760200CD
:1077A400877802009D7802001A78072AE6D801A19A
:1077B40051F822F0D9770200817702008177020024
:1077C400FF77020013780200337802003378020056
:1077D400FB7702001A89564901321A8100225A8025
:1077E4001A730A78B2FA82F252099A720A7DB2FACC
:1077F40082F25209DA72012207E04E4958688A88F7
:107804004088033202448A8002221A70B6E7484C48
:107814005A884849142505FB024208685468506098
:107824008888108102228A800C600622EDE70722F4
:10783400EBE79A7A32B9DA7A8AB900221A705A8056
:107844005A6087E63A4900229A72CA68002AF2D13D
:10785400097C0029EFD05A80FFF702FE53E700228B
:10786400DA72334A116A0029E7D192F82420002AF7
:10787400E3D00122EFE7FFF7B7FC44E7FFF754FC3E
:1078840041E706221A702A4A5B88142101FB03236C
:107894005868FFF77DFC36E707221A7000225A6009
:1078A400FFF762FC2FE701228DF80C201A89ADF84E
:1078B40018209A88DB68ADF81A20059310E002229C
:1078C4008DF80C201A89ADF818209A88ADF81A2082
:1078D400DA689B7D05929A1F534253418DF81C3000
:1078E40003A8FFF7E3FB002649461348C8F80060E5
:1078F40000F088FB0121114800F037FC00287FF4D8
:10790400C9ADD7E603228DF80C20DA88ADF818202B
:107914001A89CFE70422DB888DF80C20ADF81830E3
:10792400DEE705238DF80C30DAE700BFB83100201C
:10793400D43100208C320020F82A00208832002024
:107944009C3200204068FFF79DBD000008B501216E
:10795400044800F0F4FB18B9BDE80840FFF792BDF5
:1079640008BD00BF883200202DE9F3419846354B0D
:107974001B7806460D46002B5BD000295BD0098896
:107984004FF6FF73994258D06B88002B55D06B6823
:107994009B0754D14AB92F890DF102013846FFF7EC
:1079A40095FB30B102B0BDE8F08113885788ADF87B
:1079B400023001A8FFF734FC044658B9BDF8023080
:1079C400214A142101FB032358890338C01B588121
:1079D4000820E7E700238375BDF8023083826B68D3
:1079E400036180F800800121184800F0B3FB2B8864
:1079F4002381B8F1030F6B88A38004BF0423A3750C
:107A04004FF0000508BF3368E06008BFA361E7805A
:107A1400658101A90E4800F0BAFA36B1E368336013
:107A24000C4B75601B89B5723381FFF78FFF002003
:107A3400B8E70220B6E70520B4E70420B2E7032044
:107A4400B0E700BFB0310020D4310020CC31002099
:107A5400F82A0020B831002008B5084B1A68042A17
:107A640009D01968064A42F821000121184600F09D
:107A740071FB002008BD0C20FCE700BF94320020FD
:107A8400A03100202DE9F04F89B01422002103A871
:107A940006F012F97B4A137803F0FF010091904637
:107AA4003BB103A8FFF702FB0026304609B0BDE84E
:107AB400F08F101D00F064FB05460028F4D14FF050
:107AC40010234FF080525B6911695269DFF8DCA121
:107AD400581C08BF02FB01F3CAF810300022A3F5BA
:107AE40040536949CAF80C30504600F08FFB0646F3
:107AF4000028DAD11C238C226449654800F0E8F997
:107B04003746B3464FF003093446CDF804A0019B31
:107B1400D9680BEB010002465BF80110002835D050
:107B24005C4B994232D141685B4B994215D0013389
:107B340099422BD1009BDFF86CA1002B59D1002274
:107B44005649CAF80000FFF78DFBBAF80420022A50
:107B540014BF0822042217433AE051494FF0140C91
:107B64000CFB04FC01EB0C024FF0000E01F80CE0DE
:107B740050600CF110020CF1080C0A446144FFF748
:107B840071FB47F002070134A4B221E000F5805CE8
:107B94001168013167D104329445F9D1414A116821
:107BA40029B9022101231060918000930EE0142270
:107BB40062433B4B4FF0020E991803F802E03A4A35
:107BC400486054800134A1F808E0A4B247F00107EA
:107BD4000BF5805BBBF5405F99D1B9F1010F88BF0C
:107BE4003D46EDB2022D02D0062D12D0DDB90B2692
:107BF4005BE72B4B1422624399184FF0020C03F8F5
:107C040002C00134DAF800204A60A1F808C0A4B226
:107C140095E7012388F8003003A80023C8F804304E
:107C2400FFF744FA41E702A8FFF7FAFAC8B10123C3
:107C3400013D03700A2D09D8DFE805F0060806089F
:107C4400070807080F110F000023037102A9104849
:107C540000F09DF9FFF77AFE27E70323F5E70223F7
:107C6400F3E7082621E70E491422624301EB020CD4
:107C740009F1FF39CCF8040003201FFA89F988546C
:107C840081E700BFB031002078E10200FC31002020
:107C9400F82A0020DEC0ADDEFE011EF19032002085
:107CA400D43100208C320020B8310020982A0020E2
:107CB40073B50D460446C8B1C1B10DF10601FFF715
:107CC40033FBA8B10B4BBDF806006668142202FB17
:107CD400003001210C3000F03DFA63682E600C3353
:107CE4006B600123A372002002B070BD0520FBE786
:107CF4000A20F9E7D431002013B50446A8B10DF1E8
:107D04000601FFF711FB90B10B4ABDF806301421B0
:107D140001FB0323DA6862B1A27A52B1DA68002067
:107D2400013ADA60A07202B010BD0520FBE70A2018
:107D3400F9E70620F7E700BFD43100200B4B1B788E
:107D440037B504460D4663B168B10DF10601284606
:107D5400FFF7BCF918B9BDF806302380658003B07D
:107D640030BD0220FBE70520F9E700BFB031002059
:107D7400104B1B7810B5B3B1B8B10288022A16D8DB
:107D84000D494388142404FB02129C1C51898C4223
:107D94000DDAC3F57F43FD330B4453810023038085
:107DA4004380184610BD0220FCE70520FAE70420B2
:107DB400F8E700BFB0310020D431002002230022B4
:107DC400FFF7D2BD12B10223FFF7CEBD05207047E5
:107DD40018B103230022FFF7C7BD05207047000038
:107DE400104B1B7813B50446ABB14FF6FF739842A2
:107DF40013D001A8FFF714FA88B1052303700123F7
:107E04000371C48001A9084800F0C1F8FFF79EFD82
:107E1400002002B010BD0220FBE70420F9E708208F
:107E2400F7E700BFB0310020F82A00200E4B1B7882
:107E340007B5A3B101A8FFF7F3F990B106230370C6
:107E440001A90A4800F0A3F8094B1A780AB10122E3
:107E54001A73FFF77BFD002003B05DF804FB0220DA
:107E6400FAE70820F8E700BFB0310020F82A002024
:107E7400B831002007B5ADF8060002A820F8041DAB
:107E840001460DF10600FFF7A5FA03B05DF804FB07
:107E940013B502AC134624F8020D0A46002021460D
:107EA400FFF798FA02B010BD13B502AC134624F8DC
:107EB400020D0A4620460021FFF78CFA02B010BDDD
:107EC40020B119B103680B6000207047052070478A
:107ED40010B561B1B2FBF3F403FB1424A4B244B9AA
:107EE400C0E9001484608281C381204610BD0E2045
:107EF400FCE70920FAE782B050E8022FC188B2EB10
:107F0400324F4FF0000317BF92B241EA014142EAF7
:107F1400014104E04268B2EB324F08BF012340E85C
:107F24000212002AE8D18DF807309DF80730002BA3
:107F34000CBF1120002002B0704737B550E8013F54
:107F44009DB2C48925448489A54228BF2D1B048978
:107F5400A54202BFBFF32F8F002207E0C5EA030545
:107F640040E80154002CE9D14FF001028DF80320C0
:107F74000193019B9DF803200B6002F0FF0322B1E3
:107F84000B880068184403B030BD1846FBE70A8824
:107F94004B889A4209D150E8012FC2EA024240E8D4
:107FA4000123002BF7D1012070470020704737B51B
:107FB40050E8023F1FFAA3F5C488A54202BFBFF3ED
:107FC4002F8F00220DE0C48925448489A54228BF4F
:107FD4002D1BC3EA054540E80254002CE8D14FF0BC
:107FE40001028DF803200193019B9DF803200B608F
:107FF40002F0FF0322B14B880068184403B030BD7F
:108004001846FBE70A884B889A4209D150E8022FA8
:10801400C2EA224240E80223002BF7D10120704734
:108024000020704701F01F024B090121914000EB31
:10803400830000F063B84B0910B501F01F0401215F
:10804400A14000EB830000F04EF8E04000F0010096
:1080540010BD01F01F0301229A404B0900EB83007D
:10806400D14300F061B84B0901F01F0150F823001F
:10807400C84000F0010070472DE9F0474E1E760914
:1080840080460F460136002558F8254008EB850A3E
:10809400E44394FAA4F4B4FA84F44FEA4519202C86
:1080A40006D10135AE42EFD83C462046BDE8F08704
:1080B4004C44A742F5D921464046FFF7BCFF0028AF
:1080C400F3D0DAF80040E44394FAA4F4B4FA84F464
:1080D400E5E750E8002F0B4640E8003C9CF0000F19
:1080E400F7D11046704750E8002F42EA010340E8F8
:1080F400003C9CF0000FF6D11046704750E8003F5A
:1081040043EA010240E8002C9CF0000FF6D110462F
:10811400704750E8002F02EA010340E8003C9CF05D
:10812400000FF6D11046704750E8003F03EA010201
:1081340040E8002C9CF0000FF6D11046704750E840
:10814400002F02EB010340E8003C9CF0000FF6D145
:108154001046704750E8003F03EB010240E8002C52
:108164009CF0000FF6D11046704750E8003FA3EB97
:10817400010240E8002C9CF0000FF6D11046704735
:108184000121FFF7B0BF0121FFF7B8BF0021FFF7BE
:10819400C0BF37B5054602A8002400F8014DFEF71C
:1081A4004BFF2A686B68116899420ED9481E10600B
:1081B40011F8014CEB68A98A01FB0434AB6811790E
:1081C4001B1ADBB2994238BF13719DF80700FEF702
:1081D40057FF204603B030BD37B5054602A800233B
:1081E40000F8013D0C46FEF727FF2A681368591C66
:1081F4001160E968641AA98AB4FBF1F41C709DF853
:108204000700FEF73DFF03B030BD000007B50B4685
:1082140078B9104B104A18880E2300930F4B0004B2
:108224000F4940F00100FEF7C1FA0E2003B05DF8DB
:1082340004FB3BB9074B0B4A18880E230093000438
:10824400064BEDE703601B68114603B05DF804EBD1
:10825400184700BFE42A002048E002009BDF020028
:108264004DE00200C4E002002DE9F34178B9354B3A
:10827400354A1888354B0E2400040094344940F0E4
:108284000100FEF793FA204602B0BDE8F0813AB946
:108294002C4B304A18882D4B0E2400040094EDE733
:1082A400D0F800C0BCF1000F07D1264B2A4A188829
:1082B400264B082400040094E0E73BB9214B274AED
:1082C4001888224B092400040094D7E74768D7F89C
:1082D4000480B3FBF8F708FB17373FB1194B204A6A
:1082E40018881A4B092400040094C7E78F0707D0A5
:1082F400144B1C4A1888154B102400040094BDE745
:1083040012F0030F07D00F4B174A18880F4B102495
:1083140000040094B2E7C768B9420BD34C1E056948
:108324001C44AC4206D8DCF80C40A44602B0BDE8BC
:10833400F0416047034B0D4A1888044B1024000495
:1083440000949BE7E42A002048E00200ADDF02002D
:108354004DE00200CAE00200BEE002007DE002003F
:10836400D0E00200FAE0020012E1020035E102006E
:10837400F7B570B9254B264A1888264B0E240004FD
:108384000094254940F00100FEF710FA204603B09E
:10839400F0BDD0F800C0BCF1000F07D11B4B1F4A41
:1083A40018881C4B082400040094EAE73AB9174BD8
:1083B4001B4A1888174B092400040094E1E7476816
:1083C400D7F800E00EF1FF370F4207D00F4B154AE4
:1083D4001888104B102400040094D2E7C768B942EF
:1083E4000CD34C1E05690EFB0244AC4206D8DCF8E3
:1083F4001040A44603B0BDE8F0406047034B0A4A6E
:108404001888044B102400040094BAE7E42A0020DE
:1084140048E00200C0DF02004DE00200BEE00200BE
:108424007DE00200D3DF0200F9DF02002DE9F04114
:1084340008B10368C3B90E4E0E4B14229B1B0024D3
:10844400B3FBF2F3374602FB03F5A54201D100204A
:1084540008E03B5930190BB91434F6E7DB69984747
:108464000028F9D0BDE8F081DB69BDE8F041184788
:10847400982A0020AC2A002029DF704728DF7047A3
:1084840070B503689D6886B004460E466DB114222B
:108494000021684605F010FCA36805932379019632
:1084A4002BB1012B0DD06846A84706B070BD01233F
:1084B4008DF8003023690293E3680393636904939E
:1084C400F1E702238DF80030E3681B030293F5E71C
:1084D4000846704700207047024B187A003018BFD6
:1084E4000120704730330020034B187A0122B0FA80
:1084F40080F05A74400970473033002008B51046A4
:108504001A4605F0B0FB002008BD000008B514228F
:108514000021044805F0D0FB0348FFF7ECFC0020E1
:1085240008BD00BF303300200C2B002010B5094CCF
:10853400094B43602046FFF723FE40B905F074F968
:108544001C2320748C2205490548FFF7C1FC002038
:1085540010BD00BF303300206CE10200A4320020C3
:108564000C2B002070B5244D244E2B7A2C463BB99D
:1085740023492448FFF71BFD306008B9686070BDCB
:108584000223237233681A7972B1012A24D018465F
:108594000321FFF775FF002323726360184919480C
:1085A400BDE87040FFF72EBDD3E90520121AB2F5DD
:1085B400805F28BF4FF48052D3E903159208012A43
:1085C400014438BF01222844FFF756FF50B1112857
:1085D400DDD101232372D2E7D3E903021044FFF76C
:1085E4004DFFF3E7237C002BC9D10146BDE8704061
:1085F400022000F009B800BF3033002048330020C7
:10860400443300200C2B002038B5831E012B45D8A1
:10861400234C237A002B41D0022B09D1032830D0DC
:10862400204B1B680022E2601A793AB1012A22D059
:10863400637C7BBBBDE83840FFF794BFD3E90512E8
:108644008D1AB5F5805F94BF521902F580529A6174
:108654009142EDD102284FF0000308BF194623725E
:10866400104B18BF0D211868FFF70AFF0E490F4879
:10867400FFF7C8FCDCE71A6901321A615B699A42A8
:10868400E7E7E3680133082B01D8E360D0E7002370
:10869400E360DFE7BDE8384005F0B6B838BD00BF99
:1086A4003033002048330020443300200C2B0020BA
:1086B40000F0FD03012B08D1044B00225A74421E22
:1086C400504250411874FFF74DBF704730330020BB
:1086D40010B5064C201DFFF753FD28B9637C1BB968
:1086E400BDE81040FFF73EBF10BD00BF303300208F
:1086F4002DE9F34180460D460F4801A916461F4651
:10870400FFF71BFC0446A8B11C22002105F0D4FA93
:108714002D0B0123237101A9C4F80080A760E56033
:1087240066610548FFF733FCFFF7D2FF002002B073
:10873400BDE8F0810420FAE70C2B00202DE9F74373
:1087440081468846104801A917461E46FFF7F5FBE7
:108754000446B0B11C22002105F0AEFA00250A9BA4
:10876400A36001A92571C4F80090C4E90378666187
:108774000548FFF70CFCFFF7ABFF284603B0BDE844
:10878400F0830420FAE700BF0C2B0020F8B54679EB
:108794000146721E0546002393422D6803D300242C
:1087A400A64202D8F8BD0133F6E70F682846FFF762
:1087B40013FD01343946F3E72DE9F843868ACD1CCD
:1087C4000746FFF7E6FC043E35440446B5FBF6F5E0
:1087D400F0B14FF48073EDB28380C680013D076031
:1087E40081464FF00008A84512D23846FFF7D1FC65
:1087F400064648B163790133637108F10108C9F889
:10880400000007608146EEE72046FFF7BFFF3446CD
:108814002046BDE8F88301210430FFF79BBC10B566
:10882400012104460430FFF7A0FC10F0FF0F04D12F
:108834002046BDE81040FFF7A9BF10BD2DE9F8435D
:10884400C7880546181D8846B0FBF7F4164607FB93
:1088540014003CB9A7EB0009B14528BFB14626B9BD
:10886400BDE8F8832D68013CF3E70430A6EB090664
:108874004A4608EB0401284405F0F5F9B7424C4494
:108884002D68B9464FF0000028BFB146E7E741DF45
:1088940070470000064B10B500241C70054B1C608B
:1088A400BFF35F8F0449054800F030F8204610BD3F
:1088B4005433002058330020A8E102004C33002038
:1088C40007B502A8002300F8013DFEF7B5FBF1EE61
:1088D400103A23F09F03E1EE103ABFF35F8F0A4B87
:1088E4004022C3F884219DF80700FEF7C9FB04F079
:1088F4009BFF20B1FFF7CBFF03B05DF804FB20BF63
:1089040040BF20BFF8E700BF00E100E00B684A6801
:108914004360934208BF0023016008BF436070476F
:10892400436843B10268916852680B4493424360C0
:1089340004BF0023436070470D4930B5A1F594721C
:108944000225914201D800200EE08B1ADB1093FB24
:10895400F5F302EBC30452F83330834205D802D254
:1089640004F10802EDE7606830BD2146E9E700BF85
:10897400F8E2020008B5FFF7DFFF024B002808BF4A
:10898400184608BDBDE10200054B1B68082B01BF5A
:10899400044B1868B0FA80F0400918BF00207047F3
:1089A400300100103401001008B54FF0804300225C
:1089B400C3F80C21C3F81021C3F838254FF08052B6
:1089C40003F54043D2F80414C3F82015D2F8081470
:1089D400C3F82415D2F80C14C3F82815D2F81014CF
:1089E400C3F82C15D2F81414C3F83015D2F818149F
:1089F400C3F83415D2F81C14C3F84015D2F8201467
:108A0400C3F84415D2F82414C3F84815D2F828142E
:108A1400C3F84C15D2F82C14C3F85015D2F83014FE
:108A2400C3F85415D2F83414C3F86015D2F83814C6
:108A3400C3F86415D2F83C14C3F86815D2F840148E
:108A4400C3F86C15D2F84424C3F87025FFF79CFFD3
:108A540010B1384B384A1A60FFF796FF18B1374BFC
:108A6400FB22C3F81825FFF78FFF48B13449354B73
:108A74000A681B6822F00F0203F00F0313430B6014
:108A8400FFF782FF18B1304B4FF400721A604FF0B9
:108A94008043D3F80024D20744BF6FF00102C3F827
:108AA40000242A4AD2F8883043F47003C2F888308C
:108AB400BFF34F8FBFF36F8F4FF01023D3F8002213
:108AC400002A03DBD3F80432002B2FDA204B0122D7
:108AD400C3F80425D3F80024002AFBD04FF0102259
:108AE4001221C2F80012D3F80024002AFBD04FF060
:108AF40010231222C3F80422154B1A46D3F800148B
:108B04000029FBD00021C3F80415D2F80034002B4F
:108B1400FBD0BFF34F8F0D490E4BCA6802F4E062DD
:108B24001343CB60BFF34F8F00BFFDE70A4B0B4AE3
:108B34001A6008BD8C5600404881030000F00040D4
:108B4400E40E0040580200104096024000ED00E0A0
:108B540000E001400400FA05202B00200090D0031F
:108B6400074B1B5C1F2B8ABF064A4FF0A04203F041
:108B74001F03D2F80405D840C04300F00100704739
:108B8400B2E6020000030050074B1B5C1F2B86BF9C
:108B940003F01F0305494FF0A041012202FA03F339
:108BA400C1F80C35704700BFB2E602000003005064
:108BB400074B1B5C1F2B86BF03F01F0305494FF0B7
:108BC400A041012202FA03F3C1F80835704700BF3F
:108BD400B2E602000003005008B50020FFF7E8FFEA
:108BE4000120FFF7E5FF0220FFF7E2FF0320BDE8C5
:108BF4000840FFF7DDBF08B50020FFF7C5FF0120DF
:108C0400FFF7C2FF0220FFF7BFFF0320BDE80840C3
:108C1400FFF7BABF0A4B185C1F288ABF094B4FF0F5
:108C2400A04300F01F00D3F804250121814021EA6C
:108C340002000A40C3F80805C3F80C25704700BFBA
:108C4400B2E6020000030050034BD3F810056FEAAC
:108C5400901000F00100704700030050263818BF40
:108C64004FF0FF307047262070470000C10710B551
:108C7400044642D54FF08043D3F84036DA072ED568
:108C84004FF01023D3F8043303F00703072B26D146
:108C94001D4B0122C3F80425D3F80024002AFBD07D
:108CA4004FF01021D1F8042322F0070242F004020D
:108CB400C1F804230022C3F80425134AD2F800346F
:108CC400002BFBD0BFF34F8F1049114BCA6802F43D
:108CD400E0621343CB60BFF34F8F00BFFDE74FF05B
:108CE400A0420C490323C2F81837C2F82037C1F850
:108CF4002437C2F83037FFF76FFFA30742BF054B95
:108D04000C22C3F8182710BD00E0014000ED00E07C
:108D14000400FA050003005038B5084C04F10803B8
:108D24000546002818BF1C4623682BB11A68226028
:108D34005B6828469847F7E738BD00BF64330020D6
:108D440020B9054B01225A70FFF7E6BF012802D172
:108D5400014A9070F8E770475C33002020B9034B58
:108D640001225A70FFF7D8BF704700BF5C33002060
:108D740038B50B4C237883B90A486360A360236138
:108D8400E36000F05FF8054604F04EFD08B900F01A
:108D940067F801232370284638BD8525FBE700BF0B
:108DA4005C330020458D020037B502A80023094C2E
:108DB40000F8013DFEF740F9E368013BE360E56834
:108DC40015B900F061F8A5709DF80700FEF758F991
:108DD40003B030BD5C330020012813B509D003D3A0
:108DE40003281BD002B010BD0F4B0122C3F8802012
:108DF400F8E702A800230D4C00F8013DFEF71CF92A
:108E040023780BB9FFF7B4FFE3689DF8070001333B
:108E1400E3600123A370FEF733F9E3E700F020F8E1
:108E2400FFF7C2FFDEE700BF00E100E05C33002093
:108E340000F18040002382B0036003680193019B2A
:108E440002B07047054A13792BB9012110601171E2
:108E54005371184670478520704700BF7033002057
:108E6400084B1A68D20706D4E02283F800230122B3
:108E7400C3F880211A604FF080430122C3F81825FB
:108E8400704700BF00E100E0044B01221A604FF07C
:108E94008042D2F81834DB03FBD470470C00004046
:108EA400124B1B6810B573B14FF48070FFF7C0FF0D
:108EB4004FF080430122C3F808230D4B587910B9B1
:108EC4005A711B6898470B4B1B6873B14FF482703F
:108ED400FFF7AEFF4FF080430222C3F80823044B90
:108EE40001201B68BDE81040184710BD0001004078
:108EF400703300200401004000F1804000F5C040C0
:108F0400002382B0036003680193019B02B07047A1
:108F140003681F2B83BF03F01F03036001484FF056
:108F2400A04070470003005007B502AB43F8040D9E
:108F34001846FFF7EDFF019B00EB8300D0F80037E4
:108F440023F44033C0F80037D0F8003743EA014136
:108F5400C0F8001703B05DF804FB0000054B4FF0A8
:108F6400FF32072843F8202084BF1B1883F85820B9
:108F7400704700BF7833002010B5174C94F86A305E
:108F84003BBBFF21E2180133302B82F83010F9D1BA
:108F94000021C8B2FFF7E2FF01310C29F9D1062202
:108FA40000210E4804F088FE0D4B402283F806236E
:108FB4004FF4BE70C3F880211A60FFF79DFF094B80
:108FC4004FF00042C3F80423012384F86A300020E0
:108FD40010BD0820FCE700BF78330020DC330020FC
:108FE40000E100E000600040034B93F86A000030A9
:108FF40018BF0120704700BF78330020F7B5404FF9
:109004003B18044693F93030002B944675DA8B787C
:10901400C3F34003002B15BF0025082508200C20AE
:10902400854202D1042003B0F0BD57F82520013257
:109034004FEA850649D1381947F825C080F83050E1
:1090440013B97B1983F858408B785A071BD4D80777
:109054003DD502A840F8084DFFF75AFF009B00EBEE
:109064008300D0F8003723F00203C0F80037254806
:10907400E20804F0070C012303FA0CF310F802C011
:1090840043EA0C038354887891F800C010F002007E
:109094002AD006F1804303F5C0432402D3F81025F7
:1090A40022F44F3222F44072C3F810254FEA0C4CDC
:1090B400D3F8102504F47C540CF4403C44EA0C042A
:1090C4001443C3F810450020ADE70135A8E702A812
:1090D4004A7840F8044DFFF71BFF019B03F5E0734A
:1090E400920040F82320C2E7083D3D4495F86040D3
:1090F40044EA8C1C85F860C095E7082093E700BF1C
:1091040078330020DC33002073B5224C2518064642
:1091140095F93020072A1ADD224492F858309B0929
:10912400032B10D102A840F8046DFFF7F1FE019A59
:10913400D0F81035D340DB0707D402213046FFF7BF
:10914400F3FE02B070BD012BF7D00321F6E7D3B2D2
:10915400072BF6D8930003F1804303F5C043D3F8FB
:10916400100540F00100C3F8100502F14000800032
:1091740080B2FFF7C1FE0029E3D095F9303054F8EE
:109184002330002BDDD0012303FA02F2024BC3F893
:109194000423D6E7783300200060004007B502AB13
:1091A40043F8040D1846FFF7B3FE019BD0F81005F1
:1091B400D84000F0010003B05DF804FB2DE9F04F46
:1091C400002489B0CDE902445F4A604E604D01211C
:1091D4001368A2F5C040012B80B206D1D6F804333F
:1091E4000B4202D0FFF788FE0C430432AA424FEA36
:1091F4004101EDD1574B1B68012B0ED14FF4BE70CA
:10920400FFF77AFE4FF0A04344F00044D3F8103542
:109214000293514BD3F81035039314F0FF0F1AD077
:109224004E4F00250126344210D0AB0003F1804399
:1092340003F5C043D3F81005D3F8101557F82530BB
:10924400C0F30520C1F3014103B198470135082D4E
:109254004FEA4606E7D1002C72DA04AE00230493E9
:1092640073604FF0FF33CDE906333C4F4FF00108F4
:1092740000252C467B1993F96020531C47D0D2B2A9
:1092840022F0C00908A84FEAD90300EB030B02F04F
:1092940007011BF8080C08FA01F1084237D007EB64
:1092A4000900920990F9300057F820A0BAF1000F94
:1092B40005D1032A2BD1F05C0843F05401E0032AC2
:1092C400F9D001A8CDF80490FFF722FE019B03F525
:1092D400E07350F823301BF8180C0842C3F3014321
:1092E40005D0022B13D1032A0BD1114604E0032B22
:1092F4000DD1032A05D102214846FFF715FE01349A
:10930400E4B2BAF1000F02D011464846D047013505
:10931400042DAFD1A4B14FF0A0430299D3F8102586
:1093240003F540739142D3F8103502D10399994261
:1093340006D002920393049A059B0692079397E73B
:1093440009B0BDE8F08F00BF00610040006000403C
:10935400206100407C61004000030050783300200D
:10936400014B1B68184700BFE433002000F1804024
:1093740000F5E040002382B0036003680193019B81
:1093840002B07047F0B5514B514C1B6885B0DBB14E
:109394004FF4827094F82E20FFF7E8FF12B194F88E
:1093A4002F30A3B1636802932389ADF80C30E368CE
:1093B40000218DF80410002B44D12374236801A8E4
:1093C4009847002384F82F3094F82E3003B3414B90
:1093D4001B68EBB14FF48070FFF7C8FF94F82D20A1
:1093E400638B91B28B4238D95B1A21899BB2638318
:1093F400CB1A616801EB4301374BC3F82C16C3F851
:1094040030264FF48270FFF7B1FF344B01221A600B
:10941400334B1B685BB14FF48870FFF7A7FF002341
:1094240004A82374022300F80C3D236898472D4BAD
:109434001B6813B34FF48A70FFF798FF002323745B
:1094440005B0F0BD208B608363602081E160002A59
:10945400B4D1214B01221A60B0E7D2D1E3680121D3
:1094640084F82F103BB1002161831B49C1F82C36CD
:10947400C1F83026C5E76383C3E766694FF0004748
:109484000125002EDCD0B6FA86F227FA02F3463222
:10949400920026EA030602F1804303F5E0431B68C9
:1094A400002BEED01046FFF761FFA2F58C72D308B3
:1094B40082F00402C2F380028DF808308DF8045063
:1094C4008DF80920236801A89847DAE70471004061
:1094D400EC33002000710040007000400470004034
:1094E40010710040147100402DE9F7430024064632
:1094F4000F4600F5A0754FF48038A14604F15000E2
:109504002B68800080B26BB1D6F8043308FA04F2F9
:109514001A4207D0C5F800902B680193019BD7E944
:10952400003198470134042C05F10405E6D103B059
:10953400BDE8F08301490248FFF7D6BF1C34002080
:109544000090004001490248FFF7CEBF28340020B4
:1095540000A000401FB54B7DDBB2022B07D0032BCC
:109564000FD0012B00D1436205B05DF804FB00234A
:109574008DF804300293039301A88B688969984796
:10958400F2E701238DF80430D0F83C350293D0F88B
:109594004C35F0E713B54FF04020D0F82831DBB15B
:1095A400194B1A4900221A601B680093009B4B7DDB
:1095B400DBB2012B10D10A68CC68C0F84445C0F86E
:1095C40048254A680C69C0F83445C0F838258362D8
:1095D40002234B75FFF7BEFF4FF04020D0F8043153
:1095E40083B10B4B094900221A601B680193019B4C
:1095F4004B7D022B06D103234B7502B0BDE810400E
:10960400FFF7A8BF02B010BD284100403434002049
:10961400044100400220FFF7FDBA000008B5094BE1
:109624001B7853B10020FFF7C3FA0120FFF7C0FAFB
:109634000320BDE80840FFF7BBBABDE80840FFF7C8
:10964400CBBA00BF51340020F8B5794C23780546D5
:109654001BB100232370FFF7E1FF172D00F2848074
:10966400DFE805F00C13133F5061727C8489848910
:10967400919696969696C0C5CDD5E0E0FFF7CEFFBD
:109684006C4B00241C702046F8BD0020FFF768FADC
:10969400F8B10020FFF78CFA022D0CBF4FF4E16102
:1096A4004FF47A61634B1D704FF400404FF4FA7429
:1096B4000025E0FB01454FF47A7200232046294639
:1096C40004F034FA002201465B48BDE8F840FDF797
:1096D4005FBCFFF759FA022D0CBFC8214FF4C871C3
:1096E400E0E70020FFF73CFA40B10020FFF760FA02
:1096F4004FF448714F4B03221A70D5E7FFF744FA31
:10970400C821F7E70020FFF72BFA38B10020FFF754
:109714004FFA4FF47A61474B0422EDE7FFF734FA2E
:109724004FF4C871F7E70020FFF71AFA48B1002098
:10973400FFF73EFA3F4B05221A7041F69A110022B8
:10974400C2E7FFF721FAF5E70020FFF763FA394B88
:1097540006221A70002240F6CD41B5E70020FFF73B
:1097640013FA344B07221A7000248CE7012020706E
:10977400FFF750FAEEE701202070FFF74BFA0022C2
:109784004FF48041A0E7FFF736FA2A4B0C22EAE7B0
:109794002A482B4EFDF740FCD5F1110504461CD098
:1097A400D8B9012D13D0C8235D434FF400474FF4BB
:1097B400FA7000214FF47A720023C7FB050104F00C
:1097C400B5F9224601461D48FDF7E2FB0446022096
:1097D400FFF7DAF90123337055E70220FFF7E8F9C0
:1097E4000023F8E7FFF71AFF124B1222BBE7FFF73B
:1097F40015FF0020FFF7C8F90E4B1322B3E7FFF75C
:109804000DFF0120FFF7C0F90A4B1422ABE7FFF765
:1098140005FF0020FFF7B8F90120FFF7B5F9054B64
:109824001522A0E7FFF7E7F9024B1D709CE700BF84
:10983400BC340020C434002094340020543400206C
:1098440051340020044B1B68DB0703D5034B187805
:10985400FFF7FABE704700BFB8340020C4340020BC
:109864002DE9F04107460C46FFF7F8F920B9012C21
:1098740004D01DD3022C25D0BDE8F081134D6A78A5
:109884002C7842B1124E134832464FF40041FDF792
:109894007FFB00B93770104BAA781A70002CEBD0FC
:1098A4000E4B1B68002BE7D02046BDE8F04118475B
:1098B4000848FDF7B1FB054B9C78074B1B78A34286
:1098C400DAD1EBE7014B5C78E8E700BFB434002061
:1098D4005034002074340020C5340020C0340020EB
:1098E40002210078FFF7BCBF002810B54FF000003C
:1098F40014BF03240024FFF7B6F91F288ABF0A4BBC
:109904004FF0A04300F01F0003EB8000D0F80027C5
:1099140022F44032C0F80027D0F8003743EA044369
:10992400C0F80037002010BD0003005008B9FFF74D
:109934008BB9002070470000044B1B6813F001032F
:1099440001D0FFF781BE1846704700BFB83400202D
:1099540038B5194B1860194B10F00204054619600C
:1099640014D0174B17480E221A70012140F2666278
:10997400FDF712F8044648B9FDF762F8044628B921
:109984000146114A1148FDF7F1FA0446EB0711D5D7
:109994000120FFF76BF96CB921460D4A0D48FDF71C
:1099A400E5FA044630B90C4A0C480121BDE83840B8
:1099B400FDF7DCBA204638BDB8340020C03400209E
:1099C400B4340020ECE60200E5980200F8E6020058
:1099D40049980200FCE6020019960200F4E602002F
:1099E40048B9012A02D1012907D00246012905D02C
:1099F4000AD3022905D0072070470E22044B1A709F
:109A04007047034B5A707047014B9A70704700BF00
:109A1400B434002010B90120FFF766BF0620704758
:109A240008B5012202210020FFF7DAFF08B1072858
:109A340010D1072202210120FFF7D2FF08B1072825
:109A440008D100210A220846FFF7CAFF10B10728EF
:109A540008BF002008BD00000388102B10B502D0F9
:109A6400112B1ED010BD1A4C2168B1B90122084631
:109A7400FFF7B6FF08B1072824D1072202210120ED
:109A8400FFF7AEFF08B107281CD1042202210020F1
:109A9400FFF7A6FF08B1072814D123680133236018
:109AA400E0E70B4A1368013B1360002BDAD1FFF7A0
:109AB400B7FF0028D6D0074B1B68002BD2D0BDE8D7
:109AC40010401847034B1B68002BE6D09847E4E787
:109AD400CC340020C834002008B50020FFF79AFFDA
:109AE40008B1062806D10120FFF794FF10B106281B
:109AF40008BF002008BD00000D4B10B518600C46CF
:109B040029B10120FFF712FF40B102232370094B52
:109B14001B6853B9BDE81040FFF782BFFFF706FF8B
:109B240008B10B23F2E72070F1E7002010BD00BF5D
:109B3400C8340020CC34002076DF704777DF7047CC
:109B44007ADF70477CDF70477FDF70478FDF7047B5
:109B5400B1DF704733DF7047FCF788BF08B50020DA
:109B6400FFF7EAFE08B1FCF781FFFFF7B5FF08B184
:109B7400FCF77CFFFFF7EEFF18B1BDE80840FCF7E7
:109B840075BF08BD0388212B13B504462FD01DD8FB
:109B9400112B26D0132B33D0102B26D10720FFF7FF
:109BA400CBFE08B1FCF762FFA1881D4C1D48218043
:109BB40001F0E6FF08B1FCF759FF082221880320D1
:109BC400FFF7BCFF88B1FCF751FF0EE0522B1FD00A
:109BD400562B01D03B2B08D11321A088FFF7ACFFF3
:109BE400F0E70F4B4FF6FF721A8002B010BD0E4B18
:109BF40080881B88ADF8043001A9FFF7A7FFE1E7CF
:109C0400074800231A4685210088FFF79DFFD9E7FE
:109C1400034800231A4619460088FFF799FFD1E745
:109C2400242B0020AC35002000E7020008B503789F
:109C34004BB9054B3B211888FFF77EFF18B1BDE8EF
:109C44000840FCF713BF08BD242B0020072808B5E3
:109C540013D00A280DD0042819D10D4B13211888CC
:109C6400FFF76AFF30F0080311D0BDE80840FCF7A5
:109C7400FDBEBDE80840FFF771BF054B1A884FF6DB
:109C8400FF739A4203D1034800F089FEEAE708BD56
:109C9400242B0020D034002008B548B103280BD170
:109CA4000220FFF749FE38B1BDE80840FCF7DEBEEC
:109CB400BDE80840FFF752BF08BD000008B5032106
:109CC400044800F009FD18B1BDE80840FCF7CEBE19
:109CD40008BD00BFD03400200378043B07B5092B2E
:109CE4000DD8DFE803F0050C0F1E0C1A0C1E171E0E
:109CF40002A9002301F8043D408802F02BFD03B0C3
:109D04005DF804FBFEF792F830F00803F7D0FCF797
:109D1400ADFEF4E7FFF7D2FFF1E700690028EED0CB
:109D2400F5E78068FAE7FCF7A1BE00001F2886BFAC
:109D340000F01F00044A4FF0A042012303FA00F090
:109D4400C2F80805704700BF0003005038B54FF053
:109D5400A0454FF40053C5F80C3501201446FEF716
:109D640027FF4FF40043C5F80C350220FEF720FF0F
:109D74004FF40033C5F80C350320FEF719FF022C0D
:109D84000BD0032C0ED0012C11D10D20FFF7CEFFE8
:109D94000220BDE83840FEF7F7BE0F20FFF7C6FFEC
:109DA4000320F6E71120FFF7C1FF0120F1E738BDDA
:109DB40008B50021044801F0D3FD18B1BDE80840FE
:109DC400FCF754BE08BD00BF9835002000B54FF025
:109DD400A04303224FF40051C3F83427C3F80C15F1
:109DE4004FF40041C3F83C27C3F80C15C3F84427CB
:109DF4004FF40032ADB0C3F80C25FDF787F808B175
:109E0400FCF734FE6E490120FFF7A2FD08B1FCF710
:109E14002DFE01A90020FFF76FFE08B1FCF726FE16
:109E2400FEF738FD08B1FCF721FE03F081FC08B110
:109E3400FCF71CFE002301A90120019303F044FD5B
:109E440008B1FCF713FE01A803F006FE08B1FCF705
:109E54000DFE2CAC11235B4804F8B03D03F05FFF0A
:109E6400584982B22046FFF76DFE08B1FCF7FEFDAB
:109E74000021082201A803F01FFF53494FF0C873C3
:109E840001A8CDE90113FFF75BFE08B1FCF7EEFD75
:109E9400FFF78EFF0023009301A94C4B4C4801931C
:109EA40001F05CFE08B1FCF7E1FD4A4B4A4800931F
:109EB400214600F0C3F808B1FCF7D8FD474B1868F9
:109EC4000090AC22002101A803F0F6FE02238DF8D5
:109ED400043000238DF8063005238DF8073008235D
:109EE40002930123ADF850308DF88030402244F2C3
:109EF4005063CDE9232301A9394B3A4815942A9399
:109F040000F080FB08B1FCF7B1FD0121354800F0F9
:109F140076FB1C22002101A803F0CEFE00234FF49F
:109F24002032CDE90132ADF812304FF470228DF8B1
:109F340014302D4B0392069303222C4B8DF81020E2
:109F440001A8079300F04CFE08B1FCF78FFD02F066
:109F5400ADFB08B1FCF78AFD0522002101A803F03E
:109F6400ABFE9DF8043043F00103032203F0F10338
:109F740062F306136FF3C7138DF8043007238DF8CB
:109F8400053010238DF806309DF8073013438DF803
:109F940007309DF8083001A813438DF8083002F00B
:109FA400CFFB08B1FCF762FD114802F0B1FB08B128
:109FB400FCF75CFDFFF782FEFEF782FCFCE700BFC6
:109FC400519C020006E702005000A0005D9B0200C5
:109FD400AC350020519D02008835002002E70200C4
:109FE4009D9C0200D0340020319C02002B9D020075
:109FF400DD9C0200A8DF7047AADF70470288112A9F
:10A0040010B40B4617D0502A06D0102A01D18288EA
:10A014001A805DF8044B7047C4888A889442F8D14A
:10A02400028A012AF5D1CB68002BF2D0827C5DF83C
:10A03400044B808818474FF6FF72E9E7F0B591B0FA
:10A044000B68C36010A941F61A030246012421F8E3
:10A05400383D4FF6FF73054622F8023B20468DF843
:10A064000A40FFF7C7FF08B1FCF700FD42F6702372
:10A074001C22002109A8ADF80C308DF80E4003F025
:10A084001BFE9DF82430032243F00A030021684696
:10A094008DF8243003F010FE9DF80230CDF838D04E
:10A0A40064F342038DF802309DF8243001AE43F08E
:10A0B400100341F211170322002130468DF8243099
:10A0C400ADF8007003F0F8FD9DF80630ADF80470AB
:10A0D40064F342031422002104A88DF8063003F02F
:10A0E400EBFD03ABCDE9043604AA2B1D09A968884E
:10A0F400ADF81C40ADF818400894FFF77DFF08B197
:10A10400FCF7B4FC002011B0F0BD6DDF704779DFBF
:10A1140070477DDF704764DF70472DE9F74F0C9C73
:10A12400BDF834B02788002580468A4691462E46DD
:10A13400B8F80020B2420BDC35B12288013AD21BB8
:10A1440092B2FF2A39D8DA55002003B0BDE8F08F67
:10A15400D8F8042052F82600019000220DF10301E2
:10A1640001A8FFF7D8FF0028EFD19DF803204A4546
:10A1740021D12288002D14BF0020022002EB090106
:10A184000144594519DC3DB9013292B2228003F8E9
:10A1940002A022880132228022880DF103011A4490
:10A1A40001A8FFF7B8FF0028CFD121889DF803202C
:10A1B4000A44228001250136BAE70C20C5E72DE9BF
:10A1C400F341089CBDF824501746CDE9004502220E
:10A1D4000646FFF7A2FF48B9102239463046CDE9BA
:10A1E400084502B0BDE8F041FFF797BF02B0BDE8F3
:10A1F400F0812DE9F04F00231688138090F82D305C
:10A2040085B007460D46144653B3082E01D80C20DA
:10A2140004E102A8FFF779FF002840F0FF801388CB
:10A224000822CA54238801339BB21B222380CA54B8
:10A234002088013080B2208006220DF109012844D3
:10A2440003F011FD23889DF8082006339BB212F019
:10A25400FE0218BF01222380EA542388013323809D
:10A26400BB78FBB123880433B342D0D802A8FFF7EC
:10A274004EFF002840F0D28023880322EA5423882A
:10A2840001339BB219222380EA542388BDF80820A5
:10A2940001339BB2E9182380EA54120A4A702388D6
:10A2A40002332380FA789AB12388D91CB142AED8FC
:10A2B4000221E954238801339BB201212380E9540C
:10A2C40023880B449BB22380EA5423880B442380C5
:10A2D4007A68AAB12388D91CB14298D8022192F98C
:10A2E4000020E954238801339BB20A212380E954D6
:10A2F400238801339BB22380EA54238801332380CB
:10A304003B89002B7ED13B8A53B1CDE900462B46D5
:10A314000722032107F11000FFF751FF00287DD128
:10A324003B8B53B1CDE900462B461522142107F18E
:10A334001800FFF744FF002870D13A6A002A70D150
:10A34400D7F82480B8F1000F30D0B8F80430218851
:10A35400981C8A1C0244B2423FF659AFFE283FF6CD
:10A3640056AF03336B54238801339BB2FF222380FF
:10A37400EA54238801339BB22380B8F80020EA54BE
:10A38400E918120A4A702088023080B22080B8F896
:10A3940004205AB1D8F8081000294CD0284403F0FE
:10A3A40062FC2388B8F804201344238097F82C30E7
:10A3B400002B7BD1387888B33B88012B3BD0218894
:10A3C4008A1CB2423FF623AF012805D17B780233C1
:10A3D4000B449E42FFF41BAF023E761A04A9B6B2A8
:10A3E40021F8086DA818FFF794FEB8B93B78022B42
:10A3F40040F09F80BDF80830B34240F2B680ADF81B
:10A4040008609FE0CDE900462B460622022107F1B1
:10A414000800FFF7D4FE00283FF475AF05B0BDE88F
:10A42400F08FB4F800C00CF10603B3423FF6EFAE70
:10A434001188052901D80720F0E76FF4486E01EB75
:10A444000E039BB24FF27D3E7345F4D95388052B1E
:10A45400F1D96FF44860181880B27045EBD94FF603
:10A46400FF70814203D0834201D09942E3D805238F
:10A4740005F80C30238801339BB212212380E95460
:10A48400238801339BB223801188E954E818090A10
:10A494004170238802339BB223805288EA54E9181E
:10A4A400120A4A7023880233238049E7BB6A002BCF
:10A4B400C1D04FF000094FF00C0A4FF0160B97F87B
:10A4C4002C305FFA89F293427FF674AFB96A0AFBC3
:10A4D40002F201EB0208B8F80430981CFE283FF69B
:10A4E40096AE208803332B54238801339BB22380F8
:10A4F40005F803B0238801339BB223808A5AEA54B7
:10A50400E918120A4A702088023080B22080B8F814
:10A5140004205AB1D8F8081000298CD0284403F03C
:10A52400A2FB2388B8F804201344238009F101090D
:10A53400C5E7012B7FF463AF7B789E42FFF45FAFE6
:10A54400ADF808300821BDF80830FE2B3FF65FAEA9
:10A5540022880133AB542288013292B22280A9545A
:10A56400228813442380002058E70921EBE770B5C3
:10A57400C0B14AB116880024B44203D305196D78DA
:10A584009D4208D0A14201D800200BE0055D0135B1
:10A594002C44A4B2F0E7A142F6D9A31C1380005DB9
:10A5A400013880B270BD37B502AC002324F8023DF7
:10A5B400134622460546FFF7DAFF10B1BDF8060040
:10A5C400284403B030BD72DF704773DF704774DF17
:10A5D400704738B5012204460D46B0F89810D0F8FB
:10A5E4009400FFF7E0FF00B1057004F13C0204F1B0
:10A5F400940104F15400BDE83840FFF7E4BF80F84B
:10A6040030107047F8B504460F46002960D0002882
:10A614005ED091F87A301BB191F89830002B59D163
:10A6240007F178060FCE4FF0000C251D84F802C008
:10A634000FC50FCE0FC596E8070085E8070084F81C
:10A6440030C0D7F8A4306363D7F8A830A3634FF6BB
:10A65400FF7504F19403C4F8A430A4F8A8500722A9
:10A66400614604F1AA0003F027FB23780BB984F8B0
:10A674005450224604F155011F25C4F8941038465D
:10A6840022F8985FFFF7B5FD08BB224604F1740178
:10A69400C4F89C1007F13C0022F8A05FFFF7A9FD65
:10A6A400A8B9A269A4F8482001236269206484F847
:10A6B40050006264014684F8513084F83C3004F15F
:10A6C4003C0204F15400FFF77EFF00B92370F8BD8B
:10A6D4000E20FCE70720FAE7F8B5077804460D4694
:10A6E400002F00F01181A1700020FDF79FFE0146AC
:10A6F40018B1012363700020F8BD04F1AA060722F3
:10A70400304603F0D9FAE38813B1A378012B04D0BF
:10A71400E3794BB1A378022B06D1636B9BB1012281
:10A7240084F8B12008209847324604F1B00112F8A9
:10A73400013F5BB99142FAD16A1E032A52D8DFE87D
:10A7440002F0070D111484F8B130EDE73B46F3E74E
:10A75400A2791AB194F8242002B95BB9E2790AB15A
:10A76400002B41D1237A002B40D1637A002B0CBFFC
:10A7740000250425636BA570002B39D0033D012D02
:10A7840036D86279A2B394F8B2208ABB84F8B42094
:10A79400012284F8B3200720984704F13C051822CD
:10A7A4000021284603F088FAE36A0122591E9142E7
:10A7B40084F83C2020D9042B1ED084F85120002793
:10A7C40094F824201AB1D7B1A36A84F85230A1783E
:10A7D400002384F85030042920D8DFE801F07F12E8
:10A7E4002A3D61000025C5E70225C3E70325C1E72B
:10A7F400002384F8B330D0E784F85130E0E7012334
:10A80400E3E7C4F8A430C4E910630223012284F806
:10A814003C30802384F83120A4F84830A378002BFE
:10A824005FD1636B002B3FF466AF94F83100984717
:10A8340061E7022384F8313062B1072384F83C30A5
:10A844002369A4F848300023C4F8A430E3682664DC
:10A854006364E3E70323F1E763696364A369A4F82A
:10A86400483012B1062384F83C306379B3B194F8CC
:10A87400B2309BB994F8B43083B1022384F85030D9
:10A8840004212046FFF7A5FE0028C7D1052384F83C
:10A89400313004F19403C4F8A430BFE70323F6E78E
:10A8A400E3696364236AA4F8483012B1062384F888
:10A8B4003C30637983B194F8B2306BB994F8B43016
:10A8C40053B1022384F8503004212046FFF781FE5F
:10A8D4000028A3D10623DAE70423D8E784F831302B
:10A8E4009CE72A46D4F8A41004F15400FFF76BFE49
:10A8F40000287FF401AF94F8301094F85400FFF767
:10A9040064FE00288DD0F7E60820F5E60388112BB5
:10A9140010B50C460AD0262B1FD0102B05D1C37BB3
:10A92400012B02D18388A1F8A83010BD00228388AE
:10A9340081F8B220B1F8A8209A42F6D10B79002B05
:10A94400F3D101212046FFF7C7FE0028EDD0A36B09
:10A95400002BEAD0BDE810401847037A013B012BD5
:10A96400E3D889780523013191FBF3F303EB8303E7
:10A97400C91AC9B2E6E70238012810B50C460DD849
:10A984004B785BB100234B7020468978FFF7A4FE17
:10A9940020B1A36B13B1BDE81040184710BD38B502
:10A9A400044690F85400FFF712FE012384F8B230F5
:10A9B400002384F8B43084F8503006212046FFF791
:10A9C40008FE054638B9A1782046FFF785FE10B188
:10A9D400A36B03B19847284638BD75DF704776DF0F
:10A9E40070477ADF70477BDF70470000034B1A889B
:10A9F40082420CBF18460020704700BFD4350020A7
:10AA0400024B9B6903B11847704700BFB83500205B
:10AA140037B585B22846FFF7E9FF034670B1164CF7
:10AA2400017A227B91420BD200F10A012846FFF7FA
:10AA3400D4FFE8B1112801D0FFF7E2FF03B030BD25
:10AA4400237C0022027243B13B212846FFF7C7FF53
:10AA540030F0080301D0FFF7D3FF6369002BEDD07A
:10AA640000228DF80420ADF8065001A89847E5E7C8
:10AA74001A7A01321A72E1E7B835002013B50B4691
:10AA8400497A0F4C024669B9D4E901101C7A002CAA
:10AA940018BF01465868FCF77BFA08B1FFF7B0FF0E
:10AAA40002B010BD002119726369002BF8D0012196
:10AAB400ADF806008DF8041001A89847F0E700BF30
:10AAC400B83500208388B3F5FA7F28BF6FF4F97294
:10AAD40030B528BF9C1805884A8838BF00249542A1
:10AAE4000CD84088904209D38A88A24206D303F244
:10AAF400F310904234BF0020012030BD0020FCE759
:10AB04000388112B70B5014648D002D8102B1ED0F3
:10AB140070BD122B52D0502BFAD12F4BC288DB8937
:10AB24009A42F5D1038A022BF2D186883046FFF788
:10AB34005DFF05460028EBD001F1120000F0A8F9F2
:10AB440030BB6868FCF768FA0028E1D009E0C37BF1
:10AB5400012BDDD14FF6FF70FFF748FF054620B902
:10AB64000420BDE87040FFF74BBF1C4A8E88068066
:10AB7400002303721368C5F80A300A30536843602F
:10AB84001031FFF79FFF144B6872DB89002BBFD194
:10AB940029463046BDE87040FFF770BF8088FFF754
:10ABA40025FF04460028B3D04068FCF735FA08B105
:10ABB400FFF726FF4FF6FF732380A9E78688304608
:10ABC400FFF714FF05460028A2D008310A30FFF72A
:10ABD40079FF6872DCE700BFB8350020E835002053
:10ABE400F8B5064650B305460FCD154F3C460FC485
:10ABF40095E8070084E807003068124B3B60B8B161
:10AC0400FFF7EFFEC8B931680A681A604A685A60EB
:10AC14000D480E4A4FF6FF7303800D4B40F8043F76
:10AC24000021FCF7A3F9002814BF0320002004E04E
:10AC34001846FFF7D8FE0028EAD0F8BD0E20FCE73E
:10AC4400B8350020E8350020D435002015AA0200CC
:10AC5400F0350020F7B5174601900E4691B1019CDE
:10AC64006CB100252C46294601A8FDF7FCF918B162
:10AC74003946A8B2B04701340135142DF3D120462A
:10AC840003B0F0BD0C46FAE773B50191019C06468A
:10AC94006CB100252C46294601A8FDF7E4F918B14A
:10ACA40006EB440301349D800135142DF3D1304665
:10ACB400346002B070BD00002DE9F043038884883D
:10ACC400112B8DB0064640D01A2B43D0102B16D131
:10ACD400294DAB680CA8DB4340F8303D55F8041F00
:10ACE400FDF722FA009901A8FFF7CEFF0027019B88
:10ACF4009F4207D3132C18D90420FBF7B7FE0DB0DD
:10AD0400BDE8F08301AB03EB47034FF00008B3F851
:10AD1400049005EB0800494608F10408FDF799F989
:10AD2400B8F1740FF5D10137E1E721461348FDF777
:10AD340079F921461248FDF775F9F37B012BDED032
:10AD440010482146FDF76EF9D9E70C482146FDF776
:10AD540080F9D4E7057A0C482D09012D214606D93E
:10AD6400FDF760F9022D21460848F0D0EAE7FDF727
:10AD740070F921460548EAE710360020183600200D
:10AD8400143600201C3600202036002024360020F3
:10AD94001328014602D80248FDF765B90020704720
:10ADA4001436002010B50446FFF7F2FF38B12146EF
:10ADB4000348FDF758F9002814BF0220012010BDF4
:10ADC4001C36002010B50446FFF7E2FF28B12146E7
:10ADD4000248BDE81040FDF746B910BD20360020FA
:10ADE40008B518210248FDF747F9C0B208BD00BFF5
:10ADF4001036002070B50A4D064628460C46FDF76D
:10AE040032F958B13046FFF7C3FF38B1A01D3146BF
:10AE140005EB8000BDE87040FDF725B9002070BD4A
:10AE240010360020F8B50D4C054620460E46174650
:10AE3400FDF719F980B12846FFF7AAFF60B1B01DEC
:10AE440004EB800029461FB1BDE8F840FDF7EAB8DD
:10AE5400BDE8F840FDF7FDB8F8BD00BF103600208E
:10AE6400F8B50A4C05460E46014620461746FDF73E
:10AE7400FAF848B1043504EB85043A46A068314633
:10AE8400BDE8F840FFF7E6BEF8BD00BF103600206D
:10AE9400007800F00100704710B50446408800F0C7
:10AEA400B7FBA0802046BDE8104001F0FBBB30B5E5
:10AEB40087B005460C461422002101A802F0FCFECE
:10AEC400072301A88DF80430ADF806500394FFF76A
:10AED400E3FF07B030BD000030B587B0054614224B
:10AEE400002101A802F0E8FE4FF6FF739D42ADF881
:10AEF40006501AD0284600F028FA0B2804461DD024
:10AF040005D8A0B121462846FFF7D1FF05E0112856
:10AF140005D043F202039842F4D1002200E001225A
:10AF2400074B28461978FFF77DFF07B030BD0E2385
:10AF340001A88DF80430FFF7AFFFEEE70F23F7E722
:10AF440089360020FFF7C8BF024B03491878002256
:10AF5400FFF786BF8B36002075AF0200024B034912
:10AF640018780022FFF77CBF8A3600200DB002005B
:10AF740070B5234E86B031780446FFF73BFF054693
:10AF8400C0BB204600F030FA0828014622D006D87B
:10AF940088B106281ED02046FFF789FF09E043F256
:10AFA4000203984205D043F20143984224D0112869
:10AFB400F1D1012214E02946142201A802F07CFEFA
:10AFC400102301A88DF80430ADF806400125FFF7E1
:10AFD40063FFEEE7204600F01BFB00F01FFA00229F
:10AFE400084B20461978FFF71DFF2A463178204682
:10AFF400FFF718FF06B070BD2046FFF76DFFD8E7D6
:10B004008C3600208B36002070B5002186B00646B1
:10B014001C4801F031FD054608B3304600F050F9F4
:10B02400112801461DD004D860B13046FFF73FFF18
:10B0340005E0862817D043F202039842F5D1002494
:10B04400254601E02C4605460F4B2A461978304622
:10B05400FFF7E8FE1CB921460A4801F032FD06B0AC
:10B0640070BD0024F0E71422002101A802F024FEA0
:10B07400062301A88DF80430ADF80660FFF70CFF35
:10B08400DDE700BF883600208A360020037810B53B
:10B09400044673B94088FFF71FFF608800F092F9F7
:10B0A40038B1044B608819780122BDE81040FFF7DD
:10B0B400B9BE10BD8B3600200378082B37B5044683
:10B0C4002CD1417A51BB057A072D1BD0082D29D0EC
:10B0D400012D23D16A462946808801F011F9E8B987
:10B0E400019B1B78D3B1A08800F0BAFA4FF6FF7326
:10B0F400984213D00D4B2A461978FFF793FEFFF7B9
:10B1040023FF0BE0808800F0ABFA4FF6FF73984200
:10B1140004D0074B01221978FFF784FEFFF71EFFC6
:10B1240003B030BD034801F0CCFCF7E78B360020B8
:10B134008A3600208836002070B5FFF751FE104E85
:10B14400104D3070FFF74CFE2870FFF749FE0E4C8F
:10B154002070FFF745FE0D4B18703378182B0DD077
:10B164002B78182B0AD02378182B07D0182805D051
:10B174000748012101F079FC002070BD0320FCE7A1
:10B184008A360020893600208B3600208C36002039
:10B194008836002010B503888488522B86B016D0D8
:10B1A400542B21D0502B15D1037B012B12D1827A41
:10B1B400012A0FD1018942F6021399420AD11B4B8D
:10B1C40020461978FFF72EFEFFF7C8FE02E020465E
:10B1D400FFF782FE164B174918780022FFF740FE4E
:10B1E400FFF7B2FE06B010BD1422002101A802F040
:10B1F40063FD112320468DF80430ADF8064000F0BD
:10B2040007FAADF8080000F009F90B4B204619784D
:10B214000022FFF707FE094B204600221978FFF7AA
:10B2240001FE01A8FFF738FED4E700BF8A360020EC
:10B234008936002049AF02008C3600208B3600206E
:10B24400AFDF7047B1DF7047B2DF7047B3DF7047DD
:10B2540073B50F4B0F4C93E803006D4685E803006C
:10B2640000222946208801F044F94FF6FF7623880E
:10B27400B34201D0112801D102B070BD184601F0CB
:10B284002AF900222946208001F033F9EFE700BFB4
:10B2940010E702008E360020044B1A884FF6FF7325
:10B2A4009A4201D0FFF7D4BF704700BF8E3600200A
:10B2B400024B4FF6FF721A80002070478E36002032
:10B2C4002DE9F743804600F0A3F94FF6FF73984247
:10B2D400064637D001224FF003096B460821304659
:10B2E400571C01F011F8BFB2054630BB01990A465C
:10B2F400032342F8049B06314046FFF7A5FF0446AA
:10B3040048B932460821304601F0D2F804462046B6
:10B3140003B0BDE8F0830C280DD0052800D12C46DD
:10B324000821304601F05CF8002818BF03243A468F
:10B33400002DD2D1EBE70125F2E7072814BF04461C
:10B344000C24E4E743F20204E1E72DE9F3418046EB
:10B3540000F05EF94FF6FF73984217D100240325DD
:10B36400264601272B46224631464046FFF76AFF10
:10B37400042820D0082823D00B281DD115F002035F
:10B384000FD18EB9A4B902B0BDE8F0816A46082194
:10B3940000F0B6FF0028E1D1019B9E1D9C881D682A
:10B3A400DFE701250027DDE703251C461E46F9E7F4
:10B3B40003253446F6E71120002F08BF0B20E2E7EF
:10B3C4000020F9E71FB50DF10703039300F020F9FE
:10B3D40002AA012100F094FF20B9039B187805B05C
:10B3E4005DF804FB0020FAE738B504460A48FFF785
:10B3F4002DFF70B9084B43F203054FF6FF7219880D
:10B404002046FFF71DFFA84204D11A8801321A8092
:10B41400F3E7032038BD00BF9036002013B5074A78
:10B42400044692E803006B4683E8030000221946B1
:10B43400204601F05EF802B010BD00BF18E702001C
:10B4440046DF7047F8B5094D094E00240C2707FB69
:10B45400046329785888FFF7CDFC08B9E0B2F8BD39
:10B464000134142CF3D1FF20F9E700BF92360020F9
:10B47400943600200A4B10B519780446FFF7BAFC3D
:10B4840060B1084B00200C2202FB00314988A14224
:10B4940001D1C0B210BD01301428F5D1FF20F9E765
:10B4A400923600209436002038B505460C4609B97A
:10B4B400FF2038BD4FF6FF739842F9D00E4B01229E
:10B4C4001978FFF7AFFC2846FFF7D4FFFF2803D114
:10B4D400FFF7B8FFFF28EBD008490C234343CA18F1
:10B4E40055804FF6FF75CD5221685160131DA28817
:10B4F4009A80A2799A71DCE7923600209436002073
:10B50400421E00F10F0312F8010F10B99A42FAD14A
:10B5140070470120704708B570B171B103780A789B
:10B52400534013F0FE0F08D106220131013002F01E
:10B5340064FBB0FA80F0400908BD0020FCE72DE967
:10B54400F04700F101084F1C06460D4600F11109B1
:10B5540001F1110A10223946404602F04EFB04461E
:10B56400E0B94046FFF7CCFF18B13846FFF7C8FFF3
:10B57400044651464846FFF7CEFF737C03F0FC03B4
:10B58400042B04D06B7C03F0FC03042B02D1201C9D
:10B5940018BF012000F00100BDE8F0870024E8E7AF
:10B5A40030B585B004460D4600F078FC02AA0DF1D2
:10B5B4000601072000F07AFC10B94FF6FF700BE08B
:10B5C400BDF80630AB42F1D003992046FFF7B7FF30
:10B5D4000028EBD0BDF8060005B030BD10B50A4C0C
:10B5E4000A48182222704FF6FF71002283180C3289
:10B5F400F02A5980FAD1FFF7F3FB182820700CBF0A
:10B604000320002010BD00BF923600209436002095
:10B6140008B5FFF72FFFFF281DBF0C235843034B2A
:10B624004FF6FF7018BF185A08BD00BF94360020AB
:10B6340010B50C46FFF71EFFFF280CD0074B0C2259
:10B6440002FB003050F8043F23608388A380837991
:10B65400A371002010BD0520FCE700BF9436002034
:10B66400084A30B500230C2404FB03F18D5A8542AB
:10B6740002D10A44508830BD0133142BF4D14FF663
:10B68400FF70F8E794360020038843B9821C00F168
:10B694000A0312F8010B10B99A42FAD1704701203B
:10B6A400704710B50446FFF7EFFF58B122880B88A6
:10B6B4009A4208D108220231A01C02F09EFAB0FA84
:10B6C40080F0400910BD0020FCE71FB5044600F0DF
:10B6D400E5FB02AA0DF10601072000F0E7FB10B913
:10B6E4004FF6FF7007E0039920464631FFF7D9FF74
:10B6F40018B1BDF8060004B010BD039920462A31E4
:10B70400FFF7CFFF0028E4D0F3E7000010B50C46A4
:10B71400FFF7B0FEFF281FBF0C235843014B1C52F8
:10B7240010BD00BF9436002070B50446FFF798FFA3
:10B734000646204600F068FE4FF6FF75AE4204460A
:10B7440009D040B93046FFF795FEFF281FBF0C23F0
:10B754005843024B1D52204670BD00BF9436002052
:10B7640030B58DB014460D4600F110030DF1FF32D3
:10B7740013F8011D02F8011F9842F9D10D2200218E
:10B7840004A802F099FA2B788DF81F306B788DF8A5
:10B794001E306846AB788DF81D30FFF751FE9DF8DA
:10B7A4002F3023709DF82E3063709DF82D30A370D8
:10B7B4000DB030BD30B5037803F0FE03042B85B023
:10B7C40004460D4618D1411C032201A802F04BFA8D
:10B7D4000322211D03A802F046FA02AA03A928465F
:10B7E400FFF7BEFF032202A901A802F006FAB0FA8D
:10B7F40080F0400905B030BD0020FBE730B5038878
:10B80400102B93B055D1041D0FCC07AD0FC50FCC31
:10B814000FC594E8070085E8070012AD15F8283D28
:10B8240003F0FE03062B4ED000F038FB9DF82030C9
:10B834005B08012B3FD9022B45D102AA0DF1060169
:10B84400072000F033FB00283DD00399284601313E
:10B85400FFF7B0FF0028F0D005E003992846113126
:10B86400FFF759FE38B3BDF80640BDF81C00294661
:10B87400FFF71AFE4FF6FF739C421AD0BDF81C0066
:10B88400FFF7F8FDFF281EBF0C2358430F4BADF8FC
:10B894000C4018BF1C52BDF81C30ADF80A3012AC75
:10B8A400002304F8403D204600F0FEFE2046FFF74A
:10B8B400EDFB13B030BD02AA0DF10601072000F024
:10B8C400F5FA0028C9D14FF6FF74CEE7943600206C
:10B8D40090DF7047A5DF7047B5DF7047F0B585B0DE
:10B8E4000023ADF80810ADF80A106A4602A907460D
:10B8F40003930093ADF80430FFF7EAFF064618B34C
:10B90400134C2588FDF736F82D0445F00105034650
:10B914003A4610492846FAF73FFFBDF80020BDF823
:10B92400023002B933B120880B49000440F0010011
:10B93400FAF732FFBDF8042032B120880749000429
:10B9440040F00100FAF71EFF304605B0F0BD00BF1D
:10B95400E02A002028E7020072E70200B1E70200B3
:10B9640088B14FF0F7130360FB230371F723C380FF
:10B974001723038141F6FB32002301618372C372F2
:10B984008281184670470E207047000037B5034681
:10B9940080880C46A0B91A88232A00F0AD8011D8FB
:10B9A400102A25D0112A53D0A37A4BB1E188002064
:10B9B400FFF790FF002840F0A5800123A072E372F6
:10B9C40003B030BD3A2A4DD0552A67D0242AEBD192
:10B9D4001A7A0B694A73002BE6D04DF67A21ADF83A
:10B9E4000400ADF80010ADF802008DF804207FE0EB
:10B9F400DB7B0A790A73012B13D0022B14D0E18864
:10BA040023898B4205D20020FFF764FF70B901231C
:10BA1400E372217B637B8B42C6D20020FFF75EFF7B
:10BA2400C2E70B88E380EAE74B88FBE7112802D1E1
:10BA34000123A372EDE73B4B1D88FCF79BFF2D040C
:10BA440045F00105024638492846FAF79BFEE0E72F
:10BA5400F723CB8017230B8141F6FB338872C8721E
:10BA64008B81A1E75B89CA88934228BF1346172BB1
:10BA74000A6938BF17230B8162B1C97A51B140F604
:10BA84007721ADF80010ADF80200ADF80430694636
:10BA9400204690470023E372A37285E7DB88C988B8
:10BAA400A072172B38BF17238B4228BF0B46238164
:10BAB400FFF712FF58B11B4B1D88FCF75BFF2D04E9
:10BAC40045F00105024619492846FAF75BFEE27A79
