:020000022000DC
:1070000000000420797302006173020063730200C0
:1070100065730200677302006973020000000000DC
:107020000000000000000000000000006B73020080
:107030006D730200000000006F73020071730200A4
:1070400059CE02007373020085B902007373020007
:10705000737302007373020001B8020073730200BD
:107060007373020073730200737302007373020080
:107070007373020073730200737302007373020070
:10708000737302009186020073730200737302002F
:10709000737302007373020069F9020073730200D4
:1070A0007373020073730200737302007373020040
:1070B0007373020073730200000000000000000000
:1070C0007373020073730200737302007373020020
:1070D00073730200737302007373020019CA020013
:1070E00073730200737302007373020000000000E8
:1070F00000000000737302000000000073730200C0
:10710000000000000000000000000000000000007F
:10711000000000000000000000000000000000006F
:10712000000000000000000000000000000000005F
:10713000000000000000000000000000000000004F
:10714000000000000000000000000000000000003F
:10715000000000000000000000000000000000002F
:10716000000000000000000000000000000000001F
:10717000000000000000000000000000000000000F
:1071800000000000000000000000000000000000FF
:1071900000000000000000000000000000000000EF
:1071A00000000000000000000000000000000000DF
:1071B00000000000000000000000000000000000CF
:1071C00000000000000000000000000000000000BF
:1071D00000000000000000000000000000000000AF
:1071E000000000000000000000000000000000009F
:1071F000000000000000000000000000000000008F
:10720000364937480A1A02D0072291438D4635493C
:1072100035480A1A06D00722914381F309880222D1
:1072200082F3148831483249324A00F045F8324836
:107230003249334A00F040F832483349334A00F0CB
:107240003BF833483349344A00F036F83348344980
:10725000344A00F031F834483449354A00F02CF80B
:1072600034483549354A00F027F835483549002279
:1072700000F02DF834483549002200F028F8344851
:107280003449091A082903DB002202600430016036
:10729000314A90471F482049884205D0026804308F
:1072A00003B4904703BCF7E700208646EC46002075
:1072B00000212A4A9047FEE7884207D0521A05D09B
:1072C000037801300B700131013AF9D170478842DF
:1072D00002D002700130FAE770470000000004207D
:1072E00000E003200000042000000420EC1E030046
:1072F000D8440020A4560020D4730200D4730200A6
:10730000FC070300EC1E0300D8440020D8440020F2
:10731000B4090300B4090300B4090300B40903006D
:10732000B4090300B4090300B4090300B40903005D
:10733000EC1E0300B8300300A4560020A456002021
:10734000A4560020186B0020186B0020186B00203A
:10735000186B0020188B0020A1730200BDDB020017
:10736000FEE7FEE7FEE7FEE7FEE7FEE7FEE7FEE7F5
:10737000FEE7FEE700F002B8FFF7FCBF0F484FF052
:107380000701884385460E4880470E48016841F44E
:1073900070010160BFF34F8FBFF36F8FFFF730BFF6
:1073A00009480A490A4A884207D0521A05D0037888
:1073B00001300B700131013AF9D17047000004200F
:1073C00009AE020088ED00E0B4090300D8440020B3
:0473D000D84400207D
:1073D4007047000007B5044B0093044A402300F0B3
:1073E40032F803B05DF804FBF5730200A5560020E3
:1073F4002DE9F84389461446B2B10F4B0F4E0325CD
:10740400002743F00108224609EB0701002006F09B
:1074140051FD0744241A48B933782BB14FF47A400C
:10742400C047013D02D13570BDE8F88301233370B4
:10743400002CE8D1F8E700BFC0090300A4560020DF
:10744400704706F06BBDF0B595B01C46164608466D
:107454000D4601F0A8FC1A9B0D93CDE908640024A5
:107464002346082205A928460A948DF82C400C943A
:1074740001F0B7FC079B0293BDF81830ADF80C304F
:10748400BDF81A30ADF80E309DF814308DF8114067
:1074940003F00302012A1DD1BDF81440059EC3F375
:1074A400C203C4F383148DF81030A20008230EA97C
:1074B400284601F096FCC6F3952608AB00932246B5
:1074C40002AB0EA9304600F051FB284601F06FFCD8
:1074D40015B0F0BD022AF8D1BDF81640C3F3C203BB
:1074E400A4098DF810300827082C264628BF082642
:1074F4003B4632460EA9284601F073FCA41B08AB98
:1075040002AA31460EA8374400F094FB002CEBD1BC
:10751400DBE7000008B5FFF794FF0421034800F0FF
:1075240095FA034B01225A7108BD00BFA409030058
:10753400D8440020037813F0040216D003F00303A8
:10754400012B03D0022B09D0012070470A68008860
:107554000232C0F3831002440A60F5E70B684288E4
:10756400023303EB92130B60EEE710467047000002
:107574002DE9F04F87B00446851C06A8002300F8C7
:10758400113D0E46904600F015FF444A536833609F
:107594009368516803F580735B1A924602F21C46A5
:1075A40002F5836902F21447AB421BD30023B8F1FE
:1075B400000F6BD0012262F3010343F0040364F370
:1075C4008913DAF804209DF80700D1B20331154479
:1075D4004AF82130CAF8045000F010FF012007B027
:1075E400BDE8F08F0121304601F00DF9484601F065
:1075F4002DF9384601F02AF90DF1180BDAF80800D4
:107604004BF8100DC0B203300AEB80005946FFF767
:1076140091FF029BA0B9DAB20AEB8202D16803910E
:107624009A1C0133DBB20AEB83030292D3F80CB049
:1076340001F00303012B21D0022B03D083460AE07F
:10764400D8B2E0E7BDF80E309B0903334FEA1B4B79
:1076540002EB93030293384601F0FBF810B1029B4E
:10766400CAF808305946304601F0CDF8DAF8083047
:10767400DAF8042003F580739B1A95E7BDF80C3003
:10768400C3F383134FEA1B4B1344E3E7022262F371
:10769400010343F0040364F39F5392E7B8570020B7
:1076A400064B074810B500221A7001F035FB04465A
:1076B40010B9044801F0CAFC204610BDB857002098
:1076C400D0080300E409030030B50A4C71B10A4A3A
:1076D4000A49121BD20800239A4201D1002030BD6E
:1076E40031F82350854202D00133F5E7034654F8BC
:1076F4003300F4E710080300D0080300D844002046
:10770400094B013903EBC000032909D8DFE801F074
:107714000A020406042070470079704740797047D4
:10772400002070470220704710080300034BD3E980
:107734000130C31A58425841704700BFB85700205F
:107744002DE9F04186B0FFF7F1FF0546002840F02F
:10775400E780744CC4F81804BFF34F8FA06806AEDA
:1077640046F8100DC0B2033004EB80003146FFF739
:10777400E1FE029B18B1D4F81824002A53D0DAB2DF
:10778400991C013304EB8202DBB204EB8303D2685D
:10779400DB68049302F00303022B039202914FD19E
:1077A400BDF80E3060484FEA93184746502F28BF63
:1077B400502767F38F1307F10801ADF80E3001F07D
:1077C400C3FA0546002800F0968001F0ECFA03A9FC
:1077D40000230822284601F0F9FA0299CE43F6B2B2
:1077E4000136B600C9B20331B74204EB810124D992
:1077F40008233246BF1B284601F0E8FAFFB24B4982
:1078040006F108033A46284601F0E0FA029B08F123
:10781400030803EB98030293D4F81834002B43D1E4
:10782400D4F8106453E062689A4204D8A2602846EF
:1078340006B0BDE8F081D8B295E708233A46E2E7FE
:10784400012B58D1BDF80C303748C3F383110629F6
:1078540028BF062161F3891302318900ADF80C3089
:1078640001F072FA0546002845D001F09CFA002385
:10787400082203A9284601F0A9FA0026BDF80C2025
:10788400C2F38312B31C96424FEA8303C4D2029913
:107894004A1CC9B20331029204EB81010422284636
:1078A40001F094FA0136E9E7284601F080FAFFF77F
:1078B4003DFF80F00100C5B2B9E7F3685B7923B1FD
:1078C400336829461B6830469847F3681E68002EC3
:1078D400F3D1284601F06BFA06A800F8116D00F008
:1078E40069FDD4F818340BB9029BA3609DF8070016
:1078F40000F084FDDBE7D4F8104454B90C4B0D4878
:107904000D49C01AC008000440F0020000F068F8F5
:10791400CDE7236820469B689847E3681C68ECE73A
:10792400002584E7B8570020D0080300C45700207E
:107934001008030040080300F00903002DE9F34791
:1079440080460F46924601A9012218469946FFF740
:107954000FFE214D78B3019C0026A11C4E4506EB79
:10796400010231D100211D4800F022FF80F31000F4
:10797400631CDBB205EB8303000440EA1840D860C3
:10798400E3B20333012115F8232068F3C50205F897
:10799400232035F8232066F3891225F8232055F88F
:1079A400232067F39F2245F8232061F301026FF33C
:1079B400820205F823202B781BB1FFF7C1FE0028B3
:1079C400FBD102B0BDE8F087D2B205EB82025AF8CF
:1079D4002630D3600136C1E7B8570020D45B0020BD
:1079E40000231A46FFF7AABF13B502AC012344F8DB
:1079F400042D2246FFF7A2FF02B010BD07B5CDE962
:107A0400002302236A46FFF799FF03B05DF804FBE5
:107A14001FB5CDE90123069B039301AA0323FFF7B6
:107A24008DFF05B05DF804FB7FB5CDE90023089B0D
:107A34000293099B03930A9B04930B9B05936A4649
:107A44000623FFF77BFF07B05DF804FB30B50F4951
:107A5400D1F81024002314463CB9C468237152B9E8
:107A6400C1F810042260184630BDE46825799D42AF
:107A740006D02468F0E7D268116821601060F2E74C
:107A840001330A2BE7D14FF0FF33ECE7B85700205E
:107A9400084A38B50123D2F8104413701D4604B9BE
:107AA40038BDE3685D71236820465B689847E368E6
:107AB4001C68F4E7B8570020037A052B10B50C4670
:107AC4000FD0437A23B1084A0849204600F022FF28
:107AD4000749204600F01EFF2046BDE8104000F094
:107AE4000EBF002AF8D0F3E73B0A0300400A030064
:107AF400600A0300C38873B504460D4633B1144AC3
:107B040000921449144A284600F004FF217A0529FA
:107B14001CD0637A4BB1A088FFF7F2FD0F4B1049DC
:107B240053F82020284600F0F5FE227A0D4BA08859
:107B340053F822600021FFF7C7FD0B490346324684
:107B4400284602B0BDE8704000F0E4BE02B070BD4B
:107B54003B0A03004B0A0300430A0300080A03001C
:107B6400400A0300700A0300630A03002DE9F0438E
:107B740085B01F460C9D002306460C46904695F89A
:107B84000C902B7329463846FFF7B4FFB8F1060F63
:107B940009D8DFE808F00412181F283340003146E2
:107BA400284600F0B7FE002229463846FFF784FF36
:107BB40085F80C9005B0BDE8F0832268314628466C
:107BC40000F0A8FEEFE7D4E900233146284600F090
:107BD400A1FEE8E7A36800933146D4E900232846D0
:107BE40000F098FEDFE7E3680193A3680093314651
:107BF400D4E90023284600F08DFED4E723690293DC
:107C0400E3680193A36800933146D4E9002328462E
:107C140000F080FEC7E76369039323690293E36876
:107C24000193A36800933146D4E90023284600F069
:107C340071FEB8E708292DE9F84F80460E4617462D
:107C44001C463AD8002593F80C901D73194610462B
:107C5400FFF750FFDFF884A0DFF884B0AE422ED9DE
:107C640018F805205946204600F054FE0135082D29
:107C7400F4D11849DFF86CB0204600F04BFE4FF009
:107C8400000A564520D918F80A507E2D03D82846F4
:107C940008F0D0F800B92E252A465946204600F0AF
:107CA40039FE0AF1010ABAF1080FEAD1012221468C
:107CB4003846FFF701FF84F80C90BDE8F88F514671
:107CC400204600F027FED1E70349204600F022FEBB
:107CD400E7E700BF360A0300340A0300320A030050
:107CE4002C0A0300380A0300C30710B507D4F02395
:107CF4004008054A145C23401943115410BD09017E
:107D0400C9B20F23F4E700BFA05C002030B5094BD3
:107D14001C78094B196800239C4202DC002210469F
:107D240030BD11F83350854201EBC302F7D0013363
:107D3400F2E700BF705C0020C05C002070B5044610
:107D44000D46FFF7E3FF30B1436823B129462046CF
:107D5400BDE87040184770BD034B04481968002201
:107D6400490800F03ABA00BF745C0020785C002037
:107D740010B5C0B2FFF7CAFF0446007803F02EFD29
:107D840063785A1E53425341834208D1044BD3E9CA
:107D94000023134303D1BDE81040FFF7DDBF10BD3E
:107DA400985C00202DE9F348394A43080446D35C23
:107DB400C2074CBF1B0903F00F030D46042B39D82F
:107DC400DFE803F00328303D410099B30121FFF7B8
:107DD4008BFF02A8002600F8016D00F0EBFA2D4D90
:107DE4000121A4F12007C4F1200001FA07FC21FAC3
:107DF40000F04CEA000C01FA04FBD5E900014BEA5F
:107E040000024CEA0103C5E900239DF8070000F0D5
:107E1400F5FA0FE0002914BF022100212046FFF7E4
:107E240063FF07E049B10321FFF75EFF012120460C
:107E3400FFF784FF02B0BDE8F0880121EEE70029D6
:107E4400F8D10421EAE709B10321E7E7FFF74CFF82
:107E540029462046FFF772FF02A80E4E00F8015D86
:107E640000F0A8FAA4F120070121C4F1200001FACE
:107E740007FC21FA00F04CEA000C01FA04FBD6E9F5
:107E8400000120EA0B0221EA0C03C6E90023BCE747
:107E9400A05C0020985C00202DE9F041124E134FA5
:107EA40000243378A34208DC114BD3E900231343A5
:107EB40018D0BDE8F041FFF74FBF3D6805EBC4089B
:107EC40015F8340003F08AFC98F801104B1E59424F
:107ED40059410A1A514215F834005141FFF762FF23
:107EE4000134DEE7BDE8F081705C0020C05C002056
:107EF400985C0020092AF7B505460C4616463FD97A
:107F040003F092FBD8B11F4B1F481D601F4B204F3D
:107F14001C70204B002120221E6008F028F81E4B04
:107F240000200021C3E90001013CE4B20326FF2C38
:107F34000BD11A4A1A48002100F044F903E003F077
:107F440039FB0028DFD003B0F0BD9DF806308DF872
:107F5400046020B203F0FC0305EBC0026FF382035C
:107F64008DF80630937815F830008DF805303A46D0
:107F740001A903F063FB013CE4B20028D7D0E2E797
:107F84000720E0E7C05C0020A05C0020705C0020BB
:107F9400757D0200745C0020985C00209D7E0200C8
:107FA400D00A030070B5084D084E00242B789C427B
:107FB40001D3002070BD3368012113F8340003F0AD
:107FC400C3FB0134F2E700BF705C0020C05C0020FA
:107FD4001FB50021039001AA44F20100CDE901116B
:107FE40000F004F805B05DF804FB000010B572B6AB
:107FF400FFF74EFDFFF7A4FB0028FBD1104B114CFB
:108004001149E41AE408240444F00100FFF7E8FCF1
:108014000E4B1B68DB0700D500BE0D4944F002007F
:10802400FFF7DEFCBFF34F8F0A490B4BCA6802F41B
:10803400E0621343CB60BFF34F8F00BFFDE700BF87
:108044001008030040080300DF0A0300F0ED00E01D
:10805400EB0A030000ED00E00400FA05D0E9022376
:10806400D1E90201994208BF90422CBF01200020AF
:10807400704700002DE900480C4800F0F1FA0C4B61
:10808400D3E9002312EB000B43F1000C094BD3E9B5
:1080940000239C4508BF93455846614603D21BF113
:1080A40080704CF10001BDE8008800BFE04400206E
:1080B400C85C0020405D002037B505460C460A48E0
:1080C40001A900F000FB60B10570446001A90648F5
:1080D40000F023FB18B1054800F0C6FA002003B0F5
:1080E40030BD0420FBE700BF2C5D0020E0440020ED
:1080F400194B1B782DE9304804461BB90025284646
:10810400BDE830880028F9D0037F03F0FF05002B79
:10811400F4D0FFF7AFFFD4E90223994208BF90429D
:1081240015D3236903B92377D4E905309847216926
:108134000029E3D0237F03F0FF05002BDED0D4E930
:10814400022312EB010B43F1000CC4E902BC2146EB
:10815400024800F09AFFD2E7D05C0020FC0A03003A
:1081640013B5114B1149186801900823582210487F
:1081740000F096FA044698B90E4A0F4801A900F097
:1081840061F9044660B901210B4800F04BFA012360
:108194000A4A0948194600F0AFF9094B01221A703E
:1081A400204602B010BD00BFF80A0300D45C0020D2
:1081B4002C5D002029820200E0440020FFFF7F00A4
:1081C400D05C00203AB103685A614A1E51425141C1
:1081D4001961002070470720704738B5037F0446B3
:1081E4000D4683B98261FFF745FF421941F100034F
:1081F400C4E90223236903B1256121460020BDE8B7
:108204003840FFF759BF002038BD002301460377EB
:108214000120FFF751BF0000014800F021BA00BF60
:10822400E04400202DE9F74F064600F003FA40B180
:108234005849D1E9002312F1807443F10005C1E9E2
:1082440000450021304600F004FA38B1524C23684E
:1082540023B12068FFF74CFF00232360012130463F
:1082640000F0F7F920B1FFF705FF4C4BC3E900011B
:1082740001A94B48484D4B4C4B4F00F05EFA002887
:1082840044D1DFF820A1444CDFF824B1504600F07B
:1082940012FF2368002874D07BB12368D0E902015F
:1082A400D3E90223994208BF90422CD223681B7F52
:1082B4001BB12168504600F0E8FE504600F0F5FE80
:1082C400D0E902890746FFF7D5FEB8EB000869EB51
:1082D400010940464B46012873F1000344DB334D4A
:1082E400A8453FD9FFF798FF42194FF496030021A0
:1082F400584600F021F900283ED1236813B93046CE
:1083040000F0F2F8276003B0BDE8F08F0378012B8A
:108314001DD00BD3022B11D14FF00008204600F0E2
:10832400C4FE002833D080F81C80F7E741680B7F37
:1083340023B901230B77204600F0A7FE01A91848B2
:1083440000F026FA01A9164800F0F7F997E741680A
:108354002B68994202D100232B60EFE7204600F0FE
:10836400ADFEEBE7BA68C0E70021584600F067F9B4
:108374003846FFF7BDFE01E00D28F9D00023236045
:1083840084E7002BBFD1304600F0B2F8BBE70123ED
:108394003B70D3E7C85C0020485D0020405D0020AE
:1083A4002C5D0020FC0A0300D05C0020FFFFB40019
:1083B400E044002070B5EFF3108672B60C4A94685E
:1083C40001239CB993600B4B0B4DD3F880102940CB
:1083D4001160C3F88050D3F8841051604FF0FF321D
:1083E400C3F88420047006B962B670BD0370FAE75E
:1083F4004C5D002000E100E0FC06FFBD084B9A68DC
:1084040010B55AB150B9EFF3108172B6054A1C6821
:1084140014605C685460986001B962B610BD00BF16
:108424004C5D002000E100E0435882B03BB10023E2
:10843400435043580193019B012002B070471846F2
:10844400FBE70000F8B5204B4479204E43F8242084
:108454001F4A204B06EBC4049B1A2279DB081B0439
:1084640032B143F002001C49FFF7BAFA0820F8BD04
:1084740002680C88C2F8084590F904508A78002DE7
:108484004FEA4212ECB2D2B219DB14494F1987F801
:10849400002301226D0904F01F0402FA04F441F8D8
:1084A4002540427906EBC20101240C7146F83200E2
:1084B4000B4943F00300FFF793FA0020D7E704F0D9
:1084C4000F0408490A55ECE7605D0020585D002060
:1084D4001008030050080300260B030000E100E02D
:1084E400480B030014ED00E0036801221A60704792
:1084F400036801225A60704773B58D0005F5A075B5
:108504000068ADB24FF480348C400026C0F80843B4
:10851400C0F84843465101F5A8714559019522F028
:108524007F42019D40F82120C0F844430BB1C0F8BC
:10853400044302B070BD00002DE9F74F8E00984649
:108544004FF4803503688D4006F5A079C3F848538D
:108554001FFA89F9C3F80853074698198A464FF059
:10856400000BD3F8041522F07F44D0F84025C0F85E
:10857400401543F809B053F809300093009B531A8F
:1085840023F07F43012B0CD1254B4FF4806043F043
:10859400010398473B6843F809B053F80930019345
:1085A400019B3868D0F80495C0F84453A4EB090340
:1085B40023F07F43012B1AD10AF5A87A184B013412
:1085C40040F82A4043F001034FF4806098473B6829
:1085D400D3F80435994508D13B680020C3F84453C7
:1085E400C3F8045303B0BDE8F08F0D20FAE7064446
:1085F400C8F1FF18C6F84045D0F80435E21A013A2C
:1086040022F07F4208F57F489045EED3002AE3D15B
:108614000134C6F84045D0F804259342DBE700BF97
:10862400200B030003680222C3F8442309B1C3F8F2
:10863400042370474FF482710068FFF7F5BE4FF4CE
:10864400803303FA01F10368C3F84813C3F808132D
:108654007047890001F5A07189B20068FFF7E4BE94
:108664000368D3F80405704790F90430002B09DB44
:108674005A09012103F01F0301FA03F340320249AE
:1086840041F82230704700BF00E100E0024B034A8A
:108694001B681068184700BF605D0020585D00200B
:1086A40010B561B1B2FBF3F403FB1424A4B244B9D2
:1086B400C0E9001484608281C381204610BD0E206D
:1086C400FCE70920FAE737B550E8013F9DB2C489B9
:1086D40025448489A54228BF2D1B0489A54202BFD5
:1086E400BFF32F8F002207E0C5EA030540E80154D9
:1086F400002CE9D14FF001028DF803200193019B76
:108704009DF803200B6002F0FF0322B10B88006880
:10871400184403B030BD1846FBE70A884B889A42D8
:1087240009D150E8012FC2EA024240E80123002B9C
:10873400F7D1012070470020704737B550E8023F59
:108744001FFAA3F5C488A54202BFBFF32F8F0022EE
:108754000DE0C48925448489A54228BF2D1BC3EAA2
:10876400054540E80254002CE8D14FF001028DF891
:1087740003200193019B9DF803200B6002F0FF038B
:1087840022B14B880068184403B030BD1846FBE79B
:108794000A884B889A4209D150E8022FC2EA224241
:1087A40040E80223002BF7D10120704700207047D6
:1087B40050E8002F0B4640E8003C9CF0000FF7D136
:1087C4001046704750E8003F43EA010240E8002C9D
:1087D4009CF0000FF6D11046704750E8002F02EAD3
:1087E400010340E8003C9CF0000FF6D110467047AE
:1087F40050E8003F03EA010240E8002C9CF0000F1F
:10880400F6D11046704750E8003F03EB010240E800
:10881400002C9CF0000FF6D11046704750E8003F42
:10882400A3EB010240E8002C9CF0000FF6D11046A7
:10883400704750E8003F8B422CBF5A1A1A4640E852
:10884400002C9CF0000FF4D1104670470121FFF773
:10885400B9BF0021FFF7C1BF10B590B1D0E9012322
:1088640001689B1ADBB20A60013BDBB2FF2B026892
:1088740002D10020107110BD11684C1C14600B70E3
:10888400F2E70E20F7E737B5054602A8002400F802
:10889400014DFFF78FFD2A686B68116899420ED964
:1088A400481E106011F8014CEB68298A01FB04345E
:1088B400AB6811791B1ADBB2994238BF13719DF86A
:1088C4000700FFF79BFD204603B030BD37B50546D2
:1088D40002A8002300F8013D0C46FFF76BFD2A684F
:1088E4001368591C1160E968641A298AB4FBF1F40D
:1088F4001C709DF80700FFF781FD03B030BD82684E
:1089040010B504462AB143690168006998470023F9
:10891400A36010BD0EB403B5039929B102AA04AB38
:1089240042F8043D00F072F802B05DF804EB03B0C5
:1089340070470A2938B504460D4602D10D21FFF7C8
:10894400F8FFA3682268591CA160D554D4E9013208
:108954009A4204D32046BDE83840FFF7D0BF38BD63
:108964002DE9F84F9946DDE90A43174682468846C1
:108974000A460126BA420FD24E4538BF4E4613F07E
:10898400010B01D164B900240125B9F1010F1AD9F1
:1089940009F1FF397D43F8E7B2FBF7F20136E9E765
:1089A4009B070ED5B9F1000F0CBF30252025A64238
:1089B400EAD2013C29465046FFF7BBFF002CF6D112
:1089C400E1E72025F3E7B8FBF5F39F42E2D9DFF8AE
:1089D4003890B8FBF5F3504619F8031005FB1388DB
:1089E400FFF7A7FFB5FBF7F5002DF2D1BBF1000FA0
:1089F40002D00CB1A64201D3BDE8F88F2021504625
:108A0400013CFFF796FFF4E75A0B03002DE9F74FFB
:108A1400054690460E46002900F03A8116F8011BDF
:108A2400002958D0252940F0D180002702E047F0E2
:108A340001071646324612F8013B2D2BF7D0302B96
:108A440004D02B2B05D147F00407F2E747F00207C7
:108A5400EFE700242A2B06F101021BD1D8F80030DD
:108A6400191D1B68C8F800101C44164633782E2BB9
:108A74001CD101364FF0000A314611F8012BA2F146
:108A84003000092814D80A2303FB0A23A3F1300A6F
:108A94000E46F1E712F8013CA3F130010929E5D8AB
:108AA4000A2101FB0434303C1646D3E74FF0000A98
:108AB400324612F8011B01F0FB0068281646F8D074
:108AC400692916D054D8582970D00ED825297DD0BC
:108AD4003378002BA2D12B7B002B00F0D9802846C1
:108AE40003B0BDE8F04FFFF70ABF632968D06429DB
:108AF400EED1D8F80020D2F80090111D89EAE9726D
:108B0400C8F80010A2EBE9724FF0010B092A61DCEE
:108B1400D34538BFD3462CB1B9F1000F01DB790737
:108B240000D5013CBA0702D5BAF1000F04D0FB0707
:108B340002D4002C54D10024B9F1000F58DAC9F141
:108B440000092D212846FFF7F4FE07F00302022A4C
:108B540005D1BAF1000F02D1002C4DD10024CDE98A
:108B6400004753460A2249462846FFF7F9FEAFE775
:108B7400732954D016D87029AAD1D8F800301A1DF8
:108B8400C8F80020302128461C68FFF7D2FE78215F
:108B94002846FFF7CEFE00220823CDE90032214605
:108BA4001022E1E775292FD0782991D1D8F8001047
:108BB4000A1DC8F80020CDE90047534610222CE0D6
:108BC400D8F800301A1D1978C8F800202846FFF795
:108BD400B0FE7DE70A230BF1010B92FBF3F295E75C
:108BE400A345A9D220212846013CFFF7A2FEA0E715
:108BF4007807AAD52B21A5E7A345B0D23021284672
:108C0400013CFFF796FEA7E7D8F80010CDE900472E
:108C14000A1DC8F8002053460A220968A4E7D8F8B8
:108C240000301A1DC8F80020F907D3F8009012D5B7
:108C34004F46A7EB090B17F8011B41B9A345BFF435
:108C440047AF20212846013CFFF773FEF6E728468C
:108C5400FFF76FFEEDE7B9F1000F17D0484607F0B4
:108C640002FA0746BC4200D954B909F1FF3919F890
:108C7400011F00293FF42CAF2846FFF75AFEF6E700
:108C840020212846013CFFF754FEEBE74F46E9E775
:108C940003B0BDE8F08F2DE9F047B0F806904479B1
:108CA400D2F800A09DF8208009FB04F4043C064699
:108CB4000AEB0300A0420F4688BFA4EB030A191D68
:108CC400C2F800A0B1FBF9F509FB15114DB9A9EBE8
:108CD4000104544528BF5446BAF1000F04D1BDE83D
:108CE400F0873668013DF1E704317B19701822469C
:108CF400B8F1000F0ED001461846AAEB040A07F09B
:108D04000DF9D145254436684C464FF0000128BF83
:108D14005446E1E71946F0E7FFF79EBDF8B54679FA
:108D24000146721E0546002393422D6803D3002496
:108D3400A64202D8F8BD0133F6E70F682846FFF7CC
:108D4400C5FD01343946F3E72DE9F843068ACD1C05
:108D54000746FFF798FD043E35440446B5FBF6F597
:108D6400F0B14FF48073EDB28380C680013D07609B
:108D740081464FF00008A84512D23846FFF783FD1C
:108D8400064648B163790133637108F10108C9F8F3
:108D9400000007608146EEE72046FFF7BFFF344638
:108DA4002046BDE8F88301210430FFF72CBD10B53F
:108DB400012104460430FFF731FD10F0FF0F04D108
:108DC4002046BDE81040FFF7A9BF10BD1FB504AC95
:108DD40044F8042D002200922246FFF75CFF04B001
:108DE40010BD1FB504AC44F8042D012200922246A4
:108DF400FFF751FF04B010BD33DF7047064B10B5C9
:108E040000241C70054B1C60BFF35F8F04490548A8
:108E140000F025F9204610BD6D5D0020705D002036
:108E24006C0B0300645D002070B5264C05460121DF
:108E34002046FFF7BDFCBFF35F8F264638B9042DEB
:108E44000AD0214B1A781AB1BFF35F8F206070BD2E
:108E54001E4A157001221A701D4C1C4D6368BBB963
:108E6400FEF716FEFEF76CFC0028FBD1174B1B78AF
:108E7400023B012B14D8BFF34F8F1649164BCA6817
:108E840002F4E0621343CB60BFF34F8F00BFFDE7F2
:108E94001B682878984788B1204600F0EAF8DDE797
:108EA40006F046FD08B1FFF7A7FF4FF0804301220B
:108EB400C3F80025BFF34F8F20BFFDE7BFF35F8FDB
:108EC4003060C4E7705D00206D5D00206C5D0020A3
:108ED400645D002000ED00E00400FA0502681368F8
:108EE4005268934291BFD01A80680130801888BFBD
:108EF400C01A7047036881681A685B688B4234BF84
:108F040001330023D31A584258417047F7B5044639
:108F140002A8002300F8013D0D46FFF74BFA204656
:108F2400FFF7E8FF10B1237C002B3CD12268A66830
:108F340053685168B14234BF01310021516030B1EE
:108F44001168A068814234BF013100211160E268D8
:108F54006068511E072920D8DFE801F004101F14AF
:108F64001F1F1F182A78C2542046FFF7B7FF236833
:108F74009A68824200D29860002415E02A8820F87A
:108F84001320F1E72A6840F82320EDE7D5E90067CC
:108F940000EBC300C0E90067E6E7294602FB0300D3
:108FA40006F0BCFFE0E704249DF80700FFF726FA6B
:108FB400204603B0F0BD036818685B68C31A5842C2
:108FC4005841704773B5054602A8002300F8013DD7
:108FD4000C461646FFF7EEF92846FFF7ECFF00288B
:108FE40032D129680B682EB90A68A868824238BF52
:108FF400561C0E60EA686968501E07281ED8DFE810
:1090040000F0040E1D121D1D1D16CB5C23700024E0
:109014009DF80700FFF7F2F9204602B070BD31F861
:1090240013302380F3E751F823302360EFE701EB9B
:10903400C301D1E90023C4E90023E8E703FB0211DB
:10904400204606F06BFFE2E70524E1E7836800228F
:109054005A609A60C3E90422DA601A6070470B68A8
:109064004A684360934208BF0023016008BF43601D
:109074007047436843B10268916852680B44934255
:10908400436004BF00234360704770B544680646DC
:109094000D46206818B1B3682946984718B9236863
:1090A4002B60256070BD2468F3E74368186808B135
:1090B40002681A6070474368186870474368186804
:1090C40000B970478842026802D11A6001207047D3
:1090D40003461046F4E700000D4930B5A1F594723B
:1090E4000225914201D800200EE08B1ADB1093FB7D
:1090F400F5F302EBC30452F83330834205D802D2AD
:1091040004F10802EDE7606830BD2146E9E700BFDD
:10911400C80C030008B5FFF7DFFF024B002808BFA7
:10912400184608BD8A0B030001F01F024B090121F8
:10913400914000EB8300FFF745BB01F01F030122C0
:109144009A404B0900EB8300D143FFF751BB4B0915
:1091540001F01F0150F82300C84000F001007047DF
:1091640043681B6818470000024B5B6803B118474B
:10917400704700BF785D0020020600F00F034CBF6B
:1091840002480348DB001844704700BF845D002098
:10919400CC5D002008B5FFF7EFFF016009B941601D
:1091A40008BD4B681B684360FAE70000024B0146A8
:1091B4005A681868104700BFCC5D002038B5831E7C
:1091C400DBB2062B98BF194A194C98BFD25C23789E
:1091D400A3F10203DBB288BF0022062B9ABF134916
:1091E400CB5C00239342054603D0A2B1114802F0A0
:1091F40089F8022D01D0082D10D101232278022AEA
:1092040001D0082A0CD101229A4202D053B103F0B2
:1092140065F9257038BD02F0AFF8EAE70023EDE701
:109224000022F1E703F050F9F3E700BF82100300D6
:10923400445F0020E84400200378052B73B50446FE
:109244000CD12F4AD2F88434D2F8802412F0FF0FC4
:1092540004D12C4ADBB2052B08BF144623782BBB60
:10926400294B1D68DDB902A800F8045D274DFFF7FE
:10927400A1F82A6812B9264B62881A800121234872
:10928400FFF7C1FA9DF80400FFF7B8F8214B1B68FB
:1092940013B10121204698472B6802B070BD2B689A
:1092A40060889B6898472B685D68DBE701A91A48CA
:1092B400FFF709FA05460028EFD02368036002A8E7
:1092C400002600F8056DFFF775F8114B0F481B8851
:1092D400026801339B1AEB803146FFF769FAA880D4
:1092E4009DF80300FFF78AF801A90B48FFF715FA68
:1092F400084B1B680146002BCFD020469847CCE78B
:10930400007002409C100300385F0020405F002082
:10931400145E0020785D0020205F0020FFF78CBFE2
:10932400012806D002D3022805D070470348FFF76E
:1093340083BF0348FBE70348F9E700BF901003002D
:1093440094100300981003000148FFF775BF00BF95
:10935400A01003002DE9F04F87B006AC002644F8B6
:10936400106D05468946924698466B6800225F68F0
:10937400294601232046B84740B98DF806000490D9
:1093840004460746BE4203D805202AE00136ECE72E
:109394006B680DF10602D3F804B02946012304A832
:1093A400D8476B680DF10702D3F804B029460123AE
:1093B40004A8D8479DF807304B459DF8063015D1D1
:1093C400544511D1109A136088F8003088F8019040
:1093D4006A68023B5468294608F1020204A8A047BF
:1093E400002007B0BDE8F08F0134E4B26A68023BA4
:1093F400D2F804B02946002204A8D8479DF80630C4
:109404001F44BFE72DE9F743082305464FF4847250
:109414002F493048FFF744F9002856D12E4803F06D
:1094240073F80446002835D12C4B18702C4B186067
:109434002C4B0146186048222B4806F098FD482220
:1094440021462A4806F093FD294B3DBBC3E900554C
:109454001D72002002F00AFB18B1852801D0FEF726
:10946400B7FD244E96F80890002506F10908ECB2E1
:10947400A14504D904EB440414EB080423D102A944
:109484000B2301F8043D1B48FFF76AFE044608B1AC
:1094940002F006FF204603B0BDE8F08395E807001C
:1094A40083E80700D5E73146E05CFFF773FE637895
:1094B400FAB2934205D9A3781344DC4207F10107B9
:1094C400F1D10135D3E70027F1E70324E2E700BF38
:1094D400165E0020205F002021930200445F0020DC
:1094E400305F0020345F0020845D0020CC5D0020CC
:1094F400785D0020B010030010B502F09DFF08B99C
:10950400082010BD02F0A0FF04460028F8D104484A
:1095140002F0DEFA0028F4D0FEF75AFD2046F0E708
:109524008C10030002F0C6BE03F004BB4FF080436E
:10953400D3F83824920702D50348FFF77DBED3F849
:109544003824D107F4D47047A110030007B502A84A
:10955400822300F8043DFFF76FFE03B05DF804FBBF
:109564002DE9F341037A00F109040325064615FBAE
:1095740003452746AC4231D01CB394F80180002146
:1095840006E0E05CFFF7F8FD03680131002B36D1FB
:10959400CBB2984503D9A3780B44DC42F1D1033410
:1095A400E8E73146E85CFFF7F5FD6A785FFA88F38F
:1095B4009A4205D9AA781344DD4208F10108F0D192
:1095C4000134337AE5B2AB4203D905EB45057D1985
:1095D40001D10C4B05E04FF00008E6E70024F0E76A
:1095E40013681A68002AFBD102A91E600B2301F834
:1095F400043D3046FFF7B4FD02B0BDE8F081112010
:10960400FAE700BF305F0020024B1878003018BF23
:10961400012070473C5F002000F00F03072B10B5BA
:10962400044604D803F09AF8204603F04BFB204686
:10963400BDE8104003F0F6BA03F0C2BA014B186853
:10964400704700BF305F002070B50A4B1B687BB1C8
:109654001E7A0022D5B2B54201D31B68F6E7013267
:1096640002EB42041C44A4798442F3D101B10D708D
:10967400184670BD305F00201146FFF771BD08B574
:1096840000F00F03082B07D8FFF776FD006818B128
:10969400BDE80840FFF764BD102008BD38B5054B90
:1096A40005461C6804B938BD29462046FFF758FD15
:1096B4002368F6E7305F002038B5074B05461C6881
:1096C4000CB9062038BD29462046FFF749FD062877
:1096D400F8D12368F3E700BF305F002038B50446B3
:1096E4000D4602F052FF48B1054B1B78022B05D101
:1096F40029462046BDE8384002F04ABF082038BD5C
:10970400445F002038B504460D4602F03EFF48B1E0
:10971400054B1B78022B05D129462046BDE838406D
:1097240002F0AEBF082038BD445F0020F8B543689E
:109734009B6805460C46164613B92EB1072002E075
:1097440098470628F9D0F8BD2B7AA34213D90935D6
:1097540004EB44042C446778F3B29F4201D8002000
:10976400F1E762789A4208D9A219A378D05CFFF78E
:1097740053FF0136F0E77378FFDE00231B78FBE725
:109784004368DB6870B505460C4603B198472B7AED
:10979400A34213D9093504EB44042C44002566780C
:1097A400EBB29E4200D870BD62789A4209D9621920
:1097B400A378D05C03F004FA0135F1E700235B7869
:1097C400FFDE00231B78FBE743681B6903B11847DE
:1097D4001846704770B5084B1C6804B970BD267AEA
:1097E4000025E9B2B14201D32368F5E700222046FF
:1097F400FFF79CFF0135F4E7305F002070B5084B9C
:109804001C6804B970BD267A0025E9B2B14201D3BF
:109814002368F5E72046FFF7B3FF0135F5E700BFFE
:10982400305F002038B50478092C054620D023D8B1
:10983400032C00F0BC8012D8012C00F0A68040F26A
:109844008D800320FFF7BAFC0220FFF78DFC284629
:10985400FFF724FF2846BDE83840FFF7A7BC052CD6
:10986400F8D0C0F0B380062C00F0BF80082C13D1D0
:109874002046FFF779FC95E0812C0ED005D80F2CFB
:10988400F6D0802C44D00A2CF1E7832C4CD021D381
:10989400842C53D0852CDDD038BD5E48FFF786FC80
:1098A4005C48FFF7FBFE0D20FFF75EFCFFF7A6FF09
:1098B40000F0B9F9584B1B6853B9584B187A00F0AB
:1098C400010002F095FD0120BDE83840FFF776BCA9
:1098D4000120F4E7FFF792FF03F00AF90020FFF7F5
:1098E4006DFC4F48FFF7DAFE4D48FFF75FFC0E2092
:1098F400FFF73AFC4B4B1B78023BDBB2062BCBD871
:10990400494AD35C002BC7D0BDE8384001F034BDD0
:10991400444B1B78062B05D0072B01D0052BBBD15C
:109924000220D1E70820CFE73E4B1B78032BB3D1AD
:1099340003F01AF90028AFD00420C5E7394B1B788F
:10994400032B05D103F010F910B10420FFF736FC06
:1099540002F084FD00289FD00620B5E7314B1B7828
:10996400032B01D0082B02D13048FFF75BFF002006
:10997400FFF7FAFB284B1C68002C8DD020462946A3
:10998400FFF7EEFB23685C68F6E7FFF737FF00F0AC
:1099940041F90220FFF712FC2046FFF7E5FB2846B9
:1099A400FFF704FC2846BDE83840FFF777BE1D4B9F
:1099B4001B78082B06D10220FFF700FC02F098FD6B
:1099C4000320EAE70520FFF7F9FBF9E70320FFF797
:1099D400CBFB1748FFF7EAFB1548FFF75FFE114B77
:1099E4001B78062B9CD107206EE78078FFF7C4FB19
:1099F400294643680068984700283FF44DAFA8788B
:109A040000F00F03013B062B3FF646AFBDE838409C
:109A140002F07EBEA2100300345F0020785D0020B7
:109A2400A3100300445F002082100300A41003006D
:109A3400A510030073B5234D002301932B6823B9AC
:109A440021492248FEF779FE28602C68ECB1A688EB
:109A540086B1E388B3F5006F24BF0023E380E38875
:109A6400ADF806305A1C013EE280A68001A8FFF73B
:109A7400D9FE07E02046FFF7D5FE13491348FEF749
:109A840087FE2E60012002B070BD114B18680028BB
:109A9400F9D002A800F8054DFEF78CFC0D4B0C48DC
:109AA4001A88B2F5006F28BF1C801A88ADF806200A
:109AB400511C19800121FEF7BCFE9DF80300FEF73E
:109AC4009DFCD3E7485F0020745D0020205F0020E8
:109AD400405F0020145E0020002070472DE9F04F05
:109AE4004B6887B081460C4602925BB90B681B68D1
:109AF4001B683BB98D682DB9C0E90055284607B0ED
:109B0400BDE8F08F02F000FEE768029B9F4228BF89
:109B14001F464FF0000804F11003834601974646A0
:109B240001250393019B002B2DD0A368019A616842
:109B340093429A4628BF924641B352460BEB060025
:109B440006F0ECF900236360A268E3680199A2EBD4
:109B54000A02A3EB0A03A1EB0A01A260E3600191EC
:109B640056440ABBB8F1000F38D022681268126854
:109B74002260002B30D02368D3B963601EB1029BEE
:109B8400B34288BF0025C9E900B6B7E7002BDBD094
:109B9400216803984B680BEB0602D3F80480534604
:109BA400C0474FF00108CFE7002B08BF0025B9E7F5
:109BB4000DF1180A00234AF8083D21684B685B68D8
:109BC40000221F4650460123B84708B92061A9E77F
:109BD400A3680133A360F0E71D46A3E7002BCAD1B5
:109BE40045469FE7084B1A7882420CD0052818BFD7
:109BF400064A187018BF137805481CBF23F00203E7
:109C04001370FFF70FBE7047585F0020745F002089
:109C1400C010030008B50020FFF7FEFC8020BDE85B
:109C24000840FFF7F9BC08B50020FFF705FD8020C8
:109C3400BDE80840FFF700BD38B505460C4602F004
:109C44000BFEA84205BFD4E90001034B1020C3E971
:109C5400000108BF002038BD785F00207FB5C388AD
:109C640093421D4628BF154693420E46144624D9F6
:109C7400802002F085FCB4FBF0F303FB1040B0FA43
:109C840080F04009039004A8002300F80D3DCDE9BD
:109C94000165FEF78FFB01A98020FFF71FFD044635
:109CA40020B907498020FFF7C7FF04469DF8030049
:109CB400FEF7A4FB204604B070BD0020E2E700BF1D
:109CC400F41003002DE9F04F0C78062C87B00E46F3
:109CD40000F0008220D8022C3DD003D8012C32D0D1
:109CE4000624F1E1032C32D0052CF9D10DF10D003D
:109CF400B24D8DF80C4002F041FD00232B609DF81D
:109D04000D3003F01F02032A00F28881DFE812F00D
:109D14002D0022017D0165000D2C00F0C98107D8BA
:109D24000B2C18D00C2CDBD10020FFF75BFF12E0CA
:109D34000E2C00F0CD81852CD2D1A14B1B78032BA6
:109D4400CED1042000E00320FFF74CFFC8E79D4874
:109D5400FEF77FFD08B90024B6E19B4B01221A608F
:109D6400BFF36F8FBFF34F8FF5E7C3F34116A6BB65
:109D7400DB099DF80E1000F0A680062916D00829EC
:109D840000F0948049BB914C0222204606F0EFF883
:109D9400237843F0010222708D4A1278910744BF60
:109DA40043F003032370022288490EE09DF810302B
:109DB400022B16D0032B69D0012B0ED1BDF8133022
:109DC400002B00F07281834912220DF10D00FFF780
:109DD40045FF0446062C40F0298103A8FFF76CFCDC
:109DE40011E1BDF81370002F00F05F81092F28BF27
:109DF4000927FFF723FC4FF009080446B14674BB5A
:109E0400724C75493A46204606F088F82671A4F843
:109E14000280FFF7F9FB18B1E37943F02003E37103
:109E2400FFF70CFC6D4BC3E900049F60BDF81320E1
:109E3400DA6001A800238DF80430FEF7BBFA684904
:109E44008020FFF75FFC044620B966498020FFF7B5
:109E5400F3FE04469DF80400FEF7D0FABAE7CDF805
:109E640004904FF0000A63680022D3F804B021463E
:109E7400012301A8D84730B9237A1E442368D0446B
:109E8400F6B21C68BBE70AF1010AECE7BDF813302F
:109E9400002B00F00A81BDF811109DF80F0000F0AE
:109EA40087F90146002898D002788EE7444A127850
:109EB400052A03D1454A1370012275E7042A8CD17F
:109EC400424B1E70F8E7032910D009292CD0012930
:109ED40083D1BDF80F30012B7FF47FAFFFF794FBE4
:109EE40060B13B4A137823F002030FE0BDF80F3052
:109EF400012B7FF472AFFFF787FB18B90F2402F030
:109F0400A1FCE1E0324A137843F0020313702B689A
:109F1400002B00F0CA8002F09FFC044600287FF466
:109F24001AAF02F051FCCFE0254B1B78043B012B08
:109F340001D90824E3E79DF80F302BB9FFF75EFC45
:109F44000420FFF74FFEE2E7012B55D1FFF742FC57
:109F54000520F6E701A99DF81100FFF775FB0746F8
:109F640008B91024CBE703AA9DF80410FFF784FB7B
:109F7400062804465AD19DF80D2012F0600FBED178
:109F84000F4B9DF8041018789DF80E30D6092BD08D
:109F940073B10A2BB3D10528CBD13846FFF714FC93
:109FA4000A49324608700DF10D00FFF757FE2AE00A
:109FB4000528BED105490B800222F4E7785F002012
:109FC400585F0020805F00205C700240845F0020A6
:109FD400745F0020E0100300C11003005C5F0020E8
:109FE4000C110300F41003000B2B88D10528A0D119
:109FF400BDF80F30FF2B01D9072480E79DF80F200F
:10A004003846FFF793FB044610E09DF81100020761
:10A0140006D19DF80D3013F0600F0BD006246EE7C7
:10A0240003A9FFF72CFB06280446F2D0002C3FF4CA
:10A034006EAF64E79DF80E20334B9DF811401B78FA
:10A04400012A1ED012D3032AE8D104F00F02072AF2
:10A05400E4D8BDF80F100029E0D1052B02D0002A66
:10A064007FF467AF204602F053FB50E7052B02D084
:10A0740023077FF45EAF204602F056FB2349088095
:10A084009AE704F00F02072AC8D8BDF80F10002978
:10A09400C4D1052B02D0002A7FF44BAF204602F036
:10A0A4005DFB204602F00EFE31E702F0C1FB52E6F2
:10A0B4004FF08043D3F8384414F0010401D0022057
:10A0C40033E60120FFF78EFD204607B0BDE8F08F90
:10A0D40001202AE6C8780328F6D00D4D2B688BB1F1
:10A0E40000222A6069689847044600287FF407AF75
:10A0F4002B6823B1B378002B7FF42DAE11E702F067
:10A1040097FBE1E70E24FAE6585F0020845F002005
:10A11400785F002008B1402303600148704700BF06
:10A12400845F002070B54FF0805286B0D2F8A8301A
:10A13400D2F8A42000926FEA83436FEA934302ADFE
:10A144009BB2094A094E0D21284605F0AEFE0024B3
:10A15400284605F088FF844201D306B070BD2B5D0C
:10A16400A3550134F4E700BF14110300C45F0020B9
:10A1740010B50E4B53F8204023780BB9A01C10BD2A
:10A184000020FFF7C7FF2246E4B2131B12F8011B9D
:10A19400DBB231B901335B00DBB243F440730380BB
:10A1A400EDE7131BDBB220F81310EEE77811030080
:10A1B400034608B9FFF7DCBF012807D0022805D001
:10A1C400032803D0042801D0052809D1054A02EB4D
:10A1D4004303587820B1044B53F82030002BE9D1C5
:10A1E400002070479011030078110300C36903B184
:10A1F40018477047036800221A845A62DA62C3E976
:10A204001E22C3E9202203F134025A677047CA6947
:10A214009A4210B543600CD38C690460086F1844EB
:10A224000867D01A1C44C86100308C6118BF012033
:10A2340010BD01F1280202608B670020F8E70000DE
:10A24400F0B5C24D0C7A2C70046840F24536B44225
:10A2540000F0D58200F2E18040F22736B44200F0EB
:10A264004982B4F54A7F70D240F21736B44200F006
:10A274000482B4F5467F26D2B4F5457F00F0E2812E
:10A284000BD8002C00F0CC8140F21336B44200F01D
:10A29400CF81002303601846C9E140F21536B44269
:10A2A40000F0DE8140F21636B442F2D100240AB145
:10A2B40006791655013402269C420671C0F0DE81EF
:10A2C40040F21733B1E140F21A36B44200F0EE81A5
:10A2D40014D8B4F5467F00F0DC8140F21936B4425C
:10A2E400D7D100240AB106791655013400269C42C0
:10A2F4000671C0F0DC8140F21A3396E140F2213657
:10A30400B44200F0EA8140F22236B442C1D10024C2
:10A314000AB1067916558E4E0F7A3678DFF834C2B4
:10A32400B74204F1010440F25A8301F1090706EB34
:10A33400460607EB060E9C42BE5DCCF800E00671B3
:10A34400C0F0D98140F227336FE1B4F54D7F00F0BE
:10A35400108239D840F22D36B44200F0E6811CD880
:10A36400B4F54A7F00F0D28140F22936B44290D14C
:10A3740000240AB106791655764E0F7D3668367874
:10A38400B74204F1010440F0E98102269C420671BF
:10A39400C0F0CC8140F22D3347E140F22E36B44276
:10A3A40000F0CF8140F22F36B4427FF472AF002424
:10A3B4000AB10679165501340026A342067100F24B
:10A3C400F28140F23D3330E140F23D36B44200F0D8
:10A3D400E98107D840F23536B44200F0D68140F224
:10A3E4003636E1E740F24336B44200F0F081B4F58A
:10A3F400517F80F0F88140F24236B4427FF449AF95
:10A4040000240AB106791655013424269C420671AB
:10A41400C0F0DE8140F2433307E140F25736B442E4
:10A4240000F05782B4F5567F6BD240F24D36B442F9
:10A4340000F01D8232D840F24A36B44200F0FE8168
:10A4440016D840F24636B44200F0E58140F249366F
:10A45400B4427FF41EAF00240AB1067916550134C4
:10A4640024269C420671C0F0EA8140F24A33DCE0C3
:10A4740040F24B36B44200F0ED81B4F5537F7FF4E3
:10A4840008AF00240AB10679165501348E7D067191
:10A494009C42C0F0ED8140F24D33C6E040F25236AA
:10A4A400B44200F0FD8115D8B4F5547F00F0EB817F
:10A4B40040F25136B4427FF4ECAE00240AB106797E
:10A4C4001655013402269C420671C0F0EA8140F21E
:10A4D4005233AAE040F25336B44200F0ED8140F228
:10A4E4005636B4427FF4D5AE00240AB10679165527
:10A4F400013424269C420671C0F0EC8140F25733AB
:10A5040093E040F27336B44200F02882B4F55D7FE4
:10A5140047D240F25A36B44200F0F4811CD8B4F564
:10A52400567F00F0E28140F25936B4427FF4B1AE76
:10A5340000240AB10679165501348E7D06719C42B9
:10A54400C0F0E18140F25A336FE000BFD35F0020D6
:10A55400D25F0020D85F002040F26E36B44200F093
:10A56400F08140F26F36B4427FF493AE00240AB116
:10A5740006791655AE4EAF4F36683F7896F801C04F
:10A58400BC4504F1010440F22F8296F802C03E4417
:10A594009C4216F80C600671C0F0E18140F27333FE
:10A5A40043E0B4F5617F00F0F98114D8B4F55E7F1F
:10A5B40004D040F27D36B4427FF46BAE00240AB17D
:10A5C4000679165501344026A342067100F2E7814C
:10A5D4004FF4617329E040F28A36B44200F0F58109
:10A5E40040F28F36B44200F0F08140F28536B44236
:10A5F4007FF44FAE00240AB1067916558C4E0F7DB8
:10A6040036683678B74204F1010440F0D4810E6A0A
:10A614009C4236780671C0F0D98140F28A3304E056
:10A624000824047123B940F2133303600120F0BD00
:10A634000AB1047914700B24012B04710ED84FF461
:10A644004573F2E700240AB10679165501340E7DEC
:10A6540006719C4205D340F21533E6E70124F2E784
:10A6640000240AB106791655013402269C4206716B
:10A67400FFF41DAE40F21633D7E700240AB1067981
:10A684001655013402269C42067103D34FF44673D7
:10A69400CBE700240AB10679165501344E7E0671C3
:10A6A4009C42FFF41FAE40F21933BEE700240AB106
:10A6B40006791655604E0027013437705E4E3778A0
:10A6C4002E78B74202D340F29A33AEE70926A3426A
:10A6D400067103D840F22133A7E700240AB10679B2
:10A6E4001655013404269C420671FFF411AE40F263
:10A6F40022339AE700240AB106791655013400265C
:10A704009C42067103D34FF44A738EE700240AB1C6
:10A7140006791655464E36680134767806719C42A1
:10A72400FFF427AE40F229337FE700240AB106790B
:10A734001655013402269C42067103D340F22E338F
:10A7440073E700240AB10679165501344E7E06716A
:10A754009C42FFF42DAE40F22F3366E78F7DB74263
:10A764007FF42AAE0A269C42067103D34FF44D733C
:10A774005BE700240AB106791655013400269C4291
:10A78400067103D340F235334FE700240AB106794A
:10A794001655013400269C420671FFF409AE40F2BE
:10A7A400363342E700240AB106791655204E0F7D50
:10A7B40036683678B74204F1010440F0A8800526D3
:10A7C4009C420671FFF41DAE40F242332DE7002493
:10A7D4000AB106791655013400269C42067103D34A
:10A7E4004FF4517321E700240AB106791655013458
:10A7F40010269C42067103D340F2453315E700242A
:10A804000AB106791655013401269C42067103D318
:10A8140040F2463309E700240AB10679165501349B
:10A8240005269C420671FFF417AE40F24933FCE65C
:10A83400D85F0020D45F0020D25F002000240AB13A
:10A8440006791655013401269C42067103D340F261
:10A854004B33EAE600240AB106791655013403267F
:10A864009C420671FFF40EAE4FF45373DDE60024F0
:10A874000AB106791655013404269C42067103D3A5
:10A884004FF45473D1E600240AB106791655013405
:10A8940024269C420671FFF411AE40F25133C4E603
:10A8A40000240AB106791655013402269C42067129
:10A8B40003D340F25333B8E600240AB1067916559F
:10A8C400013405269C420671FFF40FAE40F2563364
:10A8D400ABE600240AB106791655013406269C42DB
:10A8E400067103D34FF456739FE600240AB1067928
:10A8F400165501340E7D06719C42FFF41AAE40F2E7
:10A90400593392E600240AB1067916550134374EBC
:10A9140036687778364E3770364E00273770354EA6
:10A924003778334E3678B74204D3334F3E78013606
:10A934003E70C3E60726A342067103D840F26E3385
:10A9440073E600240AB106791655013405269C42A3
:10A954000671FFF40CAE40F26F3366E600240AB1D0
:10A9640006791655214E0F7D36683678B74204F1C4
:10A97400010407D103269C420671FFF420AE4FF474
:10A984005E7352E68F7DB7427FF41DAE02269C4271
:10A994000671FFF414AE40F27D3346E600240AB19A
:10A9A40006791655013400269C420671FFF423AE45
:10A9B40040F2853339E68F7DB7420BD100269C42A5
:10A9C400067103D340F28F332FE600240AB10679CF
:10A9D40016550134074F3E7801363E709FE7002339
:10A9E400CCF800301B78FFDE0023FBE7D85F0020A3
:10A9F400D15F0020D45F0020D25F002010B5044650
:10AA040058B90868037B202B09D100F10E010722F5
:10AA1400183005F083FA204610BD0320FCE7062019
:10AA2400FAE7037A012B08D9427B012A00F10C03CF
:10AA340006D9827B13445878704700235B78FFDE85
:10AA440000231B78FBE700002DE9F0430B7889B065
:10AA540005460E460E2B1AD8DFE813F05C004201BF
:10AA64005C005C0019000F00A700190019003F01E9
:10AA740019005C005C005C005C004A78D1094FEA74
:10AA8400521330D013F0030303D0012B21D006243A
:10AA94001BE002F01F02012AF9D1B478062CF6D18A
:10AAA40005A80393FFF736FB03ABF27831790093E3
:10AAB400074603462846FEF74DFC052805D0039AB1
:10AAC4003946701CFFF7CAF80446204609B0BDE8B1
:10AAD400F083B378212BDAD1B6F80720072AD6D130
:10AAE40001681831EDE7012BD1D1B3780768202B29
:10AAF40012D0222BCBD1B6F80730002BC7D197F850
:10AB04002030B6F803403C8403F0010304F0010450
:10AB1400A34224D10024D8E7B6F80730072BB6D1D6
:10AB240008A800244FF4E462BA8100F8154D0E37EA
:10AB3400CDE905730794FDF73DFC204605A9FEF712
:10AB4400CDFD044630B96B4B03A9CDE90335FFF7BE
:10AB540073F804469DF80B00FDF750FCB5E7A4B26A
:10AB6400002C0CBF03210221FFF740FB002CD1D1A4
:10AB74002B7A012B40F2B8806B7B05F10C02002B81
:10AB840000F0B480AB7BD05C01F008FF2846FFF7EF
:10AB940048FF01F003FF07F134037C62FC62C7E95C
:10ABA4001E44C7E920447B678FE7037A002B00F03B
:10ABB4009F80837A00F10901002B00F09780C27A0C
:10ABC400B3788A5C9A42A5D01B06F4780AD524B1DE
:10ABD400032C0CBF0024032477E701212846FFF748
:10ABE40005FB72E7012C95D003D3032C92D00324E8
:10ABF4006BE70668FFF715FF3F4BB76A059306F14D
:10AC04000C0380460693B7B9F36FF46AB767C6E9D5
:10AC14001F736CB106F12C0103C906F1240383E808
:10AC24000300F76205A94046FEF76CFD044600E008
:10AC340074620021D2E7D6F88490706A4F4528BF29
:10AC44004F4606F134043A46214605F067F9F36F9E
:10AC54003B44C6F88030A9EB0703B367F36A0022CC
:10AC64003C44F2677467002B35D006F12C0999E84F
:10AC7400030006F1240787E803001446F262B36F69
:10AC8400706A1BB9746A002CCCD1D2E7B26A716FB6
:10AC94009A4216D805F042F9B36AB26FC6F880300A
:10ACA400D21AB267726F1A44726700212846FFF7FE
:10ACB4009DFAF36A7BB199E8030087E80300F46224
:10ACC400DDE71A4605F02AF9B26FB36AF2679B1AF8
:10ACD400B362736A13447362D4E70321FFF786FAFD
:10ACE4002846FFF787FA15E76378FFDE1B78FCE751
:10ACF4005B78FAE701AA020013A202001FB50368F9
:10AD04001B8CDC0714D5037A012B13D9437B00F188
:10AD14000C0493B1837BE05C9306CDE901120CBF74
:10AD24000123002301A90393FEF7D8FC04B010BD4E
:10AD34000820FBE700235B78FFDE1B78FCE7036851
:10AD4400D3F8800070470000F7B50468238CDB0754
:10AD54000F4616463BD5656A002D32D1A16F91424C
:10AD64000ED3616F384605F0D9F8A36FC4F880603C
:10AD74009B1BA367636F33446367284603B0F0BD2E
:10AD8400C4E90972FFF74DFE134B009304F10C0361
:10AD94000646019369B10A463846616F05F0BEF86C
:10ADA400A36FA26AD21AA262626AC4E91E531A4449
:10ADB400626269463046FEF7A5FC002808BF92206F
:10ADC400DCE7E36A2BB9C4E90B129220D6E708202A
:10ADD400D4E71120D2E700BF13A20200064B1B6880
:10ADE400082B06D1054B1B68032B02D8044AD05C00
:10ADF40070470020704700BF30010010340100107C
:10AE0400B811030008B5674B1A68082A08D14FF037
:10AE140080420021C2F80C11C2F81011C2F8381592
:10AE24001B68082B46D14FF080525F4BD2F80414B4
:10AE3400C3F82015D2F80814C3F82415D2F80C145A
:10AE4400C3F82815D2F81014C3F82C15D2F814142A
:10AE5400C3F83015D2F81814C3F83415D2F81C14FA
:10AE6400C3F84015D2F82014C3F84415D2F82414BA
:10AE7400C3F84815D2F82814C3F84C15D2F82C148A
:10AE8400C3F85015D2F83014C3F85415D2F834145A
:10AE9400C3F86015D2F83814C3F86415D2F83C141A
:10AEA400C3F86815D2F84014C3F86C15D2F84424DA
:10AEB400C3F87025FFF792FF10B13C4B3C4A1A606F
:10AEC400FFF78CFF18B13B4BFB22C3F81825FFF7A3
:10AED40085FF48B13849394B0A681B6822F00F02D4
:10AEE40003F00F0313430B60FFF778FF18B1344BE3
:10AEF4004FF400721A602B4B1B68082B09D14FF0DA
:10AF04008043D3F80024D20744BF6FF00102C3F892
:10AF140000242C4AD2F8883043F47003C2F88830F5
:10AF2400BFF34F8FBFF36F8F4FF01023D3F800227E
:10AF3400002A03DBD3F80432002B2FDA224B012240
:10AF4400C3F80425D3F80024002AFBD04FF01022C4
:10AF54001221C2F80012D3F80024002AFBD04FF0CB
:10AF640010231222C3F80422174B1A46D3F80014F4
:10AF74000029FBD00021C3F80415D2F80034002BBB
:10AF8400FBD0BFF34F8F0F49104BCA6802F4E06245
:10AF94001343CB60BFF34F8F00BFFDE70C4B0D4A4B
:10AFA4001A6008BD3001001000C000408C560040FB
:10AFB4004881030000F00040E40E004058020010F5
:10AFC4004096024000ED00E000E001400400FA0574
:10AFD400F04400200090D003074B1B5C1F2B8ABF5A
:10AFE400064A4FF0A04203F01F03D2F80405D840EC
:10AFF400C04300F001007047C0110300000300507B
:10B00400074B1B5C1F2B86BF03F01F0305494FF042
:10B01400A041012202FA03F3C1F80C35704700BFC6
:10B02400C011030000030050074B1B5C1F2B86BF9D
:10B0340003F01F0305494FF0A041012202FA03F374
:10B04400C1F80835704700BFC01103000003005069
:10B0540008B50020FFF7E8FF0120FFF7E5FF022015
:10B06400FFF7E2FF0320BDE80840FFF7DDBF08B5A6
:10B074000020FFF7C5FF0120FFF7C2FF0220FFF702
:10B08400BFFF0320BDE80840FFF7BABF0A4B185CB6
:10B094001F288ABF094B4FF0A04300F01F00D3F8CC
:10B0A40004250121814021EA02000A40C3F8080571
:10B0B400C3F80C25704700BFC01103000003005003
:10B0C400074B1B5C1F2B8ABF064A4FF0A04203F0BC
:10B0D4001F03D2F81005D840C04300F001007047A8
:10B0E400BC110300000300500B2809D00C2809D020
:10B0F400182809D019280CBF03204FF0FF307047DF
:10B10400002070470120704702207047014B185CF3
:10B11400704700BFBC110300C20710B504460CD52C
:10B124004FF0A0430322C3F83427C3F83827C3F8E9
:10B134003C27C3F84027FFF78BFFA3070AD54FF03E
:10B14400A0430C22C3F82C27C3F83027C3F8602788
:10B15400C3F8642710BD42DF704743DF7047000027
:10B1640038B5084C04F108030546002818BF1C46EE
:10B1740023682BB11A6822605B6828469847F7E772
:10B1840038BD00BFE45F002020B9054B01225A708E
:10B19400FFF7E6BF012802D1014A9070F8E7704733
:10B1A400DC5F002020B9034B01225A70FFF7D8BF9F
:10B1B400704700BFDC5F002038B50E4C2378B3B96C
:10B1C4000D486360A3602361E36000F00BF905465A
:10B1D40004F0AEFB08B900F013F901232370074B08
:10B1E400D3F800340BB10123A370284638BD85255C
:10B1F400F5E700BFDC5F00208DB1020000000140D4
:10B2040037B5184CA378054603F0FF029BB110B183
:10B2140043680120984700230DF107008DF807309B
:10B22400FDF7C8F8E3689DF807000133E360FDF714
:10B23400E5F803B030BD0DF107008DF80720FDF7E8
:10B24400B9F825B1226913463BB92A602561E36840
:10B25400002BE7D100F0EAF8E4E79D42F7D01B6841
:10B26400F2E700BFDC5F002037B502A800230B4CD7
:10B2740000F8013DFDF79EF8E368013BE360E368F5
:10B2840033B9074BD3F8005415B900F0DDF8A570B5
:10B294009DF80700FDF7B2F803B030BDDC5F002075
:10B2A40000000140012813B50DD003D303281FD09B
:10B2B40002B010BD114B0122C3F88020BFF34F8FA1
:10B2C400BFF36F8FF4E702A800230D4C00F8013D93
:10B2D400FDF770F823780BB9FFF76EFFE3689DF86C
:10B2E40007000133E3600123A370FDF787F8DFE76C
:10B2F40000F086F8FFF7B8FFDAE700BF00E100E0EE
:10B30400DC5F002037B51B4C6378054603F0FF0271
:10B314009BB110B143680020984700230DF107004A
:10B324008DF80730FDF746F863689DF80700013390
:10B334006360FDF763F803B030BD0DF107008DF8CD
:10B344000720FDF737F825B1A268134653B92A60E0
:10B35400A5606368002BE7D104F0EAFA30B1FFF787
:10B36400FAFEE1E79D42F4D01B68EFE700F080F8B5
:10B37400DAE700BFDC5F002073B502A800230D4CA0
:10B3840000F8013DFDF716F86368013B63606668E9
:10B3940036B904F0CDFA054640B1FFF7DEFE66701B
:10B3A4009DF80700FDF72AF802B070BD00F06CF8B4
:10B3B4006570F5E7DC5F002050E8002F02EA010326
:10B3C40040E8003C9CF0000FF6D11046704700F1B5
:10B3D4008040002382B0036003680193019B02B0A4
:10B3E40070470000054A13792BB9012110601171CF
:10B3F4005371184670478520704700BFF05F0020E6
:10B40400084B1A68D20704D4C02283F8002301220F
:10B414001A604FF080420123C2F81835024A1370B3
:10B42400704700BF00E100E0F85F002008B54FF46A
:10B434008270FFF7CCFF4FF080430222C3F804234D
:10B4440001229A6008BD00004FF0804208B5022333
:10B45400C2F808334FF48270FFF7B9FF034B0121A0
:10B464001960D2F81834DB03FBD408BD0C0000408B
:10B4740008B54FF48070FFF7AAFF4FF08043012214
:10B48400C3F804231A6008BD4FF08042012108B5B7
:10B494004FF48070C2F80813FFF799FF064B196048
:10B4A400D2F80C3403F00113B3F1011FF8D0034BAD
:10B4B40000225A7108BD00BF04000040F05F002064
:10B4C400124B1B6810B573B14FF48070FFF77FFF08
:10B4D4004FF080430122C3F808230D4B587910B96B
:10B4E4005A711B6898470B4B1B6873B14FF48270F9
:10B4F400FFF76DFF4FF080430222C3F80823044B8B
:10B5040001201B68BDE81040184710BD0001004031
:10B51400F05F00200401004000F1804000F5C040CD
:10B52400002382B0036003680193019B02B070475B
:10B5340003681F2B83BF03F01F03036001484FF010
:10B54400A04070470003005007B502AB43F8040D58
:10B554001846FFF7EDFF019B00EB8300D0F800379E
:10B5640023F44033C0F80037D0F8003743EA0141F0
:10B57400C0F8001703B05DF804FB4309012B00F089
:10B584001F004FF6FF7318BF4FF0FF3323FA00F08C
:10B5940000F0010070470000054B4FF0FF32072810
:10B5A40043F8202084BF1B1883F85820704700BF3D
:10B5B400FC5F002010B5184C94F86A2052BBFF21A0
:10B5C4001046FFF7DAFF10B1A31883F830100132E8
:10B5D400302AF5D10021C8B2FFF7DEFF01310C2972
:10B5E400F9D1062200210D4804F0C1FC0C4BC02205
:10B5F40083F8062340221A604FF4BE70FFF78CFFD5
:10B60400084B4FF00042C3F80423012384F86A3046
:10B61400002010BD0820FCE7FC5F002060600020D3
:10B6240000E100E000600040034B93F86A00003042
:10B6340018BF0120704700BFFC5F0020F7B5404FE2
:10B644003B18044693F93030002B944675DA8B7816
:10B65400C3F34003002B15BF0025082508200C2048
:10B66400854202D1042003B0F0BD57F825200132F1
:10B674004FEA850649D1381947F825C080F830507B
:10B6840013B97B1983F858408B785A071BD4D80711
:10B694003DD502A840F8084DFFF74AFF009B00EB98
:10B6A4008300D0F8003723F00203C0F800372548A0
:10B6B400E20804F0070C012303FA0CF310F802C0AB
:10B6C40043EA0C038354887891F800C010F0020018
:10B6D4002AD006F1804303F5C0432402D3F8102591
:10B6E40022F44F3222F44072C3F810254FEA0C4C76
:10B6F400D3F8102504F47C540CF4403C44EA0C04C4
:10B704001443C3F810450020ADE70135A8E702A8AB
:10B714004A7840F8044DFFF70BFF019B03F5E073F3
:10B72400920040F82320C2E7083D3D4495F860406C
:10B7340044EA8C1C85F860C095E7082093E700BFB5
:10B74400FC5F00206060002073B5224C251806467B
:10B7540095F93020072A1ADD224492F858309B09C3
:10B76400032B10D102A840F8046DFFF7E1FE019A03
:10B77400D0F81035D340DB0707D402213046FFF759
:10B78400E3FE02B070BD012BF7D00321F6E7D3B27C
:10B79400072BF6D8930003F1804303F5C043D3F895
:10B7A400100540F00100C3F8100502F140008000CC
:10B7B40080B2FFF7B1FE0029E3D095F9303054F898
:10B7C4002330002BDDD0012303FA02F2024BC3F82D
:10B7D4000423D6E7FC5F00200060004007B502ABFD
:10B7E40043F8040D1846FFF7A3FE019BD0F810059B
:10B7F400D84000F0010003B05DF804FB2DE9FF47D9
:10B804000024CDE90244584A584E594D0121136889
:10B81400A2F5C040012B80B206D1D6F804330B4206
:10B8240002D0FFF779FE0C430432AA424FEA4101E9
:10B83400EDD1504B1B68012B11D14FF4BE70FFF7B3
:10B844006BFE4FF0A04344F00044D3F8202502924D
:10B85400C3F82025D3F820280392C3F8202814F035
:10B86400FF0F1AD0444F00250126344210D0AB00FC
:10B8740003F1804303F5C043D3F81005D3F8101542
:10B8840057F82530C0F30520C1F3014103B19847AF
:10B894000135082D4FEA4606E7D1002C5CDA364E16
:10B8A400364FB0464FF0000A4FF0010906EB0A0389
:10B8B40093F960104B1C3AD0CAB222F0C00404AB16
:10B8C40003EBD40313F8081C02F0070309FA03F38B
:10B8D40019422CD004A840F8104DFFF729FE009B14
:10B8E40003F5E07350F82350C5F30145022D0CBF56
:10B8F400032102212046FFF727FE04A840F80C4D3F
:10B90400FFF716FE019B09FA03F3C0F8203508EB94
:10B91400040393F9303058F8233043B191090329D3
:10B9240003D0022D1BD1012901D1204698470AF1E9
:10B93400010ABAF1040FB9D14FF0A043D3F820257E
:10B944000292C3F82025D7F820350393C7F8203591
:10B95400002AA7D1002BA5D104B0BDE8F087032DA0
:10B96400E5D10229E0E700BF00610040006000402B
:10B97400206100407C610040FC5F00200003005017
:10B98400014B1B68184700BF6860002036DF704712
:10B994004DDF70474EDF70474FDF704750DF704711
:10B9A40008B50346FFF7F6FF40B91846FFF7F0FF66
:10B9B40020B91846BDE80840FFF7EEBF08BD0128CE
:10B9C40010B5044602D101F0A9F9804701F0ACF9A1
:10B9D400034668B10A2C07D00B2C07D0092C07D1D9
:10B9E4000220BDE8104018470020FAE70120F8E7DC
:10B9F40010BD0000012813B5044603D0032819D054
:10BA040002B010BD02A8002300F8013DFCF7D2FCEF
:10BA140001F084F910B12046FFF7B8FF9DF8070044
:10BA2400FCF7ECFC01F080F90028E9D00120FFF7D5
:10BA3400B7FFE5E70C4BC02283F8002301221A600C
:10BA440001F06CF920B14FF080430422C3F80423C1
:10BA540001F06AF90028D3D04FF080434FF46072AC
:10BA6400C3F80423CCE700BF00E100E038B50A4C7A
:10BA74002378054663B903F05BFF58B90748002DE6
:10BA840018BF284601F056F908B90123237038BDC0
:10BA94008520FCE70820FAE770600020E611030027
:10BAA40013B502A8002400F8014DFCF783FC03F051
:10BAB4003FFF50B12046FFF773FF9DF80700FCF7E6
:10BAC4009DFC01F071F902B010BD01F066F9F4E7D4
:10BAD40013B50446FFF7E4FF204601F04DF903F0E7
:10BAE40027FF0446A0B10120FFF75AFF044660B9BE
:10BAF40001A8FFF753FF044638B9019BDB0704D5BF
:10BB040001F012F9034620469847204602B010BDC2
:10BB140001F03CF9F9E70000064A10F0800F00F04C
:10BB24000F0314BFD2F81005D2F81405D84000F062
:10BB34000100704700700240074B1B68082B06D1B8
:10BB4400064B1B68032B04D8054AD05C70470020C1
:10BB540070470120704700BF30010010340100100D
:10BB6400E711030030B54C680D689C4229BFC0E959
:10BB740000530021E41AED1832BFC0E900514C60B3
:10BB84000D60934203D1201C18BF012030BD00205A
:10BB9400FCE74B6810B59A420C6828BF1A46C0E906
:10BBA4000042981A0B684860134400300B6018BFB9
:10BBB400012010BD30B54C680B68A24228BF224654
:10BBC400002A14BF1D460025A4EB02041344C0E957
:10BBD40000524C600B6014BF0120002030BD0000F7
:10BBE400054B10F0800FA3F1900208BF134600F03C
:10BBF4000F0003EB00107047E461002010F0800F89
:10BC040014BF0023102300F00F00184470470000F5
:10BC140007B5084A00231370074A019302A813705A
:10BC2400012300F8043D054B1B68984703B05DF8F9
:10BC340004FB00BF71600020786200207462002061
:10BC440070470000F8B54D680B4F954228BF154664
:10BC54000C4606462A460968384604F05FF96068CF
:10BC64002368401BC6E9007560601D4400302560F0
:10BC740018BF0120F8BD00BF7C620020F8B54C68F5
:10BC8400944228BF144606460D468CB1094F0968F4
:10BC94002246384604F042F937606B6874601B1B17
:10BCA4006B602B68201C23442B6018BF0120F8BD57
:10BCB4000460F2E77C62002007B502A8002300F8C4
:10BCC400013DFCF777FB094B094A1868032158B971
:10BCD40049F275301860116018609DF80700FCF790
:10BCE4008DFB03B05DF804FB1160F6E700EC064041
:10BCF40014ED064013B502A8002400F8014DFCF72A
:10BD040059FB084B084A186850B949F27531196053
:10BD1400106019609DF80700FCF770FB02B010BDBD
:10BD24001460F7E700EC064014ED064007B5002365
:10BD34008DF804300B4BD3F82025ADF80620D3F84A
:10BD4400C034094A002B13680CBF4FF480714FF0C4
:10BD540001210B431360054B01A81B68984703B0EE
:10BD64005DF804FB00700240506100207462002002
:10BD7400214B13B5D3F80044C3F80044BFF36F8FCD
:10BD8400BFF34F8FBFF36F8FBFF34F8FE1050BD519
:10BD94001A4B01221A7002A800230193022300F80F
:10BDA400043D174B1B689847A2050AD5134A002384
:10BDB40002A801931370032300F8043D104B1B6881
:10BDC4009847630515D50D4A137893B10A490023A2
:10BDD40013700122C1F808258A65BFF36F8FBFF382
:10BDE4004F8F02A80193042300F8043D044B1B6801
:10BDF400984702B010BD00BF00700240716000207F
:10BE040074620020054B1B68082B02BF044B002200
:10BE14001A60044B00221A70704700BF30010010F2
:10BE24001C7C02407260002008B50146FFF7EAFF5F
:10BE3400FFF7D6FE837B032B0AD10846FFF7DEFE0D
:10BE440001218140C9430448BDE80840FFF7B4BA62
:10BE54000368002BF1D008BDE06000208720FFF7C5
:10BE6400E3BF8620FFF7E0BF8520FFF7DDBF842016
:10BE7400FFF7DABF8320FFF7D7BF8220FFF7D4BFD5
:10BE84008120FFF7D1BF000008B5FFF7BBFF084BC7
:10BE940093F89E20032A06D16FF001010548BDE8FE
:10BEA4000840FFF789BAD3F89030002BF4D008BDCE
:10BEB40054610020E0600020012273B502FA01F50C
:10BEC4001E491F4E0B6810F0800F43EA0503044619
:10BED4000B6027D000F00F021A4B33F8123003F135
:10BEE400804303F51C331A684AB100221A60BFF379
:10BEF4006F8FBFF34F8F802811D0FFF795FF316804
:10BF040029400AD106238DF804308DF806408DF8B7
:10BF140007100D4B01A81B68984702B070BDFFF7CE
:10BF2400B3FFECE733681D42F7D106238DF80430E4
:10BF34008DF806008DF80720EBE700BF5061002064
:10BF4400E0600020F41103007462002008B5054B82
:10BF54001A781046FFF752FEBDE808400146104625
:10BF6400FFF7AABF78620020FFF78EBF13B5FFF773
:10BF740049FF0D4B93F88E20032A13D0D3F8804049
:10BF840084B96FF080710948FFF716FA06238DF81B
:10BF9400043008238DF80630054B8DF807401B68E4
:10BFA40001A8984702B010BD54610020E060002051
:10BFB4007462002013B5FFF725FF114B93F81E217F
:10BFC400032A06D16FF480710E48FFF7F5F902B029
:10BFD40010BDD3F81041002CF9D16FF480710948D9
:10BFE400FFF7EAF906238DF8043088238DF806302C
:10BFF400054B8DF807401B6801A89847E7E700BF89
:10C0040054610020E0600020746200202DE9F04FAC
:10C01400604B87B01A780193002A6FD1DFF87CB1A6
:10C024005D4B19685D4B1C68214067D011F00124F9
:10C0340067D094FAA4F4002C69D0B4FA84F40F2CD9
:10C0440067D9A4F110085FFA88F84046FFF7C8FDE5
:10C054004FFA88FABAF1000F054608F00F068289F4
:10C064005ADAD0E9003104A8984700B928604C4B4B
:10C074001B68082B02BF4B4B82221A60019B059A56
:10C08400049801211970A140AB68DBF80040134407
:10C0940024EA0101BAF1000FAB60CBF80010424B67
:10C0A40068DA072E9BBF142101FB0633C3F8A006F0
:10C0B400C3F800068CBFC3F8A426C3F804260423DF
:10C0C40003EB860303F1804303F51C3301221A605A
:10C0D400BFF36F8FBFF34F8F344B354A354913EAA3
:10C0E4002A0A38BF92463AF8163003F1804303F522
:10C0F4001C331A6812B90A68002AFAD007B0BDE8DE
:10C10400F08F91FAA1F111B1B1FA81F497E72024EB
:10C1140097E744F0800898E7072E234B25D9D3F8F6
:10C12400C09419F4803F18BF4FF000094B4669686A
:10C134002F6804A8B847049B002B96D0059B4B4559
:10C1440093D201210226A140AE73C9431248FFF7DE
:10C1540033F906238DF80C30174B8DF80E808DF8CB
:10C164000F601B6803A898475AE706F5947153F8C3
:10C174002190DBE7072E9BBF142101FB0633C3F894
:10C18400A007C3F800078CBFC3F8A427C3F804278B
:10C19400282395E772600020E060002050610020B1
:10C1A400300100101C7C024000700240F4110300B6
:10C1B40010120300007102407462002038B5134B62
:10C1C400D3F86C44C3F86C44BFF36F8FBFF34F8F45
:10C1D40001251CB9BDE83840FFF718BF94FAA4F351
:10C1E40073B1B3FA83F30F2BD9B20BDDA1F11000B5
:10C1F400C0B205FA01F324EA0304FFF75DFEE8E7A1
:10C204002021F3E741F08000F3E700BF0070024013
:10C2140037B50446FFF7F6FDFFF7E2FC837B032BFB
:10C224000CD12046FFF7EAFC01218140C9430F48A5
:10C23400FFF7C2F8FFF7EAFE03B030BD0568002D32
:10C24400F8D12046FFF7DAFC01218140C9430748B1
:10C25400FFF7B2F806238DF80430054B8DF806403D
:10C264008DF807501B6801A89847E3E7E0600020B9
:10C27400746200200720FFF7CBBF0620FFF7C8BF7A
:10C284000520FFF7C5BF0420FFF7C2BF0320FFF757
:10C29400BFBF0220FFF7BCBF0120FFF7B9BF0000FA
:10C2A400024A00231360024A13707047746200202C
:10C2B40073600020454B4FF4006213B5C3F80024AB
:10C2C400BFF36F8FBFF34F8FFFF736FC08B1FFF753
:10C2D400F3FC3F4B1B68082B14D102A8002300F881
:10C2E400013DFCF767F83B4B3B4A1868C021002826
:10C2F40067D149F275301860116018609DF8070025
:10C30400FCF77CF8314B0122C3F80025BFF36F8F93
:10C31400BFF34F8FD3F800241205FBD54FF400620E
:10C32400C3F80024BFF36F8FBFF34F8F284B1B68F4
:10C33400082B13D102A8002400F8014DFCF73AF8A9
:10C34400244B254A186800283DD149F275311960FB
:10C35400106019609DF80700FCF750F8FFF7ECFB3C
:10C3640008B1FFF7C7FCFFF7E7FB08B1FFF7A4FC30
:10C37400174B1B68082B09D1184B40F2E3721A6063
:10C3840040225A60BFF36F8FBFF34F8F0F4B0021D2
:10C394008022C3F81C25C3F83015114B40F2FF125C
:10C3A4001A60104B1960FFF72DFD0F4B19700F4BDE
:10C3B40002221A70FFF7C0FB08B1FFF79BFC02B022
:10C3C40010BD11609AE71460C4E700BF007002401A
:10C3D4003001001000EC064014EC064000780240E6
:10C3E40050610020E060002078620020736000202B
:10C3F4000C4B00221A700C4B0C4A00280CBF184638
:10C4040010460B4B0B4AC3F80403C02182F82713D0
:10C41400802151600122C3F80425BFF36F8FBFF35D
:10C424004F8F7047716000200714C0010714E001AA
:10C434000070024000E100E0024B1878003018BFA1
:10C444000120704773600020034B1878012894BFC3
:10C4540000200120704700BF7360002037B502A898
:10C46400002500F8015DFBF7A5FF134B1B7803F0D3
:10C47400FF04B3B1114AD2F82C35DBB1104BC2F82A
:10C484002C551B68082B0CD10E4B186802F58F2213
:10C4940002F21442C02158B949F275301860116093
:10C4A40018609DF80700FBF7A9FF204603B030BDD4
:10C4B4001160F6E71C46F4E771600020007002404A
:10C4C4003001001000EC0640024B034AC3F8082375
:10C4D400704700BF0070024004148001024B034AFD
:10C4E400C3F80423704700BF0070024004148001A5
:10C4F400014B00221A7070477160002008B5FFF7E5
:10C504006FFB818108BD00001B4B70B51C7884BB98
:10C514001A4A106001221A70264664F07F05082C1E
:10C52400EDB20CBF4FF4007140212846FFF7E6FF3F
:10C534002846FFF755FB0134092C86730660866094
:10C54400EBD10024402125462046FFF7D7FF2046A3
:10C55400FFF746FB0134E4B2092C8573056085605E
:10C5640001D1002070BD082C0CBF4FF40071402194
:10C57400EAE70820F6E700BF736000207462002039
:10C5840008B5FFF72DFB808908BDFFF7C5BA000089
:10C594002DE9F3410C460746FFF730FB064602A897
:10C5A400002300F8013DFBF705FF17F00F0103D14D
:10C5B400284B1B78BB4249D1274A284B12681D6877
:10C5C400D243012092B200FA06F62A433242984638
:10C5D4003ED13846FFF704FB0C233A06844603FB9E
:10C5E40001F32FD51E4A2168134401F06041A2686B
:10C5F400B1F1005F02F001021FD1E2B9194ACCF88F
:10C60400002094E8070083E80700CCF80430164BB8
:10C61400002435438022CCF808408CF80E40C8F83A
:10C624000050C3F804219DF80700FBF7E7FE2046FD
:10C6340002B0BDE8F0810D4AE1E70AB90C4ADEE731
:10C644000C4ADCE70C4A13440C4AD8E71024EAE706
:10C654001124E8E77862002050610020E0600020A7
:10C66400E460002097BB020000E100E0B9BB0200D7
:10C6740049BC020081BC02007460002069BB020056
:10C684002DE9F34207468946FFF7B8FA044602A8A3
:10C69400002300F8013DFBF78DFE3B0703D1164B49
:10C6A4001B78BB4224D1154B15491B680E68DB432C
:10C6B40001259BB2A540334313EA05041AD1384639
:10C6C400FFF78EFAD9F800300360D9F804304360DC
:10C6D4000C4B84603543802284730D60C3F80421BD
:10C6E4009DF80700FBF78AFE204602B0BDE8F08201
:10C6F4001024F5E71124F3E778620020506100204C
:10C70400E060002000E100E0004870477C62002007
:10C71400044B40F48070C3F81805BFF36F8FBFF368
:10C724004F8F70470070024000F00F03072B11D8A1
:10C7340010F0800F084A0BBF03F5887303F5847368
:10C7440002EB830352F8230008BF5868431E584283
:10C75400584170470020704700700240064BC3F8F0
:10C764000C05BFF34F8F40F48070C3F80C05BFF382
:10C774006F8FBFF34F8F70470070024010B50822CF
:10C784000021044603F0F3FB0E4BD3F880242270FF
:10C79400D3F884246270D3F88824D3F88C1442EA42
:10C7A40001226280D3F89024D3F8941442EA01223F
:10C7B400A280D3F89824D3F89C3442EA0323E3807C
:10C7C40010BD00BF00700240034B01221A60BFF38A
:10C7D4006F8FBFF34F8F70474C70024013B5FFF754
:10C7E40011FB104B9A7B032A06D16FF480310E485B
:10C7F400FEF7E2FD02B010BD1C6884B96FF480310D
:10C804000948FEF7D9FD06238DF80430074B8DF84F
:10C8140006408DF807401B6801A89847EAE7FFF730
:10C82400D3FFE7E754610020E06000207462002039
:10C83400034B01221A60BFF36F8FBFF34F8F704712
:10C8440050700240034B01221A60BFF36F8FBFF395
:10C854004F8F704754700240014B1878704700BFE7
:10C864007862002037B5044602A8002500F8015D6F
:10C87400FBF7A0FD2046FFF7C1F90D4A012303FA97
:10C8840000F0136804F00F0423EA0003072C13607C
:10C8940008D804F59474074B43F82450BFF36F8F02
:10C8A400BFF34F8F9DF80700FBF7A8FD03B030BD21
:10C8B4005061002000700240F7B5044602A800232E
:10C8C40000F8053DFBF776FD2046FFF789F905469C
:10C8D4002046FFF793F9012314F0800F03FA00F0C8
:10C8E400294917D10B6830EA03020AD02046FFF722
:10C8F400B9FF0323AB739DF80300FBF77FFD03B07F
:10C90400F0BD2A60C043214A03400B601368034012
:10C914001360EEE704F00F02072A0FD8802C1C4E98
:10C924001C4B27D002F2DA32520032601A681E68B9
:10C93400D2B242F0020232431A601B68134E0A68F4
:10C94400336862EA03070742D5D022EA000218439B
:10C9540000230A602B600323AB738DF807300E4B62
:10C96400306006228DF804208DF806401B6801A86B
:10C974009847C0E740F2B47232601A681E68D2B2B7
:10C9840042F00402D7E700BFE060002050610020BD
:10C99400007802400478024074620020FFF78CBFE4
:10C9A400F7B5174B174CD3F880542368164EDA4367
:10C9B400164B37781B6892B238461A43FFF71EF9B4
:10C9C400012303FA00F0104202D03846FFF774FF47
:10C9D4006FF0011105F080050C483570FEF7ECFC92
:10C9E400236843F00103236002A800230193052375
:10C9F40000F8043D064B1B68984703B0F0BD00BF28
:10CA0400007002405061002078620020E060002045
:10CA1400746200201C4BD3F8041300232DE9F04169
:10CA240001241D4671B9194F03F4000623F40004D0
:10CA34004FF00108D4B9FFF7E9FA1EB3BDE8F0419D
:10CA4400FFF7AEBF91FAA1F21148B2FA82F2960052
:10CA5400304404FA02F206682EB10560BFF36F8F0A
:10CA6400BFF34F8F134321EA0201DBE794FAA4F5E5
:10CA7400B5FA85F557F8253008FA05F5984724EAFC
:10CA84000504D7E7BDE8F0810070024024120300DA
:10CA940000710240F8B5144E144A34681268240C2C
:10CAA4002404144301271CB940F2FF133360F8BD7A
:10CAB40094FAA4F393B1B3FA83F30F2BDDB20FDD31
:10CAC400A5F11000C0B200F00F03072B01D8FFF747
