:020000022000DC
:106000000000042061620200B9620200BB6202006B
:10601000BD620200BF620200C16202000000000017
:10602000000000000000000000000000C362020049
:10603000C562020000000000C7620200C9620200DF
:1060400051970200CF620200119C0200D36202004D
:10605000859E0200D76202006D9A0200759C0200C4
:10606000DD620200259E0200359E0200E36202000E
:10607000E5620200E7620200E9620200EB620200F0
:10608000ED62020069700200F1620200F362020038
:1060900005710200F7620200A9E70200FB6202003C
:1060A000FD620200FF62020001630200036302005E
:1060B0000563020007630200CB620200CB620200AC
:1060C000096302000B6302000D6302000F6302000C
:1060D00011630200136302001563020017630200DC
:1060E000196302001B6302001D630200CB62020001
:1060F000CB62020021630200CB6202001F63020038
:10610000364937480A1A02D0072291438D4635494D
:1061100035480A1A06D00722914381F309880222E2
:1061200082F3148831483249324A00F045F8324847
:106130003249334A00F040F832483349334A00F0DC
:106140003BF833483349344A00F036F83348344991
:10615000344A00F031F834483449354A00F02CF81C
:1061600034483549354A00F027F83548354900228A
:1061700000F02DF834483549002200F028F8344862
:106180003449091A082903DB002202600430016047
:10619000314A90471F482049884205D002680430A0
:1061A00003B4904703BCF7E700208646EC46002086
:1061B00000212A4A9047FEE7884207D0521A05D0AC
:1061C000037801300B700131013AF9D170478842F0
:1061D00002D002700130FAE770470000000004208E
:1061E00000E003200000042000000420CCFF020097
:1061F000F82A0020542B00202463020024630200AC
:10620000CAED0200CCFF0200F82A0020F82A002084
:1062100064EF020064EF020064EF020064EF02002A
:1062200064EF020064EF020064EF020064EF02001A
:10623000CCFF020028000300542B0020542B002028
:10624000542B0020583C0020583C0020583C002093
:10625000583C0020585C0020856202001DAA020004
:106260000F484FF00701884385460E4880470E4887
:10627000016841F470010160BFF34F8FBFF36F8F6E
:10628000FFF73EBF09480A490A4A884207D0521A16
:1062900005D0037801300B700131013AF9D1704714
:1062A000000004205992020088ED00E004EF020093
:1062B000982A0020F82A0020FEE7FEE7FEE7FEE726
:1062C000FEE7FEE7FEE7FEE7FEE7FEE7FEE7FEE7A6
:1062D000FEE7FEE7FEE7FEE7FEE7FEE7FEE7FEE796
:1062E000FEE7FEE7FEE7FEE7FEE7FEE7FEE7FEE786
:1062F000FEE7FEE7FEE7FEE7FEE7FEE7FEE7FEE776
:10630000FEE7FEE7FEE7FEE7FEE7FEE7FEE7FEE765
:10631000FEE7FEE7FEE7FEE7FEE7FEE7FEE7FEE755
:04632000FEE700BFD5
:106324007047000007B5044B0093044A402300F073
:1063340032F803B05DF804FB45630200552B0020DE
:106344002DE9F84389461446B2B10F4B0F4E03258D
:10635400002743F00108224609EB0701002004F05E
:1063640043FE0744241A48B933782BB14FF47A40DA
:10637400C047013D02D13570BDE8F8830123337075
:10638400002CE8D1F8E700BF70EF0200542B002086
:10639400704704F05DBEF0B595B01C46164608463D
:1063A4000D4602F066FE1A9B0D93CDE908640024A5
:1063B4002346082205A928460A948DF82C400C94FB
:1063C40002F093FE079B0293BDF81830ADF80C3031
:1063D400BDF81A30ADF80E309DF814308DF8114028
:1063E40003F00302012A1DD1BDF81440059EC3F336
:1063F400C203C4F383148DF81030A20008230EA93D
:10640400284602F072FEC6F3952608AB0093224696
:1064140002AB0EA9304600F07FFB284602F02DFEA9
:1064240015B0F0BD022AF8D1BDF81640C3F3C2037B
:10643400A4098DF810300827082C264628BF082602
:106444003B4632460EA9284602F04FFEA41B08AB79
:1064540002AA31460EA8374400F0C2FB002CEBD14F
:10646400DBE7000010B5054CFFF793FF042120463D
:1064740000F0C2FA0123637210BD00BFF82A0020A5
:10648400037813F0030F03F0040202D012B910468C
:106494007047B2B103F00303012B03D0022B09D0E0
:1064A400012070470A6800880232C0F38310024456
:1064B4000A60F5E70B684288023303EB92130B6022
:1064C400EEE70B684288013303EB92130288F4E78A
:1064D4002DE9F04F89B00546861C08A8484C019266
:1064E40000230F4600F8113D00F0F6FF23683B60DF
:1064F400D4E901231344226801339B1A04F21C4794
:1065040004F5836A04F21448B3421AD3019A0023AF
:10651400002A6DD0012262F3010343F0040365F302
:1065240089132168A2689DF80F000A4003320E44C3
:1065340044F82230266000F0F3FF012009B0BDE8E2
:10654400F08F0121384602F055F8504602F06BF8FE
:10655400404602F068F80DF120096068D4F808B0EC
:1065640049F8100D00EA0B00033004EB80004946A3
:10657400FFF786FF049BB0B90BEA030204EB820227
:10658400D16805919A1C013303EA0B0B04EB8B0CC5
:1065940001F00303012B0492DCF80CB020D0022B91
:1065A40004D083460BE00BEA0300DDE7BDF81630A8
:1065B4009B0903334FEA1B4B02EB930304934046BE
:1065C40002F034F808B1049B63605946384602F07F
:1065D40011F8D4E901231344226801339B1A93E789
:1065E400BDF81430C3F383134FEA1B4B1344E5E7A0
:1065F400022262F3010343F0040365F39F5390E71F
:10660400682C002008B50E4B0E48FF229A60002229
:10661400C3F81824C3E90022C3F8142483F82024FF
:1066240002F0E0FC38B9084A084B09499B1ADB0818
:1066340002469A4200D108BD21F822200132F8E72F
:10664400682C0020C4EE02002CEE0200C4EE02000E
:10665400982A002030B50B4C79B10B4A0B49121B18
:10666400D20800239A4201D1002030BD01EB8305FA
:106674006D88854202D00133F4E7034654F83300B1
:10668400F3E700BF2CEE0200C4EE0200982A0020BB
:10669400094B013903EBC000032909D8DFE801F0F5
:1066A4000A02040604207047007970474079704755
:1066B40000207047022070472CEE0200034BD3E900
:1066C4000030C31A58425841704700BF682C00205C
:1066D4002DE9F04387B0FFF7F1FF0746002840F0AB
:1066E400F5807B4DC5F81804BFF34F8F6868AC681C
:1066F4000DF1180848F8100D2040033005EB800018
:106704004146FFF7BDFE029B064600285FD104EA1E
:106714000302991C013305EB8202234005EB83033A
:10672400D268DB68049302F00303022B0392029104
:1067340062D1BDF80E3067484FEA9318B8F1500F94
:10674400C14628BF4FF0500969F38F1309F10801BE
:10675400ADF80E3002F05EFC0746002800F0A4807D
:1067640002F087FC334603A90822384602F094FC61
:10677400029924EA01060136B600B14535D95FFA1B
:1067840089F97EB3F6B2A9EB0609214003315FFA19
:1067940089F4B146504E05EB810108234A46384638
:1067A40002F07AFC36B109F1080322463146384634
:1067B40002F072FC029B08F1030803EB98030293B6
:1067C400D5F81834002B4AD1D5F8104458E02A687B
:1067D4009A4204D86A60384607B0BDE8F08304EAF8
:1067E40003008AE73C493446D7E7214003310823B4
:1067F4004A4605EB8101DAE7012B55D1BDF80C308F
:106804003448C3F38311062928BF062161F3891391
:1068140002318900ADF80C3002F0FCFB0746002879
:1068240042D002F026FC3346082203A9384602F07F
:1068340033FCBDF80C20C2F38312B31C96424FEA1A
:106844008303BDD202994A1C21400331029205EB15
:1068540081010422384602F01FFC0136E9E738467C
:1068640002F00BFCFFF72AFF80F00100C7B2B2E789
:10687400637A23B1236839461B68204698476468C5
:10688400002CF5D1384602F0F8FB06A800F8114DAB
:1068940000F022FED5F818340BB9029B6B609DF80A
:1068A400070000F03DFEDDE7D5F8104444B90B4B7A
:1068B4000B491888000440F0020000F06BF8D1E79F
:1068C400236820469B6898476468EFE7002782E7BF
:1068D400682C0020C4EE0200742C0020B82A00208A
:1068E40084EF02002DE9F74F284C80460F4692466C
:1068F40001A9012218469B46D4F80890FFF7E8FD49
:1069040088B3019D0026A91C5E4506EB010234D123
:1069140000211F4801F02DFE80F310006A1C02EADA
:10692400090204EB8202000405EA0903033340EA86
:106934001840D06014F8232068F3C50204F823201B
:1069440034F8232066F3891224F8232054F82320F2
:10695400012167F39F2244F8232061F301026FF3BE
:10696400820204F8232094F820341BB1FFF7B0FE10
:106974000028FBD103B0BDE8F08F09EA020204EB62
:1069840082025AF82630D3600136BDE7682C002015
:106994008430002000231A46FFF7A4BF13B502ACCD
:1069A400012344F8042D2246FFF79CFF02B010BDDA
:1069B40007B5CDE9002302236A46FFF793FF03B02E
:1069C4005DF804FB1FB5CDE90123069B039301AADF
:1069D4000323FFF787FF05B05DF804FB1FB5CDE97E
:1069E4000023069B0293079B03936A460423FFF745
:1069F40079FF05B05DF804FB0F4A30B5D2F81044B6
:106A04000023214641B90372D2F810444CB9C2F8AC
:106A140010044160184630BD0D7A9D4205D0496886
:106A2400F0E7626842606060F4E701330A2BE8D162
:106A34004FF0FF33EEE700BF682C0020084A38B55A
:106A44000123D2F8104482F820341D4604B938BD1D
:106A54002368657220465B6898476468F6E700BF60
:106A6400682C0020037A052B10B50C460FD0437A0E
:106A740023B1084A0849204601F039FE0749204657
:106A840001F035FE2046BDE8104001F025BE002A85
:106A9400F8D0F3E7DFEF0200E4EF020004F00200B5
:106AA400C38873B504460D4633B1144A00921449A1
:106AB400144A284601F01BFE217A05291CD0637A6A
:106AC4004BB1A088FFF7E4FD0F4B104953F8202089
:106AD400284601F00CFE227A0D4BA08853F8226060
:106AE4000021FFF7B7FD0B4903463246284602B0A2
:106AF400BDE8704001F0FBBD02B070BDDFEF0200E5
:106B0400EFEF0200E7EF0200ACEF0200E4EF020057
:106B140014F0020007F002002DE9F04385B01F468F
:106B24000C9D002306460C46904695F80C902B735A
:106B340029463846FFF7B4FFB8F1060F09D8DFE855
:106B440008F00412181F283340003146284601F08B
:106B5400CEFD002229463846FFF784FF85F80C90C5
:106B640005B0BDE8F08322683146284601F0BFFD38
:106B7400EFE7D4E900233146284601F0B8FDE8E701
:106B8400A36800933146D4E90023284601F0AFFD01
:106B9400DFE7E3680193A36800933146D4E9002357
:106BA400284601F0A4FDD4E723690293E368019326
:106BB400A36800933146D4E90023284601F097FDE9
:106BC400C7E76369039323690293E3680193A368A6
:106BD40000933146D4E90023284601F088FDB8E744
:106BE40008292DE9F84F80460E4617461C4636D82C
:106BF400002593F80C901D7319461046FFF750FFBB
:106C0400DFF87CA0DFF87CB0AE422AD918F8052062
:106C14005946204601F06BFD0135082DF4D1164983
:106C2400DFF864B0204601F062FD0025AE421DD9B4
:106C340018F805A0504607F0DDFF002814BF52469F
:106C44002E225946204601F052FD0135082DEDD182
:106C5400012221463846FFF705FF84F80C90BDE871
:106C6400F88F5146204601F042FDD5E703492046FE
:106C740001F03DFDE9E700BFDAEF0200D8EF0200C2
:106C8400D6EF0200D0EF0200DCEF02002DE9F04F56
:106C94003B4F89B000263B4B1B78F5B2AB4202D880
:106CA40009B0BDE8F08F384B196811F8350001249C
:106CB400A0F12002C0F1200304FA02F924FA03F33C
:106CC40049EA0309D7E9002304FA00F8CDE90423CB
:106CD40002EA080203EA0903134301EBC50B4CD093
:106CE400DDE9042322EA080223EA0903C7E90023B1
:106CF400079102F0A9FE0799844611F83500A0F126
:106D04002002C0F1200324FA03F304FA02F21A4326
:106D140004FA00F300931D4B0192DDE90045D3E929
:106D2400002314401D4022462B465FFA8CF40025B4
:106D3400CDE90445049CA0F12005AC400394049CD7
:106D4400C0F1200124FA01F1039C0C43049903943B
:106D540081400291DDE90245AB4208BFA2420CD159
:106D64009BF801104B1E59425941A1EB0C02DBF870
:106D740004305142514103B1984701368BE700BFBB
:106D8400C03000208C300020C8300020B8300020F3
:106D94002DE9F84F0646244800F08EFB002841D127
:106DA4000123A6F12001C6F1200203FA01FB23FA14
:106DB40002F203FA06FA1D4BD3E900014BEA020B77
:106DC40000EA0A0801EA0B0958EA09021F4623D11E
:106DD400304602F039FE164BB8B1D3E9000140EA5F
:106DE4000A0441EA0B05C3E90045D7E900234BEA4D
:106DF4000305104B0C4819684AEA0204C7E9004528
:106E04000022BDE8F84F00F013BBD3E9000120EAEB
:106E14000A0421EA0B05E6E720EA0A0421EA0B0545
:106E2400C3E90045BDE8F88F94300020C03000204D
:106E3400B830002090300020042A2DE9F3410546A3
:106E44000C4616463AD902F025FDD8B11C4B1D4913
:106E54001D601D4BDFF884801C701C4B00221E60DB
:106E64000023C1E900231A49C1E90023013CE4B22B
:106E740000260327FF2C0CD1164A1748002100F0E6
:106E8400C5FA03E002F0CEFC0028DFD002B0BDE872
:106E9400F08123B205EBC30201A992788DF8052095
:106EA40015F833008DF8066042468DF8047002F040
:106EB400FBFC013CE4B20028DCD0E7E70720E5E76F
:106EC400C8300020B83000208C30002090300020E2
:106ED400C0300020916C020074F00200956D020035
:106EE40070B5084D084E00242B789C4201D3002035
:106EF40070BD3368012113F8340002F05BFD0134E6
:106F0400F2E700BF8C300020C83000201FB50021FC
:106F1400039001AA44F20100CDE9011100F004F844
:106F240005B05DF804FB000010B572B6FFF786FDEE
:106F3400FFF7CEFB0028FBD1104C11492088000438
:106F440040F00100FFF726FD0E4B1B68DB0700D560
:106F540000BE20880C49000440F00200FFF71AFD2F
:106F6400BFF34F8F09490A4BCA6802F4E062134326
:106F7400CB60BFF34F8F00BFFDE700BFB82A0020EE
:106F840078F00200F0ED00E084F0020000ED00E093
:106F94000400FA05094A537891780133DBB2994227
:106FA40008BF0023117899421FBF0370507818233B
:106FB40003FB002014BF043000207047CC300020B5
:106FC40073B5054602A8002400F8014D0E4600F0F2
:106FD40083FA0DF10600FFF7DDFF90B106700A4B4E
:106FE4009DF8062045605A709DF8070000F098FA55
:106FF40024B9064B4FF48012C3F80021204602B096
:1070040070BD0424F0E700BFCC30002000E100E0B4
:10701400024B4FF43C6043F001031847A0F0020018
:1070240038B50C4B0C4C4FF40032C3F880200125CA
:107034004FF48033C4F84833C4F808336560FFF76D
:10704400E7FF064BA56000241C60FFF7E1FF044B3B
:107054001C7038BD00E100E000100140E831002060
:10706400D9310020F8B51F4B1F491B680025C1F812
:107074004051C1F84451C1F84851C1F84C51C1F8CC
:107084000051C1F804514BB3D1F8044517490968BC
:10709400641A24F07F442F461A68A24209D8A41A1D
:1070A40015441A7CDE691AB11F74D3E90520904790
:1070B400AEB90F4B0F4A197813788B4205D10133BF
:1070C400DBB2022B08BF0023137012780A4B43F87B
:1070D40022500A4B4FF48012C3F80021F8BD334606
:1070E400DAE700BFEC31002000100140E831002055
:1070F400E4310020E5310020DC31002000E100E033
:107104002DE9F74F9E4A9F49137809789E4D99427D
:107114003CD00133DBB2022B08BF002313709B4920
:1071240012789B4B0F6853F822003B1823F07F43DF
:1071340000220B602B6816461446944613B942B1DC
:107144002B6006E0196881420ED902B12B60091A3E
:1071540019604FF001082B68DFF83CA20093002768
:10716400BEB9DFF83CB260E0401A0C44D968C3F8F9
:1071740000C0D3F81CE031B13A1922F07F42C3E9D0
:107184000121DE611E4601227346D7E70026B04680
:10719400E1E73446F6697D4A63681268DFF804C2A1
:1071A400A068991A21F07F41614500F2A58001444D
:1071B4002160012222742A680023C4E90133E361B7
:1071C400002A40F0A2802C60CAE75A1C9BF80210E7
:1071D400D2B291428BF8002004BF00228BF8002029
:1071E400182202FB03B32A6819799C68022974D017
:1071F40003297ED0012918D1217CB1B9DA686260F3
:107204001A69A2605A699B69A361624BE2601B78A8
:10721400002BC0D06160BEE79C4200F09380994689
:10722400DB69002BF8D1002323749BF800309BF812
:1072340001209A42C9D12B682FB9009A934202D1F6
:10724400B8F1000F43D0002B79D0D3F800A0524DF1
:107254004E4BD5F804751C68DFF84C813E1B98F83A
:10726400003026F07F4603369BB94FF48033C5F8CF
:107274004433C5F80433494B4FF400324FF001094D
:10728400C3F880211A60C5F80090FFF7C1FE88F8A2
:107294000090B2452CBF5444A41924F07F44C5F88F
:1072A4004045D5F80435DB1B23F07F43E41B03334F
:1072B40024F07F44A3420AD9D5F80435C5F84035F3
:1072C400FFF7A6FE354B4FF40032C3F80021314BD3
:1072D40000221A7003B0BDE8F08F13469146A0E770
:1072E4001174D2690123002AFAD1002B9DD02A609F
:1072F4009BE700231946F6E7D31A23F07F43834222
:1073040034BFC31A0023236053E7216813689942EA
:1073140013D8591A1160E26155E7091AD8691A4657
:1073240038B1034618688842F7D3401A18601846E3
:1073340013462160E061DC6112E71346F2E7FFF7D0
:107344006FFEC4E74C450DD1D3692B6053B90F4888
:1073540001920121CAF8081003600E4B1970FFF75F
:1073640057FE019AE1692368C9F81C1011B1086835
:1073740003440B602B689A4218BF012753E700BFF0
:10738400E4310020E5310020EC310020E831002018
:10739400DC310020D83100200010014000E100E081
:1073A400CC300020FEFF7F00D931002008B5FFF764
:1073B40037FE104B00200B2218809A700E4B186079
:1073C4000E4B18700E4B18700E4B4FF48012E021C8
:1073D400C3F8802183F814131A6002F18042A2F5E5
:1073E4006F22C2F8080583F81113074BD2F804255D
:1073F4001A6008BDCC300020EC310020E4310020BC
:10740400E531002000E100E0E8310020074B9B78E3
:107414004BB132B128B10368187C20B959745A6150
:107424007047072070470820704700BFCC30002009
:107434002DE9F7431D4FBB7805460E4690469BB396
:1074440090B304292ED9436973B3437C02A8002462
:10745400012B00F8014D0CBF8946A14600F03CF811
:107464000DF10600FFF796FDD0B101230370104B18
:107474004560D3F80435C0E90498C0E902369DF8A4
:1074840006307B709DF8070000F04AF824B9094BD8
:107494004FF48012C3F80021204603B0BDE8F08306
:1074A4000424EFE70724F7E70824F5E7CC300020AD
:1074B4000010014000E100E0064A92783AB130B190
:1074C400426922B1002202740221FFF779BD08202B
:1074D400704700BFCC30002070B5EFF3108672B651
:1074E4000C4A946801239CB993600B4B0B4DD3F861
:1074F400801029401160C3F88050D3F88410516083
:107504004FF0FF32C3F88420047006B962B670BD30
:107514000370FAE7F031002000E100E0FC06FFBD53
:10752400084B9A6810B55AB150B9EFF3108272B68D
:1075340005491C680C605C684C60986002B962B6CE
:1075440010BD00BFF031002000E100E070B5064E30
:107554000546002456F824300BB1284698470134D8
:10756400042CF7D170BD00BF08320020033080B274
:1075740040F2FD33984230B51FD8124B1A783AB90D
:107584001C895D892C440444A4B2B4F5806F0AD3E9
:107594001A7DA2B99A8BDC8B2244024492B2B2F5D2
:1075A400806F0CD201220A801446142202FB043399
:1075B4005A8910445881002030BD0920FCE7072077
:1075C400FAE700BF3C3200200B4A0C4B51881420D0
:1075D40000FB0131CB6833B90420496810700122E3
:1075E400074801F0F1BA05230649137002238B8082
:1075F400012200230968F3E7203200203C320020F6
:10760400E42A0020F432002007B500230549009342
:10761400054A09680548082301F052FA03B05DF8E9
:1076240004FB00BFF4320020B4F00200E42A00207E
:1076340007B50023009301460823034A034801F0D9
:107644003FFA03B05DF804FBACF00200E42A00202A
:1076540013B500230C46009301460423074A084847
:1076640001F02EFA38B9074B142202FB043401232B
:10767400237402B010BD0E20FBE700BFA8F0020087
:10768400E42A00203C32002037B50A480A4B4268FD
:107694009C88196853880325033305709BB2002026
:1076A40000909B0001EB8401044801F009FA03B047
:1076B40030BD00BF20320020F4320020E42A002034
:1076C40010B50146044800F088FE1C22044600213F
:1076D40007F0F4FA204610BD042B0020438803333E
:1076E40000EB8303994209D382884FF6FF739A42D1
:1076F40006D00088B0FA80F0400970470220704735
:10770400012070472DE9F8430223DFF860800B80E5
:107714000D46174600F5805600F108044FF00109A4
:10772400B4420FD2236801330CD031462046FFF710
:10773400D5FF48B10FB187F8009002280BD14FF460
:1077440080632B80BDE8F883A368D8F800209342B7
:1077540001D9C8F800302B886288033313442B8086
:107764006388033304EB8304DAE700BF3432002078
:10777400144A142303FB002070B50B6844680D46BB
:1077840004F580569BB15C88033403EB8404B44253
:107794000BD22368013308D031462046FFF79EFF01
:1077A400012809D005D30228F1D1002003E00834D0
:1077B400EDE72C60012070BD6388033304EB830480
:1077C400E5E700BF3C320020436873B505460C462C
:1077D4006BB3254AD1688B4229D31269934226D8C8
:1077E40013F0030223D121490089098988421ED15B
:1077F4002868996888421AD11D494868834203D988
:1078040000F5805083420ED38A6993420DD902F564
:107814008052934209D2012323800020B0FA80F0E1
:10782400400902B070BD1346F6E70A20F6E70023CC
:1078340023801E462388012B01D90020F1E70196FD
:1078440001A92088FFF794FF18B923880133238006
:10785400F0E7019B2A6899689142F1D16B60034B70
:107864001B892B81DDE700BFE42A002020320020A1
:107874003C3200202DE9F8431C461E4B1B7806467B
:107884000F461546002B30D0002A30D07CB3DFF8E9
:107894006C804FF01409A388012B01D90A201AE047
:1078A40009FB03F318F80330BBB1A3880133A380A9
:1078B400F1E723681EB19988328891420DD11FB136
:1078C40019883A88914208D19A68C5E900230A4B7D
:1078D4001B892B810020BDE8F8832146A088FFF78F
:1078E40047FF0028E5D12060DFE70220F3E7052009
:1078F400F1E700BF18320020203200203C32002083
:1079040008B5074B191D5888FFF732FF18B1BDE8B9
:107914000840FFF7B9BEBDE80840FFF755BE00BFF9
:10792400203200202DE9F04FA04FDFF8A49289B057
:107934000646B8463B6823B949469D4800F087FD92
:107944003860D8F8005029784B1E052B00F21281BC
:10795400DFE813F0060076007600060106015D01FB
:1079640026B1944B00225A60012424E02B79032B86
:107974001DD8DFE803F01502424D8F490B78022B26
:10798400084631D00B7D022B4FF001032ED1142277
:107994005343C2180020C8545068FFF749FE03E05F
:1079A40001232B71FFF730FE002800F0D380814BB8
:1079B40000225A600E241422002103A807F07EF945
:1079C40041F61D539C4208BF0024D8F800300494AB
:1079D4001A78023A042A00F2D381DFE812F0B401E3
:1079E400C001E301EB01F2010023D0E7714A1370F7
:1079F4000023536041F61D54DDE7704970480023AD
:107A040002222B718A800122096801F0DDF8CBE79C
:107A14006A4C00262E712068674DFFF709FE694BFA
:107A2400D4F800C05A8814235343EA18EE5451681A
:107A34002160A188C2F804C011810222A280B3E7A8
:107A4400B5F814A0AA7DDFF870B1AEB1022AEB88B4
:107A540006D9142101FB0AB1DA1C088902440A81FF
:107A6400142202FB0ABAC3F57F43BAF80A20FD3395
:107A74001344AAF80A3077E7142303FB0AB31889DE
:107A84005C6804EB8004062A05D8DFE802F0264C83
:107A940034421C5866000F24AA7DEB88022A06D9BA
:107AA400142101FB0AB1DA1C088902440A81142258
:107AB40002FB0ABAC3F57F43BAF80A20FD33134424
:107AC400AAF80A3077E74048404900234360AB698D
:107AD4000360FFF779FE00285AD00223AB75002318
:107AE40000930423EA182146354800F0E9FF0028F2
:107AF40030D00E24D0E72B69002B0CBF01230323C5
:107B0400AB750023009305F10C02042304F1080172
:107B1400EAE70123AB750022EB8800929B002A69F7
:107B240004F10C01E0E7032914BF06230523AB7518
:107B340000230093042305F10802E118D4E7062387
:107B4400AB75224B1988204B5868FFF781FD04461A
:107B54000028A1D109B0BDE8F08F41F61D549BE780
:107B6400002E7FF401AF2B79012B33D004D3022BE9
:107B74003FF440AF0F241EE702232B710DF10A01DD
:107B8400EB68039303A8CDE90466FFF71DFE08B96B
:107B94000A2410E70498BDF80A108388EB80038850
:107BA4002B81FFF755FD044627E000BF3832002043
:107BB400042B0020183200203C320020F432002034
:107BC400E42A002020320020FC3100200033002071
:107BD40030320020DFF808A203AA53463146A81D1C
:107BE400FFF748FE044660B9BAF804100498FFF79A
:107BF4002FFD04460A2C3FF4FDAE002C7FF4DBAECF
:107C0400A8E708223146504607F058F8F2E7002E5C
:107C14007FF4AAAE6D4B1A7BB2B11E731A78013A87
:107C2400062AA7D801A151F822F000BFD77C020090
:107C3400FD7C02001B7D0200217D0200797B020095
:107C4400277D02003D7D02001A78072AE6D801A1AB
:107C540051F822F0797C0200217C0200217C020090
:107C64009F7C0200B37C0200D37C0200D37C020020
:107C74009B7C02001A89564901321A8100225A80DB
:107C84001A730A78B2FA82F252099A720A7DB2FA27
:107C940082F25209DA72012207E04E4958688A8852
:107CA4004088033202448A8002221A70B6E7484CA4
:107CB4005A884849142505FB0242086854685060F4
:107CC4008888108102228A800C600622EDE7072250
:107CD400EBE79A7A32B9DA7A8AB900221A705A80B2
:107CE4005A6087E63A4900229A72CA68002AF2D199
:107CF400097C0029EFD05A80FFF702FE53E70022E7
:107D0400DA72334A116A0029E7D192F82420002A52
:107D1400E3D00122EFE7FFF7B7FC44E7FFF754FC99
:107D240041E706221A702A4A5B88142101FB0323C7
:107D34005868FFF77DFC36E707221A7000225A6064
:107D4400FFF762FC2FE701228DF80C201A89ADF8A9
:107D540018209A88DB68ADF81A20059310E00222F7
:107D64008DF80C201A89ADF818209A88ADF81A20DD
:107D7400DA689B7D05929A1F534253418DF81C305B
:107D840003A8FFF7E3FB002649461348C8F8006040
:107D940000F088FB0121114800F037FC00287FF433
:107DA400C9ADD7E603228DF80C20DA88ADF8182087
:107DB4001A89CFE70422DB888DF80C20ADF818303F
:107DC400DEE705238DF80C30DAE700BF203200200F
:107DD4003C320020F4320020042B0020F03200203A
:107DE400043300204068FFF79DBD000008B5012161
:107DF400044800F0F4FB18B9BDE80840FFF792BD51
:107E040008BD00BFF03200202DE9F3419846354B00
:107E14001B7806460D46002B5BD000295BD00988F1
:107E24004FF6FF73994258D06B88002B55D06B687E
:107E34009B0754D14AB92F890DF102013846FFF747
:107E440095FB30B102B0BDE8F08113885788ADF8D6
:107E5400023001A8FFF734FC044658B9BDF80230DB
:107E6400214A142101FB032358890338C01B58817C
:107E74000820E7E700238375BDF8023083826B682E
:107E8400036180F800800121184800F0B3FB2B88BF
:107E94002381B8F1030F6B88A38004BF0423A37567
:107EA4004FF0000508BF3368E06008BFA361E780B6
:107EB400658101A90E4800F0BAFA36B1E36833606F
:107EC4000C4B75601B89B5723381FFF78FFF00205F
:107ED400B8E70220B6E70520B4E70420B2E70320A0
:107EE400B0E700BF183200203C32002034320020BA
:107EF400042B00202032002008B5084B1A68042AFD
:107F040009D01968064A42F821000121184600F0F8
:107F140071FB002008BD0C20FCE700BFFC320020F0
:107F2400083200202DE9F04F89B01422002103A863
:107F340006F0C4FE7B4A137803F0FF0100919046DB
:107F44003BB103A8FFF702FB0026304609B0BDE8A9
:107F5400F08F101D00F064FB05460028F4D14FF0AB
:107F640010234FF080525B6911695269DFF8DCA17C
:107F7400581C08BF02FB01F3CAF810300022A3F515
:107F840040536949CAF80C30504600F06BFD064670
:107F94000028DAD11C238C226449654800F0E8F9F2
:107FA4003746B3464FF003093446CDF804A0019B8D
:107FB400D9680BEB010002465BF80110002835D0AC
:107FC4005C4B994232D141685B4B994215D00133E5
:107FD40099422BD1009BDFF86CA1002B59D10022D0
:107FE4005649CAF80000FFF78DFBBAF80420022AAC
:107FF40014BF0822042217433AE051494FF0140CED
:108004000CFB04FC01EB0C024FF0000E01F80CE039
:1080140050600CF110020CF1080C0A446144FFF7A3
:1080240071FB47F002070134A4B221E000F5805C43
:108034001168013167D104329445F9D1414A11687C
:1080440029B9022101231060918000930EE01422CB
:1080540062433B4B4FF0020E991803F802E03A4A90
:10806400486054800134A1F808E0A4B247F0010745
:108074000BF5805BBBF5405F99D1B9F1010F88BF67
:108084003D46EDB2022D02D0062D12D0DDB90B26ED
:108094005BE72B4B1422624399184FF0020C03F850
:1080A40002C00134DAF800204A60A1F808C0A4B282
:1080B40095E7012388F8003003A80023C8F80430AA
:1080C400FFF744FA41E702A8FFF7FAFAC8B101231F
:1080D400013D03700A2D09D8DFE805F006080608FB
:1080E400070807080F110F000023037102A91048A5
:1080F40000F09DF9FFF77AFE27E70323F5E7022353
:10810400F3E7082621E70E491422624301EB020C2F
:1081140009F1FF39CCF8040003201FFA89F98854C7
:1081240081E700BF18320020B8F202006432002058
:10813400042B0020DEC0ADDEFE011EF1F83200206B
:108144003C320020F432002020320020E42A0020B7
:1081540073B50D460446C8B1C1B10DF10601FFF770
:1081640033FBA8B10B4BBDF806006668142202FB72
:10817400003001210C3000F03DFA63682E600C33AE
:108184006B600123A372002002B070BD0520FBE7E1
:108194000A20F9E73C32002013B50446A8B10DF1DA
:1081A4000601FFF711FB90B10B4ABDF8063014210C
:1081B40001FB0323DA6862B1A27A52B1DA680020C3
:1081C400013ADA60A07202B010BD0520FBE70A2074
:1081D400F9E70620F7E700BF3C3200200B4B1B7881
:1081E40037B504460D4663B168B10DF10601284662
:1081F400FFF7BCF918B9BDF806302380658003B0D9
:1082040030BD0220FBE70520F9E700BF183200204B
:10821400104B1B7810B5B3B1B8B10288022A16D836
:108224000D494388142404FB02129C1C51898C427E
:108234000DDAC3F57F43FD330B44538100230380E0
:108244004380184610BD0220FCE70520FAE704200D
:10825400F8E700BF183200203C320020022300223D
:10826400FFF7D2BD12B10223FFF7CEBD0520704740
:1082740018B103230022FFF7C7BD05207047000093
:10828400104B1B7813B50446ABB14FF6FF739842FD
:1082940013D001A8FFF714FA88B105230370012352
:1082A4000371C48001A9084800F0C1F8FFF79EFDDE
:1082B400002002B010BD0220FBE70420F9E70820EB
:1082C400F7E700BF18320020042B00200E4B1B7868
:1082D40007B5A3B101A8FFF7F3F990B10623037022
:1082E40001A90A4800F0A3F8094B1A780AB101223F
:1082F4001A73FFF77BFD002003B05DF804FB022036
:10830400FAE70820F8E700BF18320020042B002009
:108314002032002007B5ADF8060002A820F8041D9D
:1083240001460DF10600FFF7A5FA03B05DF804FB62
:1083340013B502AC134624F8020D0A460020214668
:10834400FFF798FA02B010BD13B502AC134624F837
:10835400020D0A4620460021FFF78CFA02B010BD38
:1083640020B119B103680B600020704705207047E5
:1083740010B561B1B2FBF3F403FB1424A4B244B905
:10838400C0E9001484608281C381204610BD0E20A0
:10839400FCE70920FAE782B050E8022FC188B2EB6B
:1083A400324F4FF0000317BF92B241EA014142EA53
:1083B400014104E04268B2EB324F08BF012340E8B8
:1083C4000212002AE8D18DF807309DF80730002BFF
:1083D4000CBF1120002002B0704737B550E8013FB0
:1083E4009DB2C48925448489A54228BF2D1B0489D4
:1083F400A54202BFBFF32F8F002207E0C5EA0305A1
:1084040040E80154002CE9D14FF001028DF803201B
:108414000193019B9DF803200B6002F0FF0322B13E
:108424000B880068184403B030BD1846FBE70A887F
:108434004B889A4209D150E8012FC2EA024240E82F
:108444000123002BF7D1012070470020704737B576
:1084540050E8023F1FFAA3F5C488A54202BFBFF348
:108464002F8F00220DE0C48925448489A54228BFAA
:108474002D1BC3EA054540E80254002CE8D14FF017
:1084840001028DF803200193019B9DF803200B60EA
:1084940002F0FF0322B14B880068184403B030BDDA
:1084A4001846FBE70A884B889A4209D150E8022F04
:1084B400C2EA224240E80223002BF7D10120704790
:1084C4000020704701F01F024B090121914000EB8D
:1084D400830000F063B84B0910B501F01F040121BB
:1084E400A14000EB830000F04EF8E04000F00100F2
:1084F40010BD01F01F0301229A404B0900EB8300D9
:10850400D14300F061B84B0901F01F0150F823007A
:10851400C84000F0010070472DE9F0474E1E76096F
:1085240080460F460136002558F8254008EB850A99
:10853400E44394FAA4F4B4FA84F44FEA4519202CE1
:1085440006D10135AE42EFD83C462046BDE8F0875F
:108554004C44A742F5D921464046FFF7BCFF00280A
:10856400F3D0DAF80040E44394FAA4F4B4FA84F4BF
:10857400E5E750E8002F0B4640E8003C9CF0000F74
:10858400F7D11046704750E8002F42EA010340E853
:10859400003C9CF0000FF6D11046704750E8003FB5
:1085A40043EA010240E8002C9CF0000FF6D110468B
:1085B400704750E8002F02EA010340E8003C9CF0B9
:1085C400000FF6D11046704750E8003F03EA01025D
:1085D40040E8002C9CF0000FF6D11046704750E89C
:1085E400002F02EB010340E8003C9CF0000FF6D1A1
:1085F4001046704750E8003F03EB010240E8002CAE
:108604009CF0000FF6D11046704750E8003FA3EBF2
:10861400010240E8002C9CF0000FF6D11046704790
:108624000121FFF7B0BF0121FFF7B8BF0021FFF719
:10863400C0BF10B590B1D0E9012301689B1ADBB229
:108644000A60013BDBB2FF2B026802D100201071EB
:1086540010BD11684C1C14600B70F2E70E20F7E794
:1086640037B5054602A8002400F8014DFEF734FF93
:108674002A686B68116899420ED9481E106011F877
:10868400014CEB68A98A01FB0434AB6811791B1A0D
:10869400DBB2994238BF13719DF80700FEF740FF23
:1086A400204603B030BD37B5054602A8002300F8C4
:1086B400013D0C46FEF710FF2A681368591C11602F
:1086C400E968641AA98AB4FBF1F41C709DF80700E8
:1086D400FEF726FF03B030BD826810B504462AB108
:1086E40043690168006998470023A36010BD0EB474
:1086F40003B5039929B102AA04AB42F8043D00F082
:108704006BF802B05DF804EB03B07047826830B4D4
:108714000468551C8560A154D0E901329A4202D301
:1087240030BCFFF7D9BF30BC704700002DE9F84FCB
:108734009946DDE90A431746824688460A460126D9
:10874400BA420FD24E4538BF4E4613F0010B01D149
:1087540064B900240125B9F1010F1AD909F1FF39CF
:108764007D43F8E7B2FBF7F20136E9E79B070ED544
:10877400B9F1000F0CBF30252025A642EAD2013CF6
:1087840029465046FFF7C2FF002CF6D1E1E7202529
:10879400F3E7B8FBF5F39F42E2D9DFF83890B8FB72
:1087A400F5F3504619F8031005FB1388FFF7AEFFE5
:1087B400B5FBF7F5002DF2D1BBF1000F02D00CB1DF
:1087C400A64201D3BDE8F88F20215046013CFFF7B3
:1087D4009DFFF4E7CBF002002DE9F74F05469046E4
:1087E4000E46002900F03A8116F8011B002958D0E2
:1087F400252940F0D180002702E047F00107164602
:10880400324612F8013B2D2BF7D0302B04D02B2B02
:1088140005D147F00407F2E747F00207EFE7002429
:108824002A2B06F101021BD1D8F80030191D1B6850
:10883400C8F800101C44164633782E2B1CD1013680
:108844004FF0000A314611F8012BA2F1300009283B
:1088540014D80A2303FB0A23A3F1300A0E46F1E7D6
:1088640012F8013CA3F130010929E5D80A2101FBE2
:108874000434303C1646D3E74FF0000A324612F86F
:10888400011B01F0FB0068281646F8D0692916D0B0
:1088940054D8582970D00ED825297DD03378002B90
:1088A400A2D12B7B002B00F0D980284603B0BDE871
:1088B400F04FFFF711BF632968D06429EED1D8F8CF
:1088C4000020D2F80090111D89EAE972C8F800105E
:1088D400A2EBE9724FF0010B092A61DCD34538BFE2
:1088E400D3462CB1B9F1000F01DB790700D5013C67
:1088F400BA0702D5BAF1000F04D0FB0702D4002C4A
:1089040054D10024B9F1000F58DAC9F100092D211E
:108914002846FFF7FBFE07F00302022A05D1BAF14D
:10892400000F02D1002C4DD10024CDE9004753465D
:108934000A2249462846FFF7F9FEAFE7732954D0C7
:1089440016D87029AAD1D8F800301A1DC8F800200A
:10895400302128461C68FFF7D9FE78212846FFF706
:10896400D5FE00220823CDE9003221461022E1E79A
:1089740075292FD0782991D1D8F800100A1DC8F88C
:108984000020CDE90047534610222CE0D8F80030EF
:108994001A1D1978C8F800202846FFF7B7FE7DE7AE
:1089A4000A230BF1010B92FBF3F295E7A345A9D23D
:1089B40020212846013CFFF7A9FEA0E77807AAD5A5
:1089C4002B21A5E7A345B0D230212846013CFFF76F
:1089D4009DFEA7E7D8F80010CDE900470A1DC8F8A6
:1089E400002053460A220968A4E7D8F800301A1D6B
:1089F400C8F80020F907D3F8009012D54F46A7EB2A
:108A0400090B17F8011B41B9A345BFF447AF202157
:108A14002846013CFFF77AFEF6E72846FFF776FE84
:108A2400EDE7B9F1000F17D0484606F09CF9074668
:108A3400BC4200D954B909F1FF3919F8011F0029C2
:108A44003FF42CAF2846FFF761FEF6E720212846C5
:108A5400013CFFF75BFEEBE74F46E9E703B0BDE8F7
:108A6400F08F000007B50B4678B9104B104A1888F0
:108A74000E2300930F4B00040F4940F00100FDF753
:108A8400A1FF0E2003B05DF804FB3BB9074B0B4A72
:108A940018880E2300930004064BEDE703601B685F
:108AA400114603B05DF804EB184700BFD02A00203C
:108AB40088F10200DBF002008DF1020004F20200F2
:108AC4002DE9F34178B9354B354A1888354B0E24D6
:108AD40000040094344940F00100FDF773FF204680
:108AE40002B0BDE8F0813AB92C4B304A18882D4BBE
:108AF4000E2400040094EDE7D0F800C0BCF1000F90
:108B040007D1264B2A4A1888264B082400040094CF
:108B1400E0E73BB9214B274A1888224B092400047B
:108B24000094D7E74768D7F80480B3FBF8F708FB4D
:108B340017373FB1194B204A18881A4B09240004EF
:108B44000094C7E78F0707D0144B1C4A1888154BAD
:108B5400102400040094BDE712F0030F07D00F4B5C
:108B6400174A18880F4B102400040094B2E7C76812
:108B7400B9420BD34C1E05691C44AC4206D8DCF840
:108B84000C40A44602B0BDE8F0416047034B0D4AD7
:108B94001888044B1024000400949BE7D02A00207A
:108BA40088F10200EDF002008DF102000AF20200E9
:108BB400FEF10200BDF1020010F202003AF20200DE
:108BC40052F2020075F20200F7B570B9254B264A3D
:108BD4001888264B0E2400040094254940F0010017
:108BE400FDF7F0FE204603B0F0BDD0F800C0BCF1A4
:108BF400000F07D11B4B1F4A18881C4B0824000484
:108C04000094EAE73AB9174B1B4A1888174B092412
:108C140000040094E1E74768D7F800E00EF1FF375D
:108C24000F4207D00F4B154A1888104B102400042C
:108C34000094D2E7C768B9420CD34C1E05690EFBF9
:108C44000244AC4206D8DCF81040A44603B0BDE8A8
:108C5400F0406047034B0A4A1888044B1024000470
:108C64000094BAE7D02A002088F1020000F1020043
:108C74008DF10200FEF10200BDF1020013F10200C9
:108C840039F102002DE9F04108B10368C3B90E4E71
:108C94000E4B14229B1B0024B3FBF2F3374602FB5A
:108CA40003F5A54201D1002008E03B5930190BB966
:108CB4001434F6E7DB6998470028F9D0BDE8F08161
:108CC400DB69BDE8F0411847E42A0020F82A0020B7
:108CD40029DF704728DF704770B503689D6886B048
:108CE40004460E466DB114220021684605F0E6FFE5
:108CF400A3680593237901962BB1012B0DD0684607
:108D0400A84706B070BD01238DF800302369029393
:108D1400E368039363690493F1E702238DF8003059
:108D2400E3681B030293F5E7084670470020704789
:108D3400024B187A003018BF012070479833002086
:108D4400034B187A0122B0FA80F05A744009704734
:108D54009833002008B510461A4605F086FF002017
:108D640008BD000008B514220021044805F0A6FF40
:108D74000348FFF710FB002008BD00BF9833002014
:108D8400182B002010B5094C094B43602046FFF70F
:108D940047FC40B905F0ECFC1C2320748C220549E7
:108DA4000548FFF7E5FA002010BD00BF9833002006
:108DB400ACF202000C330020182B002070B5244DB7
:108DC400244E2B7A2C463BB923492448FFF73FFB1A
:108DD400306008B9686070BD0223237233681A7961
:108DE40072B1012A24D018460321FFF775FF00232E
:108DF4002372636018491948BDE87040FFF752BBFD
:108E0400D3E90520121AB2F5805F28BF4FF48052CF
:108E1400D3E903159208012A014438BF01222844EA
:108E2400FFF756FF50B11128DDD101232372D2E799
:108E3400D3E903021044FFF74DFFF3E7237C002B33
:108E4400C9D10146BDE87040022000F009B800BF56
:108E540098330020B0330020AC330020182B0020BE
:108E640038B5831E012B45D8234C237A002B41D0DF
:108E7400022B09D1032830D0204B1B680022E2606A
:108E84001A793AB1012A22D0637C7BBBBDE8384011
:108E9400FFF794BFD3E905128D1AB5F5805F94BF2F
:108EA400521902F580529A619142EDD102284FF095
:108EB400000308BF19462372104B18BF0D21186810
:108EC400FFF70AFF0E490F48FFF7ECFADCE71A69CF
:108ED40001321A615B699A42E7E7E3680133082BC0
:108EE40001D8E360D0E70023E360DFE7BDE8384062
:108EF40005F02EBC38BD00BF98330020B0330020ED
:108F0400AC330020182B002000F0FD03012B08D106
:108F1400044B00225A74421E504250411874FFF709
:108F24004DBF70479833002010B5064C201DFFF745
:108F340077FB28B9637C1BB9BDE81040FFF73EBF3F
:108F440010BD00BF983300202DE9F34180460D4643
:108F54000F4801A916461F46FFF73FFA0446A8B179
:108F64001C22002105F0AAFE2D0B0123237101A967
:108F7400C4F80080A760E56066610548FFF757FA0A
:108F8400FFF7D2FF002002B0BDE8F0810420FAE729
:108F9400182B00202DE9F74381468846104801A983
:108FA40017461E46FFF719FA0446B0B11C220021E9
:108FB40005F084FE00250A9BA36001A92571C4F86D
:108FC4000090C4E9037866610548FFF730FAFFF7BB
:108FD400ABFF284603B0BDE8F0830420FAE700BFE6
:108FE400182B0020FFF725BBF8B546790146721E01
:108FF4000546002393422D6803D30024A64202D8D9
:10900400F8BD0133F6E70F682846FFF74CFB01343F
:109014003946F3E72DE9F843868ACD1C0746FFF766
:109024001FFB043E35440446B5FBF6F5F0B14FF49E
:109034008073EDB28380C680013D076081464FF0A6
:109044000008A84512D23846FFF70AFB064648B185
:1090540063790133637108F10108C9F800000760FE
:109064008146EEE72046FFF7BFFF34462046BDE8C1
:10907400F88301210430FFF7BDBA10B5012104467D
:109084000430FFF7C2FA10F0FF0F04D12046BDE808
:109094001040FFF7A9BF10BD2DE9F843C788054666
:1090A400181D8846B0FBF7F4164607FB14003CB9BC
:1090B400A7EB0009B14528BFB14626B9BDE8F8833E
:1090C4002D68013CF3E70430A6EB09064A4608EB99
:1090D4000401284405F0C9FDB7424C442D68B94643
:1090E4004FF0000028BFB146E7E72DE9F843C788F1
:1090F4008846191D0546B1FBF7F4164607FB141103
:109104003CB9A7EB0109B14528BFB14626B9BDE872
:10911400F8832D68013CF3E704312944A6EB0906E2
:109124004A4608EB040005F0A0FDB7424C442D6804
:10913400B9464FF0000128BFB146E7E741DF704769
:10914400064B10B500241C70054B1C60BFF35F8FE9
:109154000449054800F030F8204610BDBC33002017
:10916400C0330020E8F20200B433002007B502A89F
:10917400002300F8013DFEF7AFF9F1EE103A23F0B9
:109184009F03E1EE103ABFF35F8F0A4B4022C3F80E
:1091940084219DF80700FEF7C3F905F0E9FA20B130
:1091A400FFF7CCFF03B05DF804FB20BF40BF20BF36
:1091B400F8E700BF00E100E00B684A6843609342AF
:1091C40008BF0023016008BF43607047436843B190
:1091D4000268916852680B449342436004BF0023C1
:1091E400436070470D4930B5A1F594720225914250
:1091F40001D800200EE08B1ADB1093FBF5F302EB91
:10920400C30452F83330834205D802D204F1080271
:10921400EDE7606830BD2146E9E700BF38F402009D
:1092240008B5FFF7DFFF024B002808BF184608BD4A
:10923400FDF20200054B1B68082B01BF044B1868A4
:10924400B0FA80F0400918BF0020704730010010C8
:109254003401001008B54FF080430022C3F80C21FC
:10926400C3F81021C3F838254FF0805203F540436A
:10927400D2F80414C3F82015D2F80814C3F824153E
:10928400D2F80C14C3F82815D2F81014C3F82C150E
:10929400D2F81414C3F83015D2F81814C3F83415DE
:1092A400D2F81C14C3F84015D2F82014C3F844159E
:1092B400D2F82414C3F84815D2F82814C3F84C156E
:1092C400D2F82C14C3F85015D2F83014C3F854153E
:1092D400D2F83414C3F86015D2F83814C3F86415FE
:1092E400D2F83C14C3F86815D2F84014C3F86C15CE
:1092F400D2F84424C3F87025FFF79CFF10B1384B13
:10930400384A1A60FFF796FF18B1374BFB22C3F8AF
:109314001825FFF78FFF48B13449354B0A681B689D
:1093240022F00F0203F00F0313430B60FFF782FFD9
:1093340018B1304B4FF400721A604FF08043D3F8E9
:109344000024D20744BF6FF00102C3F800242A4A64
:10935400D2F8883043F47003C2F88830BFF34F8FDB
:10936400BFF36F8F4FF01023D3F80022002A03DBE2
:10937400D3F80432002B2FDA204B0122C3F8042542
:10938400D3F80024002AFBD04FF010221221C2F897
:109394000012D3F80024002AFBD04FF0102312222D
:1093A400C3F80422154B1A46D3F800140029FBD045
:1093B4000021C3F80415D2F80034002BFBD0BFF30E
:1093C4004F8F0D490E4BCA6802F4E0621343CB6021
:1093D400BFF34F8F00BFFDE70A4B0B4A1A6008BD6D
:1093E4008C5600404881030000F00040E40E004029
:1093F400580200104096024000ED00E000E00140F9
:109404000400FA052C2B00200090D003074B1B5CB2
:109414001F2B8ABF064A4FF0A04203F01F03D2F865
:109424000405D840C04300F001007047F2F7020081
:1094340000030050074B1B5C1F2B86BF03F01F0368
:1094440005494FF0A041012202FA03F3C1F80C359B
:10945400704700BFF2F7020000030050074B1B5C8B
:109464001F2B86BF03F01F0305494FF0A0410122C3
:1094740002FA03F3C1F80835704700BFF2F702009F
:109484000003005008B50020FFF7E8FF0120FFF7B4
:10949400E5FF0220FFF7E2FF0320BDE80840FFF7E5
:1094A400DDBF08B50020FFF7C5FF0120FFF7C2FFAD
:1094B4000220FFF7BFFF0320BDE80840FFF7BABF53
:1094C4000A4B185C1F288ABF094B4FF0A04300F0D9
:1094D4001F00D3F804250121814021EA02000A403B
:1094E400C3F80805C3F80C25704700BFF2F7020063
:1094F40000030050034BD3F810056FEA901000F0FE
:109504000100704700030050263818BF4FF0FF30A9
:109514007047262070470000C10710B5044642D5A5
:109524004FF08043D3F84036DA072ED54FF010239E
:10953400D3F8043303F00703072B26D11D4B012274
:10954400C3F80425D3F80024002AFBD04FF01021DF
:10955400D1F8042322F0070242F00402C1F80423E4
:109564000022C3F80425134AD2F80034002BFBD0A0
:10957400BFF34F8F1049114BCA6802F4E0621343E2
:10958400CB60BFF34F8F00BFFDE74FF0A0420C4903
:109594000323C2F81837C2F82037C1F82437C2F8B9
:1095A4003037FFF76FFFA30742BF054B0C22C3F808
:1095B400182710BD00E0014000ED00E00400FA05AA
:1095C4000003005038B5084C04F108030546002890
:1095D40018BF1C4623682BB11A6822605B682846B2
:1095E4009847F7E738BD00BFCC33002020B9054BBE
:1095F40001225A70FFF7E6BF012802D1014A907098
:10960400F8E77047C433002020B9034B01225A7095
:10961400FFF7D8BF704700BFC433002038B50B4CE8
:10962400237883B90A486360A3602361E36000F090
:109634005FF8054605F09CF808B900F067F80123C7
:109644002370284638BD8525FBE700BFC4330020BE
:10965400F195020037B502A80023094C00F8013D3A
:10966400FDF73AFFE368013BE360E56815B900F0F4
:1096740061F8A5709DF80700FDF752FF03B030BDF7
:10968400C4330020012813B509D003D303281BD009
:1096940002B010BD0F4B0122C3F88020F8E702A8E6
:1096A40000230D4C00F8013DFDF716FF23780BB99C
:1096B400FFF7B4FFE3689DF807000133E36001237B
:1096C400A370FDF72DFFE3E700F020F8FFF7C2FFDA
:1096D400DEE700BF00E100E0C433002000F1804079
:1096E400002382B0036003680193019B02B07047BA
:1096F400054A13792BB90121106011715371184671
:1097040070478520704700BFD8330020084B1A6883
:10971400D20706D4E02283F800230122C3F8802173
:109724001A604FF080430122C3F81825704700BF28
:1097340000E100E0044B01221A604FF08042D2F8AD
:109744001834DB03FBD470470C000040124B1B6839
:1097540010B573B14FF48070FFF7C0FF4FF0804332
:109764000122C3F808230D4B587910B95A711B68AC
:1097740098470B4B1B6873B14FF48270FFF7AEFF31
:109784004FF080430222C3F80823044B01201B68D6
:10979400BDE81040184710BD00010040D833002038
:1097A4000401004000F1804000F5C040002382B075
:1097B400036003680193019B02B0704703681F2B89
:1097C40083BF03F01F03036001484FF0A0407047BC
:1097D4000003005007B502AB43F8040D1846FFF729
:1097E400EDFF019B00EB8300D0F8003723F44033F6
:1097F400C0F80037D0F8003743EA0141C0F8001739
:1098040003B05DF804FB0000054B4FF0FF3207285E
:1098140043F8202084BF1B1883F85820704700BFEA
:10982400E033002010B5174C94F86A303BBBFF219D
:10983400E2180133302B82F83010F9D10021C8B27C
:10984400FFF7E2FF01310C29F9D1062200210E486D
:1098540005F034FA0D4B402283F806234FF4BE7012
:10986400C3F880211A60FFF79DFF094B4FF00042B7
:10987400C3F80423012384F86A30002010BD0820B3
:10988400FCE700BFE03300204434002000E100E0A6
:1098940000600040034B93F86A00003018BF0120B9
:1098A400704700BFE0330020F7B5404F3B18044633
:1098B40093F93030002B944675DA8B78C3F3400368
:1098C400002B15BF0025082508200C20854202D155
:1098D400042003B0F0BD57F8252001324FEA850675
:1098E40049D1381947F825C080F8305013B97B198D
:1098F40083F858408B785A071BD4D8073DD502A863
:1099040040F8084DFFF75AFF009B00EB8300D0F8A6
:10991400003723F00203C0F800372548E20804F0BA
:10992400070C012303FA0CF310F802C043EA0C03FA
:109934008354887891F800C010F002002AD006F110
:10994400804303F5C0432402D3F8102522F44F3298
:1099540022F44072C3F810254FEA0C4CD3F81025BA
:1099640004F47C540CF4403C44EA0C041443C3F85F
:1099740010450020ADE70135A8E702A84A7840F871
:10998400044DFFF71BFF019B03F5E073920040F8C1
:109994002320C2E7083D3D4495F8604044EA8C1C0E
:1099A40085F860C095E7082093E700BFE033002006
:1099B4004434002073B5224C2518064695F930200E
:1099C400072A1ADD224492F858309B09032B10D140
:1099D40002A840F8046DFFF7F1FE019AD0F81035A3
:1099E400D340DB0707D402213046FFF7F3FE02B071
:1099F40070BD012BF7D00321F6E7D3B2072BF6D8BD
:109A0400930003F1804303F5C043D3F8100540F0FD
:109A14000100C3F8100502F14000800080B2FFF796
:109A2400C1FE0029E3D095F9303054F82330002BDF
:109A3400DDD0012303FA02F2024BC3F80423D6E774
:109A4400E03300200060004007B502AB43F8040D8A
:109A54001846FFF7B3FE019BD0F81005D84000F07C
:109A6400010003B05DF804FB2DE9F04F002489B038
:109A7400CDE902445F4A604E604D01211368A2F5AE
:109A8400C040012B80B206D1D6F804330B4202D079
:109A9400FFF788FE0C430432AA424FEA4101EDD19C
:109AA400574B1B68012B0ED14FF4BE70FFF77AFEA3
:109AB4004FF0A04344F00044D3F810350293514BC7
:109AC400D3F81035039314F0FF0F1AD04E4F00252E
:109AD4000126344210D0AB0003F1804303F5C043A8
:109AE400D3F81005D3F8101557F82530C0F3052026
:109AF400C1F3014103B198470135082D4FEA4606E9
:109B0400E7D1002C72DA04AE0023049373604FF0A3
:109B1400FF33CDE906333C4F4FF0010800252C46B6
:109B24007B1993F96020531C47D0D2B222F0C009AC
:109B340008A84FEAD90300EB030B02F007011BF856
:109B4400080C08FA01F1084237D007EB0900920922
:109B540090F9300057F820A0BAF1000F05D1032A7C
:109B64002BD1F05C0843F05401E0032AF9D001A89A
:109B7400CDF80490FFF722FE019B03F5E07350F843
:109B840023301BF8180C0842C3F3014305D0022B01
:109B940013D1032A0BD1114604E0032B0DD1032A60
:109BA40005D102214846FFF715FE0134E4B2BAF1AB
:109BB400000F02D011464846D0470135042DAFD1DD
:109BC400A4B14FF0A0430299D3F8102503F54073D4
:109BD4009142D3F8103502D10399994206D00292EA
:109BE4000393049A059B0692079397E709B0BDE88F
:109BF400F08F00BF00610040006000402061004021
:109C04007C61004000030050E0330020014B1B68DE
:109C1400184700BF4C3400200D4B984237B50D4611
:109C240010D102A8002300F8013DFDF755FC094BB3
:109C34001C7914B901221D601A719DF80700FDF703
:109C44006FFC14B9002003B030BD1120FBE700BF46
:109C5400002000404C34002000F1804000F5E0403A
:109C6400002382B0036003680193019B02B0704734
:109C7400F0B5514B514C1B6885B0DBB14FF4827089
:109C840094F82E20FFF7E8FF12B194F82F30A3B117
:109C9400636802932389ADF80C30E36800218DF8E2
:109CA4000410002B44D12374236801A8984700238F
:109CB40084F82F3094F82E3003B3414B1B68EBB17A
:109CC4004FF48070FFF7C8FF94F82D20638B91B296
:109CD4008B4238D95B1A21899BB26383CB1A6168A2
:109CE40001EB4301374BC3F82C16C3F830264FF46D
:109CF4008270FFF7B1FF344B01221A60334B1B68AB
:109D04005BB14FF48870FFF7A7FF002304A8237406
:109D1400022300F80C3D236898472D4B1B6813B3AE
:109D24004FF48A70FFF798FF0023237405B0F0BD49
:109D3400208B608363602081E160002AB4D1214BD1
:109D440001221A60B0E7D2D1E368012184F82F1010
:109D54003BB1002161831B49C1F82C36C1F8302680
:109D6400C5E76383C3E766694FF000470125002E0A
:109D7400DCD0B6FA86F227FA02F34632920026EADB
:109D8400030602F1804303F5E0431B68002BEED089
:109D94001046FFF761FFA2F58C72D30882F004022B
:109DA400C2F380028DF808308DF804508DF8092034
:109DB400236801A89847DAE704710040543400206E
:109DC40000710040007000400470004010710040B9
:109DD400147100402DE9F743002406460F4600F5B0
:109DE400A0754FF48038A14604F150002B68800020
:109DF40080B26BB1D6F8043308FA04F21A4207D0E1
:109E0400C5F800902B680193019BD7E9003198476E
:109E14000134042C05F10405E6D103B0BDE8F08358
:109E240001490248FFF7D6BF843400200090004067
:109E340001490248FFF7CEBF9034002000A0004043
:109E44001FB54B7DDBB2022B07D0032B0FD0012BA8
:109E540000D1436205B05DF804FB00238DF80430A3
:109E64000293039301A88B6889699847F2E7012359
:109E74008DF80430D0F83C350293D0F84C35F0E737
:109E840013B54FF04020D0F82831DBB1194B1A49F3
:109E940000221A601B680093009B4B7DDBB2012BF0
:109EA40010D10A68CC68C0F84445C0F848254A680F
:109EB4000C69C0F83445C0F83825836202234B7519
:109EC400FFF7BEFF4FF04020D0F8043183B10B4BB5
:109ED400094900221A601B680193019B4B7D022BE8
:109EE40006D103234B7502B0BDE81040FFF7A8BFAD
:109EF40002B010BD284100409C34002004410040C1
:109F04002DE9F04F85B091460679754A01931C23DB
:109F140003FB062380461B7D0D469246002B40F032
:109F2400D9800B7C032B00F2D78004686D4920464E
:109F3400FFF772FE002840F0D1802B68FF2B00F061
:109F4400BD801F2BE97C87BF674F03F01F021A46B1
:109F54004FF0A04702F5E072090247F82210696841
:109F6400FF2900F0AE801F298BBF01F01F020A46B3
:109F74005D4F4FF0A04702F5E0724FF0000C47F838
:109F840022C0EA6895F812C01F2A8BBF02F01F078F
:109F94001746DFF854E14FF0A04E07F5E0774FEA9B
:109FA4008C0C4EF827C0D5F808C0BCF11F0F8BBF2E
:109FB4000CF01F0EE646DFF830B14FF0A04B0EF563
:109FC400E07E00274BF82E70C4F808C5C4F81015BD
:109FD400C4F80C356B7CC4F814252A7CC4F8347599
:109FE400DB1B18BF0123022AC4F83875C4F8447572
:109FF400C4F8487568D0032A69D0012A01D143F016
:10A004000203C4F854352B7DC4F85C356B7DC4F869
:10A01400C0350022C4F80421D4F804310393039B0F
:10A02400C4F82821D4F828310293029BD4F80032D2
:10A0340043F00403C4F800321C2303FB06AA019B6B
:10A044008AF81520D8F80020CAF81830120B40F20C
:10A054000243C4F80433CAF8089053B2A97D002B14
:10A06400A8BF03F16045D2B24FEA53134FEA41113E
:10A07400BABF02F00F071D4D05F561454FEA830392
:10A08400B4BFC9B2C9B203F16043B4BFE95585F89E
:10A09400001303F56143012102F01F0201FA02F2E9
:10A0A400C3F880211A600E4B1C2202FB06360223E1
:10A0B4003175C4F8003505B0BDE8F08F4FF0FF33BB
:10A0C4004DE74FF0FF315CE743F0040399E743F0B9
:10A0D400060396E70820EEE70720ECE71120EAE7FD
:10A0E4009C340020859E02000003005014ED00E023
:10A0F40070B50479049D3CBBB5F5803F24D2B2F51C
:10A10400803F21D221B101F06044B4F1005F1DD140
:10A1140023B103F06044B4F1005F17D10D4C667DA8
:10A12400032E03D8DFE806F004140404032070BDF2
:10A13400C4E903130123226000686560054963755F
:10A14400FFF77EFE0020F2E70920F0E71020EEE79B
:10A154000820ECE79C340020024B53F8213007C858
:10A16400184700BFB834002010B4044C037944F8F5
:10A174002320034A5DF8044BFFF7C2BEB834002025
:10A184005DA102000220FFF79BB9000008B5094B4E
:10A194001B7853B10020FFF761F90120FFF75EF946
:10A1A4000320BDE80840FFF759B9BDE80840FFF7B0
:10A1B40069B900BFC5340020F8B5794C2378054649
:10A1C4001BB100232370FFF7E1FF172D00F28480F9
:10A1D400DFE805F00C13133F5061727C8489848995
:10A1E400919696969696C0C5CDD5E0E0FFF7CEFF42
:10A1F4006C4B00241C702046F8BD0020FFF706F9C4
:10A20400F8B10020FFF72AF9022D0CBF4FF4E161E9
:10A214004FF47A61634B1D704FF400404FF4FA74AD
:10A224000025E0FB01454FF47A72002320462946BD
:10A2340004F020FC002201465B48BDE8F840FDF72D
:10A24400F7B8FFF7F7F8022D0CBFC8214FF4C87117
:10A25400E0E70020FFF7DAF840B10020FFF7FEF84E
:10A264004FF448714F4B03221A70D5E7FFF7E2F819
:10A27400C821F7E70020FFF7C9F838B10020FFF73D
:10A28400EDF84FF47A61474B0422EDE7FFF7D2F87B
:10A294004FF4C871F7E70020FFF7B8F848B1002081
:10A2A400FFF7DCF83F4B05221A7041F69A110022A1
:10A2B400C2E7FFF7BFF8F5E70020FFF701F9394BD4
:10A2C40006221A70002240F6CD41B5E70020FFF7C0
:10A2D400B1F8344B07221A7000248CE70120207057
:10A2E400FFF7EEF8EEE701202070FFF7E9F800220F
:10A2F4004FF48041A0E7FFF7D4F82A4B0C22EAE799
:10A304002A482B4EFDF7D8F8D5F1110504461CD088
:10A31400D8B9012D13D0C8235D434FF400474FF43F
:10A32400FA7000214FF47A720023C7FB050104F090
:10A33400A1FB224601461D48FDF77AF80446022097
:10A34400FFF778F80123337055E70220FFF786F80A
:10A354000023F8E7FFF71AFF124B1222BBE7FFF7BF
:10A3640015FF0020FFF766F80E4B1322B3E7FFF743
:10A374000DFF0120FFF75EF80A4B1422ABE7FFF74D
:10A3840005FF0020FFF756F80120FFF753F8054BAF
:10A394001522A0E7FFF785F8024B1D709CE700BF6C
:10A3A400303500203835002008350020C83400201E
:10A3B400C5340020044B1B68DB0703D5034B187816
:10A3C400FFF7FABE704700BF2C3500203835002057
:10A3D4002DE9F04107460C46FFF796F820B9012C09
:10A3E40004D01DD3022C25D0BDE8F081134D6A782A
:10A3F4002C7842B1124E134832464FF40041FDF717
:10A4040017F800B93770104BAA781A70002CEBD0EB
:10A414000E4B1B68002BE7D02046BDE8F0411847DF
:10A424000848FDF749F8054B9C78074B1B78A34275
:10A43400DAD1EBE7014B5C78E8E700BF2835002070
:10A44400C4340020E834002039350020343500209D
:10A4540002210078FFF7BCBF002810B54FF00000C0
:10A4640014BF03240024FFF754F81F288ABF0A4BA3
:10A474004FF0A04300F01F0003EB8000D0F800274A
:10A4840022F44032C0F80027D0F8003743EA0443EE
:10A49400C0F80037002010BD0003005008B9FFF7D2
:10A4A40029B8002070470000044B1B6813F0010317
:10A4B40001D0FFF781BE1846704700BF2C3500203D
:10A4C40038B5194B1860194B10F002040546196091
:10A4D40014D0174B17480E221A70012140F26662FD
:10A4E400FCF7AAFC044648B9FCF7FAFC044628B970
:10A4F4000146114A1148FCF789FF0446EB0711D5C0
:10A504000120FFF709F86CB921460D4A0D48FCF704
:10A514007DFF044630B90C4A0C480121BDE838409F
:10A52400FCF774BF204638BD2C350020343500209C
:10A53400283500202CF8020055A4020038F8020047
:10A54400B9A302003CF8020089A1020034F8020019
:10A5540048B9012A02D1012907D00246012905D0B0
:10A564000AD3022905D0072070470E22044B1A7023
:10A574007047034B5A707047014B9A70704700BF85
:10A584002835002010B90120FFF766BF0620704768
:10A5940008B5012202210020FFF7DAFF08B10728DD
:10A5A40010D1072202210120FFF7D2FF08B10728AA
:10A5B40008D100210A220846FFF7CAFF10B1072874
:10A5C40008BF002008BD00000388102B10B502D07E
:10A5D400112B1ED010BD1A4C2168B1B901220846B6
:10A5E400FFF7B6FF08B1072824D107220221012072
:10A5F400FFF7AEFF08B107281CD104220221002076
:10A60400FFF7A6FF08B1072814D12368013323609C
:10A61400E0E70B4A1368013B1360002BDAD1FFF724
:10A62400B7FF0028D6D0074B1B68002BD2D0BDE85B
:10A6340010401847034B1B68002BE6D09847E4E70B
:10A64400403500203C35002008B50020FFF79AFF74
:10A6540008B1062806D10120FFF794FF10B106289F
:10A6640008BF002008BD00000D4B10B518600C4653
:10A6740029B10120FFF712FF40B102232370094BD7
:10A684001B6853B9BDE81040FFF782BFFFF706FF10
:10A6940008B10B23F2E72070F1E7002010BD00BFE2
:10A6A4003C3500204035002076DF70477ADF704764
:10A6B4007CDF70477FDF70478FDF7047B1DF704703
:10A6C40033DF7047FCF722BC38B5114B114D1968C4
:10A6D40028688C1E84421C4602DC0231884203DD59
:10A6E4000C490D4800F0D7FB2B6823600B4B0C4D35
:10A6F400196828684C1F84421C4602DC05318842D4
:10A7040003DD0749044800F0A2FB2B68236038BD31
:10A714006036002068360020003600205C360020B9
:10A724004435002008B50020FFF7BEFE08B1FCF751
:10A73400EDFBFFF789FF08B1FCF7E8FBFFF7C0FF6B
:10A7440018B1BDE80840FCF7E1BB08BD0388212B24
:10A7540013B5044643D027D8112B30D0132B46D041
:10A76400102B1FD12A4B2B491888000440F00300FA
:10A77400FCF710F90720FFF797FE08B1FCF7C6FBBA
:10A78400254BA1882548198002F09EF908B1FCF7F1
:10A79400BDFB00224FF420312148FCF749FE08B1EB
:10A7A400FCF7B4FB02B010BD522B28D0562B01D0BD
:10A7B4003B2BF7D11321A088FFF776FFEFE7144B6B
:10A7C40018491888000440F00300FCF7E3F8124B22
:10A7D40013484FF6FF721A80FCF76EFEDFE702A9FA
:10A7E400002321F8043D8088FFF766FFD7E70A4875
:10A7F40000231A4685210088FFF75CFFCFE706484F
:10A8040000231A4619460088FFF758FFC7E700BF20
:10A81400B82A00205CF80200302B002028360020E3
:10A824003C36002066F80200F0B587B006AB03E9B9
:10A8340007009DF80C30012B2BD11749174A8F784C
:10A8440013704B780A78164EC978164C164D03EBE4
:10A854000220306001EB0720286020880004CDE945
:10A86400007140F003001149FCF7B8F82088326801
:10A874000F49000440F00300FCF790F820882A6890
:10A884000C49000440F0030007B0BDE8F040FCF7B9
:10A8940085B807B0F0BD00BF343600206436002010
:10A8A40044350020B82A002068360020F0F8020061
:10A8B40021F9020030F9020008B503784BB9054BC1
:10A8C4003B211888FFF7F0FE18B1BDE80840FCF7FB
:10A8D4001DBB08BD302B0020072808B513D00A285B
:10A8E4000DD0042819D10D4B13211888FFF7DCFE75
:10A8F40030F0080311D0BDE80840FCF707BBBDE801
:10A904000840FFF70FBF054B1A884FF6FF739A42B2
:10A9140003D1034800F0E8FFEAE708BD302B00202C
:10A924004835002008B548B103280BD10220FFF7B1
:10A93400BBFD38B1BDE80840FCF7E8BABDE8084003
:10A94400FFF7F0BE08BD000008B50321044800F07D
:10A9540068FE18B1BDE80840FCF7D8BA08BD00BFCE
:10A964004835002030B5037885B004460D2B10D847
:10A97400DFE803F0070F110F220F2A390F350F39C3
:10A9840032391A4B1A491888000440F00300FCF7C6
:10A9940001F805B030BD154B40881D8801F0A6F9BB
:10A9A4002D04227A009245F003050246638811497A
:10A9B4002846FCF707F8ECE704A9002301F8043D56
:10A9C400408802F06BFEE4E7FDF780FC30F00803FA
:10A9D400DFD0FCF79BFADCE7FFF7B6FFD9E70069A5
:10A9E4000028D6D0F5E78068FAE700BFB82A00202F
:10A9F4007FF80200A8F80200FCF788BA08B5002125
:10AA0400044801F051FF18B1BDE80840FCF77EBAD4
:10AA140008BD00BF1436002070B54FF40041AEB03D
:10AA24000020FBF7EFFD08B1FCF770FAFBF71AFD05
:10AA3400FCF7BCFC08B1FCF769FA0121894A8A4891
:10AA4400FCF7E4FC89490320FFF73AFD08B1FCF761
:10AA54005DFA03A90020FFF707FE08B1FCF756FAD8
:10AA6400FEF76EFB08B1FCF751FA03F005FE08B1DE
:10AA7400FCF74CFA002303A90120039303F0C8FE5A
:10AA840008B1FCF743FA03A803F08AFF08B1FCF706
:10AA94003DFA2EAC112304F8B03D754804F063F977
:10AAA400734982B22046FFF703FE08B1FCF72EFA81
:10AAB4000822002103A86F4D04F000F94FF0C87379
:10AAC40003A8CDE90353FFF7F1FD08B1FCF71EFA23
:10AAD400FFF794FF684B6948039303A901F0E2FF71
:10AAE40008B1FCF713FA664800F0F4F8654B1868EF
:10AAF40002900021AC2203A804F0E0F802238DF8B0
:10AB04000C3000238DF80E3005238DF80F3001230F
:10AB14004020ADF858308DF8883044F25063CDE9C8
:10AB2400250303A9584B594817942C9300F00FFDA3
:10AB340008B1FCF7EBF90121544800F005FD1C2293
:10AB4400002103A804F0BAF800234FF42032CDE921
:10AB54000332ADF81A304FF470228DF81C304C4B90
:10AB64000592089303224B4B8DF8182003A80993F0
:10AB740000F0DAFF08B1FCF7C9F902F03BFD08B1B7
:10AB8400FCF7C4F90522002103A804F097F89DF806
:10AB94000C3043F00103032203F0F10362F30613C4
:10ABA4006FF3C7138DF80C3007238DF80D30102385
:10ABB4008DF80E309DF80F3013438DF80F309DF84B
:10ABC400103003A813438DF8103002F05DFD08B176
:10ABD400FCF79CF9304802F03FFD08B1FCF796F908
:10ABE4002E4D0FCD03AC0FC495E80300182384E861
:10ABF400030006930F211123CDE90313284A2948A2
:10AC0400142303A90593FFF7AFFA08B1FCF77EF903
:10AC1400052300930122244B22480021FFF768FA00
:10AC240008B1FCF773F9214C1F4DFFF78DFE264642
:10AC340005220021284604F041F800220523227051
:10AC44001146009317482B46FFF752FA08B1FCF758
:10AC54005DF93378002BEBD1FBF73AFDFEF786FA6A
:10AC640020BFF6E7CDA6020074F80200DDA80200BA
:10AC740078F802005000A000C9A60200283600207F
:10AC84000036002040F8020029A9020048350020BF
:10AC9400BDA80200FDA9020069A9020044F802004F
:10ACA4002DA80200E8F802003436002064360020A3
:10ACB400A8DF7047AADF7047AEDF70470388102B08
:10ACC40002D0112B03D0704783880B8070474FF656
:10ACD400FF73FAE72DE9F04792B012A941F61A037F
:10ACE4000246012421F83C3D4FF6FF73054622F845
:10ACF400023B20468DF80E40FFF7DAFF08B1FCF75F
:10AD040005F942F66F231C2200210BA88DF812408E
:10AD1400ADF8103003F0D2FF9DF82C3001AF43F0B2
:10AD240002030322002138468DF82C3003F0C6FFBD
:10AD34009DF80630109764F342038DF806309DF8B1
:10AD44002C3002AE41F2111843F01003032200210B
:10AD54003046ADF804808DF82C3003F0AFFF9DF839
:10AD64000A30ADF8088064F342031422002106A8D7
:10AD74008DF80A300DF1480803F0A0FF0223ADF866
:10AD84002430ADF82030002348F8343D04AC2B1DAA
:10AD940006AA0BA96888CDF82880CDE90646FFF7F6
:10ADA40089FF08B1FCF7B2F84FF0010942F66E23AF
:10ADB4001C2200210BA8ADF810308DF8129003F07E
:10ADC4007DFF9DF82C30032243F002030021384616
:10ADD4008DF82C3003F072FF9DF80630109769F35C
:10ADE40042038DF806309DF82C3041F2111A43F0DD
:10ADF40010030322002130468DF82C30ADF804A056
:10AE040003F05CFF9DF80A30ADF808A069F3420333
:10AE14001422002106A88DF80A3003F04FFF022304
:10AE2400ADF82430ADF820300023059306AA05F1CF
:10AE34000C030BA96888CDF82880CDE90646FFF7F6
:10AE440039FF08B1FCF762F812B0BDE8F08730B5FD
:10AE540002884FF6FF739A4287B004460D4618D015
:10AE640002230021102202A8ADF8063003F026FFC9
:10AE7400A388ADF8083001238DF80A300023ADF81B
:10AE84000C3002A90DF106032088CDE90435FFF743
:10AE940013FF07B030BD30B502884FF6FF739A42F6
:10AEA40087B004460D4618D002230021102202A8C0
:10AEB400ADF8063003F002FFA389ADF80830012392
:10AEC4008DF80A300023ADF80C3002A90DF1060309
:10AED4002088CDE90435FFF7EFFE07B030BD0369E4
:10AEE400C1688B429DBF8268D21802F1FF3203F120
:10AEF400FF3394BF501A581A70472DE9F041D0E936
:10AF040002670446F61B4068964288461546384454
:10AF140005D903F0AAFE3D44E560BDE8F081324660
:10AF2400AD1B03F0A2FE2A4608EB0601606803F09D
:10AF34009CFEF1E72DE9F843C568064689461746A5
:10AF44004FF000083469B3687068A54228BFE4185C
:10AF5400013C621B5C1BBC4228BF3C46944228BF98
:10AF6400144649462844224603F07FFEB36825442C
:10AF7400AB4208BF00253F1BA044A144F560E1D1CA
:10AF84004046BDE8F883000010B5114C114AA26197
:10AF94000223C4E90433104BE361A2644FF4007349
:10AFA4000E4A2362E264002310220D49A362E01DCD
:10AFB4006362E362A3656365E365226503F0B1FE42
:10AFC4000849204603F0ADFE2023A37110BD00BF45
:10AFD4006C36002042F90200F4360020E4360020EA
:10AFE4004BF902004FF90200F8B5184C182300FB86
:10AFF400033503FB00402544C46A012C0F46164662
:10B0040011D003D3022C1BD000240AE02846FFF7FA
:10B0140066FF864205D8324639462846FFF76DFF5B
:10B0240034462046F8BD2846FFF759FF8642344689
:10B0340028BF0446224639462846FFF75EFFF0E75C
:10B044002846BDE8F840FFF775BF00BF6C36002006
:10B05400FFF79ABF6DDF704779DF70477DDF704778
:10B0640064DF70472DE9F74F0C9CBDF834B0278896
:10B07400002580468A4691462E46B8F80020B24202
:10B084000BDC35B12288013AD21B92B2FF2A39D89F
:10B09400DA55002003B0BDE8F08FD8F8042052F848
:10B0A4002600019000220DF1030101A8FFF7D8FF4B
:10B0B4000028EFD19DF803204A4521D12288002D94
:10B0C40014BF0020022002EB09010144594519DC98
:10B0D4003DB9013292B2228003F802A022880132E3
:10B0E400228022880DF103011A4401A8FFF7B8FF5A
:10B0F4000028CFD121889DF803200A44228001250D
:10B104000136BAE70C20C5E72DE9F341089CBDF8E8
:10B1140024501746CDE9004502220646FFF7A2FF58
:10B1240048B9102239463046CDE9084502B0BDE899
:10B13400F041FFF797BF02B0BDE8F0812DE9F04F71
:10B1440000231688138090F82D3085B007460D46ED
:10B15400144653B3082E01D80C2004E102A8FFF7CB
:10B1640079FF002840F0FF8013880822CA542388FE
:10B1740001339BB21B222380CA542088013080B241
:10B18400208006220DF10901284403F06EFD238876
:10B194009DF8082006339BB212F0FE0218BF01226C
:10B1A4002380EA54238801332380BB78FBB12388AE
:10B1B4000433B342D0D802A8FFF74EFF002840F072
:10B1C400D28023880322EA54238801339BB21922B4
:10B1D4002380EA542388BDF8082001339BB2E91880
:10B1E4002380EA54120A4A70238802332380FA78AF
:10B1F4009AB12388D91CB142AED80221E9542388DC
:10B2040001339BB201212380E95423880B449BB270
:10B214002380EA5423880B4423807A68AAB12388C4
:10B22400D91CB14298D8022192F90020E95423880C
:10B2340001339BB20A212380E954238801339BB252
:10B244002380EA542388013323803B89002B7ED159
:10B254003B8A53B1CDE900462B460722032107F16F
:10B264001000FFF751FF00287DD13B8B53B1CDE98E
:10B2740000462B461522142107F11800FFF744FF5E
:10B28400002870D13A6A002A70D1D7F82480B8F126
:10B29400000F30D0B8F804302188981C8A1C02446E
:10B2A400B2423FF659AFFE283FF656AF03336B5414
:10B2B400238801339BB2FF222380EA54238801337D
:10B2C4009BB22380B8F80020EA54E918120A4A70A5
:10B2D4002088023080B22080B8F804205AB1D8F80F
:10B2E400081000294CD0284403F0BFFC2388B8F888
:10B2F40004201344238097F82C30002B7BD138781A
:10B3040088B33B88012B3BD021888A1CB2423FF68C
:10B3140023AF012805D17B7802330B449E42FFF40E
:10B324001BAF023E761A04A9B6B221F8086DA8181C
:10B33400FFF794FEB8B93B78022B40F09F80BDF82C
:10B344000830B34240F2B680ADF808609FE0CDE922
:10B3540000462B460622022107F10800FFF7D4FE1F
:10B3640000283FF475AF05B0BDE8F08FB4F800C015
:10B374000CF10603B3423FF6EFAE1188052901D85C
:10B384000720F0E76FF4486E01EB0E039BB24FF217
:10B394007D3E7345F4D95388052BF1D96FF4486089
:10B3A400181880B27045EBD94FF6FF70814203D074
:10B3B400834201D09942E3D8052305F80C30238851
:10B3C40001339BB212212380E954238801339BB2B9
:10B3D40023801188E954E818090A4170238802334C
:10B3E4009BB223805288EA54E918120A4A702388CF
:10B3F4000233238049E7BB6A002BC1D04FF0000918
:10B404004FF00C0A4FF0160B97F82C305FFA89F2C4
:10B4140093427FF674AFB96A0AFB02F201EB0208A9
:10B42400B8F80430981CFE283FF696AE2088033303
:10B434002B54238801339BB2238005F803B023885F
:10B4440001339BB223808A5AEA54E918120A4A70DB
:10B454002088023080B22080B8F804205AB1D8F88D
:10B46400081000298CD0284403F0FFFB2388B8F887
:10B4740004201344238009F10109C5E7012B7FF45B
:10B4840063AF7B789E42FFF45FAFADF808300821CC
:10B49400BDF80830FE2B3FF65FAE22880133AB5473
:10B4A4002288013292B22280A95422881344238034
:10B4B400002058E70921EBE770B5C0B14AB11688FE
:10B4C4000024B44203D305196D789D4208D0A142EB
:10B4D40001D800200BE0055D01352C44A4B2F0E74F
:10B4E400A142F6D9A31C1380005D013880B270BD5F
:10B4F40037B502AC002324F8023D13462246054624
:10B50400FFF7DAFF10B1BDF80600284403B030BDE0
:10B5140072DF704773DF704774DF704738B50122FC
:10B5240004460D46B0F89810D0F89400FFF7E0FFF9
:10B5340000B1057004F13C0204F1940104F15400DB
:10B54400BDE83840FFF7E4BF80F830107047F8B525
:10B5540004460F46002960D000285ED091F87A3066
:10B564001BB191F89830002B59D107F178060FCE12
:10B574004FF0000C251D84F802C00FC50FCE0FC577
:10B5840096E8070085E8070084F830C0D7F8A430AF
:10B594006363D7F8A830A3634FF6FF7504F19403EF
:10B5A400C4F8A430A4F8A8500722614604F1AA0004
:10B5B40003F084FB23780BB984F85450224604F139
:10B5C40055011F25C4F89410384622F8985FFFF7F8
:10B5D400B5FD08BB224604F17401C4F89C1007F1C0
:10B5E4003C0022F8A05FFFF7A9FDA8B9A269A4F85E
:10B5F400482001236269206484F850006264014693
:10B6040084F8513084F83C3004F13C0204F15400D5
:10B61400FFF77EFF00B92370F8BD0E20FCE707207A
:10B62400FAE7F8B5077804460D46002F00F01181BB
:10B63400A1700020FDF726FB014618B101236370B9
:10B644000020F8BD04F1AA060722304603F036FBB9
:10B65400E38813B1A378012B04D0E3794BB1A37829
:10B66400022B06D1636B9BB1012284F8B120082020
:10B674009847324604F1B00112F8013F5BB9914298
:10B68400FAD16A1E032A52D8DFE802F0070D11141A
:10B6940084F8B130EDE73B46F3E7A2791AB194F8A8
:10B6A400242002B95BB9E2790AB1002B41D1237A93
:10B6B400002B40D1637A002B0CBF00250425636B5B
:10B6C400A570002B39D0033D012D36D86279A2B381
:10B6D40094F8B2208ABB84F8B420012284F8B32001
:10B6E4000720984704F13C0518220021284603F05E
:10B6F400E5FAE36A0122591E914284F83C2020D9DC
:10B70400042B1ED084F85120002794F824201AB169
:10B71400D7B1A36A84F85230A178002384F850305A
:10B72400042920D8DFE801F07F122A3D61000025BA
:10B73400C5E70225C3E70325C1E7002384F8B33036
:10B74400D0E784F85130E0E70123E3E7C4F8A430FC
:10B75400C4E910630223012284F83C30802384F876
:10B764003120A4F84830A378002B5FD1636B002B01
:10B774003FF466AF94F83100984761E7022384F8F8
:10B78400313062B1072384F83C302369A4F848308F
:10B794000023C4F8A430E36826646364E3E7032366
:10B7A400F1E763696364A369A4F8483012B106231E
:10B7B40084F83C306379B3B194F8B2309BB994F80F
:10B7C400B43083B1022384F8503004212046FFF7BB
:10B7D400A5FE0028C7D1052384F8313004F1940371
:10B7E400C4F8A430BFE70323F6E7E3696364236A7C
:10B7F400A4F8483012B1062384F83C30637983B14D
:10B8040094F8B2306BB994F8B43053B1022384F88D
:10B81400503004212046FFF781FE0028A3D10623DF
:10B82400DAE70423D8E784F831309CE72A46D4F8D1
:10B83400A41004F15400FFF76BFE00287FF401AF5D
:10B8440094F8301094F85400FFF764FE00288DD06B
:10B85400F7E60820F5E60388112B10B50C460AD04C
:10B86400262B1FD0102B05D1C37B012B02D183883B
:10B87400A1F8A83010BD0022838881F8B220B1F865
:10B88400A8209A42F6D10B79002BF3D1012120464E
:10B89400FFF7C7FE0028EDD0A36B002BEAD0BDE86C
:10B8A40010401847037A013B012BE3D8897805231C
:10B8B400013191FBF3F303EB8303C91AC9B2E6E741
:10B8C4000238012810B50C460DD84B785BB1002323
:10B8D4004B7020468978FFF7A4FE20B1A36B13B107
:10B8E400BDE81040184710BD38B5044690F8540020
:10B8F400FFF712FE012384F8B230002384F8B43039
:10B9040084F8503006212046FFF708FE054638B972
:10B91400A1782046FFF785FE10B1A36B03B19847C9
:10B92400284638BD75DF704776DF70477ADF704789
:10B934007BDF7047034B1A8882420CBF18460020F5
:10B94400704700BF10390020024B9B6903B11847B0
:10B95400704700BFF438002037B585B22846FFF79A
:10B96400E9FF034670B1164C017A227B91420BD257
:10B9740000F10A012846FFF7D5FFE8B1112801D0EC
:10B98400FFF7E2FF03B030BD237C0022027243B113
:10B994003B212846FFF7C8FF30F0080301D0FFF72A
:10B9A400D3FF6369002BEDD000228DF80420ADF89D
:10B9B400065001A89847E5E71A7A01321A72E1E7BE
:10B9C400F438002013B50B46497A0F4C024669B986
:10B9D400D4E901101C7A002C18BF01465868FBF703
:10B9E40027FD08B1FFF7B0FF02B010BD00211972A6
:10B9F4006369002BF8D00121ADF806008DF804101E
:10BA040001A89847F0E700BFF43800208388B3F515
:10BA1400FA7F28BF6FF4F97230B528BF9C180588E7
:10BA24004A8838BF002495420CD84088904209D3F4
:10BA34008A88A24206D303F2F310904234BF002056
:10BA4400012030BD0020FCE70388112B70B50146AE
:10BA540048D002D8102B1ED070BD122B52D0502BC0
:10BA6400FAD12F4BC288DB899A42F5D1038A022B83
:10BA7400F2D186883046FFF75DFF05460028EBD0FB
:10BA840001F1120000F0A8F930BB6868FBF714FD5F
:10BA94000028E1D009E0C37B012BDDD14FF6FF7014
:10BAA400FFF748FF054620B90420BDE87040FFF7C2
:10BAB4004BBF1C4A8E880680002303721368C5F8A6
:10BAC4000A300A30536843601031FFF79FFF144B6C
