:100000000000042061020000B9020000BB020000F1
:10001000BD020000BF020000C1020000000000009D
:10002000000000000000000000000000C30200000B
:10003000C502000000000000C7020000C902000065
:10004000CD020000CF020000F93C0000D302000006
:10005000D5020000D70200003D6A0000DB0200006C
:100060005D7100007D44000095440000E302000043
:10007000E5020000E7020000E9020000EB020000D8
:10008000ED020000D1350000F1020000F302000093
:1000900011360000F7020000F9020000FB02000028
:1000A000FD020000FF020000010300000303000046
:1000B0000503000007030000CB020000CB02000094
:1000C000090300000B0300000D0300000F030000F4
:1000D00011030000130300001503000017030000C4
:1000E000190300001B0300001D030000CB020000E9
:1000F000CB02000021030000CB0200001F03000020
:10010000364937480A1A02D0072291438D463549AD
:1001100035480A1A06D00722914381F30988022242
:1001200082F3148831483249324A00F045F83248A7
:100130003249334A00F040F832483349334A00F03C
:100140003BF833483349344A00F036F833483449F1
:10015000344A00F031F834483449354A00F02CF87C
:1001600034483549354A00F027F8354835490022EA
:1001700000F02DF834483549002200F028F83448C2
:100180003449091A082903DB0022026004300160A7
:10019000314A90471F482049884205D00268043000
:1001A00003B4904703BCF7E700208646EC460020E6
:1001B00000212A4A9047FEE7884207D0521A05D00C
:1001C000037801300B700131013AF9D17047884250
:1001D00002D002700130FAE77047000000000420EE
:1001E00000E00320000004200000042040920000F2
:1001F000200000209C0000202403000024030000B5
:10020000427F0000409200002000002020000020DB
:10021000BC7F0000BC7F0000BC7F0000BC7F0000F2
:10022000BC7F0000BC7F0000BC7F0000BC7F0000E2
:1002300040920000BC9200009C0000209C00002026
:100240009C000020AC0B0020AC0B0020AC0B00206D
:10025000AC0B0020AC2B002085020000DD750000F7
:100260000F484FF00701884385460E4880470E48E7
:10027000016841F470010160BFF34F8FBFF36F8FCE
:10028000FFF73EBF09480A490A4A884207D0521A76
:1002900005D0037801300B700131013AF9D1704774
:1002A000000004209979000088ED00E09C7F0000A8
:1002B0000000002020000020FEE7FEE7FEE7FEE74A
:1002C000FEE7FEE7FEE7FEE7FEE7FEE7FEE7FEE706
:1002D000FEE7FEE7FEE7FEE7FEE7FEE7FEE7FEE7F6
:1002E000FEE7FEE7FEE7FEE7FEE7FEE7FEE7FEE7E6
:1002F000FEE7FEE7FEE7FEE7FEE7FEE7FEE7FEE7D6
:10030000FEE7FEE7FEE7FEE7FEE7FEE7FEE7FEE7C5
:10031000FEE7FEE7FEE7FEE7FEE7FEE7FEE7FEE7B5
:04032000FEE700BF35
:1003240000B585B00190019B002B0AD0074B43F028
:1003340001030393019B9B010293039B029898473B
:1003440000E000BF05B05DF804FB00BFD07F0000F3
:1003540000B583B00190019B002B0AD04FF47A7052
:10036400FFF7DEFF019B013B0193019B002BF5D1BD
:1003740000E000BF03B05DF804FB08B507F0E8FA3D
:1003840000BF08BD00B589B0039002910192019BA2
:10039400002B33D00023079303230693029A079B71
:1003A4001344019A1946002007F084FA0590079A2D
:1003B400059B13440793019A059BD31A0193059B4C
:1003C400002B13D10F4B1B7883F00103DBB2002BFE
:1003D40013D10120FFF7BCFF069B013B0693069B4C
:1003E400002B03D1074B00221A7007E0054B0122B2
:1003F4001A70019B002BD1D100E000BF00BF09B0EF
:100404005DF804FB9C00002000B585B003900291C8
:10041400054B00934023054A0299039800F012F813
:1004240000BF05B05DF804FB89030000A0000020B4
:1004340082B0019000BF02B0704782B0019000BF4B
:1004440002B0704700B5A1B00590049103920293E5
:10045400049802F0E4FA039B1593029B169300237D
:10046400179300238DF8603000231993229B1A936D
:1004740000231F930FA91F9B0822049802F08AFBF4
:1004840008231F93119B1293BDF84030ADF84C30F4
:10049400BDF84230ADF84E3000238DF851309DF850
:1004A4003C3003F00303DBB2012B26D10F9BC3F3D3
:1004B40095231C939DF83C30C3F3C203DBB28DF843
:1004C4005030BDF83C30C3F38313DBB21B931B9B4A
:1004D4009A0009A91F9B049802F05CFB1B9B9B00DC
:1004E4001F9A13441F9312AA09A915AB009313462C
:1004F4001B9A1C9801F026F82FE09DF83C3003F07D
:100504000303DBB2022B28D1BDF83E30C3F38913B9
:100514009BB21E939DF83C30C3F3C203DBB28DF84B
:1005240050301E9B082B28BF08231D9307A91F9B2F
:100534001D9A049802F02EFB1F9A1D9B13441F93CF
:100544001E9A1D9BD31A1E9315AB12AA07A81D99B8
:1005540001F09AF81E9B002BE3D1049802F06EFA86
:1005640000BF21B05DF804FB00B583B00190019B8E
:100574001B781A460C4B9B5C002B05D0019B043363
:10058400184605F0B3F90BE0019B1B781A46064B9D
:100594009B5C002B04D1019B0C33184604F052FBE6
:1005A40000BF03B05DF804FB7007002000B587B0FE
:1005B4000390029113468DF8073000230593039BA3
:1005C4001B781A46114B9B5C002B09D0039B043308
:1005D4009DF807200299184605F0B6F905900FE03A
:1005E400039B1B781A46094B9B5C002B08D1039B89
:1005F4000C339DF807200299184604F099FB0590E6
:10060400059B184607B05DF804FB00BF7007002087
:1006140082B001900091034B01221A7000BF02B016
:10062400704700BF2001002030B58DB003468DF81F
:1006340007301A4B02AC1D460FCD0FC495E80F00CE
:1006440084E80F00062302934FF0FF3303934FF027
:10065400FF3304934FF0FF3305934FF0EB7308938C
:100664009DF80730002B01D00D4A00E0002202ABB8
:1006740019460C4803F0C4F80B900B9B0A930A9B91
:10068400002B04D0084A43210A9801F081FA074A52
:100694009DF80730137000BF0DB030BD50800000CE
:1006A4001506000020000020D87F00002101002052
:1006B40000B583B000238DF807309DF80730184645
:1006C400FFF7B2FF00BF03B05DF804FB00B589B0CB
:1006D400039002910192019B8DF81F30124B00226E
:1006E4001A709DF81F301A4602991048FFF75EFFF2
:1006F4000690069B0593059B002B04D00C4A5321BE
:10070400059801F045FA00BF0A4B1B78002B07D06F
:10071400054B1B78DBB283F00103DBB2002BF3D172
:1007240000BF09B05DF804FB200100202000002078
:10073400D87F00002101002000B585B0039002910C
:10074400054B00934023054A02990398FFF77AFE6C
:1007540000BF05B05DF804FBD1060000E0000020F6
:1007640082B0019000BF02B07047000000B583B0B2
:1007740001900548FFF7F8FE0020FFF755FF00BF82
:1007840003B05DF804FB00BF2000002082B001909C
:10079400019B01225A7200BF02B0704700B583B0BA
:1007A4004FF0FF330193FFF7E8FD0421114800F0F7
:1007B400E9FD0190019B002B03DA0F49412001F070
:1007C400CCFA0C48FFF7E2FFFFF772FF04210B4855
:1007D40000F0D8FD0190019B002B03DA0649482064
:1007E40001F0BBFA0548FFF7D1FF00BF03B05DF885
:1007F40004FB00BF340000207C8000004000002087
:1008040000B583B001900091019B1B681B6800999F
:100814000198984700BF03B05DF804FB00B583B0AE
:100824000190019B1B685B680198984700BF03B067
:100834005DF804FB00B583B00190019B1B689B68C5
:100844000198984700BF03B05DF804FB82B00190A3
:100854000B468DF80330019B9DF803201A7200BFEC
:1008640002B0704782B00190019B1B7A184602B017
:10087400704782B00190019B01225A7200BF02B0FE
:10088400704782B00190019B5B7A184602B07047B2
:1008940000B587B0019000911D4BFF229A601C4B5C
:1008A40000221A601A4B00225A60194B0022C3F826
:1008B4001824174B0022C3F81424154B012283F883
:1008C4002024144802F010F80490049B002B01D05B
:1008D400049B18E0104A114BD31ADB08039300233E
:1008E40005930BE0059B9B000D4A13440293059B63
:1008F4009AB2029B1A80059B01330593059A039BC8
:100904009A42EFD30023184607B05DF804FB00BFFA
:10091400F4010020847F0000847F0000447F0000F5
:1009240000000020024A034BD31ADB081846704724
:10093400847F0000447F000000B587B001900B461F
:100944008DF803309DF80330002B1FD0FFF7EAFF2A
:1009540004900023059313E0059B9B000E4A134467
:100964000393039B5B881A46019B1B689A4204D13C
:10097400019B059A1A60002309E0059B0133059346
:10098400059A049B9A42E7D3052300E00023184606
:1009940007B05DF804FB00BF0000002000B585B07F
:1009A40001900B468DF803309DF8032001AB1146EE
:1009B4001846FFF7C1FF0346002B07D1019BDB005C
:1009C400054A13440393039B1B6800E00023184665
:1009D40005B05DF804FB00BF447F000084B00190C3
:1009E4000B468DF80330019BDB00174A1344029336
:1009F4009DF80330013B032B1CD801A252F823F0CD
:100A0400150A00001D0A0000250A00002F0A000034
:100A140002238DF80F3011E004238DF80F300DE020
:100A2400029B1B798DF80F3008E0029B5B798DF8EF
:100A34000F3003E000238DF80F3000BF9DF80F3016
:100A4400184604B0704700BF447F000000B585B06D
:100A54000190009100238DF80F30019B1B7803F067
:100A64000303DBB2002B06D0019B1B7803F00403C5
:100A7400DBB2002B44D0019B1B7803F00403DBB2F0
:100A8400002B28D0019B1B78C3F30103DBB2012B9D
:100A940002D0022B0CD017E0009B1B68019A12882D
:100AA400C2F38312D2B213449A1C009B1A6024E04E
:100AB400009B1B68019A5288C2F3891292B21344B4
:100AC4009A1C009B1A6018E010494FF4A47001F0BE
:100AD40044F900BF11E0009B1A68019B5B88C3F3D3
:100AE40089139BB21946019B1B88C3F389139BB2DC
:100AF4000B4413445A1C009B1A6001238DF80F30D9
:100B04009DF80F30184605B05DF804FB1081000015
:100B140000B58BB00023ADF826303E4801F0ABF9A8
:100B24003D4801F0A8F93D4B5B6804933B4B9B683F
:100B34000693049A069B134002339B00374A1344DE
:100B44000433089304AB19460898FFF77FFF034664
:100B5400002B09D0049A069B134002339B002F4AB2
:100B6400134404330893EDE700BF0023079311E017
:100B7400049B5A1C0492069A1340079A920001A9F6
:100B84000A44264902339B000B445B681360079BAD
:100B940001330793079B012BEAD99DF80430C3F373
:100BA4000103DBB2012B10D0022B1CD1BDF80A309B
:100BB400ADF82630BDF80630C3F389139BB2033376
:100BC4009A08049B1344049313E0BDF80A30ADF86B
:100BD4002630BDF80430C3F38313DBB21A46049BFA
:100BE4001344049305E00E494FF4C27001F0B5F8C4
:100BF40000BF094801F04BF90590059B002B02D07A
:100C0400049B064A5360BDF8263018460BB05DF8C5
:100C140004FB00BF0C06002008060020F40100209D
:100C24001081000000B585B00021074801F0ACF840
:100C34000390039B0293029B83F310030193019B94
:100C4400184605B05DF804FB1006002000B589B015
:100C54000390029101920093039B1B0C0793FFF7EF
:100C6400E1FF0690FFF75EFE0246079B934204D322
:100C7400214940F2A91001F070F8069B1904009B69
:100C84005A1C0A9B1340079A0A431C4902339B00CF
:100C94000B445A60009A0A9B134002339B00174A84
:100CA400134404330593039B03F00703D9B2059A55
:100CB400137861F3C5031370019B03F00F03D9B2DA
:100CC400059A138861F389131380029BC3F31501FA
:100CD400059A136861F39F231360059A1378012121
:100CE40061F301031370059A13786FF38203137091
:100CF40000BF09B05DF804FB10810000F40100207E
:100D040000B58BB00390029113468DF80730039B16
:100D14000233089301238DF81F30002000F0D6FF22
:100D24003E4B1A68029B1A603C4B9A683B4B5968CD
:100D34003A4B1B68CB1A13440133099314E0012185
:100D4400374801F068F8FFF7E3FE05900599344849
:100D540001F061F8314B9A68304B59682F4B1B688E
:100D6400CB1A134401330993089A099B9A42E6D893
:100D74009DF81F30002B48D0002304939DF80730C2
:100D8400002B17D09DF81030012262F301038DF877
:100D940010309DF8103043F004038DF81030039B9D
:100DA40003F00F03DAB2BDF8103062F38913ADF823
:100DB400103016E09DF81030022262F301038DF822
:100DC40010309DF8103043F004038DF81030039B6D
:100DD400C3F309039AB2BDF8123062F38F13ADF86E
:100DE40012300E4B1A680D4B9B68134002339B0064
:100DF4000A4A134404330693049A069B1A60074B69
:100E04001A68089B1344054A1360002000F072FF1F
:100E14009DF81F3018460BB05DF804FBF401002068
:100E24001006002000B58BB0059004910392029344
:100E34001F4B9B68079306AB012219460298FFF7E4
:100E44005FFF0346002B24D0069B02330993002343
:100E5400089311E0089B9B00039A1A44099B591CB0
:100E6400099107990B401268114902339B000B4406
:100E74005A60089B01330893089A029B9A42E9D36B
:100E8400069A079B00931346029A04990598FFF764
:100E9400DDFE074B93F82034002B05D000BF00F093
:100EA4007BF80346002BFAD100BF0BB05DF804FBBE
:100EB400F401002000B583B00190009100230022CA
:100EC40000990198FFF7AEFF00BF03B05DF804FB83
:100ED40000B587B0039002910192019B059305AA86
:100EE400012302990398FFF79DFF00BF07B05DF847
:100EF40004FB00B587B00390029101920093019B1B
:100F04000493009B059304AA022302990398FFF714
:100F140089FF00BF07B05DF804FB00B589B00390FA
:100F2400029101920093019B0593009B06930A9BF7
:100F3400079305AA032302990398FFF773FF00BFE1
:100F440009B05DF804FB00B58BB0039002910192E7
:100F54000093019B0593009B06930C9B07930D9BA9
:100F640008930E9B099305AA052302990398FFF79A
:100F740059FF00BF0BB05DF804FB0000054B5A6835
:100F8400044B1B689A420CBF01230023DBB21846B2
:100F9400704700BFF401002000B599B0FFF7EEFFE1
:100FA4000346002B01D00023ADE1984B0022C3F887
:100FB4001824BFF34F8F954B5B680493934B9B6846
:100FC4001093049A109B134002339B008F4A1344DE
:100FD40004331293002317930023169300230F93D3
:100FE40004AB19461298FFF731FD0346002B14D0C9
:100FF400864B1A68049B9A4205D8844B1B68834A23
:10100400536000237FE1049A109B134002339B003A
:101014007E4A134404331293E2E700BF002315937E
:1010240011E0049B5A1C0492109A1340159A9200E2
:1010340001A90A44754902339B000B445B681360A1
:10104400159B01331593159B012BEAD99DF80430A8
:1010540003F00303DBB2022B40F09C80BDF80630A2
:10106400C3F389139BB20D93BDF80630C3F3891300
:101074009BB2502B28BF50239BB20C930C9BC3F301
:1010840009039AB2BDF8063062F38F13ADF8063047
:101094000C9B08330B939DF80430C3F3C203DBB2FB
:1010A4000F930B995A4801F02AFC1790179B002BB9
:1010B40000F0D080179801F0B2FC01A9169B082219
:1010C400179801F055FD169B08331693049BDA43D9
:1010D400109B134001339B000A930C9A0A9B9A427B
:1010E40042D90A9B002B08D0049A109B1340023368
:1010F4009B00464A1344043300E0464B08930A9B82
:10110400002B02D00A9BDBB201E00C9BDBB28DF812
:101114001F300A9B002B01D03E4B00E000230693B6
:101124000A9B002B06D00C9BDAB20A9BDBB2D31AC3
:10113400DBB200E000238DF817309DF81F20169BCA
:101144000899179801F014FD9DF81F30169A13445E
:101154001693069B002B16D09DF81720169B069914
:10116400179801F005FD0EE0049A109B134002331A
:101174009B00264A134404330993169B0C9A09993D
:10118400179801F0F5FC0D9B03339A08049B134454
:1011940004935FE09DF8043003F00303DBB2012BFA
:1011A40058D1BDF80430C3F38313DBB2062B28BF38
:1011B4000623DAB2BDF8043062F38913ADF80430C3
:1011C400BDF80430C3F38313DBB202330E939DF8EE
:1011D4000430C3F3C203DBB20F930E9B9B0019468A
:1011E4000B4801F08CFB1790179B002B32D01798FB
:1011F40001F015FC01A9169B0822179801F0B8FC10
:10120400169B08331693002315931AE0F40100206B
:10121400847F000000020020049B5A1C0492109A50
:10122400134002339B003A4A1344191D169B0422AF
:10123400179801F09DFC169B04331693159B0133FC
:101244001593BDF80430C3F38313DBB21A46159B20
:101254009342E1D3179B002B38D02D4BD3F8103495
:1012640014932B4BD3F81834002B1AD0179801F091
:10127400E5FB42E000238DF84F301498FFF701FBA3
:101284000346002B02D001238DF84F309DF84F30D8
:10129400002B03D017991498FFF7B2FA149B5B68DC
:1012A4001493149B002BE5D1179801F0C7FB002081
:1012B40000F00CFD164BD3F81834002B02D1049B1C
:1012C400134A5360002000F015FD16E0104BD3F8CC
:1012D4001034119305E01198FFF7ACFA119B5B6889
:1012E4001193119B002BF6D10A4B1B881B0443F06E
:1012F400020309491846FFF7DDFDFFF73FFE0346E9
:1013040083F00103DBB2184619B05DF804FB00BF9B
:10131400F4010020140000208481000000B585B091
:101324000023039322E0164BD3F8103402930123D5
:101334008DF807300EE00298FFF794FA03461A4638
:10134400039B934203D100238DF8073005E0029BF1
:101354005B680293029B002BEDD19DF80730002BB4
:1013640001D0039B07E0039B01330393039B092BE9
:10137400D9DD4FF0FF33184605B05DF804FB00BF1C
:10138400F401002000B585B001900B468DF80330C0
:10139400FFF7C4FF0390039BB3F1FF3F01D1039B0D
:1013A4001EE0039BDBB219460198FFF74FFA0E4B80
:1013B400D3F81034002B07D10B4A019BC2F8103428
:1013C400019B00225A600AE0074BD3F810345A6894
:1013D400019B5A60044BD3F81034019A5A60039B62
:1013E400184605B05DF804FBF401002000B583B095
:1013F4000C4BD3F8103401930A4B012283F82024B8
:1014040008E00198FFF735FA0198FFF707FA019B06
:101414005B680193019B002BF3D100BF03B05DF81F
:1014240004FB00BFF401002082B00190009100BFD2
:1014340002B0704710B584B003900291039BDB881F
:10144400002B0AD0039BDB881A461F4B00931346DC
:101454001E4A1F49029800F049FE039B1B7A052B84
:101464002ED0039B5B7A002B12D0039B9B881A46D9
:10147400039B1B7A19461046FFF7B0FA03461A4637
:10148400144B53F822301A461349029800F02EFEEA
:10149400039B1B6819460298FFF7C6FF039B1B7A40
:1014A4001A460E4B53F82240039B9B880021184692
:1014B400FFF774FA034622460949029800F016FE23
:1014C40000BF04B010BD00BFB8810000C881000097
:1014D4000082000060000020188200004C00002000
:1014E4001C82000000B585B00390029113468DF86C
:1014F4000730039B1B7A052B0FD0039B5B7A002BD1
:1015040006D00D4B1B681A460C49029800F0EEFDFC
:101514000B49029800F0EAFD07E09DF80730002B24
:1015240003D00749029800F0E1FD029800F0BCFDE9
:1015340000BF05B05DF804FB6000002018820000C5
:101544002882000030B58BB0079006910592049371
:101554000E9B1B7B8DF827300E9B00221A730E996D
:101564000498FFF767FF059B062B7FD801A252F86A
:1015740023F000BF951500009F150000AF15000073
:10158400C3150000E115000009160000391600001B
:1015940007990E9800F0AAFD69E0069B1B681A469D
:1015A40007990E9800F0A2FD61E0069B1A68069B5D
:1015B40004331B6807990E9800F098FD57E0069BCA
:1015C4001A68069B04331968069B08331B6800934A
:1015D4000B4607990E9800F089FD48E0069B1968B0
:1015E400069B04331868069B08331B68069A0C3262
:1015F40012680192009303460A4607990E9800F078
:1016040075FD34E0069B1868069B04331C68069B32
:1016140008331B68069A0C3212680699103109685F
:101624000291019200932346024607990E9800F016
:101634005DFD1CE0069B1C68069B04331D68069B2D
:1016440008331B68069A0C3212680699103109682F
:1016540006981430006803900291019200932B467F
:10166400224607990E9800F041FD00E000BF0022D9
:101674000E990498FFF736FF0E9B9DF827201A73E6
:1016840000BF0BB030BD00BF00B587B0039002911E
:1016940001920093029B082B5CD8009B1B7B8DF866
:1016A4001330009B00221A7300990198FFF7C2FEC1
:1016B4000023059314E0059A029B9A4209D2039AE7
:1016C400059B13441B781A462449009800F00EFD2C
:1016D40003E02349009800F009FD059B01330593BD
:1016E400059B072BE7D91F49009800F0FFFC002356
:1016F400059322E0059A029B9A4217D2039A059B0E
:1017040013441B788DF812309DF81230184606F0F9
:1017140063FB0346002B02D09DF8123000E02E2319
:101724001A461149009800F0E1FC03E00F490098C3
:1017340000F0DCFC059B01330593059B072BD9D9ED
:10174400012200990198FFF7CDFE009B9DF813201C
:101754001A7300E000BF07B05DF804FB2C820000A0
:1017640034820000388200003C8200004082000085
:1017740000B583B00190019B1B682F2B04D90B4942
:1017840040F2C71000F0E9FA019B1B681F2B02D836
:101794004FF0A04306E0019B1B6803F01F02019B6E
:1017A4001A60034B184603B05DF804FB4482000042
:1017B4000003005000B585B00190084611461A4652
:1017C40003468DF803300B468DF8023013468DF82E
:1017D400013001AB1846FFF7CBFF03909DF80320BF
:1017E4009DF802305B001A439DF801309B001A43B8
:1017F4009DF818301B0242EA03019DF81C301B04BB
:10180400019A1943039B02F5E07243F8221000BFCA
:1018140005B05DF804FB00B585B003900023019387
:10182400002300930023012201210398FFF7C2FF44
:1018340000BF05B05DF804FB00B585B003900B460E
:101844008DF80B309DF80B200023019300230093A7
:101854001346002200210398FFF7ACFF00BF05B038
:101864005DF804FB00B585B0019001AB1846FFF7A5
:101874007FFF0390019B012202FA03F319460398A8
:1018840000F069F800BF05B05DF804FB00B585B051
:10189400019001AB1846FFF76BFF0390019B0122F7
:1018A40002FA03F31946039800F05FF800BF05B08D
:1018B4005DF804FB00B585B0019001AB1846FFF755
:1018C40057FF0390039BD3F804350293029BDA433A
:1018D400019B012101FA03F31A40039BC3F8082575
:1018E400019B01229A40029B1A40039BC3F80C25DA
:1018F40000BF05B05DF804FB00B583B00190009112
:10190400009B002B03D10198FFF7C0FF02E0019870
:10191400FFF7A8FF00BF03B05DF804FB00B585B076
:10192400019001AB1846FFF723FF0390039800F0E2
:101934000AF80246019B22FA03F303F00103184656
:1019440005B05DF804FB82B00190019BD3F810351B
:10195400184602B0704782B001900091019B009A32
:10196400C3F8082500BF02B0704782B0019000910F
:10197400019B009AC3F80C2500BF02B07047000019
:1019840000B583B00190019B032B03D9074947207D
:1019940000F0E3F9064A019B13441B780121184621
:1019A400FFF7AAFF00BF03B05DF804FB74820000D8
:1019B400C882000000B583B00023019305E00198BC
:1019C400FFF7DEFF019B01330193019B032BF6D943
:1019D40000BF03B05DF804FB00B583B00190019B28
:1019E400032B03D907495F2000F0B7F9064A019B8E
:1019F40013441B781846FFF75DFF00BF03B05DF882
:101A040004FB00BF74820000C882000000B583B0EC
:101A14000023019309E0094A019B13441B781846EB
:101A2400FFF7F9FE019B01330193019B032BF2D9CC
:101A3400FFF7C0FF00BF03B05DF804FBC8820000DD
:101A440000B585B00190019B032B03D91149AC204B
:101A540000F083F9104A019B13441B781846FFF7E2
:101A64005DFF0346002B14BF012300238DF80F30C4
:101A74009DF80F30002B14BF01230023DBB283F049
:101A84000103DBB203F00103DBB2184605B05DF8D5
:101A940004FB00BF74820000CC82000000B583B058
:101AA400002301930AE0094A019B13441B78032194
:101AB4001846FFF7C1FE019B01330193019B032BE1
:101AC400F1D900BF03B05DF804FB00BFCC82000075
:101AD40000B583B00190019B03F00103002B01D0FA
:101AE400FFF794FF019B03F00203002B01D0FFF7E3
:101AF400D5FF00BF03B05DF804FB000086B003907F
:101B04000291019201238DF817309DF817301F4A76
:101B1400039B13601D4A029B53601C4A019B936004
:101B2400039B44F20102934212D044F20202934214
:101B340021D1019B154AD360144BDB681B881A46DC
:101B4400124B9A61114BDB685B68104AD36112E057
:101B5400019B0E4A13610D4B1B699B680B4A536131
:101B64000A4B1B691B68094A9361084B1B695B6834
:101B7400064AD36100BF72B600BF9DF81730DBB2CE
:101B8400002BFAD162B600BF06B0704718060020D9
:101B940000B583B002900091019244F201007146B5
:101BA4006A4600F003F803B000BD00BF30B58BB047
:101BB40007900691059272B6FFF718FC00BFFFF775
:101BC400EBF90346002BFAD1079B44F2010293423E
:101BD40014D044F2020293423AD1059B0993294B53
:101BE4001B881B0443F001031846099B5B681A46D3
:101BF400099B1B882449FFF77CF934E0059B089373
:101C0400204B1B881B0443F001031D46089B9C6862
:101C1400089B9B68184600F0CFFF03461846089BB4
:101C24005B681946089B1B68069A0292019300910F
:101C34000346224615492846FFF785F9114B1B88B0
:101C44001B0443F0010312491846FFF733F90AE075
:101C54000C4B1B881B0443F00103069A0D491846DC
:101C6400FFF736F900BF0C4B1B6803F00103002B90
:101C740000D000BE059A06990798FFF73FFF00BF02
:101C84000BB030BD14000020D0820000EC820000B4
:101C94001483000028830000F0ED00E072B6034BCB
:101CA4001B680133014A136000BF704738060020E7
:101CB400054B1B68013B044A1360034B1B68002B54
:101CC40000D162B600BF70473806002000B583B06B
:101CD400019000F025F80346012B03D0044943206A
:101CE40000F03BF8FFF7DAFF00BF03B05DF804FB38
:101CF4004083000000B583B003468DF8073000F040
:101D04000FF80346012B03D00449512000F025F8B5
:101D1400FFF7CEFF00BF03B05DF804FB4083000073
:101D240084B0EFF305830193019BC3F3080303938A
:101D3400039B002B0DD1EFF314830093009B0293BC
:101D4400029B03F00103002B0CBF01230023DBB231
:101D540000E00123184604B0704700B585B003467F
:101D64000091ADF80630BDF80630ADF80830009BA0
:101D7400039302AB1A46002144F20200FFF716FF58
:101D840000BF05B05DF804FB10B487B0019000916A
:101D9400019B009A53E8004F104643E8000191F07C
:101DA400000FF7D1059404900391059B184607B0E2
:101DB4005DF8044B704710B487B001900091019B0B
:101DC400009A53E8004F44EA020043E8000191F00E
:101DD400000FF6D1059404900391049B184607B0B4
:101DE4005DF8044B704710B487B001900091019BDB
:101DF400009A53E8004F04EA020043E8000191F01E
:101E0400000FF6D1059404900391059B184607B082
:101E14005DF8044B704710B487B001900091019BAA
:101E2400009A53E8004F04EB020043E8000191F0EC
:101E3400000FF6D1059404900391049B184607B053
:101E44005DF8044B704710B487B001900091019B7A
:101E5400009A53E8004FA4EB020043E8000191F01C
:101E6400000FF6D1059404900391049B184607B023
:101E74005DF8044B704700B583B0019001210198CF
:101E8400FFF799FF0346184603B05DF804FB00B55D
:101E940083B0019000210198FFF7A5FF034618467F
:101EA40003B05DF804FB000000B583B001900B465D
:101EB4008DF80330019B002B03D10849E820FFF77C
:101EC4004CFF019BDA689DF803300199898A01FB74
:101ED40003F31344184603B05DF804FBA483000025
:101EE40000B583B001900091019B002B03D10849F8
:101EF400F520FFF732FF009B019AD2689B1A019AE2
:101F0400928AB3FBF2F3DBB2184603B05DF804FB2C
:101F1400A483000000B585B00190019B002B01D182
:101F24000E234DE0019B1B68002B03D12649FF20A3
:101F3400FFF713FF019B5B68002B04D122494FF488
:101F44008070FFF70AFF019B9B68002B04D11E4998
:101F540040F20110FFF701FF019BDB68002B04D165
:101F640019494FF48170FFF7F8FE019B9B8A002BFF
:101F740004D1154940F20310FFF7EFFE019B9B6863
:101F84001A46019B5B68D31A8DF80F30019B1B68BE
:101F9400019A52681A6007E0019B1A681368591C79
:101FA40011609DF80F201A709DF80F305A1E8DF89D
:101FB4000F20002BF0D1019B1B6800221A71002313
:101FC400184605B05DF804FBA483000000B585B095
:101FD4000190019B002B04D11C494FF49270FFF730
:101FE400BCFE002303930020FFF770FE019B1B68D7
:101FF4001A68019B5B689A4220D9019B1B681A6886
:10200400013A1A601B681B7819460198FFF74CFFC8
:102014000390019B9B681A46019B1B681B68D31A9B
:102024008DF80B30019B1B681B799DF80B209A429D
:1020340004D9019B1B689DF80B201A710020FFF73F
:1020440059FE039B184605B05DF804FBA483000009
:1020540010B584B001900091019B002B04D111496B
:1020640040F24710FFF779FE009B002B04D10D4985
:102074004FF4A470FFF771FE009B03930020FFF759
:1020840025FE019B1B681C68621C1A600399019859
:10209400FFF726FF034623700020FFF72BFE00BF47
:1020A40004B010BDA483000000B583B00190019B6F
:1020B400002B03D10C493120FFF74FFE019B9B6895
:1020C400002B0CD0019B5B69019A1069019A11687D
:1020D400019A92689847019B00229A6000E000BF31
:1020E40003B05DF804FB00BF048400000EB400B527
:1020F40084B00190019B002B03D118494220FFF7C3
:102104002CFE019B5B69002B03D114494320FFF78C
:1021140024FE019B1B68002B03D110494420FFF7C8
:102124001CFE019B5B68002B03D10C494520FFF783
:1021340014FE059B002B0AD00023039306AB0393E4
:1021440003AB1A460599019800F0B0F900E000BF0E
:1021540004B05DF804EB03B0704700BF04840000D2
:1021640000B583B001900B468DF80330019B1A68CB
:10217400019B9B68581C0199886013449DF80320B7
:102184001A70019B9A68019B5B689A4202D301987A
:10219400FFF78AFF00BF03B05DF804FB00B587B00A
:1021A400039002910192009300230593009B03F096
:1021B4000103002B24D00BE0029B01330293059B07
:1021C400013305939DF8133019460398FFF7C8FFB0
:1021D400029B1B788DF813309DF81330002BEBD144
:1021E40006E0019B013B019320210398FFF7B8FF10
:1021F400019A059B9A422ED9019B002BF1D12AE02A
:10220400029B002B0BD0029805F069FE059006E0B6
:10221400019B013B019320210398FFF7A1FF019A41
:10222400059B9A420FD9019B002BF1D10BE0029B35
:1022340001330293059B013305939DF8133019462E
:102244000398FFF78DFF029B1B788DF813309DF8E0
:102254001330002BEBD100BF07B05DF804FB000086
:1022640000B589B00390029101920093029B0793F9
:102274000123069307E0079A019BB2FBF3F307934C
:10228400069B01330693079A019B9A42F3D2009A64
:10229400069B9A4201D9009B06930B9B03F0010312
:1022A400002B22D10A9B002B1FD00B9B03F00203AF
:1022B400002B06D0009B002B03D130238DF8173060
:1022C40002E020238DF8173008E00A9B013B0A93B3
:1022D4009DF8173019460398FFF742FF0A9B002B1D
:1022E40003D0069A0A9B9A42EFD301230793009BDB
:1022F400012B03D9009B013B009309E0029A079B41
:10230400B2FBF3F30493049A019B9A4200D205E0D2
:10231400079B019A02FB03F30793E8E7029A079BE2
:10232400B2FBF3F30493049B079A02FB03F3029AB0
:10233400D31A0293154A049B13441B781946039835
:10234400FFF70EFF079A019BB2FBF3F30793079B7A
:10235400002BE3D10B9B03F00103002B11D00A9B4C
:10236400002B0ED006E00A9B013B0A932021039820
:10237400FFF7F6FE0A9B002B03D0069A0A9B9A42AB
:10238400F1D300BF09B05DF804FB00BFB8840000BE
:1023940000B589B00590049103920293049B002B2D
:1023A400B8BF5B4206930123079307E0039B069A99
:1023B40092FBF3F30693079B01330793039B069A5F
:1023C4009A42F3DA029A079B9A4201D9029B079335
:1023D4000A9B002B0AD0049B002B04DB0B9B03F00D
:1023E4000403002B02D00A9B013B0A930B9B03F0CE
:1023F4000203002B02D0029B002B16D00B9B03F090
:102404000103002B11D10A9B002B0ED006E00A9B7E
:10241400013B0A9320210598FFF7A2FE0A9B002B9B
:1024240003D0079A0A9B9A42F1D3049B002B07DA44
:10243400049B5B4204932D210598FFF791FE08E06D
:102444000B9B03F00403002B03D02B210598FFF70B
:1024540087FE0B9B03F00203002B19D00B9B03F0A8
:102464000103002B14D1029B002B11D10A9B002BDA
:102474000ED006E00A9B013B0A9330210598FFF732
:102484006FFE0A9B002B03D0079A0A9B9A42F1D352
:1024940004990B9B01930A9B0093029B039A059852
:1024A400FFF7DEFE00BF09B05DF804FB00B58FB096
:1024B400059004910392059B002B04D1C8494FF465
:1024C4009F70FFF74AFC059B5B69002B04D1C4494C
:1024D4004FF4A070FFF741FC059B1B68002B04D14F
:1024E400BF4940F24110FFF738FC059B5B68002BA5
:1024F40004D1BB494FF4A170FFF72FFC049B002BC0
:1025040000F0ED81049B1B788DF83730049B013378
:1025140004939DF83730002B00F0D8819DF83730B4
:10252400252B40F0C78100230A9301230C93049BBD
:102534001B788DF837309DF837302D2B04D0302B95
:102544000AD02B2B10D017E00A9B43F001030A9307
:10255400049B0133049312E00A9B43F002030A93A1
:10256400049B013304930AE00A9B43F004030A9397
:10257400049B0133049302E000230C9300BF0C9BE3
:10258400002BD4D1002309939DF837302A2B0CD18A
:10259400039B1B68191D039A11601B68099A134455
:1025A4000993049B013304931AE0049B1B788DF870
:1025B40037309DF837302F2B12D99DF83730392B0F
:1025C4000ED8049B01330493099A13469B001344C9
:1025D4005B001A469DF837301344303B0993D3E728
:1025E40000230B93049B1B788DF837309DF837300C
:1025F4002E2B1DD1049B01330493049B1B788DF86F
:1026040037309DF837302F2B12D99DF83730392BBE
:102614000ED8049B013304930B9A13469B00134476
:102624005B001A469DF837301344303B0B93E4E7C4
:10263400049B1B788DF837309DF837306C2B03D012
:102644009DF83730682B07D1049B01330493049B16
:102654001B788DF83730EFE79DF83730253B532B47
:1026640000F2238101A252F823F000BFA528000044
:10267400AF280000AF280000AF280000AF280000FA
:10268400AF280000AF280000AF280000AF280000EA
:10269400AF280000AF280000AF280000AF280000DA
:1026A400AF280000AF280000AF280000AF280000CA
:1026B400AF280000AF280000AF280000AF280000BA
:1026C400AF280000AF280000AF280000AF280000AA
:1026D400AF280000AF280000AF280000AF2800009A
:1026E400AF280000AF280000AF280000AF2800008A
:1026F400AF280000AF280000AF280000AF2800007A
:10270400AF280000AF280000AF280000AF28000069
:10271400AF280000AF280000AF280000AF28000059
:10272400AF280000AF280000AF280000AF28000049
:10273400AF280000AF28000031280000AF280000B7
:10274400AF280000AF280000AF280000AF28000029
:10275400AF280000AF280000AF280000AF28000019
:10276400AF280000C1270000E9270000AF280000BF
:10277400AF280000AF280000AF280000E9270000C0
:10278400AF280000AF280000AF280000AF280000E9
:10279400AF280000AF28000071280000AF28000017
:1027A400AF28000055280000AF2800000D280000C5
:1027B400AF280000AF28000031280000039B1B68ED
:1027C400191D039A11601B680C930C9B8DF81F3024
:1027D4009DF81F3019460598FFF7C2FC66E000BF5C
:1027E4005C840000039B1B68191D039A11601B681D
:1027F4000C930A9B0193099B00930B9B0A220C994F
:102804000598FFF7C5FD51E0039B1B68191D039A4A
:1028140011601B680C930C990A9B0193099B00930C
:102824000B9B0A220598FFF71BFD3FE0039B1B68E7
:10283400191D039A11601B680C930C990A9B019350
:10284400099B00930B9B10220598FFF709FD2DE0CF
:10285400039B1B68191D039A11601B6808930A9B4C
:10286400099A08990598FFF799FC1FE0039B1B68D8
:10287400191D039A11601B680C9330210598FFF70A
:102884006FFC78210598FFF76BFC0C9900230193EA
:1028940008230093082310220598FFF7E1FC05E0C4
:1028A40025210598FFF75CFC00E000BF049B013381
:1028B400049305E09DF8373019460598FFF750FC5E
:1028C400049B1B78002B7FF41DAE00E000BF059B2A
:1028D4001B7B002B04D00598FFF7E6FB00E000BF4C
:1028E4000FB05DF804FB00BF00B583B00190019800
:1028F400FFF710FB0346184603B05DF804FB00B570
:102904008BB001900091019B9B8A043B0793009A32
:10291400079B1344DA1C079BB2FBF3F38DF81B30BF
:102924000198FFF753FB0590059B002B01D1002371
:1029340038E0059B00221A71059B01225A71079BFE
:102944009AB2059BDA80059B09939DF81B30013BE5
:102954000493099B019A1A60002308931DE00198CF
:10296400FFF734FB0390039B002B0ED0059B5B7990
:102974000133DAB2059B5A71099B039A1A60039BCF
:10298400019A1A60039B099304E0059800F00EF87D
:10299400002307E0089B01330893089A049B9A429A
:1029A400DDD3059B18460BB05DF804FB00B58BB076
:1029B4000190019B0793079B5B798DF81B30019B6A
:1029C40008939DF81B30013B05930023099305E010
:1029D400089B1B680893099B01330993099A059B7B
:1029E4009A42F5D3089B1B680493019B0893002328
:1029F40009930BE0089B1B68039308990498FFF75D
:102A040027FB039B0893099B013309939DF81B3013
:102A1400099A9A42EED300BF0BB05DF804FB00B5EF
:102A240085B00190019B0393039B04330121184655
:102A3400FFF7F1F900BF05B05DF804FB00B587B0FE
:102A44000190019B0593059B043301211846FFF770
:102A5400FAF90346039303AB0493049B1B78002BFE
:102A640002D10198FFF7A2FF00BF07B05DF804FB95
:102A740000B58DB00390029101920093039B0693DD
:102A8400069BDB880593039B0B93009B1A1D059BF8
:102A9400B2FBF3F30A93009B0433059AB3FBF2F2FF
:102AA400059901FB02F29B1A0993009A019B1A44AF
:102AB400059B1344DA1C059BB2FBF3F38DF813302A
:102AC400069B5B799DF813209A420AD92749BA20BC
:102AD400FFF743F905E00B9B1B680B930A9B013B33
:102AE4000A930A9B002BF6D100230893059A099BAD
:102AF400D31A0793079A019B934228BF134607935F
:102B04002DE09DF83830002B0BD0029A089BD0188A
:102B14000B9A099B13440433079A194605F061F98B
:102B24000AE00B9A099B1344181D029A089B13444C
:102B3400079A194605F055F9002309930B9B1B6866
:102B44000B93019A079BD31A0193089A079B13448A
:102B54000893059A019B934228BF13460793019B50
:102B6400002BCED100BF0DB05DF804FBC88400007B
:102B740000B587B00590049103920293002300935B
:102B8400029B039A04990598FFF772FF00BF07B0F0
:102B94005DF804FB00B587B005900491039202939D
:102BA40001230093029B039A04990598FFF760FFA1
:102BB40000BF07B05DF804FB00B585B00190019833
:102BC40000F00EF80390039B002B01D0039B00E060
:102BD400024B184605B05DF804FB00BF34850000C5
:102BE40086B00190164B0593164B04931FE0049A8C
:102BF400059BD31ADB10DA0F13445B10DB00059A34
:102C040013440393039B1B680293029A019B9A4209
:102C140002D9039B04930AE0029A019B9A4203D2CD
:102C2400039B0833059302E0039B5B6804E0059A69
:102C3400049B9A42DBD30023184606B0704700BFBA
:102C440008890000208A000082B003468DF807300E
:102C54009DF8073003F01F0205499DF907305B0911
:102C6400012000FA02F241F8232000BF02B07047AD
:102C740000E100E082B003468DF807309DF807308C
:102C840003F01F0206499DF907305B09012000FA91
:102C940002F2203341F8232000BF02B0704700BF86
:102CA40000E100E082B003468DF807309DF807305C
:102CB40003F01F0206499DF907305B09012000FA61
:102CC40002F2403341F8232000BF02B0704700BF36
:102CD40000E100E082B003468DF807309DF807302C
:102CE40003F01F0206499DF907305B09012000FA31
:102CF40002F2603341F8232000BF02B0704700BFE6
:102D040000E100E082B0034600918DF807309DF9A0
:102D14000730002B0CDA009BDAB20C499DF807301F
:102D240003F00F03043B5201D2B20B441A7609E0BC
:102D3400009BDAB206499DF907305201D2B20B4426
:102D440083F8002300BF02B0704700BF00ED00E02D
:102D540000E100E000B585B00190019B002B0AD092
:102D6400074B43F001030393019B9B010293039BD5
:102D74000298984700E000BF05B05DF804FB00BF6F
:102D8400208A000000B583B00190064A019BC2F876
:102D9400083506211120FFF7B5FF00BF03B05DF829
:102DA40004FB00BF0010014008B50D4B4FF4803206
:102DB400C3F844230A4B4FF48032C3F80423112090
:102DC400FFF788FF1120FFF73FFF054B01221A6030
:102DD4002F20FFF7BFFF034B01221A7000BF08BD6D
:102DE400001001405A07002008B51120FFF742FFE8
:102DF4000E4B4FF48032C3F848230C4B4FF480320F
:102E0400C3F80823094B01225A602F20FFF7A2FFC1
:102E1400064B01229A60064B00221A602F20FFF70E
:102E240099FF044B00221A7000BF08BD0010014036
:102E34004C0700205A070020024BD3F804351846EB
:102E4400704700BF0010014082B001900091019AC8
:102E5400009BD31A23F07F43184602B0704700004A
:102E640082B00190034A019BC2F8403500BF02B012
:102E7400704700BF0010014086B00190284B1B68CA
:102E8400002B03D1264A019B136045E0019B1A687D
:102E9400234B1B681B689A4210D8214B1B68196886
:102EA400019B1A681E4B1B688A1A1A601C4B1A680D
:102EB400019BDA611A4A019B13602DE0019B1B6898
:102EC4000393174B1B680593154B1B68049309E088
:102ED400049B1B68039AD31A0393049B0593049BD6
:102EE400DB690493049B002B04D0049B1B68039AA6
:102EF4009A42EDD8049B002B05D0049B1A68039BCF
:102F0400D21A049B1A60019B039A1A60019B049ACB
:102F1400DA61059B019ADA6100BF06B0704700BF11
:102F24004807002000B587B001902A4B1B68039323
:102F3400284B1B680593059B049308E0049A019BA6
:102F44009A4208D0049B0593049BDB690493049B79
:102F5400002BF3D100E000BF049B002B01D1002320
:102F640033E0059A049B9A4214D11A4B1B68DB691F
:102F7400184A1360174B1B68002B0BD1164B012208
:102F84009A60164B00221A60154B01221A702F20EA
:102F9400FFF7E0FE049B1B680293049BDA69059B20
:102FA400DA61059BDB690493049B002B05D0049B29
:102FB4001A68029B1A44049B1A60064B1B68039A06
:102FC4009A4214BF01230023DBB2184607B05DF810
:102FD40004FB00BF48070020001001404C070020FC
:102FE4005B07002008B51120FFF75CFE00BF08BD99
:102FF40008B51420FFF756FE00BF08BD00B583B026
:103004000190019B5B69019A92691046984700BF41
:1030140003B05DF804FB000000B585B02B4B1B68C2
:10302400002B4ED000230193FFF706FF0246284BE6
:103034001B6819461046FFF707FF0290234B1B68D5
:1030440003931DE0039B1B68029A9A421CD3039BC3
:103054001B68029AD31A0293039B1B68019A1344B8
:103064000193039B0093039BDB690393009B1B7CED
:10307400002B05D0009B00221A740098FFF7BEFFB6
:10308400039B002BDED100E000BF124B1A78124BD9
:103094001B789A420CD1104B1B780133DAB20E4BD9
:1030A4001A700D4B1B78022B02D10B4B00221A70A5
:1030B400094B1B781946094A019B42F82130FFF756
:1030C40097FF00BF05B05DF804FB00BF4807002070
:1030D4004C07002058070020590700205007002003
:1030E40082B00190184B1A78184B1B789A4223D05F
:1030F400154B1B780133DAB2134B1A70124B1B7841
:10310400022B02D1104B00221A700F4B1B781A4667
:103114000F4B53F82220019B1A60019B1A680D4B38
:103124001B6813440B4A13600A4B1B6823F07F434C
:10313400084A1360012303E0019B00221A60002364
:10314400184602B0704700BF5807002059070020F6
:10315400500700204C07002088B003900291019290
:103164000023079338E0204B1B680693069B1B68DB
:10317400039A9A4206D2069B1A68039BD21A069BAC
:103184001A602DE0069B1B68039AD31A0393069BCF
:103194001B68079A13440793069B00221A60124B7C
:1031A4001B680593069BDB690F4A1360069BDB686B
:1031B400002B11D0029A079B134423F07F42069BF5
:1031C4005A60069BDA68069B9A60019B1A68069B04
:1031D400DA61019B059A1A60034B1B68002BC2D16C
:1031E40000BF08B0704700BF4807002000B589B091
:1031F400019000238DF81F30664B1B680593AAE0ED
:10320400019B002B05D0019B0693069BDB69019370
:1032140061E0614B1B781A4613465B001344DB00E4
:103224005D4A1344043304935B4B1B780133DAB2D5
:10323400594B1A70584B1A78574B9B789A4202D1C3
:10324400554B00221A70049B5B680693049B1B7801
:10325400022B04D0032B1BD0012B1FD01DE0049B99
:103264005B681846FFF75EFE0346002B02D001237D
:103274008DF81F30069B00221A746CE0454B1B68C6
:103284000393039B00221A74039BDB69414A136076
:10329400404B1B68002BF1D15DE05CE000BF069B56
:1032A4001B7C002B00D056E0049B9A68069B5A6056
:1032B400049BDA68069B9A60049B1A69069BDA6091
:1032C400049B5A69069B9A61344B1B78002B02D0ED
:1032D400069B00225A60069B5A68314B1B68D31A1E
:1032E40023F07F432F4A93420ED8069B5A682C4BF7
:1032F4001B6819461046FFF7A7FD0246069B9B680C
:103304001A44069B1A6017E0254B1A68069B5B68F3
:1033140019461046FFF798FD0290069B9B68029A97
:103324009A4206D2069B9A68029BD21A069B1A609E
:1033340002E0069B00221A60069B00225A60069B4C
:1033440000229A60069B01221A74069B0022DA610D
:103354000698FFF791FD019B002B7FF451AF0E4BB4
:103364001A780D4B5B789A427FF44AAF9DF81F3070
:10337400002B04D1074B1B68059A9A4201D0012304
:1033840000E0002303F00103DBB2184609B05DF846
:1033940004FB00BF480700203C0600205B07002018
:1033A4004C070020FEFF7F0010B588B00190274B2A
:1033B4001B68002B44D0254B1B681B680793FFF741
:1033C4003BFD0690224B1B68059305990698FFF771
:1033D4003BFD0346033304931E4B1B7883F0010328
:1033E400DBB2002B01D0FFF7DFFC049A079B93426A
:1033F40038BF1346059A13440593059B23F07F4376
:1034040005930598FFF72CFDFFF716FD0390069929
:103414000398FFF719FD0346DC1C06990598FFF78E
:1034240013FD03469C420DD9FFF706FD03461846DB
:10343400FFF716FD2F20FFF78DFCFFF7D3FD01E00A
:10344400FFF7D2FC00BF08B010BD00BF4807002042
:103454004C0700205A07002000B587B000230193D1
:1034640000238DF81730194B1B680493184B1B6805
:1034740003936B461846FFF733FE03468DF80B3073
:103484009DF80B30002B08D0009B01AA0499184624
:10349400FFF762FE01238DF81730019B1846FFF7F2
:1034A400A5FE0346002B02D001238DF817309DF8AA
:1034B4001730002B02D00398FFF776FF054B00224C
:1034C4001A7000BF07B05DF804FB00BF4C07002072
:1034D400480700205B07002082B003468DF80730C0
:1034E400034A9DF80730537000BF02B0704700BF15
:1034F4003C06002084B00190144B5B7801338DF8B6
:103504000F30124B9B789DF80F209A4202D1002372
:103514008DF80F300D4B1B789DF80F209A4201D186
:1035240000230FE0019B9DF80F201A70074B5B7876
:103534001A4613465B001344DB00044A1344043365
:103544000293029B184604B0704700BF3C0600205B
:1035540000B589B003900291019200930023079370
:103564000020FEF7B3FB0DF117031846FFF7C2FF67
:103574000690069B002B02D10423079318E0069BB8
:1035840001221A70069B039A5A60FFF755FC024603
:10359400069B9A60069B029ADA60069B019A1A615E
:1035A400069B009A5A619DF817301846FFF794FF5E
:1035B4000020FEF79FFB079B002B01D1FFF718FDAE
:1035C400079B184609B05DF804FB000008B50E4BD4
:1035D4000022C3F840210C4B0022C3F844210A4BBB
:1035E4000022C3F84821084B0022C3F84C21064BA3
:1035F4000022C3F80021044B0022C3F80421FFF782
:103604000BFD00BF08BD00BF0010014008B5FFF767
:1036140023FF00BF08BD000008B5FFF7E5FB134B0F
:1036240000221A70114B00225A70104B0B229A7010
:103634000F4B00221A600F4B00221A700E4B00220F
:103644001A701420FFF746FB06211420FFF75AFBDB
:103654001420FFF7F9FA0020FFF794FBFFF7ECFBC7
:103664000246064B1A600023184608BD3C0600209B
:103674004807002058070020590700204C07002065
:1036840086B003900B4601928DF80B30134B9B7858
:10369400002B01D108231EE0019B002B01D107233D
:1036A40019E0039B002B01D1072314E0039B1B6843
:1036B4001B7C002B01D008230DE0039B1B680593A2
:1036C400059B00221A74059B9DF80B205A74059BD8
:1036D400019A5A610023184606B070473C06002040
:1036E40000B587B0039002910192039B0593144B9C
:1036F4009B78002B01D108231EE0039B002B01D1F2
:10370400082319E0029B042B01D8072314E0059B2E
:103714005B69002B01D108230EE0059B5B7C012B28
:1037240001D1029B00E000230493019B049A0299B7
:103734000598FFF70DFF0346184607B05DF804FB34
:103744003C060020054B1B78002B04D1034B0122BF
:103754001A70002300E08523184670475C07002098
:1037640000B589B001900091009B0793019B1B78E1
:103774008DF80C30019B5B680493019B1B7A8DF8D8
:103784001430019BDB680693074A079B52F82330E9
:103794000649079A51F8221003AA1046984700BF19
:1037A40009B05DF804FB00BF600700206807002033
:1037B40000B589B001900091009B0793019B1B7891
:1037C4008DF80C30019B5B680493019B9B68DBB212
:1037D4008DF81430019BDB680693074A079B52F867
:1037E40023300649079A51F8221003AA1046984735
:1037F40000BF09B05DF804FB6007002068070020E3
:1038040030B58FB0039002910192039B1B780C9307
:1038140026490C9B019A41F82320029B1A692449EA
:103824000C9B41F82320029B5B7F1946214A0C9B89
:1038340013440A461A70029B04AC1D460FCD0FC4F4
:1038440095E80F0084E80F000C9B089300230D9368
:10385400039B1B781A46174B9B5C002B0DD0039BD4
:10386400181D019B002B01D0134A00E0002204AB79
:10387400194601F0D5FF0D9014E0039B1B781A46FE
:103884000C4B9B5C002B0DD1039B03F10C00019BA3
:10389400002B01D0094A00E0002204AB194601F0D4
:1038A40067F90D900D9B18460FB030BD60070020DE
:1038B400680700207007002065370000B537000056
:1038C40082B003468DF807309DF80730044A012181
:1038D40001FA03F3C2F8043500BF02B0704700BF19
:1038E40000F0014084B00346029101928DF80F303C
:1038F40008499DF80F30A233029A41F83320054A53
:103904009DF80F30A233DB001344019A5A6000BFC4
:1039140004B0704700F0014082B0034600918DF876
:10392400073005499DF8073003F51173009A41F8F3
:10393400232000BF02B0704700F0014082B003466C
:103944008DF807309DF80730012202FA03F3184678
:1039540002B0704700B583B003468DF807309DF878
:1039640007301846FFF7EAFF0346C3F31303002B9F
:1039740014BF01230023DBB2184603B05DF804FB37
:1039840082B001900123184602B0704700B583B09D
:1039940003468DF807309DF807301846FFF7CEFF31
:1039A40003461846FFF7ECFF0346184603B05DF8DC
:1039B40004FB000000B583B003468DF807309DF882
:1039C40007301846FFF7BAFF0246064B1B68134040
:1039D400002B14BF01230023DBB2184603B05DF8AB
:1039E40004FB00BF7407002000B583B003468DF8C4
:1039F40007309DF807301846FFF7A0FF0246044B36
:103A04001B681343024A136000BF03B05DF804FB54
:103A14007407002030B587B001900023059300237C
:103A2400039304230593314B039300238DF8133040
:103A340044E00020FEF74AF99DF813301846FFF7DA
:103A44007DFF0246039B1340002B15D09DF81330D5
:103A54001846FFF7AFFF034683F00103DBB2002BE8
:103A64000AD09DF813301846FFF7BEFF019B9DF85E
:103A740013201A70002305930020FEF73BF9059BE1
:103A8400002B0CD11A4B1B881B0443F0030318466C
:103A94009DF813301A461749FDF71AFA11E09DF8FC
:103AA40013301846FFF74AFF0346DB43039A1340DB
:103AB40003939DF8133001338DF81330039B002BCF
:103AC400B7D10B4B1B881B0443F003031D460A4C60
:103AD4000598FFF771F80346224608492846FDF782
:103AE40008FA059B184607B030BD00BFFFFF0F0062
:103AF40014000020288A0000E88A0000408A0000A0
:103B040030B589B00346049103928DF81730049BB5
:103B1400002B02D0039B002B01D10E2343E0002392
:103B240007939DF817301846FFF714FF034683F0F8
:103B34000103DBB2002B02D00723079322E09DF898
:103B440017301846FFF736FF034683F00103DBB254
:103B5400002B02D00823079314E09DF81730039A32
:103B640004991846FFF7BEFE104B1B881B0443F054
:103B7400030318469DF81720039B0093049B0C49EC
:103B8400FDF7CBF9094B1B881B0443F003031D46C7
:103B9400084C0798FFF710F80346224606492846C2
:103BA400FDF7A7F9079B184609B030BD14000020A3
:103BB400608A0000008B0000408A000030B585B0A8
:103BC400034600918DF80730002303939DF80730D6
:103BD4001846FFF7BFFE034683F00103DBB2002B58
:103BE40002D0072303931FE09DF807301846FFF720
:103BF400E1FE034683F00103DBB2002B02D008236D
:103C0400039311E09DF8073000991846FFF784FEEE
:103C14000F4B1B881B0443F0030318469DF8072031
:103C2400009B0C49FDF765F9094B1B881B0443F005
:103C340003031D46084C0398FEF7BEFF03462246C5
:103C440006492846FDF755F9039B184605B030BDD3
:103C540014000020A08A0000188B0000408A000095
:103C640030B585B003468DF80730002303939DF8E3
:103C740007301846FFF78AFE034683F00103DBB2E0
:103C8400002B02D0072303931AE09DF8073018464F
:103C9400FFF760FE0346002B0DD09DF80730184651
:103CA400FFF788FE034683F00103DBB2002B02D04A
:103CB4000823039304E09DF807301846FFF700FE3D
:103CC400094B1B881B0443F003031D46074C039850
:103CD400FEF772FF0346224605492846FDF709F917
:103CE400039B184605B030BD14000020388B00003B
:103CF400408A000008B5064B1B68002B03D1054918
:103D04005120FEF72AF8024B1B68984700BF08BDF4
:103D140078070020548B000082B00190019B044A74
:103D2400934201D1034B00E00023184602B07047D0
:103D3400002000407807002000B587B00190009172
:103D4400019B002B03D118497720FEF706F8019850
:103D5400FFF7E2FF0590059B002B1ED000238DF892
:103D640013300020FDF7B2FF059B1B79002B03D015
:103D740001238DF8133005E0059B009A1A60059B1A
:103D840001221A710020FDF7B5FF9DF81330002BB6
:103D940003D011230393039B02E000230393039BAB
:103DA400184607B05DF804FB548B000000B585B0DD
:103DB4000190019B002B03D10A499B20FDF7CDFF05
:103DC4000198FFF7A9FF0390039B002B05D0039BE9
:103DD40000221A60039B00221A7100BF05B05DF82F
:103DE40004FB00BF548B000082B003468DF80730FB
:103DF4009DF8073003F01F0205499DF907305B0960
:103E0400012000FA02F241F8232000BF02B07047FB
:103E140000E100E082B003468DF807309DF80730DA
:103E240003F01F0206499DF907305B09012000FADF
:103E340002F2603341F8232000BF02B0704700BF94
:103E440000E100E082B0034600918DF807309DF94F
:103E54000730002B0CDA009BDAB20C499DF80730CE
:103E640003F00F03043B5201D2B20B441A7609E06B
:103E7400009BDAB206499DF907305201D2B20B44D5
:103E840083F8002300BF02B0704700BF00ED00E0DC
:103E940000E100E084B00190019B1B0B8DF80F3012
:103EA4009DF90F30184604B07047000000B583B088
:103EB40003460A468DF8073013468DF806309DF800
:103EC4000630072B03D908496B20FDF746FF9DF800
:103ED40006209DF9073011461846FFF7B3FF00BFCF
:103EE40003B05DF804FB00BFB48B000000B583B0E1
:103EF40003468DF807309DF907301846FFF78AFF0F
:103F04009DF907301846FFF76FFF00BF03B05DF857
:103F140004FB82B001900B468DF803309DF803300A
:103F2400019A134401221A6000BF02B0704784B0A2
:103F340001900B46ADF80230BDF80230019A1344EB
:103F440000221A60BDF80230019A13441B680393DF
:103F5400039B00BF04B0704782B001900B46ADF8DC
:103F64000230BDF80230019A13441B68002B14BFC1
:103F740001230023DBB2184602B0704782B00190DF
:103F84000091019BD3F80022009B1A43019BC3F8C4
:103F9400002200BF02B0704782B001900091019BE3
:103FA400D3F80022009BDB431A40019BC3F8002294
:103FB40000BF02B0704782B001900091019B009A4B
:103FC400C3F8042300BF02B0704782B0019000918F
:103FD400019B009AC3F8082300BF02B0704782B067
:103FE40001900091019BD3F80423009B1340002B04
:103FF40014BF01230023DBB2184602B0704782B01D
:1040040001900B468DF80330019BD3F8043523F05F
:1040140003029DF8033003F003031A43019BC3F822
:10402400042500BF02B0704782B001900B468DF8A2
:104034000330019BD3F8083523F003029DF80330C5
:1040440003F003031A43019BC3F8082500BF02B021
:10405400704782B001900B468DF80330019BD3F872
:10406400103523F00F029DF8033003F00F031A43B9
:10407400019BC3F8102500BF02B0704784B00390C1
:104084000B4601928DF80B309DF80B20039B02F533
:10409400A872019943F8221000BF04B0704782B09F
:1040A4000190019B9BB250339BB29B009BB218467C
:1040B40002B0704782B001904FF48032019B02FA43
:1040C40003F3184602B0704710B588B0039002910C
:1040D4000192039B1B791A4613465B0013449B0011
:1040E400704A13440793029B002B03D16E494A2064
:1040F400FDF733FE019B002B03D16B494B20FDF7E9
:104104002CFE079B1B7A002B03D008230593059BE9
:10411400C4E0039B1B68654A93420FD1029B9B78C2
:10412400012B64D0029B9B78002B60D0029B9B7870
:10413400022B5CD0029B9B78032B58D0039B1B68FB
:104144005B4A93420FD1029B9B78012B4FD0029B79
:104154009B78002B4BD0029B9B78022B47D0029B71
:104164009B78032B43D0039B1B68524A93420FD185
:10417400029B9B78012B3AD0029B9B78002B36D074
:10418400029B9B78022B32D0029B9B78032B2ED070
:10419400039B1B68484A93420FD1029B9B78012BD7
:1041A40025D0029B9B78002B21D0029B9B78022B6D
:1041B4001DD0029B9B78032B19D0039B1B683F4A9D
:1041C40093420FD1029B9B78012B10D0029B9B78CA
:1041D400002B0CD0029B9B78022B08D0029B9B786F
:1041E400032B04D030495F20FDF7B7FD00E000BF8A
:1041F400079B019A1A60029B5A68079B5A60002326
:104204008DF81B3010E0039B1C689DF81B3018468A
:10421400FFF745FF034619462046FFF788FE9DF841
:104224001B3001338DF81B30039B5B799DF81B20F9
:104234009A42E8D3039B1B681846FFF72BFE0346FC
:104244001A46029BDB7819461046FFF72FFE039BA4
:104254001B681846FFF71EFE03461846FFF746FE86
:10426400039B1A68029B5B7819461046FFF7C7FE4A
:10427400039B1A68029B9B7819461046FFF7D4FEED
:10428400039B1A68029B1B7819461046FFF7E1FE50
:10429400079B01221A7200230593059B184608B058
:1042A40010BD00BF80070020EC8B000000800040A0
:1042B4000090004000A0004000A0014000B0014078
:1042C40000B583B00190019B1B791946114A0B4636
:1042D4005B000B449B00134408331B78012B03D071
:1042E4000D498F20FDF739FD019B1B6800211846FD
:1042F400FFF70FFE019B1B791946064A0B465B002C
:104304000B449B001344083302221A7000BF03B00D
:104314005DF804FB80070020EC8B000010B586B02C
:10432400039001921A460B468DF80B3013468DF814
:104334000A309DF80B301846FFF7BCFE05909DF837
:104344000A30002B12D0039B1C689DF80B301846D2
:10435400FFF7A5FE034619462046FFF7E8FD039B39
:104364001B6805991846FFF726FE05E0039B1B68AA
:1043740005991846FFF729FE039B1B689DF80B104F
:10438400019A1846FFF77AFE00BF06B010BD00B5CB
:1043940085B0039001921A460B468DF80B301346F4
:1043A400ADF80830039B18689DF80B304FF4807209
:1043B4009A409DF80B30012101FA03F31343194687
:1043C400FFF7EAFD039B1B68BDF808201146184659
:1043D400FFF7D4FD9DF818309DF80B10019A03984F
:1043E400FFF79CFF00BF05B05DF804FB00B587B084
:1043F4000390029113468DF8073000238DF817308F
:1044040030E09DF817301846FFF749FE0346ADF833
:1044140014309DF817301846FFF74CFE0490BDF891
:10442400143019460398FFF797FD0346002B14D068
:1044340004990398FFF7D3FD0346002B0DD0BDF874
:10444400143019460398FFF772FD029B1B68029A09
:104454005168BDF81420104698479DF81730013371
:104464008DF817309DF817209DF807309A42C8D36D
:1044740000BF07B05DF804FB08B5042202490348F5
:10448400FFF7B4FF00BF08BD800700200090004084
:1044940008B5042202490348FFF7A8FF00BF08BD7E
:1044A4008C07002000A0004082B003468DF807303E
:1044B4009DF8073003F01F0205499DF907305B0999
:1044C400012000FA02F241F8232000BF02B0704735
:1044D40000E100E082B003468DF807309DF8073014
:1044E40003F01F0206499DF907305B09012000FA19
:1044F40002F2203341F8232000BF02B0704700BF0E
:1045040000E100E082B003468DF807309DF80730E3
:1045140003F01F0206499DF907305B09012000FAE8
:1045240002F2603341F8232000BF02B0704700BF9D
:1045340000E100E082B0034600918DF807309DF958
:104544000730002B0CDA009BDAB20C499DF80730D7
:1045540003F00F03043B5201D2B20B441A7609E074
:10456400009BDAB206499DF907305201D2B20B44DE
:1045740083F8002300BF02B0704700BF00ED00E0E5
:1045840000E100E084B00190019B1B0B8DF80F301B
:104594009DF90F30184604B07047000000B583B091
:1045A40003460A468DF8073013468DF806309DF809
:1045B4000630072B03D908496B20FDF7CEFB9DF885
:1045C40006209DF9073011461846FFF7B3FF00BFD8
:1045D40003B05DF804FB00BF488C000000B583B055
:1045E40003468DF807309DF907301846FFF78AFF18
:1045F4009DF907301846FFF757FF00BF03B05DF879
:1046040004FB00B583B003468DF807309DF90730ED
:104614001846FFF75FFF00BF03B05DF804FB84B0EA
:1046240001900B46ADF80230BDF80230019A1344F4
:1046340000221A60BDF80230019A13441B680393E8
:10464400039B00BF04B0704782B001900B46ADF8E5
:104654000230BDF80230019A13441B68002B14BFCA
:1046640001230023DBB2184602B0704782B00190E8
:104674000091019B009AC3F8042300BF02B0704765
:1046840082B001900091019BD3F80423009B134056
:10469400002B14BF01230023DBB2184602B070477D
:1046A40082B001900091019B009AC3F8082300BFD7
:1046B40002B0704784B00190019BD3F88034039317
:1046C400019B039AC3F88024039B184604B07047E7
:1046D40082B00190019B0422C3F8002500BF02B000
:1046E400704782B00190019B0022C3F8002500BFEF
:1046F40002B0704784B0039002910192039B019A27
:10470400C3F81425039B029AC3F80C2500BF04B018
:10471400704700B583B001904FF0FF324FF0FF3186
:104724000198FFF7E7FF00BF03B05DF804FB82B018
:104734000190019BD3F80C35184602B0704782B043
:104744000190019BD3F81435184602B0704782B02B
:104754000190019BD3F80835184602B0704782B027
:104764000190019BD3F81035184602B0704784B00D
:10477400039002910192039B029AC3F80825039BBC
:10478400019AC3F8102500BF04B0704700B583B088
:1047940001904FF0FF324FF0FF310198FFF7E7FF30
:1047A40000BF03B05DF804FB82B00190019BD3F815
:1047B4001835DBB2184602B0704782B001900B4640
:1047C4008DF803309DF80320019BC3F81C2500BF1E
:1047D40002B0704782B001900B468DF803309DF80B
:1047E4000330019A134401221A6000BF02B07047DB
:1047F40082B001900B468DF8033013468DF80230D9
:104804009DF803209DF802301343DBB21A46019B46
:10481400C3F86C2500BF02B0704782B001900091CC
:10482400019B009AC3F8242500BF02B07047000022
:1048340000B583B00190019B1B682F2B04D90B4951
:1048440040F2C710FDF789FA019B1B681F2B02D8A1
:104854004FF0A04306E0019B1B6803F01F02019B7D
:104864001A60034B184603B05DF804FB788C000013
:104874000003005000B585B00190084611461A4661
:1048840003468DF803300B468DF8023013468DF83D
:10489400013001AB1846FFF7CBFF03909DF80320CE
:1048A4009DF802305B001A439DF801309B001A43C7
:1048B4009DF818301B0242EA03019DF81C301B04CA
:1048C400019A1943039B02F5E07243F8221000BFDA
:1048D40005B05DF804FB00B585B003900023019397
:1048E400002300930023012201210398FFF7C2FF54
:1048F40000BF05B05DF804FB00B585B003900B461E
:104904008DF80B309DF80B200023019300230093B6
:104914001346002200210398FFF7ACFF00BF05B047
:104924005DF804FB00B585B00390002301930023D8
:1049340000930023012200210398FFF79BFF00BF8F
:1049440005B05DF804FB00B585B0019001AB1846D5
:10495400FFF76EFF0390019B012202FA03F319464D
:10496400039800F004F800BF05B05DF804FB82B0C2
:1049740001900091019B009AC3F8082500BF02B082
:10498400704700B583B001900091009B1B68B3F1A0
:10499400FF3F09D0009B1B681846FFF7D4FF009B1C
:1049A4001B681846FFF797FF009B5B68B3F1FF3F56
:1049B40005D0009B5B6800211846FFF79DFF019B13
:1049C4001A68009B9B6919461046FFF726FF019B56
:1049D4001868009B597D009B1B7D1A46FFF708FF52
:1049E400019B1868009B1968009B5B681A46FFF7D7
:1049F40081FE009B1B7D012B22D1009B9B68B3F1A0
:104A0400FF3F05D0009B9B6800211846FFF774FF09
:104A1400009BDB68B3F1FF3F09D0009BDB681846BD
:104A2400FFF791FF009BDB681846FFF754FF019BDB
:104A34001868009BD968009B9B681A46FFF797FE8D
:104A440000BF03B05DF804FB00B583B001900B46D2
:104A54008DF80330019B1B684FF48E711846FFF7E5
:104A6400DEFD019B1B684FF4A2711846FFF7D7FDCA
:104A7400019B1B680E491846FFF7F8FD019B1B6854
:104A84001846FFF77FFD03461A469DF80330194682
:104A94001046FFF783FD019B1B681846FFF772FD64
:104AA40003461846FFF79AFD00BF03B05DF804FB08
:104AB4008000020000B583B00190019B1B68084987
:104AC4001846FFF7EDFD019B1B681846FFF75AFDDA
:104AD40003461846FFF795FD00BF03B05DF804FBDD
:104AE4008402020000B587B00190019B1B68184640
:104AF400FFF71DFE0590019B1B681846FFF71FFE7C
:104B04000490019B1B681846FFF721FE0390019B4C
:104B14001B681846FFF723FE0290019B1B6818468A
:104B2400FFF7F7FD019B1B681846FFF72FFE059B57
:104B3400B3F1FF3F02D00598FFF7F4FE049BB3F1F5
:104B4400FF3F02D00498FFF7EDFE029BB3F1FF3F55
:104B540002D00298FFF7E6FE039BB3F1FF3F02D0B9
:104B64000398FFF7DFFE00BF07B05DF804FB000009
:104B740000B587B0039002910192029B002B03D1F0
:104B84002D49AA20FDF7E9F8039B1B791A462C232B
:104B940003FB02F3294A1344049300230593049B63
:104BA40093F82A30002B03D008230593059B3EE09D
:104BB400039B1A68039B1B791946214B53F8213038
:104BC40019461046FFF7B8F80346002B03D011230B
:104BD4000593059B2BE002990398FFF7D2FE049BF3
:104BE400019A5A60029B1A69049B1A60049B5B68D1
:104BF400002B05D0029B1B7F19460398FFF724FF67
:104C0400039B1B681846FFF763FD049B00229A610F
:104C1400049B0022DA61049B002283F82920049B70
:104C240000225A61049B012283F82A20059B18461E
:104C340007B05DF804FB00BFB08C000098070020AB
:104C44000C8D000000B585B00190019B1B791A46BC
:104C54002C2303FB02F3114A13440393019B1B68A7
:104C64001846FFF73EFD039B5B68002B02D00198BA
:104C7400FFF720FF0198FFF735FF019B1B681846DB
:104C8400FFF794F8039B002283F82A20039B002259
:104C94005A6000BF05B05DF804FB00BF9807002010
:104CA40000B585B0019000914FF48E710198FFF723
:104CB400B6FC009B9A68009B1B6A13441B788DF812
:104CC4000F30009B1B6A5A1C009B1A629DF80F3020
:104CD40019460198FFF771FD00BF05B05DF804FBAC
:104CE40000B583B00190009116E0009B93F8283042
:104CF400DBB2002B01D0002315E04FF48E71019834
:104D0400FFF7A2FC034683F00103DBB2002BECD1D6
:104D140000990198FFF7C4FF009B1A6A009B5B6926
:104D24009A42EAD30123184603B05DF804FB00005D
:104D340000B587B0039002910192039B1B791A4638
:104D44002C2303FB02F33C4A13440493049B93F87F
:104D54002A30012B04D0394940F21510FCF7FDFF2D
:104D6400029B002B04D135494FF48B70FCF7F5FFFF
:104D7400019B002B04D1314940F21710FCF7EDFFE1
:104D8400039800F05DF80346002B03D0112305932C
:104D9400059B4CE0049B019A5A61049B029A9A6019
:104DA400049B00221A62049B002283F8282000231B
:104DB4000593039B1B684FF48E711846FFF72FFC75
:104DC400039B1B6808211846FFF704FD039B1B681F
:104DD40004991846FFF764FF049B5B68002B25D1F8
:104DE400039B1B6804991846FFF77AFF034683F078
:104DF4000103DBB2002B02D00F23059313E000BFA5
:104E0400039B1B684FF48E711846FFF71DFC034685
:104E140083F00103DBB2002BF2D1039B1B680C214E
:104E24001846FFF7D7FC049B00225A61059B1846DD
:104E340007B05DF804FB00BF98070020B08C0000A9
:104E440082B00190019B1B791946074A2C2303FB6E
:104E540001F3134414331B68002B14BF01230023F4
:104E6400DBB2184602B070479807002010B582B034
:104E740001900091009B9B69002B08D14FF4847131
:104E84000198FFF7CCFB0198FFF78EFC13E04FF479
:104E940084710198FFF7C3FB009BDA68009B5B6A8F
:104EA400D4180198FFF780FC03462370009B5B6ACB
:104EB4005A1C009B5A6202B010BD00B589B0039021
:104EC4000291019201238DF81030029B0693019BFD
:104ED4000593039B5B68039A116804AA10469847DC
:104EE40000BF09B05DF804FB00B587B001900091E4
:104EF40000238DF80830009B0493019B9B68039367
:104F0400019B00225A61019B5B68019A116802AA05
:104F14001046984700BF07B05DF804FB00B589B0A0
:104F2400019000914FF400710198FFF7A9FB03462B
:104F3400002B39D04FF492710198FFF785FB03469B
:104F4400002B31D04FF492710198FFF768FB4FF4B6
:104F540001710198FFF7A4FB009B93F8293083F0BB
:104F64000103DBB2002B03D004210198FFF732FCCC
:104F740002238DF808300198FFF79CFB0346059344
:104F8400009B9B690493009BDB680393009B0022B6
:104F94009A61009B0022DA61009B5B68009A1168A9
:104FA40002AA1046984752E004210198FFF768FBD3
:104FB4000346002B4BD04FF484710198FFF744FB58
:104FC4000346002B43D000990198FFF74FFF009B45
:104FD4009A69009B5B6A9A4239D1009BDB69002B7A
:104FE40019D0009BDB680793009B5B6A0693009BC8
:104FF400DA69009B9A61009B1A69009BDA60009B46
:105004000022DA61009B00225A62079A06990098EE
:10501400FFF753FF1BE0009B93F8293083F0010353
:10502400DBB2002B03D004210198FFF7D3FB4FF42C
:1050340001710198FFF734FB009B00229A61009BE9
:10504400596A009BDB681A460098FFF736FF4FF455
:105054008E710198FFF7F8FA0346002B22D0009BCB
:105064001A6A009B5B699A420DD2009B93F8283020
:10507400DBB283F00103DBB2002B04D0009901986A
:10508400FFF70EFE0EE04FF48E710198FFF7C7FA9A
:10509400009B5B69002B05D0009B5B691946009857
:1050A400FFF722FF4FF4A2710198FFF7CDFA0346F0
:1050B400002B1CD04FF4A2710198FFF7B0FA009BAB
:1050C40093F82930002B03D000210198FFF782FBCD
:1050D400009B9B69002B0AD0009B00229A61009BD5
:1050E400596A009BDB681A460098FFF7E6FE00BF8A
:1050F40009B05DF804FB000008B503490348FFF755
:105104000DFF00BF08BD00BF98070020002000402D
:1051140082B003468DF807309DF8073003F01F0274
:1051240005499DF907305B09012000FA02F241F8B4
:10513400232000BF02B0704700E100E082B00346C4
:105144008DF807309DF8073003F01F0206499DF9DA
:1051540007305B09012000FA02F2203341F82320D2
:1051640000BF02B0704700BF00E100E082B0034618
:105174008DF807309DF8073003F01F0206499DF9AA
:1051840007305B09012000FA02F2603341F8232062
:1051940000BF02B0704700BF00E100E082B00346E8
:1051A40000918DF807309DF90730002B0CDA009B35
:1051B400DAB20C499DF8073003F00F03043B5201A7
:1051C400D2B20B441A7609E0009BDAB206499DF983
:1051D40007305201D2B20B4483F8002300BF02B05F
:1051E400704700BF00ED00E000E100E082B00190F4
:1051F400019B03F06043B3F1005F0CBF0123002364
:10520400DBB2184602B0704784B00190019B1B0BBF
:105214008DF80F309DF90F30184604B07047000028
:1052240000B583B003460A468DF8073013468DF85F
:1052340006309DF80630072B03D908496B20FCF78C
:105244008CFD9DF806209DF9073011461846FFF79E
:10525400A5FF00BF03B05DF804FB00BF108D000084
:1052640000B583B003468DF807309DF90730184622
:10527400FFF77CFF9DF907301846FFF749FF00BF91
:1052840003B05DF804FB00B583B003468DF8073026
:105294009DF907301846FFF751FF00BF03B05DF8D2
:1052A40004FB84B001900B46ADF80230BDF8023027
:1052B400019A134400221A60BDF80230019A134483
:1052C4001B680393039B00BF04B0704782B0019036
:1052D4000B46ADF80230BDF80230019A13441B6846
:1052E400002B14BF01230023DBB2184602B0704721
:1052F40082B001900091019BD3F80022009BDB4314
:105304001A40019BC3F8002200BF02B0704782B06C
:1053140001900091019B009AC3F8042300BF02B0DE
:10532400704782B001900091019B009AC3F8082352
:1053340000BF02B0704784B00190019BD3F8803461
:105344000393019B039AC3F88024039B184604B07B
:10535400704782B00190019B0822C3F8002500BF6A
:1053640002B0704782B00190019B0022C3F800256F
:1053740000BF02B0704784B0039002910192039B76
:10538400029AC3F80C25039B019AC3F8142500BFA5
:1053940004B0704700B583B001904FF0FF324FF076
:1053A400FF310198FFF7E7FF00BF03B05DF804FB8E
:1053B40082B00190019BD3F80C35184602B07047B7
:1053C40082B00190019BD3F81435184602B070479F
:1053D40082B00190019BD3F80835184602B070479B
:1053E40082B00190019BD3F81035184602B0704783
:1053F40084B0039002910192039B029AC3F808259A
:10540400039B019AC3F8102500BF04B0704700B590
:1054140083B001904FF0FF324FF0FF310198FFF756
:10542400E7FF00BF03B05DF804FB82B001900B46B8
:105434008DF803309DF80330019A134401221A6059
:1054440000BF02B0704782B001900B468DF8033064
:1054540013468DF802309DF803209DF80230134363
:10546400DBB21A46019BC3F86C2500BF02B070473B
:1054740082B001900091019B009AC3F8242500BFDB
:1054840002B0704784B0039002910192029A039B88
:10549400C3F84425039B019AC3F8482500BF04B010
:1054A400704782B00190019BD3F84C35184602B086
:1054B400704782B00190019BD3F83C35184602B086
:1054C4007047000000B583B00190019B1B682F2B2F
:1054D40004D90B4940F2C710FCF73FFC019B1B6841
:1054E4001F2B02D84FF0A04306E0019B1B6803F07A
:1054F4001F02019B1A60034B184603B05DF804FBBE
:10550400408D00000003005000B585B001900846AE
:1055140011461A4603468DF803300B468DF80230C7
:1055240013468DF8013001AB1846FFF7CBFF03900B
:105534009DF803209DF802305B001A439DF801306A
:105544009B001A439DF818301B0242EA03019DF8A0
:105554001C301B04019A1943039B02F5E07243F8C3
:10556400221000BF05B05DF804FB00B585B00390C0
:1055740000230193002300930023012201210398B7
:10558400FFF7C2FF00BF05B05DF804FB00B585B0AE
:1055940003900B468DF80B309DF80B2000230193EC
:1055A400002300931346002200210398FFF7ACFF69
:1055B40000BF05B05DF804FB00B585B0039000237F
:1055C4000193002300930023012200210398FFF795
:1055D4009BFF00BF05B05DF804FB00B585B00190EA
:1055E40001AB1846FFF76EFF0390019B012202FAFC
:1055F40003F31946039800F004F800BF05B05DF802
:1056040004FB82B001900091019B009AC3F8082525
:1056140000BF02B0704700B583B001900091009BB9
:105624001B68B3F1FF3F09D0009B1B681846FFF7C6
:10563400D4FF009B1B681846FFF797FF009B5B682D
:10564400B3F1FF3F05D0009B5B6800211846FFF7CC
:105654009DFF019B1A68009B9B6919461046FFF742
:1056640007FF019B1868009B597D009B1B7D1A4610
:10567400FFF7E9FE019B1868009B1968009B5B68B3
:105684001A46FFF778FE009B1B7D012B22D1009B5D
:105694009B68B3F1FF3F05D0009B9B68002118462F
:1056A400FFF774FF009BDB68B3F1FF3F09D0009B59
:1056B400DB681846FFF791FF009BDB681846FFF78D
:1056C40054FF019B1868009BD968009B9B681A468D
:1056D400FFF78EFE00BF03B05DF804FB00B583B096
:1056E40001900B468DF80330019B1B684FF48871C1
:1056F4001846FFF7D6FD019B1B684FF490711846BE
:10570400FFF7CFFD019B1B684FF492711846FFF71A
:10571400C8FD019B1B684FF4A2711846FFF7C1FD39
:10572400019B1B680E491846FFF7F1FD019B1B689E
:105734001846FFF769FD03461A469DF803301946DB
:105744001046FFF76DFD019B1B681846FFF75CFDD3
:1057540003461846FFF784FD00BF03B05DF804FB61
:105764001003020000B583B00190019B1B68084937
:105774001846FFF7D6FD019B1B681846FFF744FD4A
:1057840003461846FFF77FFD00BF03B05DF804FB36
:105794001003020000B587B00190019B1B681846F6
:1057A400FFF706FE0590019B1B681846FFF708FEED
:1057B4000490019B1B681846FFF70AFE0390019BA7
:1057C4001B681846FFF70CFE0290019B1B681846E5
:1057D400FFF7E0FD019B1B681846FFF718FE059BC9
:1057E400B3F1FF3F02D00598FFF7E6FE049BB3F147
:1057F400FF3F02D00498FFF7DFFE029BB3F1FF3FA7
:1058040002D00298FFF7D8FE039BB3F1FF3F02D00A
:105814000398FFF7D1FE00BF07B05DF804FB00005A
:1058240000B587B0039002910192029B002B03D133
:105834002B49BC20FCF791FA039B1B791A461346AB
:10584400DB0013449B00274A13440493002305936D
:10585400049B93F82030002B03D008230593059B69
:105864003AE0039B1A68039B1B7919461E4B53F8B5
:10587400213019461046FEF75FFA0346002B03D089
:1058840011230593059B27E002990398FFF7C3FEB4
:10589400049B019A5A60029B1A69049B1A60049B38
:1058A4005B68002B05D0029B1B7F19460398FFF70A
:1058B40015FF039B1B681846FFF74BFD049B002252
:1058C4009A61049B0022DA61049B00225A61049BC2
:1058D400012283F82020059B184607B05DF804FBDD
:1058E400788D0000C4070020D48D000000B585B079
:1058F4000190019B1B791A461346DB0013449B005D
:10590400104A13440393019B1B681846FFF72AFDB2
:10591400039B5B68002B02D00198FFF723FF0198DB
:10592400FFF738FF019B1B681846FEF73FFA039BFD
:10593400002283F82020039B00225A6000BF05B098
:105944005DF804FBC407002000B589B00390029100
:105954000192039B1B791A461346DB0013449B00F8
:105964004C4A13440593059B93F82030012B04D033
:10597400494940F20D10FCF7F0F9029B002B04D1C9
:1059840045494FF48770FCF7E8F9019B002B04D1DB
:10599400414940F20F10FCF7E0F9039B1B79002BFF
:1059A40003D1019BB3F5803F04D33B494FF4887086
:1059B400FCF7D3F90298FFF719FC034683F00103BF
:1059C400DBB2002B03D010230793079B5EE0039800
:1059D40000F064F80346002B03D011230793079BC0
:1059E40054E0059B019A5A61059B029A9A60002330
:1059F4000793039B1B684FF490711846FFF751FC03
:105A0400039B1B684FF4AC711846FFF74AFC039BD9
:105A14001868059B9968059B5B691A46FFF732FD78
:105A2400039B1B6808211846FFF7FFFC059B5B6876
:105A3400002B2AD1039B1B684FF490711846FFF783
:105A440045FC03468DF81B30039B1B684FF4AC7177
:105A54001846FFF73BFC03468DF81A309DF81B30BF
:105A640083F00103DBB2002B06D09DF81A3083F0DB
:105A74000103DBB2002BDDD19DF81A30002B01D0DD
:105A84000F230793059B00225A61079B184609B010
:105A94005DF804FBC4070020788D000082B00190FB
:105AA400019B1B791946084A0B46DB000B449B00FB
:105AB400134414331B68002B14BF01230023DBB2EF
:105AC400184602B0704700BFC407002000B589B073
:105AD40003900291019201238DF81030029BDBB2F6
