:101000000000042061120000B9120000BB120000B1
:10101000BD120000BF120000C1120000000000005D
:10102000000000000000000000000000C3120000EB
:10103000C512000000000000C7120000C912000025
:10104000CD120000CF1200006D2B000025340000EF
:10105000D5120000D71200008D310000DB12000015
:10106000BD390000592D0000692D0000E312000079
:10107000E5120000E7120000E9120000EB12000088
:10108000ED12000021250000F1120000F312000013
:10109000BD250000F7120000F9120000FB1200004D
:1010A000FD120000FF1200000113000003130000F6
:1010B0000513000007130000CB120000CB12000044
:1010C000091300000B1300000D1300000F130000A4
:1010D0001113000013130000151300001713000074
:1010E000191300001B1300001D130000CB12000099
:1010F000CB12000021130000CB1200001F130000D0
:10110000364937480A1A02D0072291438D4635499D
:1011100035480A1A06D00722914381F30988022232
:1011200082F3148831483249324A00F045F8324897
:101130003249334A00F040F832483349334A00F02C
:101140003BF833483349344A00F036F833483449E1
:10115000344A00F031F834483449354A00F02CF86C
:1011600034483549354A00F027F8354835490022DA
:1011700000F02DF834483549002200F028F83448B2
:101180003449091A082903DB002202600430016097
:10119000314A90471F482049884205D002680430F0
:1011A00003B4904703BCF7E700208646EC460020D6
:1011B00000212A4A9047FEE7884207D0521A05D0FC
:1011C000037801300B700131013AF9D17047884240
:1011D00002D002700130FAE77047000000000420DE
:1011E00000E003200000042000000420744D0000F3
:1011F0002C000020500000202413000024130000C5
:101200005E420000744D00002C0000202C000020E5
:10121000E4420000E4420000E4420000E442000036
:10122000E4420000E4420000E4420000E442000026
:10123000744D0000984D0000500000205000002028
:1012400050000020EC0A0020EC0A0020EC0A0020EC
:10125000EC0A0020EC2A002085120000653B00000B
:101260000F484FF00701884385460E4880470E48D7
:10127000016841F470010160BFF34F8FBFF36F8FBE
:10128000FFF73EBF09480A490A4A884207D0521A66
:1012900005D0037801300B700131013AF9D1704764
:1012A00000000420913E000088ED00E0C0420000F4
:1012B000080000202C000020FEE7FEE7FEE7FEE726
:1012C000FEE7FEE7FEE7FEE7FEE7FEE7FEE7FEE7F6
:1012D000FEE7FEE7FEE7FEE7FEE7FEE7FEE7FEE7E6
:1012E000FEE7FEE7FEE7FEE7FEE7FEE7FEE7FEE7D6
:1012F000FEE7FEE7FEE7FEE7FEE7FEE7FEE7FEE7C6
:10130000FEE7FEE7FEE7FEE7FEE7FEE7FEE7FEE7B5
:10131000FEE7FEE7FEE7FEE7FEE7FEE7FEE7FEE7A5
:04132000FEE700BF25
:101324007047000007B5044B0093044A402300F0C3
:1013340032F803B05DF804FB4513000051000020AF
:101344002DE9F84389461446B2B10F4B0F4E0325DD
:10135400002743F00108224609EB0701002002F0B0
:101364004FFD0744241A48B933782BB14FF47A401F
:10137400C047013D02D13570BDE8F88301233370C5
:10138400002CE8D1F8E700BFF04200005000002034
:10139400704702F069BDF0B595B01C461646084684
:1013A4000D4600F0EDFF1A9B0D93CDE9086400246F
:1013B4002346082205A928460A948DF82C400C944B
:1013C40001F01AF8079B0293BDF81830ADF80C3001
:1013D400BDF81A30ADF80E309DF814308DF8114078
:1013E40003F00302012A1DD1BDF81440059EC3F386
:1013F400C203C4F383148DF81030A20008230EA98D
:10140400284600F0F9FFC6F3952608AB0093224660
:1014140002AB0EA9304600F06DFB284600F0B4FF85
:1014240015B0F0BD022AF8D1BDF81640C3F3C203CB
:10143400A4098DF810300827082C264628BF082652
:101444003B4632460EA9284600F0D6FFA41B08AB43
:1014540002AA31460EA8374400F0B0FB002CEBD1B1
:10146400DBE7000010B5054CFFF793FF042120468D
:1014740000F0B0FA0123637210BD00BF2C000020FD
:10148400037813F0030F03F0040202D012B91046DC
:101494007047B2B103F00303012B03D0022B09D030
:1014A400012070470A6800880232C0F383100244A6
:1014B4000A60F5E70B684288023303EB92130B6072
:1014C400EEE70B684288013303EB92130288F4E7DA
:1014D4002DE9F04F484C87B00F460546861C002086
:1014E400019200F0B5FC23683B60D4E90123134466
:1014F400226801339B1A04F21C4704F5836A04F240
:101504001448B34219D3019A0023002A6CD0012253
:1015140062F3010343F0040365F389132168A268AD
:101524000A4003320E44002044F82230266000F0C2
:1015340091FC012007B0BDE8F08F0121384600F08E
:10154400ABFC504600F0BEFC404600F0BBFC0DF185
:1015540018096068D4F808B049F8100D00EA0B00C7
:10156400033004EB80004946FFF78AFF029BB0B9C1
:101574000BEA030204EB8202D16803919A1C013343
:1015840003EA0B0B04EB8B0C01F00303012B029217
:10159400DCF80CB020D0022B04D083460BE00BEA1D
:1015A4000300DDE7BDF80E309B0903334FEA1B4B04
:1015B40002EB93030293404600F087FC08B1029BC0
:1015C40063605946384600F067FCD4E901231344AC
:1015D400226801339B1A94E7BDF80C30C3F38313DC
:1015E4004FEA1B4B1344E5E7022262F3010343F085
:1015F400040365F39F5391E76401002008B50F4B82
:101604000F48FF229A600022C3F81824C3E900227D
:10161400C3F81424012283F8202400F06AFE38B9A8
:10162400084A094B09499B1ADB0802469A4200D131
:1016340008BD21F822200132F8E700BF6401002030
:10164400A842000060420000A842000008000020F8
:1016540030B50B4C79B10B4A0B49121BD20800234D
:101664009A4201D1002030BD01EB83056D8885428B
:1016740002D00133F4E7034654F83300F3E700BF24
:1016840060420000A842000008000020094B013914
:1016940003EBC000032909D8DFE801F00A020406BD
:1016A40004207047007970474079704700207047E4
:1016B4000220704760420000034BD3E90030C31A94
:1016C40058425841704700BF640100202DE9F0439F
:1016D40085B0FFF7F1FF0746002840F0F2807A4D0D
:1016E400C5F81804BFF34F8F6868AC680DF1100893
:1016F40048F8100D2040033005EB80004146FFF709
:10170400BFFE009B064600285FD104EA0302991C31
:10171400013305EB8202234005EB8303D268DB68C7
:10172400029302F00303022B0192009162D1BDF8EF
:10173400063066484FEA9318B8F1500FC14628BFE7
:101744004FF0500969F38F1309F10801ADF8063021
:1017540000F0E7FD0746002800F0A18000F010FE2D
:10176400334601A90822384600F01DFE009924EAF8
:1017740001060136B600B14535D95FFA89F97EB361
:10178400F6B2A9EB0609214003315FFA89F4B146A8
:101794004F4E05EB810108234A46384600F003FE0C
:1017A40036B109F1080322463146384600F0FBFD04
:1017B400009B08F1030803EB98030093D5F8183451
:1017C400002B4AD1D5F8104458E02A689A4204D82C
:1017D4006A60384605B0BDE8F08304EA03008AE78E
:1017E4003B493446D7E72140033108234A4605EBF9
:1017F4008101DAE7012B52D1BDF804303348C3F339
:101804008311062928BF062161F389130231890057
:10181400ADF8043000F085FD074600283FD000F005
:10182400AFFD3346082201A9384600F0BCFDBDF8DF
:101834000420C2F38312B31C96424FEA8303BDD241
:1018440000994A1C21400331009205EB81010422D6
:10185400384600F0A8FD0136E9E7384600F094FD6B
:10186400FFF72AFF80F00100C7B2B2E7637A23B121
:10187400236839461B68204698476468002CF5D1D4
:10188400384600F081FD204600F0E2FAD5F818341D
:101894000BB9009B6B60002000F0DCFAE0E7D5F8A0
:1018A400104444B90B4B0C491888000440F0020062
:1018B40000F06CF8D4E7236820469B689847646876
:1018C400EFE7002785E700BF64010020A84200007D
:1018D4007001002020000020044300002DE9F74F90
:1018E400284C80460F46924601A9012218469B4681
:1018F400D4F80890FFF7ECFD88B3019D0026A91CDD
:101904005E4506EB010234D100211F4800F0A4FA21
:1019140080F310006A1C02EA090204EB820200044C
:1019240005EA0903033340EA1840D06014F8232081
:1019340068F3C50204F8232034F8232066F38912DF
:1019440024F8232054F82320012167F39F2244F82C
:10195400232061F301026FF3820204F8232094F838
:1019640020341BB1FFF7B2FE0028FBD103B0BDE861
:10197400F08F09EA020204EB82025AF82630D3609F
:101984000136BDE7640100208005002000231A46CB
:10199400FFF7A4BF13B502AC012344F8042D22467B
:1019A400FFF79CFF02B010BD07B5CDE90023022369
:1019B4006A46FFF793FF03B05DF804FB1FB5CDE95A
:1019C4000123069B039301AA0323FFF787FF05B0B6
:1019D4005DF804FB0F4A30B5D2F8104400232146C9
:1019E40041B90372D2F810444CB9C2F810044160F2
:1019F400184630BD0D7A9D4205D04968F0E762680B
:101A040042606060F4E701330A2BE8D14FF0FF3302
:101A1400EEE700BF64010020084A38B50123D2F87C
:101A2400104482F820341D4604B938BD2368657219
:101A340020465B6898476468F6E700BF64010020AD
:101A4400037A052B10B50C460FD0437A23B1084A0C
:101A54000849204600F093FA0749204600F08FFA1F
:101A64002046BDE8104000F07FBA002AF8D0F3E722
:101A74005F4300006443000084430000C38873B5DF
:101A840004460D4633B1144A00921449144A2846B8
:101A940000F075FA217A05291CD0637A4BB1A0882D
:101AA400FFF7F4FD0F4B104953F82020284600F0AF
:101AB40066FA227A0D4BA08853F822600021FFF7C2
:101AC400C7FD0B4903463246284602B0BDE87040C4
:101AD40000F055BA02B070BD5F4300006F430000D0
:101AE400674300002C43000064430000944300005B
:101AF400874300002DE9F04385B01F460C9D002369
:101B040006460C46904695F80C902B7329463846A9
:101B1400FFF7B4FFB8F1060F09D8DFE808F00412A4
:101B2400181F283340003146284600F028FA0022C6
:101B340029463846FFF784FF85F80C9005B0BDE8C8
:101B4400F08322683146284600F019FAEFE7D4E919
:101B540000233146284600F012FAE8E7A368009310
:101B64003146D4E90023284600F009FADFE7E368A8
:101B74000193A36800933146D4E90023284600F07A
:101B8400FEF9D4E723690293E3680193A368009301
:101B94003146D4E90023284600F0F1F9C7E7636928
:101BA400039323690293E3680193A3680093314686
:101BB400D4E90023284600F0E2F9B8E708292DE922
:101BC400F84F80460E4617461C4636D8002593F833
:101BD4000C901D7319461046FFF750FFDFF87CA0E8
:101BE400DFF87CB0AE422AD918F8052059462046C1
:101BF40000F0C5F90135082DF4D11649DFF864B0B9
:101C0400204600F0BCF90025AE421DD918F805A005
:101C1400504602F06FFA002814BF52462E2259464D
:101C2400204600F0ACF90135082DEDD10122214602
:101C34003846FFF705FF84F80C90BDE8F88F51464D
:101C4400204600F09CF9D5E70349204600F097F9B7
:101C5400E9E700BF5A430000584300005643000020
:101C6400504300005C430000074B1B5C1F2B86BFE6
:101C740003F01F0305494FF0A041012202FA03F3C8
:101C8400C1F80835704700BFF3430000000300505B
:101C940008B50020FFF7E8FF0120FFF7E5FF022069
:101CA400FFF7E2FF0320BDE80840FFF7DDBF0000B7
:101CB4000A4B185C1F288ABF094B4FF0A04300F061
:101CC4001F00D3F804250121814021EA02000A40C3
:101CD400C3F80805C3F80C25704700BFF3430000A0
:101CE40000030050034BD3F810056FEA901000F086
:101CF4000100704700030050C10710B5044642D5E7
:101D04004FF08043D3F84036DA072ED54FF0102336
:101D1400D3F8043303F00703072B26D11D4B01220C
:101D2400C3F80425D3F80024002AFBD04FF0102177
:101D3400D1F8042322F0070242F00402C1F804237C
:101D44000022C3F80425134AD2F80034002BFBD038
:101D5400BFF34F8F1049114BCA6802F4E06213437A
:101D6400CB60BFF34F8F00BFFDE74FF0A0420C499B
:101D74000323C2F81837C2F82037C1F82437C2F851
:101D84003037FFF785FFA30742BF054B0C22C3F88A
:101D9400182710BD00E0014000ED00E00400FA0542
:101DA400000300501FB50021039001AA44F2010072
:101DB400CDE9011100F004F805B05DF804FB000062
:101DC40010B572B6FFF728FEFFF780FC0028FBD1A0
:101DD400104C11492088000440F00100FFF7D6FDA3
:101DE4000E4B1B68DB0700D500BE20880C4900049D
:101DF40040F00200FFF7CAFDBFF34F8F09490A4BB9
:101E0400CA6802F4E0621343CB60BFF34F8F00BF94
:101E1400FDE700BF20000020F7430000F0ED00E0E4
:101E24000344000000ED00E00400FA0572B6024A23
:101E3400136801331360704788050020034A136850
:101E4400013B136003B962B6704700BF88050020E8
:101E5400FFF7ECBFFFF7F2BF50E8002F0B4640E856
:101E6400003C9CF0000FF7D11046704750E8003F4B
:101E740043EA010240E8002C9CF0000FF6D1104622
:101E8400704750E8002F02EA010340E8003C9CF050
:101E9400000FF6D11046704750E8003F03EB0102F3
:101EA40040E8002C9CF0000FF6D11046704750E833
:101EB400003FA3EB010240E8002C9CF0000FF6D198
:101EC400104670470121FFF7D1BF0021FFF7D9BFAA
:101ED40010B590B1D0E9012301689B1ADBB20A6006
:101EE400013BDBB2FF2B026802D10020107110BD50
:101EF40011684C1C14600B70F2E70E20F7E738B53C
:101F040004460020FFF7A4FF226863681168994221
:101F140013D9481E106011F8015CE368A18A01FB23
:101F24000535A36811791B1ADBB2994200D21371EB
:101F34000020FFF78FFF284638BD0025F8E738B5A5
:101F4400054600200C46FFF783FF2A681368591CD6
:101F54001160E968641AA98AB4FBF1F41C700020CA
:101F6400BDE83840FFF776BF826810B504462AB151
:101F740043690168006998470023A36010BD0EB44B
:101F840003B5039929B102AA04AB42F8043D00F059
:101F94006BF802B05DF804EB03B07047826830B4AC
:101FA4000468551C8560A154D0E901329A4202D3D9
:101FB40030BCFFF7D9BF30BC704700002DE9F84FA3
:101FC4009946DDE90A431746824688460A460126B1
:101FD400BA420FD24E4538BF4E4613F0010B01D121
:101FE40064B900240125B9F1010F1AD909F1FF39A7
:101FF4007D43F8E7B2FBF7F20136E9E79B070ED51C
:10200400B9F1000F0CBF30252025A642EAD2013CCD
:1020140029465046FFF7C2FF002CF6D1E1E7202500
:10202400F3E7B8FBF5F39F42E2D9DFF83890B8FB49
:10203400F5F3504619F8031005FB1388FFF7AEFFBC
:10204400B5FBF7F5002DF2D1BBF1000F02D00CB1B6
:10205400A64201D3BDE8F88F20215046013CFFF78A
:102064009DFFF4E7104400002DE9F74F0546904624
:102074000E46002900F03A8116F8011B002958D0B9
:10208400252940F0D180002702E047F001071646D9
:10209400324612F8013B2D2BF7D0302B04D02B2BDA
:1020A40005D147F00407F2E747F00207EFE7002401
:1020B4002A2B06F101021BD1D8F80030191D1B6828
:1020C400C8F800101C44164633782E2B1CD1013658
:1020D4004FF0000A314611F8012BA2F13000092813
:1020E40014D80A2303FB0A23A3F1300A0E46F1E7AE
:1020F40012F8013CA3F130010929E5D80A2101FBBA
:102104000434303C1646D3E74FF0000A324612F846
:10211400011B01F0FB0068281646F8D0692916D087
:1021240054D8582970D00ED825297DD03378002B67
:10213400A2D12B7B002B00F0D980284603B0BDE848
:10214400F04FFFF711BF632968D06429EED1D8F8A6
:102154000020D2F80090111D89EAE972C8F8001035
:10216400A2EBE9724FF0010B092A61DCD34538BFB9
:10217400D3462CB1B9F1000F01DB790700D5013C3E
:10218400BA0702D5BAF1000F04D0FB0702D4002C21
:1021940054D10024B9F1000F58DAC9F100092D21F6
:1021A4002846FFF7FBFE07F00302022A05D1BAF125
:1021B400000F02D1002C4DD10024CDE90047534635
:1021C4000A2249462846FFF7F9FEAFE7732954D09F
:1021D40016D87029AAD1D8F800301A1DC8F80020E2
:1021E400302128461C68FFF7D9FE78212846FFF7DE
:1021F400D5FE00220823CDE9003221461022E1E772
:1022040075292FD0782991D1D8F800100A1DC8F863
:102214000020CDE90047534610222CE0D8F80030C6
:102224001A1D1978C8F800202846FFF7B7FE7DE785
:102234000A230BF1010B92FBF3F295E7A345A9D214
:1022440020212846013CFFF7A9FEA0E77807AAD57C
:102254002B21A5E7A345B0D230212846013CFFF746
:102264009DFEA7E7D8F80010CDE900470A1DC8F87D
:10227400002053460A220968A4E7D8F800301A1D42
:10228400C8F80020F907D3F8009012D54F46A7EB01
:10229400090B17F8011B41B9A345BFF447AF20212F
:1022A4002846013CFFF77AFEF6E72846FFF776FE5C
:1022B400EDE7B9F1000F17D0484601F09EFF07463D
:1022C400BC4200D954B909F1FF3919F8011F00299A
:1022D4003FF42CAF2846FFF761FEF6E7202128469D
:1022E400013CFFF75BFEEBE74F46E9E703B0BDE8CF
:1022F400F08FFFF7EDBDF8B546790146721E05462D
:10230400002393422D6803D30024A64202D8F8BDCB
:102314000133F6E70F682846FFF711FE013439460A
:10232400F3E72DE9F843868ACD1C0746FFF7E7FD5E
:10233400043E35440446B5FBF6F5F0B14FF4807322
:10234400EDB28380C680013D076081464FF00008EE
:10235400A84512D23846FFF7D2FD064648B1637944
:102364000133637108F10108C9F800000760814670
:10237400EEE72046FFF7BFFF34462046BDE8F8836A
:1023840001210430FFF788BD10B501210446043053
:10239400FFF78DFD10F0FF0F04D12046BDE810407B
:1023A400FFF7A9BF10BD2DE9F843C7880546181DDE
:1023B4008846B0FBF7F4164607FB14003CB9A7EBBC
:1023C4000009B14528BFB14626B9BDE8F8832D6898
:1023D400013CF3E70430A6EB09064A4608EB040186
:1023E400284401F08CFEB7424C442D68B9464FF0A6
:1023F400000028BFB146E7E72DE9F843C7888846BF
:10240400191D0546B1FBF7F4164607FB14113CB938
:10241400A7EB0109B14528BFB14626B9BDE8F88349
:102424002D68013CF3E704312944A6EB09064A462A
:1024340008EB040001F063FEB7424C442D68B94632
:102444004FF0000128BFB146E7E700000D4930B561
:10245400A1F58C720225914201D800200EE08B1A5E
:10246400DB1093FBF5F302EBC30452F833308342E1
:1024740005D802D204F10802EDE7606830BD2146B8
:10248400E9E700BF4C45000008B5FFF7DFFF024B4A
:10249400002808BF184608BD20440000094A5378A4
:1024A40091780133DBB2994208BF00231178994235
:1024B4001FBF03705078182303FB002014BF04309F
:1024C400002070478C050020024B4FF43C6043F021
:1024D40001031847E048000038B50C4B0C4C4FF48E
:1024E4000032C3F8802001254FF48033C4F8483308
:1024F400C4F808336560FFF7E7FF064BA5600024C6
:102504001C60FFF7E1FF044B1C7038BD00E100E0E4
:1025140000100140A806002099060020F8B51F4BC2
:102524001F491B680025C1F84051C1F84451C1F846
:102534004851C1F84C51C1F80051C1F804514BB392
:10254400D1F8044517490968641A24F07F442F46DA
:102554001A68A24209D8A41A15441A7CDE691AB171
:102564001F74D3E905209047AEB90F4B0F4A197871
:1025740013788B4205D10133DBB2022B08BF002351
:10258400137012780A4B43F822500A4B4FF480120E
:10259400C3F80021F8BD3346DAE700BFAC060020DB
:1025A40000100140A8060020A4060020A506002073
:1025B4009C06002000E100E02DE9F74F9E4A9F4968
:1025C400137809789E4D99423CD00133DBB2022B3B
:1025D40008BF002313709B4912789B4B0F6853F874
:1025E40022003B1823F07F4300220B602B68164621
:1025F4001446944613B942B12B6006E0196881422F
:102604000ED902B12B60091A19604FF001082B682A
:10261400DFF83CA200930027BEB9DFF83CB260E0CB
:10262400401A0C44D968C3F800C0D3F81CE031B197
:102634003A1922F07F42C3E90121DE611E460122DC
:102644007346D7E70026B046E1E73446F6697D4A8B
:1026540063681268DFF804C2A068991A21F07F4108
:10266400614500F2A58001442160012222742A6898
:102674000023C4E90133E361002A40F0A2802C6006
:10268400CAE75A1C9BF80210D2B291428BF8002080
:1026940004BF00228BF80020182202FB03B32A682F
:1026A40019799C68022974D003297ED0012918D194
:1026B400217CB1B9DA6862601A69A2605A699B69BF
:1026C400A361624BE2601B78002BC0D06160BEE75F
:1026D4009C4200F093809946DB69002BF8D10023DB
:1026E40023749BF800309BF801209A42C9D12B68CF
:1026F4002FB9009A934202D1B8F1000F43D0002BB6
:1027040079D0D3F800A0524D4E4BD5F804751C680F
:10271400DFF84C813E1B98F8003026F07F460336E4
:102724009BB94FF48033C5F84433C5F80433494B9F
:102734004FF400324FF00109C3F880211A60C5F844
:102744000090FFF7C1FE88F80090B2452CBF5444B6
:10275400A41924F07F44C5F84045D5F80435DB1BA3
:1027640023F07F43E41B033324F07F44A3420AD9BC
:10277400D5F80435C5F84035FFF7A6FE354B4FF4C0
:102784000032C3F80021314B00221A7003B0BDE8B7
:10279400F08F13469146A0E71174D2690123002AF1
:1027A400FAD1002B9DD02A609BE700231946F6E757
:1027B400D31A23F07F43834234BFC31A0023236018
:1027C40053E721681368994213D8591A1160E261DA
:1027D40055E7091AD8691A4638B103461868884279
:1027E400F7D3401A1860184613462160E061DC6193
:1027F40012E71346F2E7FFF76FFEC4E74C450DD12D
:10280400D3692B6053B90F4801920121CAF808100B
:1028140003600E4B1970FFF757FE019AE1692368B4
:10282400C9F81C1011B1086803440B602B689A4264
:1028340018BF012753E700BFA4060020A506002007
:10284400AC060020A80600209C0600209806002064
:102854000010014000E100E08C050020FEFF7F0035
:102864009906002008B5FFF737FE104B00200B2215
:1028740018809A700E4B18600E4B18700E4B18701F
:102884000E4B4FF48012C021C3F8802183F8141337
:102894001A6002F18042A2F56F22C2F8080583F89B
:1028A4001113074BD2F804251A6008BD8C050020CB
:1028B400AC060020A4060020A506002000E100E0EC
:1028C400A8060020074B9B784BB132B128B10368AE
:1028D400187C20B959745A61704707207047082042
:1028E400704700BF8C0500202DE9F3411C4EB378DE
:1028F40004460D4617468BB380B304292CD943698B
:1029040063B3437C0020012B0CBF88464FF00008C2
:10291400FFF79EFA0DF10700FFF7C0FDD0B10123C8
:102924000370104B4460D3F80435C0E90487C0E950
:1029340002359DF80730737000240020FFF78AFAEF
:1029440024B9094B4FF48012C3F80021204602B089
:10295400BDE8F0810424F0E70724F7E70824F5E74D
:102964008C0500200010014000E100E0034B1878C2
:1029740010B901221A70704785207047B0060020F4
:102984002DE9F84F1E4E1F4F80464FF0000A0425D4
:102994004FF001095FFA8AFB002009FA0BF4FFF7F4
:1029A40057FA344208D03B6814EA030201BF2343B8
:1029B4003B6088F800B015460020FFF74BFACDB90C
:1029C400114B1249188800045A4640F00300FEF7E0
:1029D400E1FF0D4B28461C88FFF756FD240444F004
:1029E400030403460A4A0B492046FEF7DDFF284646
:1029F400BDE8F88FA6430AF1010ACBD1E9E700BF8D
:102A0400FFFF0F00B4060020200000204A49000008
:102A1400E64800006149000073B50B4689B382B3F0
:102A240001248440C4F31301174E31B317490968D4
:102A34000C4224D0C4003588154904F1804404F5BF
:102A4400F8342D04C4F81035C4F814250092024655
:102A540045F00300FEF7B2FF002435882046FFF757
:102A640013FD2D0445F0030503460A4A0A49284686
:102A7400FEF79AFF204602B070BD0724EDE7082454
:102A8400EBE70E24F6E700BF20000020B406002088
:102A94007F490000FD4800006149000070B5012431
:102AA40084400B46C4F313010246134EF9B1134993
:102AB40009680C421DD03488114900F511702404B2
:102AC40041F820300F4944F00300FEF76DFF002564
:102AD40034882846FFF7D8FC240444F00304034652
:102AE400094A0A492046FEF75FFF284670BD0725BC
:102AF400EEE70825ECE700BF20000020B406002024
:102B040000F00140BE490000154900006149000081
:102B140038B5012303FA00F0C0F313031BB10D4BC6
:102B24001B68184213D00C4B0025C3F804050B4B4B
:102B340028461C88FFF7A8FC240444F00304034639
:102B4400074A08492046FEF72FFF284638BD0825C6
:102B5400EDE700BFB406002000F001402000002093
:102B64003249000061490000014B1B68184700BF4F
:102B7400B806002038B50A4B98420D460CD1002007
:102B8400FFF766F9074B1C7914B901221D601A710D
:102B94000020FFF75FF90CB9002038BD1120FCE7D5
:102BA40000200040B80600202DE9F7430024064623
:102BB4000F4600F5A0754FF48038A14604F150008B
:102BC4002B68800080B26BB1D6F8043308FA04F2A3
:102BD4001A4207D0C5F800902B680193019BD7E9EE
:102BE400003198470134042C05F10405E6D103B003
:102BF400BDE8F083F7B50579334C0C266E43A7196D
:102C04003B7A002B5ED1A2514A687A60467900680B
:102C14001F46DAB296424BD8020B53B2CE78002B41
:102C2400A8BF03F16047D2B24FEA5313B8BF02F012
:102C34000F0C4FEA4616B4BF244F07F561474FEA1D
:102C44008303F6B203F16043B4BF07F80C6087F85E
:102C5400006303F56143012602F01F0206FA02F243
:102C6400C3F880211A60D0F804254B7822F00302BF
:102C740003F003031343C0F80435D0F808258B7818
:102C840022F0030203F003031343C0F80835D0F81D
:102C940010250B7822F00F0203F00F031343C0F842
:102CA40010350C2303FB05440020267203B0F0BD4D
:102CB40003F15002013340F8227050F822200192AF
:102CC400019AA6E70820F1E7C006002014ED00E011
:102CD400036801221A600379034A0C2101FB0323D0
:102CE40002221A72704700BFC00600200368012246
:102CF400DA60704737B54FF480348C4000687BB19C
:102D040001F150039B000025C550C3580193019B5A
:102D1400C0F8044301F5A87140F8212003B030BD88
:102D2400C0F80843F6E7F0B404689DF81070D4F8CE
:102D3400005240F201168E4025EA0605C4F80052FE
:102D4400D4F800522B43C4F800323B46F0BCFFF7E2
:102D5400D1BF000001490248FFF726BFC00600208A
:102D64000090004001490248FFF71EBFCC06002036
:102D740000A0004000F1804000F5C040002382B074
:102D8400036003680193019B02B0704703681F2B23
:102D940083BF03F01F03036001484FF0A040704756
:102DA4000003005007B502AB43F8040D1846FFF7C3
:102DB400EDFF019B00EB8300D0F8003723F4403390
:102DC400C0F80037D0F8003743EA0141C0F80017D3
:102DD40003B05DF804FB0000054B4FF0FF320728F9
:102DE40043F8202084BF1B1883F84C20704700BF91
:102DF400D806002010B5174C94F85B3043BBFF2174
:102E0400E2180133302B82F82410F9D10021C8B222
:102E1400FFF7E2FF01310929F9D1062200210E480A
:102E240001F096F90D4BE02283F806234022C3F803
:102E340080214FF4BE701A60FFF79CFF084B4FF0DF
:102E44000042C3F80423012384F85B30002010BD42
:102E54000820FCE7D80600202D07002000E100E050
:102E64000060004037B517490D18044695F8240052
:102E7400072809D8FFF7B0FF95F92430124A03F563
:102E8400A273002042F823000B19FF220F4D83F890
:102E94002420E10804F0070301229A406B5C1342EA
:102EA4000ED002A840F8044DFFF770FF019B03F514
:102EB400E073022440F823406B5C23EA02026A5464
:102EC40003B030BDD8060020006000402D0700206C
:102ED400F7B5404F3B18044693F92430002B944631
:102EE40075DA8B78C3F34003002B15BF0025082542
:102EF40008200920854202D1042003B0F0BD57F810
:102F0400252001324FEA850649D1381947F825C0F2
:102F140080F8245013B97B1983F84C408B785A07F6
:102F24001BD4D8073DD502A840F8084DFFF72EFF63
:102F3400009B00EB8300D0F8003723F00203C0F8B5
:102F440000372548E20804F0070C012303FA0CF3C8
:102F540010F802C043EA0C038354887891F800C047
:102F640010F002002AD006F1804303F5C043240286
:102F7400D3F8102522F44F3222F44072C3F81025FE
:102F84004FEA0C4CD3F8102504F47C540CF4403C68
:102F940044EA0C041443C3F810450020ADE701359E
:102FA400A8E702A84A7840F8044DFFF7EFFE019B1A
:102FB40003F5E073920040F82320C2E7083D3D4446
:102FC40095F8544044EA8C1C85F854C095E70820D1
:102FD40093E700BFD80600202D07002073B5224CCC
:102FE4002518064695F92420072A1ADD224492F86A
:102FF4004C309B09032B10D102A840F8046DFFF755
:10300400C5FE019AD0F81035D340DB0707D402215E
:103014003046FFF7C7FE02B070BD012BF7D0032185
:10302400F6E7D3B2072BF6D8930003F1804303F5F8
:10303400C043D3F8100540F00100C3F8100502F1B5
:103044004000800080B2FFF795FE0029E3D095F997
:10305400243054F82330002BDDD0012303FA02F28C
:10306400024BC3F80423D6E7D806002000600040D2
:103074000E4B034493F92420072A02DD0021FFF7B5
:1030840091BED3B2072B10D8930003F1804303F50C
:10309400C043D3F8101521F00101C3F81015012322
:1030A40003FA02F2024BC3F808237047D806002043
:1030B40000600040F7B50446FFF7DAFF1749184EE1
:1030C4000B19E50893F92430DAB2072A9FBF03F5F8
:1030D400A273144A002042F8230004F007030122DB
:1030E4009A40735D13420ED002A8022740F8044DA3
:1030F400FFF74CFE019B03F5E07340F82370735D0A
:1031040023EA02027255214491F82400FFF764FE79
:10311400FF2381F8243003B0F0BD00BFD80600209F
:103124002D0700200060004070B50C4D00242E4691
:103134002B1993F924309A1C09D12046FFF792FEEB
:103144000134302CF4D1002386F85B3070BD002BA1
:10315400F6DB2046FFF7AEFFF2E700BFD8060020FB
:10316400084B184490F92400C3B2072B9DBF40308C
:10317400800080B24FF4BE7000F1804000F5C04082
:10318400704700BFD80600202DE9F047002488B01E
:10319400CDE902445D4A5E4E5E4D01211368A2F5FD
:1031A400C040012B80B206D1D6F804330B4202D0C2
:1031B400FFF7E0FD0C430432AA424FEA4101EDD18E
:1031C400554B1B68012B0ED14FF4BE70FFF7D2FD97
:1031D4004FF0A04344F00044D3F8103502934F4B12
:1031E400D3F81035039314F0FF0F1AD04C4F002579
:1031F4000126344210D0AB0003F1804303F5C043F1
:10320400D3F81005D3F8101557F82530C0F305206E
:10321400C1F3014103B198470135082D4FEA460631
:10322400E7D1002C31DA04AE0023049373604FF02D
:10323400FF33CDE906333A4FDFF8E0904FF0010851
:1032440097F95430DAB2013322F0C0041DD008A833
:10325400E30800EB030A02F007011AF8080C08FA65
:1032640001F1084211D03819920990F9240057F855
:1032740020509DB9032A08D112E04FF0010A1146EB
:103284002046A847BAF1000F27D108B0BDE8F0875F
:10329400022BFAD1032A33D1114619E0032A02D1B1
:1032A400F05C0843F05408A840F81C4DFFF76EFD8D
:1032B400019B03F5E07350F823301AF8180C084208
:1032C400C3F30143E4D1032BDFD1032A18D1022134
:1032D4002046FFF767FD002DCFD14FF0A0430299A0
:1032E400D3F81025D9F81035914202D103999942A7
:1032F400CBD002920393049A059B069207939FE70F
:10330400002DC2D04FF0000AB9E700BF00610040B1
:1033140000600040206100407C61004000030050D8
:10332400D80600207FB503788DF8043043680293F3
:1033340083688DF80C30C368049303698DF81430E6
:10334400054A064B01A853F8213052F8211098473A
:1033540007B05DF804FB00BF3407002044070020D9
:10336400F0B50646944616F8047B194A42F827C07D
:10337400184A42F82730184B0C460FCB85B06D46DF
:1033840085E80F0023788DF8003063788DF80130DC
:10339400A3788DF80230E3788DF8033023798DF823
:1033A400053063798DF80630A3680293237B8DF88A
:1033B4000C30BCF1000F637B8DF80D30074A3B469F
:1033C40008BF00222946304600F056F805B0F0BD8B
:1033D4004407002034070020104A0000293300006D
:1033E4001F2886BF00F01F00044A4FF0A0420123AB
:1033F40003FA00F0C2F80805704700BF000300504C
:103404001F2886BF00F01F00044A4FF0A04201238A
:1034140003FA00F0C2F80C05704700BF0003005027
:10342400114BD3F8183107B5D3B1104B1049002212
:103434001A60C87F1B680193FF28019B03D08B7F10
:103444005BB1FFF7DDFF00234B770B72D1E900314D
:10345400084803B05DF804EB1847FFF7C1FFF2E733
:1034640003B05DF804FB00BF003000401831004099
:10347400540700205C0700202DE9F74F0679794DA9
:1034840001934FF0240909FB06F905EB090A934659
:103494009AF81C2080460C46002A40F0DE8007681B
:1034A40071493846FFF766FB0146002840F0D78093
:1034B400019BCAF80430237B45F809B0012B20781E
:1034C40000F2B980FFF79CFF23781F2B86BF03F01F
:1034D4001F03664A4FF0A04203F5E073012042F84F
:1034E400230094F80190B9F1FF0F00F0A78048463B
:1034F400FFF786FFB9F11F0F8BBF09F01F034B467F
:103504005A4A4FF0A04203F5E073032042F8230027
:10351400A378FF2B00F095801F2B8BBF03F01F02B5
:103524001A4652484FF0A04002F5E0724FF0040CE6
:1035340040F822C09A4698F80420242000FB025246
:1035440082F82030E078FF281BD02379002B7BD031
:10355400FFF756FFE2781F2A134686BF02F01F03C7
:1035640042484FF0A04003F5E0734FF0030C40F8DD
:1035740023C098F80430242000FB0353DA7722791F
:103584009A772378C7F80835A368C7F80C95C7F865
:1035940010A5C7F82435637B227B003318BF0123B1
:1035A400022A54D0032A55D0012A01D143F0020340
:1035B400C7F85435A379C7F8C03524237343EB58AF
:1035C40013B14022C7F804230722C7F800253BB3F0
:1035D400D8F800206079120B53B2002BA8BF03F176
:1035E4006044D2B24FEA5313B8BF02F00F074FEA58
:1035F4004010B4BF1E4C04F561444FEA8303C0B2CB
:1036040003F16043B4BFE05584F8000303F561435C
:1036140002F01F02012000FA02F2C3F880211A60AE
:10362400242303FB065500236B7701232B770846DD
:1036340003B0BDE8F08FFFF7D3FE45E74FF0FF3945
:1036440066E74FF0FF3A76E7FFF7CAFE82E743F0FA
:103654000403ADE743F00603AAE70821E7E71121D5
:10366400E5E700BF540700202534000000030050A4
:1036740014ED00E02DE9F3410579424E24236B4318
:103684001446F2180F46517F8046002978D1F3582A
:1036940023B114F0140F04BF0123537797E80F00EC
:1036A4004FF0240C0CFB056C0CF10C0E8EE80F0093
:1036B4009CF81F00FF2804D09CF81E30C3B1FFF70C
:1036C4008FFE396821B101F06043B3F1005F06D188
:1036D400BA6882B102F06043B3F1005F0BD02423D7
:1036E40003FB056500236B77102002B0BDE8F08171
:1036F400FFF786FEE5E7D8F800307868C3F844158C
:10370400C3F84805F968C3F834250022C3F838150E
:10371400C3F81821D3F818210192019A14F0010278
:1037240018BF0122C3F8502514F0020218BF012269
:10373400C3F8402522075CBF01221A6124226A4390
:10374400B25892B9D3F81821002AFBD0242303FBE2
:103754000565E87FFF2803D0AC7F1CB1FFF750FE5E
:103764000020C2E7FFF73CFEFAE714F004004FF034
:10377400400202D0C3F80823F2E7C3F80423B4E7F5
:103784001120B2E75407002070470000084B094895
:10379400196810B54A1C1A60D0F840450648292A11
:1037A40008BF002240F8214008BF1A6010BD00BFC6
:1037B400AC07002000900040C0070020034B0449E0
:1037C4001888000440F00300FEF7E0B82000002051
:1037D4005C4A00004FF0A0430322C3F85827704707
:1037E4004FF0A0434FF48002C3F80825704700004F
:1037F4002DE9F043624D63492888634C0004ABB063
:1038040040F00300FEF7C2F8FFF78EFC0220FEF73B
:103814004FFA002302AF18460121E2185268653AB4
:10382400302A8CBF02460A46DA510433A02BF4D165
:10383400002301A81A46194680464FF4004C50F85C
:10384400044F4CFA01F604FB06220131046C1029E2
:1038540004FB0633F3D14D4EC6E90023002121AC0D
:1038640008464FF0800949FA00FC54F804EF01308F
:1038740008280EFB0C11F6D14548464C0160C2F3F2
:10388400072050FA82F2C3F30720024452FA83F36A
:1038940031EA03031EBF4DF6AD624BF6EF63C6E992
:1038A4000023288832683C49000440F00300FEF7F6
:1038B40071F8288872683949000440F00300FEF763
:1038C40069F833682888C3F30722DBB2636073683E
:1038D4002260C3F307210004DBB2A16040F00300BF
:1038E4002F49E360FEF756F8288862682D492E4E6A
:1038F400000440F00300FEF74DF82888A2682B4925
:10390400000440F00300FEF745F82888E2682849DF
:10391400000440F00300FEF73DF823688DF8003002
:1039240063688DF80130A3688DF80230E3688DF880
:103934000330002428881DF8043000042246314650
:1039440040F003000134FEF72FF8042CF2D10022DA
:1039540039461848CDF808D0CDE903480594FFF757
:1039640089FE08B1FEF71EFAFFF734FFFFF738FFB0
:10397400A4220021044800F0EBFB2BB0BDE8F08347
:1039840020000020704A0000C007002080070020AB
:103994007C070020B00700207E4A00008D4A00000A
:1039A4009F4A0000B24A0000F14A0000C54A0000E4
:1039B400DB4A00003C4A00000B4BD3F8402192B193
:1039C4000A4A012111700022C3F840214FF0A0429D
:1039D400D2F80435D94301F4800103F48003C2F81A
:1039E4000815C2F80C3570470080004078070020A5
:1039F4000D4B0E4A10B50021012411701C64C3F84C
:103A040040114FF48031C3F80413D3F8401508442F
:103A1400C3F84005117821B14FF48032C3F808236C
:103A240010BD20BFF6E700BF0080004078070020EB
:103A34004FF080430022C3F8002101221A60D3F81A
:103A44000021002AFBD00022C3F8042101229A603D
:103A54004FF08042D2F80431002BFBD00D4B0022F2
:103A6400C3F804250422C3F810250322C3F808254B
:103A74004FF0FF32C3F808234FF48032C3F8042315
:103A8400054A4FF48071C2F8801111600122DA6096
:103A94001A6070470080004000E100E007B502238F
:103AA4008DF804308DF8063003238DF80530FFF7C8
:103AB4003BFBFFF79FF908B1FEF774F9074A01A928
:103AC4001620FFF705FA08B1FEF76CF9012116205C
:103AD400FFF784FA03B05DF804FB00BF91370000E0
:103AE40038B51A4D2A680AB1292A11D14FF47A70CF
:103AF400FFF77EFF4FF47A70FFF77AFF5020FFF74D
:103B040077FF0320FEF7D4F8BDE83840FFF7C6BFBF
:103B14000F4B10491888000440F00300FDF73AFFEA
:103B240000240D48FFF7E2F82C60FFF7FDFA0120AE
:103B3400FEF7BEF8FFF74EFEFFF752FE2146A42221
:103B44000648BDE8384000F003BB00BFAC070020C6
:103B540020000020064B0000504A0000C00700204F
:103B6400F0B54FF4004187B00020FDF747FD08B1E0
:103B7400FEF718F90120FEF7BFF80220FEF7BCF8A3
:103B840002ACFDF76FFC042300258DF808304A4A87
:103B94004A488DF80950032321468DF80A30FFF76F
:103BA40029F808B1FEF7FEF84448FFF791F8072317
:103BB4008DF808500395424A42488DF80B30012590
:103BC40021468DF809508DF80A50FFF713F82B465B
:103BD400292200213B480095FFF7A5F83948FFF753
:103BE40077F8FEF73FFE08B1FEF7DCF8364A3748AF
:103BF4000121FEF767FEFFF7EDFDFFF7F1FDFFF78B
:103C040017FFFEF7B3FE08B1FEF7CCF83048FEF715
:103C1400B7FE08B1FEF7C6F82E48FEF7B1FE08B1AC
:103C2400FEF7C0F82A4D16202E78FFF799FA2A4A93
:103C340001463046FEF7F0FE2E4608B1FEF7B2F814
:103C4400244D16202F78FFF78BFA244A0146384674
:103C5400FEF7E2FE08B1FEF7A5F821492878FEF741
:103C64001DFF08B1FEF79EF83078FEF751FF287863
:103C7400FEF74EFF1B4B0FCB84E80F001A4B029349
:103C84001A4A1B4800232146FFF76AFB08B1FEF7D6
:103C940089F80020FEF726F80028FAD00020FEF765
:103CA40007F800224FF420311248FEF71DFE08B138
:103CB400FEF778F8FEE700BF8D370000484A0000A1
:103CC400F5370000504A0000E53A0000584A000069
:103CD400880700208907002008A000404090004089
:103CE4000C900040284A000014110F18C13700003E
:103CF400384A00008C0700200369C1688B429DBFCD
:103D04008268D21802F1FF3203F1FF3394BF501AD4
:103D1400581A70472DE9F041D0E902670446F61BB2
:103D24004068964288461546384405D900F0E7F9BC
:103D34003D44E560BDE8F0813246AD1B00F0DFF99B
:103D44002A4608EB0601606800F0D9F9F1E72DE98D
:103D5400F843C5680646894617464FF0000834699B
:103D6400B3687068A54228BFE418013C621B5C1B61
:103D7400BC4228BF3C46944228BF144649462844C6
:103D8400224600F0BCF9B3682544AB4208BF0025C5
:103D94003F1BA044A144F560E1D14046BDE8F8834F
:103DA40010B5114C114AA2610223C4E90433104B2B
:103DB400E361A2644FF400730E4A2362E2640023B9
:103DC40010220D49A362E01D6362E362A36563658B
:103DD400E365226500F0EFF90849204600F0EBF9AD
:103DE4002023A37110BD00BF640800201D4B0000F8
:103DF400EC080020DC080020264B00002A4B0000C1
:103E0400F8B5184C182300FB033503FB0040254488
:103E1400C46A012C0F46164611D003D3022C1BD0C2
:103E240000240AE02846FFF767FF864205D8324699
:103E340039462846FFF76EFF34462046F8BD28462B
:103E4400FFF75AFF8642344628BF044622463946C5
:103E54002846FFF75FFFF0E72846BDE8F840FFF784
:103E640076BF00BF64080020FFF79ABF054B1B68AC
:103E7400082B01BF044B1868B0FA80F0400918BF42
:103E840000207047300100103401001008B54FF0D5
:103E940080430022C3F80C21C3F81021C3F838254D
:103EA4004FF0805203F54043D2F80414C3F82015B0
:103EB400D2F80814C3F82415D2F80C14C3F8281542
:103EC400D2F81014C3F82C15D2F81414C3F8301512
:103ED400D2F81814C3F83415D2F81C14C3F84015DA
:103EE400D2F82014C3F84415D2F82414C3F84815A2
:103EF400D2F82814C3F84C15D2F82C14C3F8501572
:103F0400D2F83014C3F85415D2F83414C3F8601539
:103F1400D2F83814C3F86415D2F83C14C3F8681501
:103F2400D2F84014C3F86C15D2F84424C3F87025B1
:103F3400FFF79CFF10B1384B384A1A60FFF796FF21
:103F440018B1374BFB22C3F81825FFF78FFF48B190
:103F54003449354B0A681B6822F00F0203F00F0343
:103F640013430B60FFF782FF18B1304B4FF400721C
:103F74001A604FF08043D3F80024D20744BF6FF097
:103F84000102C3F800242A4AD2F8883043F47003AB
:103F9400C2F88830BFF34F8FBFF36F8F4FF01023F9
:103FA400D3F80022002A03DBD3F80432002B2FDAE3
:103FB400204B0122C3F80425D3F80024002AFBD0A7
:103FC4004FF010221221C2F80012D3F80024002A64
:103FD400FBD04FF010231222C3F80422154B1A46CB
:103FE400D3F800140029FBD00021C3F80415D2F83B
:103FF4000034002BFBD0BFF34F8F0D490E4BCA6822
:1040040002F4E0621343CB60BFF34F8F00BFFDE7C0
:104014000A4B0B4A1A6008BD8C56004048810300C5
:1040240000F00040E40E00405802001040960240A8
:1040340000ED00E000E001400400FA053800002033
:104044000090D0037F2805D8034B185C034B5B5CBE
:104054001840704700207047344B0000B44B0000F8
:10406400A0F16103192B98BF20387047A0F14103D8
:10407400192B98BF203070477F2805D8034B185C54
:10408400034B5B5C1840704700207047344B0000C2
:10409400B44B0000A0F16103192B98BF203870477E
:1040A400A0F14103192B98BF203070477F299ABF94
:1040B400017001206FF02E0070475AB10A787F2AF0
:1040C4000AD800B10260002119605960501A18BF63
:1040D40001207047002070476FF02E0070470000E9
:1040E40008B5034B5B689B681B68984708BD00BF15
:1040F4003C00002008B50921FFF7F2FF08BD844603
:1041040040EA010313F0030F18D18446202A0BD38D
:104114002DE9F007B1E8F807A0E8F807A2F12002BA
:10412400202AF7D2BDE8F007042A07D351F8043B4C
:1041340040F8043BA2F10402042AF7D2002A05D075
:1041440011F8013B00F8013B013AF9D16046704790
:104154008446002A2DD010F0030F04D000F8011B70
:10416400013A26D0F7E7C9B241EA012141EA014107
:10417400202A12D3A2F120022DE9F0030B460C46AB
:104184000D460E460F4688468946A0E8FA03203AB3
:10419400FBD2BDE8F00320320BD0042A05D340F84B
:1041A400041B043A05D0042AF9D200F8011B013A91
:1041B400FBD160467047024610F0030F16D111F090
:1041C400030F13D12DE9F0004FF001374FF0803386
:1041D40051F8044BA4EB070525EA04051D4002D160
:1041E40042F8044BF4E7A1F10401F0BC11F8013BDF
:1041F40002F8013B002BF9D1704700F1010110F0E6
:10420400030F11D010F8012B002A23D010F0030F54
:104214000AD010F8012B002A1CD010F0030F03D091
:1042240010F8012B002A15D02DE970004FF001324F
:104234004FF0803350F8044BA4EB020525EA040543
:104244001D4000D1F6E7A0F1040070BC10F8012B6A
:0A425400002AFBD1A0EB0100704727
:10426000024A000000000000ED49000000000000CC
:10427000204A000000000000F1490000000000009A
:10428000F749000000000000FC49000000000000A9
:104290001543000000000303194300000000000361
:0842A000094A000000000000C3
:1042A800940000205C010020640100209C00002094
:0842B8002400002018000000A2
:1042C00000000000000000000000000000000000EE
:1042D00000000000000000000000000000000000DE
:0442E00000000000DA
:1042E4000000000000000000000000000338FDD8BA
:1042F40070470000291300009513000025130000E7
:104304004261636B656E647320666C757368656483
:10431400006170700062616C6C6F632E6C6F675F1C
:104324006D656D706F6F6C005F430000A843000003
:1043340067430000B0430000B8430000C0430000DE
:10434400C8430000D0430000D84300002025303289
:104354007800202020007C002563001B5B306D006A
:104364002573001B5B313B33316D0025734C6F6744
:10437400732064726F707065642028256429257326
:104384000D0A003C25733E2025733A2000000000EE
:1043940000000000FD430000E0430000E84300008B
:1043A400ED4300001B5B313B33306D001B5B313B45
:1043B40033326D001B5B313B33336D001B5B313B90
:1043C40033346D001B5B313B33356D001B5B313B7C
:1043D40033366D001B5B313B33376D007761726E92
:1043E400696E6700696E666F0064656275670006D2
:1043F40008290C466174616C206572726F720053F7
:10440400797374656D20726573657400303132336D
:10441400343536373839414243444546556E6B6E20
:104424006F776E206572726F7220636F646500002F
:10443400000000004C450000010000005845000049
:1044440002000000764500000300000097450000CC
:1044540004000000AA45000005000000BB45000060
:1044640006000000CF45000007000000E7450000FB
:1044740008000000FF450000090000001746000086
:104484000A000000304600000B000000484600000F
:104494000C0000005F4600000D00000073460000A1
:1044A4000E000000854600000F0000009446000046
:1044B40010000000A846000011000000BF460000E4
:1044C40080000000CE46000081000000EF4600009E
:1044D400820000000B470000830000002747000013
:1044E4008400000045470000850000006647000086
:1044F400860000008B47000090000000A2470000E7
:1045040091000000C047000092000000DE47000058
:1045140000820000F34700000182000011480000FF
:10452400028200002D480000008400004948000079
:10453400018400006D4800000284000097480000D8
:1045440003840000BC4800004E52465F5355434369
:10455400455353004E52465F4552524F525F535695
:10456400435F48414E444C45525F4D495353494E75
:1045740047004E52465F4552524F525F534F465486
:104584004445564943455F4E4F545F454E41424C66
:104594004544004E52465F4552524F525F494E5475
:1045A40045524E414C004E52465F4552524F525F67
:1045B4004E4F5F4D454D004E52465F4552524F524D
:1045C4005F4E4F545F464F554E44004E52465F4532
:1045D40052524F525F4E4F545F535550504F5254A6
:1045E4004544004E52465F4552524F525F494E5623
:1045F400414C49445F504152414D004E52465F4543
:1046040052524F525F494E56414C49445F535441B4
:104614005445004E52465F4552524F525F494E56E2
:10462400414C49445F4C454E475448004E52465F06
:104634004552524F525F494E56414C49445F464C95
:10464400414753004E52465F4552524F525F494EC6
:1046540056414C49445F44415441004E52465F45E3
:1046640052524F525F444154415F53495A45004EA0
:1046740052465F4552524F525F54494D454F55542F
:10468400004E52465F4552524F525F4E554C4C00BD
:104694004E52465F4552524F525F464F5242494432
:1046A40044454E004E52465F4552524F525F494E6A
:1046B40056414C49445F41444452004E52465F4582
:1046C40052524F525F42555359004E52465F455223
:1046D400524F525F4D4F44554C455F4E4F545F49C6
:1046E4004E495449414C495A4544004E52465F454F
:1046F40052524F525F4D555445585F494E49545F8D
:104704004641494C4544004E52465F4552524F5231
:104714005F4D555445585F4C4F434B5F4641494CA0
:104724004544004E52465F4552524F525F4D5554D8
:1047340045585F554E4C4F434B5F4641494C4544A9
:10474400004E52465F4552524F525F4D55544558A4
:104754005F434F4E445F494E49545F4641494C457F
:1047640044004E52465F4552524F525F4D4F44559E
:104774004C455F414C52454144595F494E49544967
:10478400414C495A4544004E52465F4552524F529D
:104794005F53544F524147455F46554C4C004E526F
:1047A400465F4552524F525F4150495F4E4F545FEE
:1047B400494D504C454D454E544544004E52465F7C
:1047C4004552524F525F464541545552455F4E4FF4
:1047D400545F454E41424C4544004E52465F45525B
:1047E400524F525F494F5F50454E44494E47004E29
:1047F40052465F4552524F525F4452565F54574996
:104804005F4552525F4F56455252554E004E5246E6
:104814005F4552524F525F4452565F5457495F4569
:1048240052525F414E41434B004E52465F455252F5
:104834004F525F4452565F5457495F4552525F444A
:104844004E41434B004E52465F4552524F525F42D7
:104854004C455F495053505F52585F504B545F541E
:1048640052554E4341544544004E52465F455252C0
:104874004F525F424C455F495053505F4348414E4D
:104884004E454C5F414C52454144595F455849534C
:104894005453004E52465F4552524F525F424C456C
:1048A4005F495053505F4C494E4B5F444953434F0B
:1048B4004E4E4543544544004E52465F4552524F76
:1048C400525F424C455F495053505F504545525FDB
:1048D40052454A4543544544000000000338FDD87E
:1048E40070476E7266785F7070695F6368616E6E40
:1048F400656C5F616C6C6F63006E7266785F70707C
:10490400695F6368616E6E656C5F61737369676E1E
:10491400006E7266785F7070695F6368616E6E6561
:104924006C5F666F726B5F61737369676E006E7242
:1049340066785F7070695F6368616E6E656C5F65F1
:104944006E61626C6500416C6C6F636174656420B8
:104954006368616E6E656C3A2025642E0046756E40
:104964006374696F6E3A2025732C206572726F72BE
:1049740020636F64653A2025732E00417373696761
:104984006E6564206368616E6E656C3A2025642CE4
:10499400206576656E7420656E6420706F696E7430
:1049A4003A2025782C207461736B20656E64207026
:1049B4006F696E743A2025782E00466F726B206101
:1049C400737369676E6564206368616E6E656C3AC3
:1049D4002025642C207461736B20656E6420706FD5
:1049E400696E743A2025642E005052530054494D88
:1049F40045520055415254005541525445004750C8
:104A0400494F544500636C6F636B0000FFFFFFFF69
:104A14000007FF0000000040000000005350494D13
:104A240000000000FFFFFFFF07FF00000000004040
:104A34000000000000000000003000400000000002
:104A440001000000009000400004000000A00040AD
:104A5400010400008C0700205472616E7366657255
:104A640020636F6D706C657465642E004C696D69AC
:104A74007420526561636865640048554D49444932
:104A84005459203D202530640054454D5045524131
:104A940054555245203D202530640048554D494425
:104AA4004954595F4D5342203D20253064004855F8
:104AB4004D49444954595F4C5342203D20253064AC
:104AC4000054454D50455241545552455F4D534253
:104AD400203D202530640054454D504552415455E5
:104AE40052455F4C5342203D20253064006D5F7475
:104AF400785F627566665B2530645D203D202530F5
:104B040064006E756D6265725F6F665F6576656E73
:104B14007473203D20253064005465726D696E61A4
:104B24006C0052545400534547474552000000005E
:104B34002020202020202020206828282828202009
:104B44002020202020202020202020202020202061
:104B54004810101010101010101010101010101019
:104B640084848484848484848484101010101010B9
:104B74001081818181818101010101010101010112
:104B840001010101010101010101011010101010C6
:104B940010828282828282020202020202020202E3
:104BA400020202020202020202020210101010208B
:104BB400000703200417020108571040800000007A
:104BC400684D00002C4C0000404D000053756E00F1
:104BD4004D6F6E0054756500576564005468750028
:104BE4004672690053617400000000004A616E005F
:104BF400466562004D617200417072004D6179003A
:104C04004A756E004A756C00417567005365700003
:104C14004F6374004E6F760044656300000000002B
:104C2400414D00504D000000644D0000604D0000F7
:104C3400604D0000604D0000604D0000604D0000BC
:104C4400604D0000604D0000604D0000604D0000AC
:104C5400FFFFFFFFFFFFFFFFFFFFFFFFFFFF00005E
:104C6400A04C0000D04B0000DC4C0000F04B0000D6
:104C7400244C0000844C0000344D0000904C000093
:104C8400256D2F25642F257900000000256120253E
:104C940062202565202554202559000053756E6433
:104CA4006179004D6F6E6461790054756573646158
:104CB40079005765646E6573646179005468757230
:104CC4007364617900467269646179005361747533
:104CD40072646179000000004A616E756172790046
:104CE4004665627275617279004D61726368004154
:104CF4007072696C004D6179004A756E65004A7581
:104D04006C79004175677573740053657074656DD3
:104D1400626572004F63746F626572004E6F7665F0
:104D24006D62657200446563656D626572000000C2
:104D340025483A254D3A255300000000494000001B
:104D440065400000714000007D4000009940000073
:104D5400A5400000B1400000BF400000000000007A
:104D64002E00000043000000504F5349580000003B
:104D7400F842000000000000000000000090D00392
:104D8400C44B0000C44B0000C44B0000C44B0000E3
:044D9400C44B00000C
:040000030000126186
:00000001FF
